{
  "_format": "hh-sol-artifact-1",
  "contractName": "AccessKey",
  "sourceName": "contracts/AccessKey.sol",
  "abi": [
    {
      "inputs": [],
      "stateMutability": "nonpayable",
      "type": "constructor"
    },
    {
      "anonymous": false,
      "inputs": [
        {
          "indexed": true,
          "internalType": "address",
          "name": "owner",
          "type": "address"
        },
        {
          "indexed": true,
          "internalType": "address",
          "name": "approved",
          "type": "address"
        },
        {
          "indexed": true,
          "internalType": "uint256",
          "name": "tokenId",
          "type": "uint256"
        }
      ],
      "name": "Approval",
      "type": "event"
    },
    {
      "anonymous": false,
      "inputs": [
        {
          "indexed": true,
          "internalType": "address",
          "name": "owner",
          "type": "address"
        },
        {
          "indexed": true,
          "internalType": "address",
          "name": "operator",
          "type": "address"
        },
        {
          "indexed": false,
          "internalType": "bool",
          "name": "approved",
          "type": "bool"
        }
      ],
      "name": "ApprovalForAll",
      "type": "event"
    },
    {
      "anonymous": false,
      "inputs": [
        {
          "indexed": true,
          "internalType": "address",
          "name": "previousOwner",
          "type": "address"
        },
        {
          "indexed": true,
          "internalType": "address",
          "name": "newOwner",
          "type": "address"
        }
      ],
      "name": "OwnershipTransferred",
      "type": "event"
    },
    {
      "anonymous": false,
      "inputs": [
        {
          "indexed": true,
          "internalType": "address",
          "name": "to",
          "type": "address"
        },
        {
          "indexed": true,
          "internalType": "uint256",
          "name": "tokenId",
          "type": "uint256"
        }
      ],
      "name": "ProxyMinted",
      "type": "event"
    },
    {
      "anonymous": false,
      "inputs": [
        {
          "indexed": true,
          "internalType": "address",
          "name": "from",
          "type": "address"
        },
        {
          "indexed": true,
          "internalType": "address",
          "name": "to",
          "type": "address"
        },
        {
          "indexed": true,
          "internalType": "uint256",
          "name": "tokenId",
          "type": "uint256"
        }
      ],
      "name": "Transfer",
      "type": "event"
    },
    {
      "inputs": [
        {
          "internalType": "address",
          "name": "sender",
          "type": "address"
        }
      ],
      "name": "addSenderToWhitelist",
      "outputs": [],
      "stateMutability": "nonpayable",
      "type": "function"
    },
    {
      "inputs": [
        {
          "internalType": "address",
          "name": "to",
          "type": "address"
        },
        {
          "internalType": "uint256",
          "name": "tokenId",
          "type": "uint256"
        }
      ],
      "name": "approve",
      "outputs": [],
      "stateMutability": "nonpayable",
      "type": "function"
    },
    {
      "inputs": [
        {
          "internalType": "address",
          "name": "owner",
          "type": "address"
        }
      ],
      "name": "balanceOf",
      "outputs": [
        {
          "internalType": "uint256",
          "name": "",
          "type": "uint256"
        }
      ],
      "stateMutability": "view",
      "type": "function"
    },
    {
      "inputs": [
        {
          "internalType": "uint256",
          "name": "tokenId",
          "type": "uint256"
        }
      ],
      "name": "getApproved",
      "outputs": [
        {
          "internalType": "address",
          "name": "",
          "type": "address"
        }
      ],
      "stateMutability": "view",
      "type": "function"
    },
    {
      "inputs": [
        {
          "internalType": "address",
          "name": "from",
          "type": "address"
        }
      ],
      "name": "getNonce",
      "outputs": [
        {
          "internalType": "uint256",
          "name": "",
          "type": "uint256"
        }
      ],
      "stateMutability": "view",
      "type": "function"
    },
    {
      "inputs": [
        {
          "internalType": "address",
          "name": "owner",
          "type": "address"
        },
        {
          "internalType": "address",
          "name": "operator",
          "type": "address"
        }
      ],
      "name": "isApprovedForAll",
      "outputs": [
        {
          "internalType": "bool",
          "name": "",
          "type": "bool"
        }
      ],
      "stateMutability": "view",
      "type": "function"
    },
    {
      "inputs": [
        {
          "internalType": "address",
          "name": "sender",
          "type": "address"
        }
      ],
      "name": "isWhitelisted",
      "outputs": [
        {
          "internalType": "bool",
          "name": "",
          "type": "bool"
        }
      ],
      "stateMutability": "view",
      "type": "function"
    },
    {
      "inputs": [],
      "name": "name",
      "outputs": [
        {
          "internalType": "string",
          "name": "",
          "type": "string"
        }
      ],
      "stateMutability": "view",
      "type": "function"
    },
    {
      "inputs": [],
      "name": "owner",
      "outputs": [
        {
          "internalType": "address",
          "name": "",
          "type": "address"
        }
      ],
      "stateMutability": "view",
      "type": "function"
    },
    {
      "inputs": [
        {
          "internalType": "uint256",
          "name": "tokenId",
          "type": "uint256"
        }
      ],
      "name": "ownerOf",
      "outputs": [
        {
          "internalType": "address",
          "name": "",
          "type": "address"
        }
      ],
      "stateMutability": "view",
      "type": "function"
    },
    {
      "inputs": [
        {
          "components": [
            {
              "internalType": "address",
              "name": "sender",
              "type": "address"
            },
            {
              "internalType": "address",
              "name": "proxy",
              "type": "address"
            },
            {
              "internalType": "uint256",
              "name": "amount",
              "type": "uint256"
            },
            {
              "internalType": "uint256",
              "name": "nonce",
              "type": "uint256"
            }
          ],
          "internalType": "struct ProxyMintableERC721.MintRequest",
          "name": "req",
          "type": "tuple"
        },
        {
          "internalType": "bytes",
          "name": "signature",
          "type": "bytes"
        }
      ],
      "name": "proxyMint",
      "outputs": [],
      "stateMutability": "nonpayable",
      "type": "function"
    },
    {
      "inputs": [
        {
          "internalType": "address",
          "name": "sender",
          "type": "address"
        }
      ],
      "name": "removeSenderFromWhitelist",
      "outputs": [],
      "stateMutability": "nonpayable",
      "type": "function"
    },
    {
      "inputs": [],
      "name": "renounceOwnership",
      "outputs": [],
      "stateMutability": "nonpayable",
      "type": "function"
    },
    {
      "inputs": [
        {
          "internalType": "address",
          "name": "from",
          "type": "address"
        },
        {
          "internalType": "address",
          "name": "to",
          "type": "address"
        },
        {
          "internalType": "uint256",
          "name": "tokenId",
          "type": "uint256"
        }
      ],
      "name": "safeTransferFrom",
      "outputs": [],
      "stateMutability": "nonpayable",
      "type": "function"
    },
    {
      "inputs": [
        {
          "internalType": "address",
          "name": "from",
          "type": "address"
        },
        {
          "internalType": "address",
          "name": "to",
          "type": "address"
        },
        {
          "internalType": "uint256",
          "name": "tokenId",
          "type": "uint256"
        },
        {
          "internalType": "bytes",
          "name": "data",
          "type": "bytes"
        }
      ],
      "name": "safeTransferFrom",
      "outputs": [],
      "stateMutability": "nonpayable",
      "type": "function"
    },
    {
      "inputs": [
        {
          "internalType": "address",
          "name": "operator",
          "type": "address"
        },
        {
          "internalType": "bool",
          "name": "approved",
          "type": "bool"
        }
      ],
      "name": "setApprovalForAll",
      "outputs": [],
      "stateMutability": "nonpayable",
      "type": "function"
    },
    {
      "inputs": [
        {
          "internalType": "bytes4",
          "name": "interfaceId",
          "type": "bytes4"
        }
      ],
      "name": "supportsInterface",
      "outputs": [
        {
          "internalType": "bool",
          "name": "",
          "type": "bool"
        }
      ],
      "stateMutability": "view",
      "type": "function"
    },
    {
      "inputs": [],
      "name": "symbol",
      "outputs": [
        {
          "internalType": "string",
          "name": "",
          "type": "string"
        }
      ],
      "stateMutability": "view",
      "type": "function"
    },
    {
      "inputs": [
        {
          "internalType": "uint256",
          "name": "tokenId",
          "type": "uint256"
        }
      ],
      "name": "tokenURI",
      "outputs": [
        {
          "internalType": "string",
          "name": "",
          "type": "string"
        }
      ],
      "stateMutability": "view",
      "type": "function"
    },
    {
      "inputs": [
        {
          "internalType": "address",
          "name": "from",
          "type": "address"
        },
        {
          "internalType": "address",
          "name": "to",
          "type": "address"
        },
        {
          "internalType": "uint256",
          "name": "tokenId",
          "type": "uint256"
        }
      ],
      "name": "transferFrom",
      "outputs": [],
      "stateMutability": "nonpayable",
      "type": "function"
    },
    {
      "inputs": [
        {
          "internalType": "address",
          "name": "newOwner",
          "type": "address"
        }
      ],
      "name": "transferOwnership",
      "outputs": [],
      "stateMutability": "nonpayable",
      "type": "function"
    },
    {
      "inputs": [
        {
          "components": [
            {
              "internalType": "address",
              "name": "sender",
              "type": "address"
            },
            {
              "internalType": "address",
              "name": "proxy",
              "type": "address"
            },
            {
              "internalType": "uint256",
              "name": "amount",
              "type": "uint256"
            },
            {
              "internalType": "uint256",
              "name": "nonce",
              "type": "uint256"
            }
          ],
          "internalType": "struct ProxyMintableERC721.MintRequest",
          "name": "req",
          "type": "tuple"
        },
        {
          "internalType": "bytes",
          "name": "signature",
          "type": "bytes"
        }
      ],
      "name": "verify",
      "outputs": [
        {
          "internalType": "bool",
          "name": "",
          "type": "bool"
        }
      ],
      "stateMutability": "view",
      "type": "function"
    }
  ],
  "bytecode": "0x6101406040523480156200001257600080fd5b506040518060400160405280600a815260200169416363657373204b657960b01b81525060405180604001604052806002815260200161414b60f01b815250604051806040016040528060098152602001684163636573734b657960b81b815250604051806040016040528060018152602001603160f81b815250818185858160009081620000a2919062000265565b506001620000b1828262000265565b505050620000ce620000c86200016a60201b60201c565b6200016e565b815160208084019190912082518383012060e08290526101008190524660a0818152604080517f8b73c3c69bb8fe3d512ecc4cf759cc79239f7b179b0ffacaa9a75d522b39400f81880181905281830187905260608201869052608082019490945230818401528151808203909301835260c00190528051940193909320919290916080523060c0526101205250620003319650505050505050565b3390565b600680546001600160a01b038381166001600160a01b0319831681179093556040519116919082907f8be0079c531659141344cd1fd0a4f28419497f9722a3daafe3b4186f6b6457e090600090a35050565b634e487b7160e01b600052604160045260246000fd5b600181811c90821680620001eb57607f821691505b6020821081036200020c57634e487b7160e01b600052602260045260246000fd5b50919050565b601f8211156200026057600081815260208120601f850160051c810160208610156200023b5750805b601f850160051c820191505b818110156200025c5782815560010162000247565b5050505b505050565b81516001600160401b03811115620002815762000281620001c0565b6200029981620002928454620001d6565b8462000212565b602080601f831160018114620002d15760008415620002b85750858301515b600019600386901b1c1916600185901b1785556200025c565b600085815260208120601f198616915b828110156200030257888601518255948401946001909101908401620002e1565b5085821015620003215787850151600019600388901b60f8161c191681555b5050505050600190811b01905550565b60805160a05160c05160e0516101005161012051611f30620003816000396000611590015260006115df015260006115ba015260006115130152600061153d015260006115670152611f306000f3fe608060405234801561001057600080fd5b50600436106101825760003560e01c80636352211e116100d8578063a22cb4651161008c578063cb74082d11610066578063cb74082d14610346578063e985e9c514610359578063f2fde38b1461039557600080fd5b8063a22cb4651461030d578063b88d4fde14610320578063c87b56dd1461033357600080fd5b8063715018a6116100bd578063715018a6146102ec5780638da5cb5b146102f457806395d89b411461030557600080fd5b80636352211e146102c657806370a08231146102d957600080fd5b80632388e9961161013a5780633af32abf116101145780633af32abf146102745780633f113a61146102a057806342842e0e146102b357600080fd5b80632388e9961461021757806323b872dd1461022a5780632d0335ab1461023d57600080fd5b806306fdde031161016b57806306fdde03146101c4578063081812fc146101d9578063095ea7b31461020457600080fd5b806301a9a3521461018757806301ffc9a71461019c575b600080fd5b61019a610195366004611acd565b6103a8565b005b6101af6101aa366004611b05565b6103d1565b60405190151581526020015b60405180910390f35b6101cc61046e565b6040516101bb9190611b68565b6101ec6101e7366004611b7b565b610500565b6040516001600160a01b0390911681526020016101bb565b61019a610212366004611b94565b610527565b61019a610225366004611bbe565b61067b565b61019a610238366004611c49565b610828565b61026661024b366004611acd565b6001600160a01b031660009081526008602052604090205490565b6040519081526020016101bb565b6101af610282366004611acd565b6001600160a01b031660009081526009602052604090205460ff1690565b61019a6102ae366004611acd565b61089f565b61019a6102c1366004611c49565b61095a565b6101ec6102d4366004611b7b565b610975565b6102666102e7366004611acd565b6109da565b61019a610a74565b6006546001600160a01b03166101ec565b6101cc610a88565b61019a61031b366004611c85565b610a97565b61019a61032e366004611cd7565b610aa6565b6101cc610341366004611b7b565b610b24565b6101af610354366004611bbe565b610b37565b6101af610367366004611db3565b6001600160a01b03918216600090815260056020908152604080832093909416825291909152205460ff1690565b61019a6103a3366004611acd565b610c81565b6103b0610d11565b6001600160a01b03166000908152600960205260409020805460ff19169055565b60006001600160e01b031982167f80ac58cd00000000000000000000000000000000000000000000000000000000148061043457506001600160e01b031982167f5b5e139f00000000000000000000000000000000000000000000000000000000145b8061046857507f01ffc9a7000000000000000000000000000000000000000000000000000000006001600160e01b03198316145b92915050565b60606000805461047d90611de6565b80601f01602080910402602001604051908101604052809291908181526020018280546104a990611de6565b80156104f65780601f106104cb576101008083540402835291602001916104f6565b820191906000526020600020905b8154815290600101906020018083116104d957829003601f168201915b5050505050905090565b600061050b82610d6b565b506000908152600460205260409020546001600160a01b031690565b600061053282610975565b9050806001600160a01b0316836001600160a01b0316036105c05760405162461bcd60e51b815260206004820152602160248201527f4552433732313a20617070726f76616c20746f2063757272656e74206f776e6560448201527f720000000000000000000000000000000000000000000000000000000000000060648201526084015b60405180910390fd5b336001600160a01b03821614806105fa57506001600160a01b038116600090815260056020908152604080832033845290915290205460ff165b61066c5760405162461bcd60e51b815260206004820152603d60248201527f4552433732313a20617070726f76652063616c6c6572206973206e6f7420746f60448201527f6b656e206f776e6572206f7220617070726f76656420666f7220616c6c00000060648201526084016105b7565b6106768383610dcf565b505050565b6006546001600160a01b03166106946020850185611acd565b6001600160a01b031614806106d35750600960006106b56020860186611acd565b6001600160a01b0316815260208101919091526040016000205460ff165b6107445760405162461bcd60e51b8152602060048201526024808201527f50726f78794d696e743a2073656e646572206973206e6f742077686974656c6960448201527f737465640000000000000000000000000000000000000000000000000000000060648201526084016105b7565b61074f838383610b37565b6107c15760405162461bcd60e51b815260206004820152602b60248201527f50726f78794d696e743a207369676e617475726520646f6573206e6f74206d6160448201527f746368207265717565737400000000000000000000000000000000000000000060648201526084016105b7565b6107d060608401356001611e36565b600860006107e46040870160208801611acd565b6001600160a01b03166001600160a01b031681526020019081526020016000208190555061067683602001602081019061081e9190611acd565b8460400135610e4a565b6108323382610ec3565b6108945760405162461bcd60e51b815260206004820152602d60248201527f4552433732313a2063616c6c6572206973206e6f7420746f6b656e206f776e6560448201526c1c881bdc88185c1c1c9bdd9959609a1b60648201526084016105b7565b610676838383610f42565b6108a7610d11565b6001600160a01b03811660009081526009602052604090205460ff16156109365760405162461bcd60e51b815260206004820152602560248201527f53656e646572206164647265737320697320616c72656164792077686974656c60448201527f697374656400000000000000000000000000000000000000000000000000000060648201526084016105b7565b6001600160a01b03166000908152600960205260409020805460ff19166001179055565b61067683838360405180602001604052806000815250610aa6565b6000818152600260205260408120546001600160a01b0316806104685760405162461bcd60e51b815260206004820152601860248201527f4552433732313a20696e76616c696420746f6b656e204944000000000000000060448201526064016105b7565b60006001600160a01b038216610a585760405162461bcd60e51b815260206004820152602960248201527f4552433732313a2061646472657373207a65726f206973206e6f74206120766160448201527f6c6964206f776e6572000000000000000000000000000000000000000000000060648201526084016105b7565b506001600160a01b031660009081526003602052604090205490565b610a7c610d11565b610a866000611148565b565b60606001805461047d90611de6565b610aa23383836111a7565b5050565b610ab03383610ec3565b610b125760405162461bcd60e51b815260206004820152602d60248201527f4552433732313a2063616c6c6572206973206e6f7420746f6b656e206f776e6560448201526c1c881bdc88185c1c1c9bdd9959609a1b60648201526084016105b7565b610b1e84848484611275565b50505050565b6060610b2f82610d6b565b6104686112f3565b600080610c1284848080601f016020809104026020016040519081016040528093929190818152602001838380828437600092019190915250610c0c92507f581876f5aa376f49a25bf7104865572d181fc041c0f7584b87c0b0c6958385ec9150610ba7905060208a018a611acd565b610bb760408b0160208c01611acd565b6040805160208101949094526001600160a01b03928316848201529116606083810191909152908a0135608083015289013560a082015260c00160405160208183030381529060405280519060200120611313565b9061137c565b9050606085013560086000610c2d6040890160208a01611acd565b6001600160a01b03166001600160a01b0316815260200190815260200160002054148015610c785750610c636020860186611acd565b6001600160a01b0316816001600160a01b0316145b95945050505050565b610c89610d11565b6001600160a01b038116610d055760405162461bcd60e51b815260206004820152602660248201527f4f776e61626c653a206e6577206f776e657220697320746865207a65726f206160448201527f646472657373000000000000000000000000000000000000000000000000000060648201526084016105b7565b610d0e81611148565b50565b6006546001600160a01b03163314610a865760405162461bcd60e51b815260206004820181905260248201527f4f776e61626c653a2063616c6c6572206973206e6f7420746865206f776e657260448201526064016105b7565b6000818152600260205260409020546001600160a01b0316610d0e5760405162461bcd60e51b815260206004820152601860248201527f4552433732313a20696e76616c696420746f6b656e204944000000000000000060448201526064016105b7565b6000818152600460205260409020805473ffffffffffffffffffffffffffffffffffffffff19166001600160a01b0384169081179091558190610e1182610975565b6001600160a01b03167f8c5be1e5ebec7d5bd14f71427d1e84f3dd0314c0f7b2291e5b200ac8c7c3b92560405160405180910390a45050565b60005b81811015610676576000610e6060075490565b9050610e70600780546001019055565b610e7a84826113a0565b60405181906001600160a01b038616907f987d0a899f18facb2e67565fc2fc69f4a45896a3e2f6a0117d69c51bace9e09290600090a35080610ebb81611e49565b915050610e4d565b600080610ecf83610975565b9050806001600160a01b0316846001600160a01b03161480610f1657506001600160a01b0380821660009081526005602090815260408083209388168352929052205460ff165b80610f3a5750836001600160a01b0316610f2f84610500565b6001600160a01b0316145b949350505050565b826001600160a01b0316610f5582610975565b6001600160a01b031614610fb95760405162461bcd60e51b815260206004820152602560248201527f4552433732313a207472616e736665722066726f6d20696e636f72726563742060448201526437bbb732b960d91b60648201526084016105b7565b6001600160a01b0382166110345760405162461bcd60e51b8152602060048201526024808201527f4552433732313a207472616e7366657220746f20746865207a65726f2061646460448201527f726573730000000000000000000000000000000000000000000000000000000060648201526084016105b7565b826001600160a01b031661104782610975565b6001600160a01b0316146110ab5760405162461bcd60e51b815260206004820152602560248201527f4552433732313a207472616e736665722066726f6d20696e636f72726563742060448201526437bbb732b960d91b60648201526084016105b7565b6000818152600460209081526040808320805473ffffffffffffffffffffffffffffffffffffffff199081169091556001600160a01b0387811680865260038552838620805460001901905590871680865283862080546001019055868652600290945282852080549092168417909155905184937fddf252ad1be2c89b69c2b068fc378daa952ba7f163c4a11628f55a4df523b3ef91a4505050565b600680546001600160a01b0383811673ffffffffffffffffffffffffffffffffffffffff19831681179093556040519116919082907f8be0079c531659141344cd1fd0a4f28419497f9722a3daafe3b4186f6b6457e090600090a35050565b816001600160a01b0316836001600160a01b0316036112085760405162461bcd60e51b815260206004820152601960248201527f4552433732313a20617070726f766520746f2063616c6c65720000000000000060448201526064016105b7565b6001600160a01b03838116600081815260056020908152604080832094871680845294825291829020805460ff191686151590811790915591519182527f17307eab39ab6107e8899845ad3d59bd9653f200f220920489ca2b5937696c31910160405180910390a3505050565b611280848484610f42565b61128c848484846113ba565b610b1e5760405162461bcd60e51b815260206004820152603260248201527f4552433732313a207472616e7366657220746f206e6f6e20455243373231526560448201527131b2b4bb32b91034b6b83632b6b2b73a32b960711b60648201526084016105b7565b6060604051806060016040528060298152602001611ed260299139905090565b6000610468611320611506565b836040517f19010000000000000000000000000000000000000000000000000000000000006020820152602281018390526042810182905260009060620160405160208183030381529060405280519060200120905092915050565b600080600061138b858561162d565b9150915061139881611672565b509392505050565b610aa28282604051806020016040528060008152506117d7565b60006001600160a01b0384163b156114fb57604051630a85bd0160e11b81526001600160a01b0385169063150b7a02906113fe903390899088908890600401611e62565b6020604051808303816000875af1925050508015611439575060408051601f3d908101601f1916820190925261143691810190611e9e565b60015b6114e1573d808015611467576040519150601f19603f3d011682016040523d82523d6000602084013e61146c565b606091505b5080516000036114d95760405162461bcd60e51b815260206004820152603260248201527f4552433732313a207472616e7366657220746f206e6f6e20455243373231526560448201527131b2b4bb32b91034b6b83632b6b2b73a32b960711b60648201526084016105b7565b805181602001fd5b6001600160e01b031916630a85bd0160e11b149050610f3a565b506001949350505050565b6000306001600160a01b037f00000000000000000000000000000000000000000000000000000000000000001614801561155f57507f000000000000000000000000000000000000000000000000000000000000000046145b1561158957507f000000000000000000000000000000000000000000000000000000000000000090565b50604080517f00000000000000000000000000000000000000000000000000000000000000006020808301919091527f0000000000000000000000000000000000000000000000000000000000000000828401527f000000000000000000000000000000000000000000000000000000000000000060608301524660808301523060a0808401919091528351808403909101815260c0909201909252805191012090565b60008082516041036116635760208301516040840151606085015160001a61165787828585611855565b9450945050505061166b565b506000905060025b9250929050565b600081600481111561168657611686611ebb565b0361168e5750565b60018160048111156116a2576116a2611ebb565b036116ef5760405162461bcd60e51b815260206004820152601860248201527f45434453413a20696e76616c6964207369676e6174757265000000000000000060448201526064016105b7565b600281600481111561170357611703611ebb565b036117505760405162461bcd60e51b815260206004820152601f60248201527f45434453413a20696e76616c6964207369676e6174757265206c656e6774680060448201526064016105b7565b600381600481111561176457611764611ebb565b03610d0e5760405162461bcd60e51b815260206004820152602260248201527f45434453413a20696e76616c6964207369676e6174757265202773272076616c60448201527f756500000000000000000000000000000000000000000000000000000000000060648201526084016105b7565b6117e18383611919565b6117ee60008484846113ba565b6106765760405162461bcd60e51b815260206004820152603260248201527f4552433732313a207472616e7366657220746f206e6f6e20455243373231526560448201527131b2b4bb32b91034b6b83632b6b2b73a32b960711b60648201526084016105b7565b6000807f7fffffffffffffffffffffffffffffff5d576e7357a4501ddfe92f46681b20a083111561188c5750600090506003611910565b6040805160008082526020820180845289905260ff881692820192909252606081018690526080810185905260019060a0016020604051602081039080840390855afa1580156118e0573d6000803e3d6000fd5b5050604051601f1901519150506001600160a01b03811661190957600060019250925050611910565b9150600090505b94509492505050565b6001600160a01b03821661196f5760405162461bcd60e51b815260206004820181905260248201527f4552433732313a206d696e7420746f20746865207a65726f206164647265737360448201526064016105b7565b6000818152600260205260409020546001600160a01b0316156119d45760405162461bcd60e51b815260206004820152601c60248201527f4552433732313a20746f6b656e20616c7265616479206d696e7465640000000060448201526064016105b7565b6000818152600260205260409020546001600160a01b031615611a395760405162461bcd60e51b815260206004820152601c60248201527f4552433732313a20746f6b656e20616c7265616479206d696e7465640000000060448201526064016105b7565b6001600160a01b0382166000818152600360209081526040808320805460010190558483526002909152808220805473ffffffffffffffffffffffffffffffffffffffff19168417905551839291907fddf252ad1be2c89b69c2b068fc378daa952ba7f163c4a11628f55a4df523b3ef908290a45050565b80356001600160a01b0381168114611ac857600080fd5b919050565b600060208284031215611adf57600080fd5b611ae882611ab1565b9392505050565b6001600160e01b031981168114610d0e57600080fd5b600060208284031215611b1757600080fd5b8135611ae881611aef565b6000815180845260005b81811015611b4857602081850181015186830182015201611b2c565b506000602082860101526020601f19601f83011685010191505092915050565b602081526000611ae86020830184611b22565b600060208284031215611b8d57600080fd5b5035919050565b60008060408385031215611ba757600080fd5b611bb083611ab1565b946020939093013593505050565b600080600083850360a0811215611bd457600080fd5b6080811215611be257600080fd5b50839250608084013567ffffffffffffffff80821115611c0157600080fd5b818601915086601f830112611c1557600080fd5b813581811115611c2457600080fd5b876020828501011115611c3657600080fd5b6020830194508093505050509250925092565b600080600060608486031215611c5e57600080fd5b611c6784611ab1565b9250611c7560208501611ab1565b9150604084013590509250925092565b60008060408385031215611c9857600080fd5b611ca183611ab1565b915060208301358015158114611cb657600080fd5b809150509250929050565b634e487b7160e01b600052604160045260246000fd5b60008060008060808587031215611ced57600080fd5b611cf685611ab1565b9350611d0460208601611ab1565b925060408501359150606085013567ffffffffffffffff80821115611d2857600080fd5b818701915087601f830112611d3c57600080fd5b813581811115611d4e57611d4e611cc1565b604051601f8201601f19908116603f01168101908382118183101715611d7657611d76611cc1565b816040528281528a6020848701011115611d8f57600080fd5b82602086016020830137600060208483010152809550505050505092959194509250565b60008060408385031215611dc657600080fd5b611dcf83611ab1565b9150611ddd60208401611ab1565b90509250929050565b600181811c90821680611dfa57607f821691505b602082108103611e1a57634e487b7160e01b600052602260045260246000fd5b50919050565b634e487b7160e01b600052601160045260246000fd5b8082018082111561046857610468611e20565b600060018201611e5b57611e5b611e20565b5060010190565b60006001600160a01b03808716835280861660208401525083604083015260806060830152611e946080830184611b22565b9695505050505050565b600060208284031215611eb057600080fd5b8151611ae881611aef565b634e487b7160e01b600052602160045260246000fdfe68747470733a2f2f626174746c656d6f6e2e636f6d2f6e66742f646174612f6b65792f616363657373a264697066735822122044f5a50d2de98f4444d9b576a93932bf5e0a0ea224d8336c16341f514104328164736f6c63430008120033",
  "linkReferences": {},
  "deployedLinkReferences": {}
}