{
  "_format": "hh-sol-artifact-1",
  "contractName": "AccessKey",
  "sourceName": "contracts/AccessKey.sol",
  "abi": [
    {
      "inputs": [],
      "stateMutability": "nonpayable",
      "type": "constructor"
    },
    {
      "anonymous": false,
      "inputs": [
        {
          "indexed": true,
          "internalType": "address",
          "name": "owner",
          "type": "address"
        },
        {
          "indexed": true,
          "internalType": "address",
          "name": "approved",
          "type": "address"
        },
        {
          "indexed": true,
          "internalType": "uint256",
          "name": "tokenId",
          "type": "uint256"
        }
      ],
      "name": "Approval",
      "type": "event"
    },
    {
      "anonymous": false,
      "inputs": [
        {
          "indexed": true,
          "internalType": "address",
          "name": "owner",
          "type": "address"
        },
        {
          "indexed": true,
          "internalType": "address",
          "name": "operator",
          "type": "address"
        },
        {
          "indexed": false,
          "internalType": "bool",
          "name": "approved",
          "type": "bool"
        }
      ],
      "name": "ApprovalForAll",
      "type": "event"
    },
    {
      "anonymous": false,
      "inputs": [
        {
          "indexed": true,
          "internalType": "address",
          "name": "previousOwner",
          "type": "address"
        },
        {
          "indexed": true,
          "internalType": "address",
          "name": "newOwner",
          "type": "address"
        }
      ],
      "name": "OwnershipTransferred",
      "type": "event"
    },
    {
      "anonymous": false,
      "inputs": [
        {
          "indexed": true,
          "internalType": "address",
          "name": "to",
          "type": "address"
        },
        {
          "indexed": true,
          "internalType": "uint256",
          "name": "tokenId",
          "type": "uint256"
        }
      ],
      "name": "ProxyMinted",
      "type": "event"
    },
    {
      "anonymous": false,
      "inputs": [
        {
          "indexed": true,
          "internalType": "address",
          "name": "from",
          "type": "address"
        },
        {
          "indexed": true,
          "internalType": "address",
          "name": "to",
          "type": "address"
        },
        {
          "indexed": true,
          "internalType": "uint256",
          "name": "tokenId",
          "type": "uint256"
        }
      ],
      "name": "Transfer",
      "type": "event"
    },
    {
      "inputs": [
        {
          "internalType": "address",
          "name": "sender",
          "type": "address"
        }
      ],
      "name": "addSenderToWhitelist",
      "outputs": [],
      "stateMutability": "nonpayable",
      "type": "function"
    },
    {
      "inputs": [
        {
          "internalType": "address",
          "name": "to",
          "type": "address"
        },
        {
          "internalType": "uint256",
          "name": "tokenId",
          "type": "uint256"
        }
      ],
      "name": "approve",
      "outputs": [],
      "stateMutability": "nonpayable",
      "type": "function"
    },
    {
      "inputs": [
        {
          "internalType": "address",
          "name": "owner",
          "type": "address"
        }
      ],
      "name": "balanceOf",
      "outputs": [
        {
          "internalType": "uint256",
          "name": "",
          "type": "uint256"
        }
      ],
      "stateMutability": "view",
      "type": "function"
    },
    {
      "inputs": [
        {
          "internalType": "uint256",
          "name": "tokenId",
          "type": "uint256"
        }
      ],
      "name": "getApproved",
      "outputs": [
        {
          "internalType": "address",
          "name": "",
          "type": "address"
        }
      ],
      "stateMutability": "view",
      "type": "function"
    },
    {
      "inputs": [
        {
          "internalType": "address",
          "name": "from",
          "type": "address"
        }
      ],
      "name": "getNonce",
      "outputs": [
        {
          "internalType": "uint256",
          "name": "",
          "type": "uint256"
        }
      ],
      "stateMutability": "view",
      "type": "function"
    },
    {
      "inputs": [
        {
          "internalType": "address",
          "name": "owner",
          "type": "address"
        },
        {
          "internalType": "address",
          "name": "operator",
          "type": "address"
        }
      ],
      "name": "isApprovedForAll",
      "outputs": [
        {
          "internalType": "bool",
          "name": "",
          "type": "bool"
        }
      ],
      "stateMutability": "view",
      "type": "function"
    },
    {
      "inputs": [
        {
          "internalType": "address",
          "name": "sender",
          "type": "address"
        }
      ],
      "name": "isWhitelisted",
      "outputs": [
        {
          "internalType": "bool",
          "name": "",
          "type": "bool"
        }
      ],
      "stateMutability": "view",
      "type": "function"
    },
    {
      "inputs": [],
      "name": "name",
      "outputs": [
        {
          "internalType": "string",
          "name": "",
          "type": "string"
        }
      ],
      "stateMutability": "view",
      "type": "function"
    },
    {
      "inputs": [],
      "name": "owner",
      "outputs": [
        {
          "internalType": "address",
          "name": "",
          "type": "address"
        }
      ],
      "stateMutability": "view",
      "type": "function"
    },
    {
      "inputs": [
        {
          "internalType": "uint256",
          "name": "tokenId",
          "type": "uint256"
        }
      ],
      "name": "ownerOf",
      "outputs": [
        {
          "internalType": "address",
          "name": "",
          "type": "address"
        }
      ],
      "stateMutability": "view",
      "type": "function"
    },
    {
      "inputs": [
        {
          "components": [
            {
              "internalType": "address",
              "name": "sender",
              "type": "address"
            },
            {
              "internalType": "address",
              "name": "proxy",
              "type": "address"
            },
            {
              "internalType": "uint256",
              "name": "amount",
              "type": "uint256"
            },
            {
              "internalType": "uint256",
              "name": "nonce",
              "type": "uint256"
            }
          ],
          "internalType": "struct ProxyMintableERC721.MintRequest",
          "name": "req",
          "type": "tuple"
        },
        {
          "internalType": "bytes",
          "name": "signature",
          "type": "bytes"
        }
      ],
      "name": "proxyMint",
      "outputs": [],
      "stateMutability": "nonpayable",
      "type": "function"
    },
    {
      "inputs": [
        {
          "internalType": "address",
          "name": "sender",
          "type": "address"
        }
      ],
      "name": "removeSenderFromWhitelist",
      "outputs": [],
      "stateMutability": "nonpayable",
      "type": "function"
    },
    {
      "inputs": [],
      "name": "renounceOwnership",
      "outputs": [],
      "stateMutability": "nonpayable",
      "type": "function"
    },
    {
      "inputs": [
        {
          "internalType": "address",
          "name": "from",
          "type": "address"
        },
        {
          "internalType": "address",
          "name": "to",
          "type": "address"
        },
        {
          "internalType": "uint256",
          "name": "tokenId",
          "type": "uint256"
        }
      ],
      "name": "safeTransferFrom",
      "outputs": [],
      "stateMutability": "nonpayable",
      "type": "function"
    },
    {
      "inputs": [
        {
          "internalType": "address",
          "name": "from",
          "type": "address"
        },
        {
          "internalType": "address",
          "name": "to",
          "type": "address"
        },
        {
          "internalType": "uint256",
          "name": "tokenId",
          "type": "uint256"
        },
        {
          "internalType": "bytes",
          "name": "data",
          "type": "bytes"
        }
      ],
      "name": "safeTransferFrom",
      "outputs": [],
      "stateMutability": "nonpayable",
      "type": "function"
    },
    {
      "inputs": [
        {
          "internalType": "address",
          "name": "operator",
          "type": "address"
        },
        {
          "internalType": "bool",
          "name": "approved",
          "type": "bool"
        }
      ],
      "name": "setApprovalForAll",
      "outputs": [],
      "stateMutability": "nonpayable",
      "type": "function"
    },
    {
      "inputs": [
        {
          "internalType": "bytes4",
          "name": "interfaceId",
          "type": "bytes4"
        }
      ],
      "name": "supportsInterface",
      "outputs": [
        {
          "internalType": "bool",
          "name": "",
          "type": "bool"
        }
      ],
      "stateMutability": "view",
      "type": "function"
    },
    {
      "inputs": [],
      "name": "symbol",
      "outputs": [
        {
          "internalType": "string",
          "name": "",
          "type": "string"
        }
      ],
      "stateMutability": "view",
      "type": "function"
    },
    {
      "inputs": [
        {
          "internalType": "uint256",
          "name": "tokenId",
          "type": "uint256"
        }
      ],
      "name": "tokenURI",
      "outputs": [
        {
          "internalType": "string",
          "name": "",
          "type": "string"
        }
      ],
      "stateMutability": "view",
      "type": "function"
    },
    {
      "inputs": [
        {
          "internalType": "address",
          "name": "from",
          "type": "address"
        },
        {
          "internalType": "address",
          "name": "to",
          "type": "address"
        },
        {
          "internalType": "uint256",
          "name": "tokenId",
          "type": "uint256"
        }
      ],
      "name": "transferFrom",
      "outputs": [],
      "stateMutability": "nonpayable",
      "type": "function"
    },
    {
      "inputs": [
        {
          "internalType": "address",
          "name": "newOwner",
          "type": "address"
        }
      ],
      "name": "transferOwnership",
      "outputs": [],
      "stateMutability": "nonpayable",
      "type": "function"
    },
    {
      "inputs": [
        {
          "components": [
            {
              "internalType": "address",
              "name": "sender",
              "type": "address"
            },
            {
              "internalType": "address",
              "name": "proxy",
              "type": "address"
            },
            {
              "internalType": "uint256",
              "name": "amount",
              "type": "uint256"
            },
            {
              "internalType": "uint256",
              "name": "nonce",
              "type": "uint256"
            }
          ],
          "internalType": "struct ProxyMintableERC721.MintRequest",
          "name": "req",
          "type": "tuple"
        },
        {
          "internalType": "bytes",
          "name": "signature",
          "type": "bytes"
        }
      ],
      "name": "verify",
      "outputs": [
        {
          "internalType": "bool",
          "name": "",
          "type": "bool"
        }
      ],
      "stateMutability": "view",
      "type": "function"
    }
  ],
  "bytecode": "0x6101406040523480156200001257600080fd5b506040518060400160405280600a815260200169416363657373204b657960b01b81525060405180604001604052806002815260200161414b60f01b815250604051806040016040528060098152602001684163636573734b657960b81b815250604051806040016040528060018152602001603160f81b815250818185858160009081620000a2919062000265565b506001620000b1828262000265565b505050620000ce620000c86200016a60201b60201c565b6200016e565b815160208084019190912082518383012060e08290526101008190524660a0818152604080517f8b73c3c69bb8fe3d512ecc4cf759cc79239f7b179b0ffacaa9a75d522b39400f81880181905281830187905260608201869052608082019490945230818401528151808203909301835260c00190528051940193909320919290916080523060c0526101205250620003319650505050505050565b3390565b600680546001600160a01b038381166001600160a01b0319831681179093556040519116919082907f8be0079c531659141344cd1fd0a4f28419497f9722a3daafe3b4186f6b6457e090600090a35050565b634e487b7160e01b600052604160045260246000fd5b600181811c90821680620001eb57607f821691505b6020821081036200020c57634e487b7160e01b600052602260045260246000fd5b50919050565b601f8211156200026057600081815260208120601f850160051c810160208610156200023b5750805b601f850160051c820191505b818110156200025c5782815560010162000247565b5050505b505050565b81516001600160401b03811115620002815762000281620001c0565b6200029981620002928454620001d6565b8462000212565b602080601f831160018114620002d15760008415620002b85750858301515b600019600386901b1c1916600185901b1785556200025c565b600085815260208120601f198616915b828110156200030257888601518255948401946001909101908401620002e1565b5085821015620003215787850151600019600388901b60f8161c191681555b5050505050600190811b01905550565b60805160a05160c05160e05161010051610120516120f762000381600039600061174e0152600061179d01526000611778015260006116d1015260006116fb0152600061172501526120f76000f3fe608060405234801561001057600080fd5b50600436106101825760003560e01c80636352211e116100d8578063a22cb4651161008c578063cb74082d11610066578063cb74082d14610346578063e985e9c514610359578063f2fde38b1461039557600080fd5b8063a22cb4651461030d578063b88d4fde14610320578063c87b56dd1461033357600080fd5b8063715018a6116100bd578063715018a6146102ec5780638da5cb5b146102f457806395d89b411461030557600080fd5b80636352211e146102c657806370a08231146102d957600080fd5b80632388e9961161013a5780633af32abf116101145780633af32abf146102745780633f113a61146102a057806342842e0e146102b357600080fd5b80632388e9961461021757806323b872dd1461022a5780632d0335ab1461023d57600080fd5b806306fdde031161016b57806306fdde03146101c4578063081812fc146101d9578063095ea7b31461020457600080fd5b806301a9a3521461018757806301ffc9a71461019c575b600080fd5b61019a610195366004611c8b565b6103a8565b005b6101af6101aa366004611cbc565b6103d1565b60405190151581526020015b60405180910390f35b6101cc61046e565b6040516101bb9190611d29565b6101ec6101e7366004611d3c565b610500565b6040516001600160a01b0390911681526020016101bb565b61019a610212366004611d55565b610527565b61019a610225366004611d7f565b61067b565b61019a610238366004611e0a565b6107fe565b61026661024b366004611c8b565b6001600160a01b031660009081526008602052604090205490565b6040519081526020016101bb565b6101af610282366004611c8b565b6001600160a01b031660009081526009602052604090205460ff1690565b61019a6102ae366004611c8b565b610875565b61019a6102c1366004611e0a565b610930565b6101ec6102d4366004611d3c565b61094b565b6102666102e7366004611c8b565b6109b0565b61019a610a4a565b6006546001600160a01b03166101ec565b6101cc610a5e565b61019a61031b366004611e46565b610a6d565b61019a61032e366004611e98565b610a7c565b6101cc610341366004611d3c565b610afa565b6101af610354366004611d7f565b610b93565b6101af610367366004611f74565b6001600160a01b03918216600090815260056020908152604080832093909416825291909152205460ff1690565b61019a6103a3366004611c8b565b610cdd565b6103b0610d6d565b6001600160a01b03166000908152600960205260409020805460ff19169055565b60006001600160e01b031982167f80ac58cd00000000000000000000000000000000000000000000000000000000148061043457506001600160e01b031982167f5b5e139f00000000000000000000000000000000000000000000000000000000145b8061046857507f01ffc9a7000000000000000000000000000000000000000000000000000000006001600160e01b03198316145b92915050565b60606000805461047d90611fa7565b80601f01602080910402602001604051908101604052809291908181526020018280546104a990611fa7565b80156104f65780601f106104cb576101008083540402835291602001916104f6565b820191906000526020600020905b8154815290600101906020018083116104d957829003601f168201915b5050505050905090565b600061050b82610dc7565b506000908152600460205260409020546001600160a01b031690565b60006105328261094b565b9050806001600160a01b0316836001600160a01b0316036105c05760405162461bcd60e51b815260206004820152602160248201527f4552433732313a20617070726f76616c20746f2063757272656e74206f776e6560448201527f720000000000000000000000000000000000000000000000000000000000000060648201526084015b60405180910390fd5b336001600160a01b03821614806105fa57506001600160a01b038116600090815260056020908152604080832033845290915290205460ff165b61066c5760405162461bcd60e51b815260206004820152603d60248201527f4552433732313a20617070726f76652063616c6c6572206973206e6f7420746f60448201527f6b656e206f776e6572206f7220617070726f76656420666f7220616c6c00000060648201526084016105b7565b6106768383610e2b565b505050565b6009600061068c6020860186611c8b565b6001600160a01b0316815260208101919091526040016000205460ff1661071a5760405162461bcd60e51b8152602060048201526024808201527f50726f78794d696e743a2073656e646572206973206e6f742077686974656c6960448201527f737465640000000000000000000000000000000000000000000000000000000060648201526084016105b7565b610725838383610b93565b6107975760405162461bcd60e51b815260206004820152602b60248201527f50726f78794d696e743a207369676e617475726520646f6573206e6f74206d6160448201527f746368207265717565737400000000000000000000000000000000000000000060648201526084016105b7565b6107a660608401356001611ff7565b600860006107ba6040870160208801611c8b565b6001600160a01b03166001600160a01b03168152602001908152602001600020819055506106768360200160208101906107f49190611c8b565b8460400135610ea6565b6108083382610f1f565b61086a5760405162461bcd60e51b815260206004820152602d60248201527f4552433732313a2063616c6c6572206973206e6f7420746f6b656e206f776e6560448201526c1c881bdc88185c1c1c9bdd9959609a1b60648201526084016105b7565b610676838383610f9e565b61087d610d6d565b6001600160a01b03811660009081526009602052604090205460ff161561090c5760405162461bcd60e51b815260206004820152602560248201527f53656e646572206164647265737320697320616c72656164792077686974656c60448201527f697374656400000000000000000000000000000000000000000000000000000060648201526084016105b7565b6001600160a01b03166000908152600960205260409020805460ff19166001179055565b61067683838360405180602001604052806000815250610a7c565b6000818152600260205260408120546001600160a01b0316806104685760405162461bcd60e51b815260206004820152601860248201527f4552433732313a20696e76616c696420746f6b656e204944000000000000000060448201526064016105b7565b60006001600160a01b038216610a2e5760405162461bcd60e51b815260206004820152602960248201527f4552433732313a2061646472657373207a65726f206973206e6f74206120766160448201527f6c6964206f776e6572000000000000000000000000000000000000000000000060648201526084016105b7565b506001600160a01b031660009081526003602052604090205490565b610a52610d6d565b610a5c60006111a4565b565b60606001805461047d90611fa7565b610a78338383611203565b5050565b610a863383610f1f565b610ae85760405162461bcd60e51b815260206004820152602d60248201527f4552433732313a2063616c6c6572206973206e6f7420746f6b656e206f776e6560448201526c1c881bdc88185c1c1c9bdd9959609a1b60648201526084016105b7565b610af4848484846112d1565b50505050565b6060610b0582610dc7565b6000610b4160408051808201909152601881527f68747470733a2f2f6578616d706c652e636f6d2f6e66742f0000000000000000602082015290565b90506000815111610b615760405180602001604052806000815250610b8c565b80610b6b8461134f565b604051602001610b7c92919061200a565b6040516020818303038152906040525b9392505050565b600080610c6e84848080601f016020809104026020016040519081016040528093929190818152602001838380828437600092019190915250610c6892507f581876f5aa376f49a25bf7104865572d181fc041c0f7584b87c0b0c6958385ec9150610c03905060208a018a611c8b565b610c1360408b0160208c01611c8b565b6040805160208101949094526001600160a01b03928316848201529116606083810191909152908a0135608083015289013560a082015260c001604051602081830303815290604052805190602001206113ef565b90611458565b9050606085013560086000610c896040890160208a01611c8b565b6001600160a01b03166001600160a01b0316815260200190815260200160002054148015610cd45750610cbf6020860186611c8b565b6001600160a01b0316816001600160a01b0316145b95945050505050565b610ce5610d6d565b6001600160a01b038116610d615760405162461bcd60e51b815260206004820152602660248201527f4f776e61626c653a206e6577206f776e657220697320746865207a65726f206160448201527f646472657373000000000000000000000000000000000000000000000000000060648201526084016105b7565b610d6a816111a4565b50565b6006546001600160a01b03163314610a5c5760405162461bcd60e51b815260206004820181905260248201527f4f776e61626c653a2063616c6c6572206973206e6f7420746865206f776e657260448201526064016105b7565b6000818152600260205260409020546001600160a01b0316610d6a5760405162461bcd60e51b815260206004820152601860248201527f4552433732313a20696e76616c696420746f6b656e204944000000000000000060448201526064016105b7565b6000818152600460205260409020805473ffffffffffffffffffffffffffffffffffffffff19166001600160a01b0384169081179091558190610e6d8261094b565b6001600160a01b03167f8c5be1e5ebec7d5bd14f71427d1e84f3dd0314c0f7b2291e5b200ac8c7c3b92560405160405180910390a45050565b60005b81811015610676576000610ebc60075490565b9050610ecc600780546001019055565b610ed6848261147c565b60405181906001600160a01b038616907f987d0a899f18facb2e67565fc2fc69f4a45896a3e2f6a0117d69c51bace9e09290600090a35080610f1781612039565b915050610ea9565b600080610f2b8361094b565b9050806001600160a01b0316846001600160a01b03161480610f7257506001600160a01b0380821660009081526005602090815260408083209388168352929052205460ff165b80610f965750836001600160a01b0316610f8b84610500565b6001600160a01b0316145b949350505050565b826001600160a01b0316610fb18261094b565b6001600160a01b0316146110155760405162461bcd60e51b815260206004820152602560248201527f4552433732313a207472616e736665722066726f6d20696e636f72726563742060448201526437bbb732b960d91b60648201526084016105b7565b6001600160a01b0382166110905760405162461bcd60e51b8152602060048201526024808201527f4552433732313a207472616e7366657220746f20746865207a65726f2061646460448201527f726573730000000000000000000000000000000000000000000000000000000060648201526084016105b7565b826001600160a01b03166110a38261094b565b6001600160a01b0316146111075760405162461bcd60e51b815260206004820152602560248201527f4552433732313a207472616e736665722066726f6d20696e636f72726563742060448201526437bbb732b960d91b60648201526084016105b7565b6000818152600460209081526040808320805473ffffffffffffffffffffffffffffffffffffffff199081169091556001600160a01b0387811680865260038552838620805460001901905590871680865283862080546001019055868652600290945282852080549092168417909155905184937fddf252ad1be2c89b69c2b068fc378daa952ba7f163c4a11628f55a4df523b3ef91a4505050565b600680546001600160a01b0383811673ffffffffffffffffffffffffffffffffffffffff19831681179093556040519116919082907f8be0079c531659141344cd1fd0a4f28419497f9722a3daafe3b4186f6b6457e090600090a35050565b816001600160a01b0316836001600160a01b0316036112645760405162461bcd60e51b815260206004820152601960248201527f4552433732313a20617070726f766520746f2063616c6c65720000000000000060448201526064016105b7565b6001600160a01b03838116600081815260056020908152604080832094871680845294825291829020805460ff191686151590811790915591519182527f17307eab39ab6107e8899845ad3d59bd9653f200f220920489ca2b5937696c31910160405180910390a3505050565b6112dc848484610f9e565b6112e884848484611496565b610af45760405162461bcd60e51b815260206004820152603260248201527f4552433732313a207472616e7366657220746f206e6f6e20455243373231526560448201527131b2b4bb32b91034b6b83632b6b2b73a32b960711b60648201526084016105b7565b6060600061135c836115e2565b600101905060008167ffffffffffffffff81111561137c5761137c611e82565b6040519080825280601f01601f1916602001820160405280156113a6576020820181803683370190505b5090508181016020015b600019017f3031323334353637383961626364656600000000000000000000000000000000600a86061a8153600a85049450846113b057509392505050565b60006104686113fc6116c4565b836040517f19010000000000000000000000000000000000000000000000000000000000006020820152602281018390526042810182905260009060620160405160208183030381529060405280519060200120905092915050565b600080600061146785856117eb565b9150915061147481611830565b509392505050565b610a78828260405180602001604052806000815250611995565b60006001600160a01b0384163b156115d757604051630a85bd0160e11b81526001600160a01b0385169063150b7a02906114da903390899088908890600401612052565b6020604051808303816000875af1925050508015611515575060408051601f3d908101601f191682019092526115129181019061208e565b60015b6115bd573d808015611543576040519150601f19603f3d011682016040523d82523d6000602084013e611548565b606091505b5080516000036115b55760405162461bcd60e51b815260206004820152603260248201527f4552433732313a207472616e7366657220746f206e6f6e20455243373231526560448201527131b2b4bb32b91034b6b83632b6b2b73a32b960711b60648201526084016105b7565b805181602001fd5b6001600160e01b031916630a85bd0160e11b149050610f96565b506001949350505050565b6000807a184f03e93ff9f4daa797ed6e38ed64bf6a1f010000000000000000831061162b577a184f03e93ff9f4daa797ed6e38ed64bf6a1f010000000000000000830492506040015b6d04ee2d6d415b85acef81000000008310611657576d04ee2d6d415b85acef8100000000830492506020015b662386f26fc10000831061167557662386f26fc10000830492506010015b6305f5e100831061168d576305f5e100830492506008015b61271083106116a157612710830492506004015b606483106116b3576064830492506002015b600a83106104685760010192915050565b6000306001600160a01b037f00000000000000000000000000000000000000000000000000000000000000001614801561171d57507f000000000000000000000000000000000000000000000000000000000000000046145b1561174757507f000000000000000000000000000000000000000000000000000000000000000090565b50604080517f00000000000000000000000000000000000000000000000000000000000000006020808301919091527f0000000000000000000000000000000000000000000000000000000000000000828401527f000000000000000000000000000000000000000000000000000000000000000060608301524660808301523060a0808401919091528351808403909101815260c0909201909252805191012090565b60008082516041036118215760208301516040840151606085015160001a61181587828585611a13565b94509450505050611829565b506000905060025b9250929050565b6000816004811115611844576118446120ab565b0361184c5750565b6001816004811115611860576118606120ab565b036118ad5760405162461bcd60e51b815260206004820152601860248201527f45434453413a20696e76616c6964207369676e6174757265000000000000000060448201526064016105b7565b60028160048111156118c1576118c16120ab565b0361190e5760405162461bcd60e51b815260206004820152601f60248201527f45434453413a20696e76616c6964207369676e6174757265206c656e6774680060448201526064016105b7565b6003816004811115611922576119226120ab565b03610d6a5760405162461bcd60e51b815260206004820152602260248201527f45434453413a20696e76616c6964207369676e6174757265202773272076616c60448201527f756500000000000000000000000000000000000000000000000000000000000060648201526084016105b7565b61199f8383611ad7565b6119ac6000848484611496565b6106765760405162461bcd60e51b815260206004820152603260248201527f4552433732313a207472616e7366657220746f206e6f6e20455243373231526560448201527131b2b4bb32b91034b6b83632b6b2b73a32b960711b60648201526084016105b7565b6000807f7fffffffffffffffffffffffffffffff5d576e7357a4501ddfe92f46681b20a0831115611a4a5750600090506003611ace565b6040805160008082526020820180845289905260ff881692820192909252606081018690526080810185905260019060a0016020604051602081039080840390855afa158015611a9e573d6000803e3d6000fd5b5050604051601f1901519150506001600160a01b038116611ac757600060019250925050611ace565b9150600090505b94509492505050565b6001600160a01b038216611b2d5760405162461bcd60e51b815260206004820181905260248201527f4552433732313a206d696e7420746f20746865207a65726f206164647265737360448201526064016105b7565b6000818152600260205260409020546001600160a01b031615611b925760405162461bcd60e51b815260206004820152601c60248201527f4552433732313a20746f6b656e20616c7265616479206d696e7465640000000060448201526064016105b7565b6000818152600260205260409020546001600160a01b031615611bf75760405162461bcd60e51b815260206004820152601c60248201527f4552433732313a20746f6b656e20616c7265616479206d696e7465640000000060448201526064016105b7565b6001600160a01b0382166000818152600360209081526040808320805460010190558483526002909152808220805473ffffffffffffffffffffffffffffffffffffffff19168417905551839291907fddf252ad1be2c89b69c2b068fc378daa952ba7f163c4a11628f55a4df523b3ef908290a45050565b80356001600160a01b0381168114611c8657600080fd5b919050565b600060208284031215611c9d57600080fd5b610b8c82611c6f565b6001600160e01b031981168114610d6a57600080fd5b600060208284031215611cce57600080fd5b8135610b8c81611ca6565b60005b83811015611cf4578181015183820152602001611cdc565b50506000910152565b60008151808452611d15816020860160208601611cd9565b601f01601f19169290920160200192915050565b602081526000610b8c6020830184611cfd565b600060208284031215611d4e57600080fd5b5035919050565b60008060408385031215611d6857600080fd5b611d7183611c6f565b946020939093013593505050565b600080600083850360a0811215611d9557600080fd5b6080811215611da357600080fd5b50839250608084013567ffffffffffffffff80821115611dc257600080fd5b818601915086601f830112611dd657600080fd5b813581811115611de557600080fd5b876020828501011115611df757600080fd5b6020830194508093505050509250925092565b600080600060608486031215611e1f57600080fd5b611e2884611c6f565b9250611e3660208501611c6f565b9150604084013590509250925092565b60008060408385031215611e5957600080fd5b611e6283611c6f565b915060208301358015158114611e7757600080fd5b809150509250929050565b634e487b7160e01b600052604160045260246000fd5b60008060008060808587031215611eae57600080fd5b611eb785611c6f565b9350611ec560208601611c6f565b925060408501359150606085013567ffffffffffffffff80821115611ee957600080fd5b818701915087601f830112611efd57600080fd5b813581811115611f0f57611f0f611e82565b604051601f8201601f19908116603f01168101908382118183101715611f3757611f37611e82565b816040528281528a6020848701011115611f5057600080fd5b82602086016020830137600060208483010152809550505050505092959194509250565b60008060408385031215611f8757600080fd5b611f9083611c6f565b9150611f9e60208401611c6f565b90509250929050565b600181811c90821680611fbb57607f821691505b602082108103611fdb57634e487b7160e01b600052602260045260246000fd5b50919050565b634e487b7160e01b600052601160045260246000fd5b8082018082111561046857610468611fe1565b6000835161201c818460208801611cd9565b835190830190612030818360208801611cd9565b01949350505050565b60006001820161204b5761204b611fe1565b5060010190565b60006001600160a01b038087168352808616602084015250836040830152608060608301526120846080830184611cfd565b9695505050505050565b6000602082840312156120a057600080fd5b8151610b8c81611ca6565b634e487b7160e01b600052602160045260246000fdfea26469706673582212201a197bf2950f3f5ab4a45b3028875c45cefaade1e0eb202bc0a8dc8dd6c48a3864736f6c63430008120033",
  "linkReferences": {},
  "deployedLinkReferences": {}
}