{
  "_format": "hh-sol-artifact-1",
  "contractName": "Gem",
  "sourceName": "contracts/Gem.sol",
  "abi": [
    {
      "inputs": [
        {
          "internalType": "uint256",
          "name": "pricePerMerge_",
          "type": "uint256"
        },
        {
          "internalType": "address",
          "name": "referralContractAddress_",
          "type": "address"
        },
        {
          "internalType": "uint256",
          "name": "referralPricePerMerge_",
          "type": "uint256"
        },
        {
          "internalType": "uint256",
          "name": "referralReward_",
          "type": "uint256"
        },
        {
          "internalType": "uint256",
          "name": "prizePoolReward_",
          "type": "uint256"
        },
        {
          "internalType": "uint256",
          "name": "withdrawalDelay_",
          "type": "uint256"
        }
      ],
      "stateMutability": "nonpayable",
      "type": "constructor"
    },
    {
      "anonymous": false,
      "inputs": [
        {
          "indexed": true,
          "internalType": "address",
          "name": "owner",
          "type": "address"
        },
        {
          "indexed": true,
          "internalType": "address",
          "name": "approved",
          "type": "address"
        },
        {
          "indexed": true,
          "internalType": "uint256",
          "name": "tokenId",
          "type": "uint256"
        }
      ],
      "name": "Approval",
      "type": "event"
    },
    {
      "anonymous": false,
      "inputs": [
        {
          "indexed": true,
          "internalType": "address",
          "name": "owner",
          "type": "address"
        },
        {
          "indexed": true,
          "internalType": "address",
          "name": "operator",
          "type": "address"
        },
        {
          "indexed": false,
          "internalType": "bool",
          "name": "approved",
          "type": "bool"
        }
      ],
      "name": "ApprovalForAll",
      "type": "event"
    },
    {
      "anonymous": false,
      "inputs": [
        {
          "indexed": true,
          "internalType": "address",
          "name": "previousOwner",
          "type": "address"
        },
        {
          "indexed": true,
          "internalType": "address",
          "name": "newOwner",
          "type": "address"
        }
      ],
      "name": "OwnershipTransferred",
      "type": "event"
    },
    {
      "anonymous": false,
      "inputs": [
        {
          "indexed": true,
          "internalType": "address",
          "name": "to",
          "type": "address"
        },
        {
          "indexed": true,
          "internalType": "uint256",
          "name": "tokenId",
          "type": "uint256"
        }
      ],
      "name": "ProxyMinted",
      "type": "event"
    },
    {
      "anonymous": false,
      "inputs": [
        {
          "indexed": true,
          "internalType": "address",
          "name": "from",
          "type": "address"
        },
        {
          "indexed": true,
          "internalType": "address",
          "name": "to",
          "type": "address"
        },
        {
          "indexed": true,
          "internalType": "uint256",
          "name": "tokenId",
          "type": "uint256"
        }
      ],
      "name": "Transfer",
      "type": "event"
    },
    {
      "inputs": [
        {
          "internalType": "address",
          "name": "sender",
          "type": "address"
        }
      ],
      "name": "addSenderToWhitelist",
      "outputs": [],
      "stateMutability": "nonpayable",
      "type": "function"
    },
    {
      "inputs": [
        {
          "internalType": "address",
          "name": "to",
          "type": "address"
        },
        {
          "internalType": "uint256",
          "name": "tokenId",
          "type": "uint256"
        }
      ],
      "name": "approve",
      "outputs": [],
      "stateMutability": "nonpayable",
      "type": "function"
    },
    {
      "inputs": [
        {
          "internalType": "address",
          "name": "owner",
          "type": "address"
        }
      ],
      "name": "balanceOf",
      "outputs": [
        {
          "internalType": "uint256",
          "name": "",
          "type": "uint256"
        }
      ],
      "stateMutability": "view",
      "type": "function"
    },
    {
      "inputs": [],
      "name": "completeEvent",
      "outputs": [],
      "stateMutability": "nonpayable",
      "type": "function"
    },
    {
      "inputs": [
        {
          "internalType": "uint256",
          "name": "tokenId",
          "type": "uint256"
        }
      ],
      "name": "getApproved",
      "outputs": [
        {
          "internalType": "address",
          "name": "",
          "type": "address"
        }
      ],
      "stateMutability": "view",
      "type": "function"
    },
    {
      "inputs": [
        {
          "internalType": "address",
          "name": "from",
          "type": "address"
        }
      ],
      "name": "getNonce",
      "outputs": [
        {
          "internalType": "uint256",
          "name": "",
          "type": "uint256"
        }
      ],
      "stateMutability": "view",
      "type": "function"
    },
    {
      "inputs": [
        {
          "internalType": "address",
          "name": "owner",
          "type": "address"
        },
        {
          "internalType": "address",
          "name": "operator",
          "type": "address"
        }
      ],
      "name": "isApprovedForAll",
      "outputs": [
        {
          "internalType": "bool",
          "name": "",
          "type": "bool"
        }
      ],
      "stateMutability": "view",
      "type": "function"
    },
    {
      "inputs": [
        {
          "internalType": "address",
          "name": "sender",
          "type": "address"
        }
      ],
      "name": "isWhitelisted",
      "outputs": [
        {
          "internalType": "bool",
          "name": "",
          "type": "bool"
        }
      ],
      "stateMutability": "view",
      "type": "function"
    },
    {
      "inputs": [
        {
          "internalType": "uint256",
          "name": "tokenId",
          "type": "uint256"
        }
      ],
      "name": "levelOf",
      "outputs": [
        {
          "internalType": "uint8",
          "name": "",
          "type": "uint8"
        }
      ],
      "stateMutability": "view",
      "type": "function"
    },
    {
      "inputs": [
        {
          "internalType": "uint256",
          "name": "firstTokenId",
          "type": "uint256"
        },
        {
          "internalType": "uint256",
          "name": "secondTokenId",
          "type": "uint256"
        }
      ],
      "name": "merge",
      "outputs": [],
      "stateMutability": "payable",
      "type": "function"
    },
    {
      "inputs": [
        {
          "internalType": "address",
          "name": "to",
          "type": "address"
        },
        {
          "internalType": "uint256",
          "name": "amount",
          "type": "uint256"
        }
      ],
      "name": "mint",
      "outputs": [],
      "stateMutability": "nonpayable",
      "type": "function"
    },
    {
      "inputs": [],
      "name": "name",
      "outputs": [
        {
          "internalType": "string",
          "name": "",
          "type": "string"
        }
      ],
      "stateMutability": "view",
      "type": "function"
    },
    {
      "inputs": [],
      "name": "owner",
      "outputs": [
        {
          "internalType": "address",
          "name": "",
          "type": "address"
        }
      ],
      "stateMutability": "view",
      "type": "function"
    },
    {
      "inputs": [
        {
          "internalType": "uint256",
          "name": "tokenId",
          "type": "uint256"
        }
      ],
      "name": "ownerOf",
      "outputs": [
        {
          "internalType": "address",
          "name": "",
          "type": "address"
        }
      ],
      "stateMutability": "view",
      "type": "function"
    },
    {
      "inputs": [
        {
          "internalType": "address",
          "name": "user",
          "type": "address"
        }
      ],
      "name": "pointsOf",
      "outputs": [
        {
          "internalType": "uint256",
          "name": "",
          "type": "uint256"
        }
      ],
      "stateMutability": "view",
      "type": "function"
    },
    {
      "inputs": [],
      "name": "prizePool",
      "outputs": [
        {
          "internalType": "uint256",
          "name": "",
          "type": "uint256"
        }
      ],
      "stateMutability": "view",
      "type": "function"
    },
    {
      "inputs": [
        {
          "components": [
            {
              "internalType": "address",
              "name": "sender",
              "type": "address"
            },
            {
              "internalType": "address",
              "name": "proxy",
              "type": "address"
            },
            {
              "internalType": "uint256",
              "name": "amount",
              "type": "uint256"
            },
            {
              "internalType": "uint256",
              "name": "nonce",
              "type": "uint256"
            }
          ],
          "internalType": "struct ProxyMintableERC721.MintRequest",
          "name": "req",
          "type": "tuple"
        },
        {
          "internalType": "bytes",
          "name": "signature",
          "type": "bytes"
        }
      ],
      "name": "proxyMint",
      "outputs": [],
      "stateMutability": "nonpayable",
      "type": "function"
    },
    {
      "inputs": [
        {
          "internalType": "address",
          "name": "sender",
          "type": "address"
        }
      ],
      "name": "removeSenderFromWhitelist",
      "outputs": [],
      "stateMutability": "nonpayable",
      "type": "function"
    },
    {
      "inputs": [],
      "name": "renounceOwnership",
      "outputs": [],
      "stateMutability": "nonpayable",
      "type": "function"
    },
    {
      "inputs": [
        {
          "internalType": "address",
          "name": "from",
          "type": "address"
        },
        {
          "internalType": "address",
          "name": "to",
          "type": "address"
        },
        {
          "internalType": "uint256",
          "name": "tokenId",
          "type": "uint256"
        }
      ],
      "name": "safeTransferFrom",
      "outputs": [],
      "stateMutability": "nonpayable",
      "type": "function"
    },
    {
      "inputs": [
        {
          "internalType": "address",
          "name": "from",
          "type": "address"
        },
        {
          "internalType": "address",
          "name": "to",
          "type": "address"
        },
        {
          "internalType": "uint256",
          "name": "tokenId",
          "type": "uint256"
        },
        {
          "internalType": "bytes",
          "name": "data",
          "type": "bytes"
        }
      ],
      "name": "safeTransferFrom",
      "outputs": [],
      "stateMutability": "nonpayable",
      "type": "function"
    },
    {
      "inputs": [
        {
          "internalType": "address",
          "name": "operator",
          "type": "address"
        },
        {
          "internalType": "bool",
          "name": "approved",
          "type": "bool"
        }
      ],
      "name": "setApprovalForAll",
      "outputs": [],
      "stateMutability": "nonpayable",
      "type": "function"
    },
    {
      "inputs": [
        {
          "internalType": "bytes4",
          "name": "interfaceId",
          "type": "bytes4"
        }
      ],
      "name": "supportsInterface",
      "outputs": [
        {
          "internalType": "bool",
          "name": "",
          "type": "bool"
        }
      ],
      "stateMutability": "view",
      "type": "function"
    },
    {
      "inputs": [],
      "name": "symbol",
      "outputs": [
        {
          "internalType": "string",
          "name": "",
          "type": "string"
        }
      ],
      "stateMutability": "view",
      "type": "function"
    },
    {
      "inputs": [
        {
          "internalType": "uint256",
          "name": "tokenId",
          "type": "uint256"
        }
      ],
      "name": "tokenURI",
      "outputs": [
        {
          "internalType": "string",
          "name": "",
          "type": "string"
        }
      ],
      "stateMutability": "view",
      "type": "function"
    },
    {
      "inputs": [
        {
          "internalType": "address",
          "name": "from",
          "type": "address"
        },
        {
          "internalType": "address",
          "name": "to",
          "type": "address"
        },
        {
          "internalType": "uint256",
          "name": "tokenId",
          "type": "uint256"
        }
      ],
      "name": "transferFrom",
      "outputs": [],
      "stateMutability": "nonpayable",
      "type": "function"
    },
    {
      "inputs": [
        {
          "internalType": "address",
          "name": "newOwner",
          "type": "address"
        }
      ],
      "name": "transferOwnership",
      "outputs": [],
      "stateMutability": "nonpayable",
      "type": "function"
    },
    {
      "inputs": [
        {
          "components": [
            {
              "internalType": "address",
              "name": "sender",
              "type": "address"
            },
            {
              "internalType": "address",
              "name": "proxy",
              "type": "address"
            },
            {
              "internalType": "uint256",
              "name": "amount",
              "type": "uint256"
            },
            {
              "internalType": "uint256",
              "name": "nonce",
              "type": "uint256"
            }
          ],
          "internalType": "struct ProxyMintableERC721.MintRequest",
          "name": "req",
          "type": "tuple"
        },
        {
          "internalType": "bytes",
          "name": "signature",
          "type": "bytes"
        }
      ],
      "name": "verify",
      "outputs": [
        {
          "internalType": "bool",
          "name": "",
          "type": "bool"
        }
      ],
      "stateMutability": "view",
      "type": "function"
    },
    {
      "inputs": [],
      "name": "withdrawRemains",
      "outputs": [],
      "stateMutability": "nonpayable",
      "type": "function"
    },
    {
      "inputs": [],
      "name": "withdrawRewards",
      "outputs": [],
      "stateMutability": "nonpayable",
      "type": "function"
    }
  ],
  "bytecode": "0x600c805460ff1916600b9081179091556103606040526000610200908152600361022052600961024052601b6102605260516102805260f36102a0526102d96102c05261088b6102e0526119a161030052614ce36103205261e6a9610340526200006d91600d91906200028a565b506018805460ff1916600117905560006019819055601a819055601b553480156200009757600080fd5b506040516200342b3803806200342b833981016040819052620000ba91620002ea565b604051806040016040528060098152602001684c656d6f6e2047656d60b81b815250604051806040016040528060038152602001624c4d4760e81b8152506040518060400160405280600381526020016247656d60e81b815250604051806040016040528060018152602001603160f81b815250818185858160009081620001439190620003f2565b506001620001528282620003f2565b5050506200016f620001696200023460201b60201c565b62000238565b815160208084019190912082518383012060e08290526101008190524660a0818152604080517f8b73c3c69bb8fe3d512ecc4cf759cc79239f7b179b0ffacaa9a75d522b39400f81880181905281830187905260608201869052608082019490945230818401528151808203909301835260c00190528051940193909320919290916080523060c052610120525050506101409a909a52505050506001600160a01b03949094166101e05261016092909252610180526101a0526101c05250620004be565b3390565b600680546001600160a01b038381166001600160a01b0319831681179093556040519116919082907f8be0079c531659141344cd1fd0a4f28419497f9722a3daafe3b4186f6b6457e090600090a35050565b82600b8101928215620002c1579160200282015b82811115620002c1578251829061ffff169055916020019190600101906200029e565b50620002cf929150620002d3565b5090565b5b80821115620002cf5760008155600101620002d4565b60008060008060008060c087890312156200030457600080fd5b865160208801519096506001600160a01b03811681146200032457600080fd5b6040880151606089015160808a015160a0909a0151989b929a5090989097909650945092505050565b634e487b7160e01b600052604160045260246000fd5b600181811c908216806200037857607f821691505b6020821081036200039957634e487b7160e01b600052602260045260246000fd5b50919050565b601f821115620003ed57600081815260208120601f850160051c81016020861015620003c85750805b601f850160051c820191505b81811015620003e957828155600101620003d4565b5050505b505050565b81516001600160401b038111156200040e576200040e6200034d565b62000426816200041f845462000363565b846200039f565b602080601f8311600181146200045e5760008415620004455750858301515b600019600386901b1c1916600185901b178555620003e9565b600085815260208120601f198616915b828110156200048f578886015182559484019460019091019084016200046e565b5085821015620004ae5787850151600019600388901b60f8161c191681555b5050505050600190811b01905550565b60805160a05160c05160e05161010051610120516101405161016051610180516101a0516101c0516101e051612ed4620005576000396000818161152601526116b601526000610e1f0152600061185701526000611734015260006115ca015260006115a4015260006124470152600061249601526000612471015260006123ca015260006123f40152600061241e0152612ed46000f3fe6080604052600436106101cd5760003560e01c806370a08231116100f7578063ba20438e11610095578063cf6a440311610064578063cf6a44031461055e578063d1c2babb1461057e578063e985e9c514610591578063f2fde38b146105da57600080fd5b8063ba20438e146104f4578063c7b8981c14610509578063c87b56dd1461051e578063cb74082d1461053e57600080fd5b80638da5cb5b116100d15780638da5cb5b1461048157806395d89b411461049f578063a22cb465146104b4578063b88d4fde146104d457600080fd5b806370a0823114610437578063715018a614610457578063719ce73e1461046c57600080fd5b80632d0335ab1161016f57806342842e0e1161013e57806342842e0e146103a057806342e52798146103c05780636352211e146103d55780636d5e3032146103f557600080fd5b80632d0335ab146102e35780633af32abf146103275780633f113a611461036057806340c10f191461038057600080fd5b8063081812fc116101ab578063081812fc1461024b578063095ea7b3146102835780632388e996146102a357806323b872dd146102c357600080fd5b806301a9a352146101d257806301ffc9a7146101f457806306fdde0314610229575b600080fd5b3480156101de57600080fd5b506101f26101ed36600461297e565b6105fa565b005b34801561020057600080fd5b5061021461020f3660046129b1565b610623565b60405190151581526020015b60405180910390f35b34801561023557600080fd5b5061023e6106c0565b6040516102209190612a1e565b34801561025757600080fd5b5061026b610266366004612a31565b610752565b6040516001600160a01b039091168152602001610220565b34801561028f57600080fd5b506101f261029e366004612a4a565b610779565b3480156102af57600080fd5b506101f26102be366004612a76565b6108cd565b3480156102cf57600080fd5b506101f26102de366004612b01565b610a50565b3480156102ef57600080fd5b506103196102fe36600461297e565b6001600160a01b031660009081526008602052604090205490565b604051908152602001610220565b34801561033357600080fd5b5061021461034236600461297e565b6001600160a01b031660009081526009602052604090205460ff1690565b34801561036c57600080fd5b506101f261037b36600461297e565b610ac8565b34801561038c57600080fd5b506101f261039b366004612a4a565b610b83565b3480156103ac57600080fd5b506101f26103bb366004612b01565b610b91565b3480156103cc57600080fd5b506101f2610bac565b3480156103e157600080fd5b5061026b6103f0366004612a31565b610c16565b34801561040157600080fd5b50610425610410366004612a31565b6000908152600a602052604090205460ff1690565b60405160ff9091168152602001610220565b34801561044357600080fd5b5061031961045236600461297e565b610c7b565b34801561046357600080fd5b506101f2610d15565b34801561047857600080fd5b50601a54610319565b34801561048d57600080fd5b506006546001600160a01b031661026b565b3480156104ab57600080fd5b5061023e610d29565b3480156104c057600080fd5b506101f26104cf366004612b50565b610d38565b3480156104e057600080fd5b506101f26104ef366004612b9f565b610d43565b34801561050057600080fd5b506101f2610dc2565b34801561051557600080fd5b506101f2610ec7565b34801561052a57600080fd5b5061023e610539366004612a31565b61103f565b34801561054a57600080fd5b50610214610559366004612a76565b6110f3565b34801561056a57600080fd5b5061031961057936600461297e565b61123d565b6101f261058c366004612c7f565b6112b1565b34801561059d57600080fd5b506102146105ac366004612ca1565b6001600160a01b03918216600090815260056020908152604080832093909416825291909152205460ff1690565b3480156105e657600080fd5b506101f26105f536600461297e565b611893565b610602611923565b6001600160a01b03166000908152600960205260409020805460ff19169055565b60006001600160e01b031982167f80ac58cd00000000000000000000000000000000000000000000000000000000148061068657506001600160e01b031982167f5b5e139f00000000000000000000000000000000000000000000000000000000145b806106ba57507f01ffc9a7000000000000000000000000000000000000000000000000000000006001600160e01b03198316145b92915050565b6060600080546106cf90612ccf565b80601f01602080910402602001604051908101604052809291908181526020018280546106fb90612ccf565b80156107485780601f1061071d57610100808354040283529160200191610748565b820191906000526020600020905b81548152906001019060200180831161072b57829003601f168201915b5050505050905090565b600061075d8261197d565b506000908152600460205260409020546001600160a01b031690565b600061078482610c16565b9050806001600160a01b0316836001600160a01b0316036108125760405162461bcd60e51b815260206004820152602160248201527f4552433732313a20617070726f76616c20746f2063757272656e74206f776e6560448201527f720000000000000000000000000000000000000000000000000000000000000060648201526084015b60405180910390fd5b336001600160a01b038216148061084c57506001600160a01b038116600090815260056020908152604080832033845290915290205460ff165b6108be5760405162461bcd60e51b815260206004820152603d60248201527f4552433732313a20617070726f76652063616c6c6572206973206e6f7420746f60448201527f6b656e206f776e6572206f7220617070726f76656420666f7220616c6c0000006064820152608401610809565b6108c883836119e1565b505050565b600960006108de602086018661297e565b6001600160a01b0316815260208101919091526040016000205460ff1661096c5760405162461bcd60e51b8152602060048201526024808201527f50726f78794d696e743a2073656e646572206973206e6f742077686974656c6960448201527f73746564000000000000000000000000000000000000000000000000000000006064820152608401610809565b6109778383836110f3565b6109e95760405162461bcd60e51b815260206004820152602b60248201527f50726f78794d696e743a207369676e617475726520646f6573206e6f74206d6160448201527f74636820726571756573740000000000000000000000000000000000000000006064820152608401610809565b6109f860608401356001612d1f565b60086000610a0c604087016020880161297e565b6001600160a01b03166001600160a01b03168152602001908152602001600020819055506108c8836020016020810190610a46919061297e565b8460400135611a4f565b610a5b335b82611ac8565b610abd5760405162461bcd60e51b815260206004820152602d60248201527f4552433732313a2063616c6c6572206973206e6f7420746f6b656e206f776e6560448201526c1c881bdc88185c1c1c9bdd9959609a1b6064820152608401610809565b6108c8838383611b47565b610ad0611923565b6001600160a01b03811660009081526009602052604090205460ff1615610b5f5760405162461bcd60e51b815260206004820152602560248201527f53656e646572206164647265737320697320616c72656164792077686974656c60448201527f69737465640000000000000000000000000000000000000000000000000000006064820152608401610809565b6001600160a01b03166000908152600960205260409020805460ff19166001179055565b610b8d8282611a4f565b5050565b6108c883838360405180602001604052806000815250610d43565b610bb4611923565b60185460ff16610c065760405162461bcd60e51b815260206004820152601760248201527f4576656e7420616c726561647920636f6d706c657465640000000000000000006044820152606401610809565b6018805460ff1916905542601955565b6000818152600260205260408120546001600160a01b0316806106ba5760405162461bcd60e51b815260206004820152601860248201527f4552433732313a20696e76616c696420746f6b656e20494400000000000000006044820152606401610809565b60006001600160a01b038216610cf95760405162461bcd60e51b815260206004820152602960248201527f4552433732313a2061646472657373207a65726f206973206e6f74206120766160448201527f6c6964206f776e657200000000000000000000000000000000000000000000006064820152608401610809565b506001600160a01b031660009081526003602052604090205490565b610d1d611923565b610d276000611d4d565b565b6060600180546106cf90612ccf565b610b8d338383611d9f565b610d4e335b83611ac8565b610db05760405162461bcd60e51b815260206004820152602d60248201527f4552433732313a2063616c6c6572206973206e6f7420746f6b656e206f776e6560448201526c1c881bdc88185c1c1c9bdd9959609a1b6064820152608401610809565b610dbc84848484611e6d565b50505050565b610dca611923565b60185460ff1615610e1d5760405162461bcd60e51b815260206004820152601660248201527f4576656e74206973206e6f7420636f6d706c65746564000000000000000000006044820152606401610809565b7f0000000000000000000000000000000000000000000000000000000000000000601954610e4b9190612d1f565b4211610e995760405162461bcd60e51b815260206004820152601c60248201527f5769746864726177616c206e6f7420617661696c61626c65206e6f77000000006044820152606401610809565b604051339081904780156108fc02916000818181858888f19350505050158015610b8d573d6000803e3d6000fd5b60185460ff1615610f1a5760405162461bcd60e51b815260206004820152601660248201527f4576656e74206973206e6f7420636f6d706c65746564000000000000000000006044820152606401610809565b336000908152600b602052604090205480610f775760405162461bcd60e51b815260206004820152601160248201527f4e6f20656e6f7567687420706f696e74730000000000000000000000000000006044820152606401610809565b336000908152600b60205260408120819055601b54601a54610f9a908490612d32565b610fa49190612d49565b604051909150600090339083908381818185875af1925050503d8060008114610fe9576040519150601f19603f3d011682016040523d82523d6000602084013e610fee565b606091505b50509050806108c85760405162461bcd60e51b815260206004820152600f60248201527f526577617264206e6f742073656e7400000000000000000000000000000000006044820152606401610809565b606061104a8261197d565b600061108660408051808201909152601881527f68747470733a2f2f6578616d706c652e636f6d2f6e66742f0000000000000000602082015290565b905060008151116110a657604051806020016040528060008152506110ec565b806110cb6110c3856000908152600a602052604090205460ff1690565b60ff16611eeb565b6040516020016110dc929190612d6b565b6040516020818303038152906040525b9392505050565b6000806111ce84848080601f0160208091040260200160405190810160405280939291908181526020018383808284376000920191909152506111c892507f581876f5aa376f49a25bf7104865572d181fc041c0f7584b87c0b0c6958385ec9150611163905060208a018a61297e565b61117360408b0160208c0161297e565b6040805160208101949094526001600160a01b03928316848201529116606083810191909152908a0135608083015289013560a082015260c00160405160208183030381529060405280519060200120611f8b565b90611ff4565b90506060850135600860006111e96040890160208a0161297e565b6001600160a01b03166001600160a01b0316815260200190815260200160002054148015611234575061121f602086018661297e565b6001600160a01b0316816001600160a01b0316145b95945050505050565b60006001600160a01b0382166112955760405162461bcd60e51b815260206004820152600f60248201527f496e76616c6964206164647265737300000000000000000000000000000000006044820152606401610809565b506001600160a01b03166000908152600b602052604090205490565b6112ba33610d48565b61132c5760405162461bcd60e51b815260206004820152603360248201527f4552433732313a2063616c6c6572206973206e6f7420666972737420746f6b6560448201527f6e206f776e6572206f7220617070726f766564000000000000000000000000006064820152608401610809565b61133533610a55565b6113a75760405162461bcd60e51b815260206004820152603160248201527f47656d3a2063616c6c6572206973206e6f74207365636f6e6420746f6b656e2060448201527f6f776e6572206f7220617070726f7665640000000000000000000000000000006064820152608401610809565b8082036113f65760405162461bcd60e51b815260206004820152601660248201527f47656d3a2063616e74206d6572676520697473656c66000000000000000000006044820152606401610809565b600c5460ff16611415836000908152600a602052604090205460ff1690565b60ff16106114655760405162461bcd60e51b815260206004820152601660248201527f47656d3a206d6178206c6576656c2072656163686564000000000000000000006044820152606401610809565b6000818152600a60205260408082205484835291205460ff9182169116146114f55760405162461bcd60e51b815260206004820152602e60248201527f47656d3a2063616e74206d6572676520737469636b657273207769746820646960448201527f66666572656e74206c6576656c730000000000000000000000000000000000006064820152608401610809565b6040517f1ff7edab0000000000000000000000000000000000000000000000000000000081523360048201526000907f00000000000000000000000000000000000000000000000000000000000000006001600160a01b031690631ff7edab90602401602060405180830381865afa158015611575573d6000803e3d6000fd5b505050506040513d601f19601f820116820180604052508101906115999190612d9a565b90506000816115c8577f00000000000000000000000000000000000000000000000000000000000000006115ea565b7f00000000000000000000000000000000000000000000000000000000000000005b90503481111561163c5760405162461bcd60e51b815260206004820152601760248201527f47656d3a20496e73756666696369656e742066756e64730000000000000000006044820152606401610809565b61164583612018565b6000848152600a6020526040812080546001929061166790849060ff16612db7565b92506101000a81548160ff021916908360ff16021790555081156117eb576040517fc4cbd5e50000000000000000000000000000000000000000000000000000000081523360048201526000907f00000000000000000000000000000000000000000000000000000000000000006001600160a01b03169063c4cbd5e590602401602060405180830381865afa158015611705573d6000803e3d6000fd5b505050506040513d601f19601f820116820180604052508101906117299190612dd0565b6001600160a01b03167f000000000000000000000000000000000000000000000000000000000000000060405160006040518083038185875af1925050503d8060008114611793576040519150601f19603f3d011682016040523d82523d6000602084013e611798565b606091505b50509050806117e95760405162461bcd60e51b815260206004820152601860248201527f526566657272616c20726577617264206e6f742073656e7400000000000000006044820152606401610809565b505b60185460ff1615610dbc576000848152600a60205260408120546118119060ff166120bb565b336000908152600b6020526040812080549293508392909190611835908490612d1f565b9250508190555080601b600082825461184e9190612d1f565b925050819055507f0000000000000000000000000000000000000000000000000000000000000000601a60008282546118879190612d1f565b90915550505050505050565b61189b611923565b6001600160a01b0381166119175760405162461bcd60e51b815260206004820152602660248201527f4f776e61626c653a206e6577206f776e657220697320746865207a65726f206160448201527f64647265737300000000000000000000000000000000000000000000000000006064820152608401610809565b61192081611d4d565b50565b6006546001600160a01b03163314610d275760405162461bcd60e51b815260206004820181905260248201527f4f776e61626c653a2063616c6c6572206973206e6f7420746865206f776e65726044820152606401610809565b6000818152600260205260409020546001600160a01b03166119205760405162461bcd60e51b815260206004820152601860248201527f4552433732313a20696e76616c696420746f6b656e20494400000000000000006044820152606401610809565b600081815260046020526040902080546001600160a01b0319166001600160a01b0384169081179091558190611a1682610c16565b6001600160a01b03167f8c5be1e5ebec7d5bd14f71427d1e84f3dd0314c0f7b2291e5b200ac8c7c3b92560405160405180910390a45050565b60005b818110156108c8576000611a6560075490565b9050611a75600780546001019055565b611a7f84826120db565b60405181906001600160a01b038616907f987d0a899f18facb2e67565fc2fc69f4a45896a3e2f6a0117d69c51bace9e09290600090a35080611ac081612ded565b915050611a52565b600080611ad483610c16565b9050806001600160a01b0316846001600160a01b03161480611b1b57506001600160a01b0380821660009081526005602090815260408083209388168352929052205460ff165b80611b3f5750836001600160a01b0316611b3484610752565b6001600160a01b0316145b949350505050565b826001600160a01b0316611b5a82610c16565b6001600160a01b031614611bbe5760405162461bcd60e51b815260206004820152602560248201527f4552433732313a207472616e736665722066726f6d20696e636f72726563742060448201526437bbb732b960d91b6064820152608401610809565b6001600160a01b038216611c395760405162461bcd60e51b8152602060048201526024808201527f4552433732313a207472616e7366657220746f20746865207a65726f2061646460448201527f72657373000000000000000000000000000000000000000000000000000000006064820152608401610809565b611c4683838360016120f5565b826001600160a01b0316611c5982610c16565b6001600160a01b031614611cbd5760405162461bcd60e51b815260206004820152602560248201527f4552433732313a207472616e736665722066726f6d20696e636f72726563742060448201526437bbb732b960d91b6064820152608401610809565b600081815260046020908152604080832080546001600160a01b03199081169091556001600160a01b0387811680865260038552838620805460001901905590871680865283862080546001019055868652600290945282852080549092168417909155905184937fddf252ad1be2c89b69c2b068fc378daa952ba7f163c4a11628f55a4df523b3ef91a4505050565b600680546001600160a01b038381166001600160a01b0319831681179093556040519116919082907f8be0079c531659141344cd1fd0a4f28419497f9722a3daafe3b4186f6b6457e090600090a35050565b816001600160a01b0316836001600160a01b031603611e005760405162461bcd60e51b815260206004820152601960248201527f4552433732313a20617070726f766520746f2063616c6c6572000000000000006044820152606401610809565b6001600160a01b03838116600081815260056020908152604080832094871680845294825291829020805460ff191686151590811790915591519182527f17307eab39ab6107e8899845ad3d59bd9653f200f220920489ca2b5937696c31910160405180910390a3505050565b611e78848484611b47565b611e848484848461218f565b610dbc5760405162461bcd60e51b815260206004820152603260248201527f4552433732313a207472616e7366657220746f206e6f6e20455243373231526560448201527131b2b4bb32b91034b6b83632b6b2b73a32b960711b6064820152608401610809565b60606000611ef8836122db565b600101905060008167ffffffffffffffff811115611f1857611f18612b89565b6040519080825280601f01601f191660200182016040528015611f42576020820181803683370190505b5090508181016020015b600019017f3031323334353637383961626364656600000000000000000000000000000000600a86061a8153600a8504945084611f4c57509392505050565b60006106ba611f986123bd565b836040517f19010000000000000000000000000000000000000000000000000000000000006020820152602281018390526042810182905260009060620160405160208183030381529060405280519060200120905092915050565b600080600061200385856124e4565b9150915061201081612529565b509392505050565b600061202382610c16565b90506120338160008460016120f5565b61203c82610c16565b600083815260046020908152604080832080546001600160a01b03199081169091556001600160a01b0385168085526003845282852080546000190190558785526002909352818420805490911690555192935084927fddf252ad1be2c89b69c2b068fc378daa952ba7f163c4a11628f55a4df523b3ef908390a45050565b6000600d8260ff16600b81106120d3576120d3612e06565b015492915050565b610b8d82826040518060200160405280600081525061268e565b6001600160a01b03841615610dbc576000828152600a602052604081205461211f9060ff166120bb565b6001600160a01b0386166000908152600b602052604081208054929350839290919061214c908490612e1c565b90915550506001600160a01b03841615612188576001600160a01b0384166000908152600b602052604081208054839290611887908490612d1f565b5050505050565b60006001600160a01b0384163b156122d057604051630a85bd0160e11b81526001600160a01b0385169063150b7a02906121d3903390899088908890600401612e2f565b6020604051808303816000875af192505050801561220e575060408051601f3d908101601f1916820190925261220b91810190612e6b565b60015b6122b6573d80801561223c576040519150601f19603f3d011682016040523d82523d6000602084013e612241565b606091505b5080516000036122ae5760405162461bcd60e51b815260206004820152603260248201527f4552433732313a207472616e7366657220746f206e6f6e20455243373231526560448201527131b2b4bb32b91034b6b83632b6b2b73a32b960711b6064820152608401610809565b805181602001fd5b6001600160e01b031916630a85bd0160e11b149050611b3f565b506001949350505050565b6000807a184f03e93ff9f4daa797ed6e38ed64bf6a1f0100000000000000008310612324577a184f03e93ff9f4daa797ed6e38ed64bf6a1f010000000000000000830492506040015b6d04ee2d6d415b85acef81000000008310612350576d04ee2d6d415b85acef8100000000830492506020015b662386f26fc10000831061236e57662386f26fc10000830492506010015b6305f5e1008310612386576305f5e100830492506008015b612710831061239a57612710830492506004015b606483106123ac576064830492506002015b600a83106106ba5760010192915050565b6000306001600160a01b037f00000000000000000000000000000000000000000000000000000000000000001614801561241657507f000000000000000000000000000000000000000000000000000000000000000046145b1561244057507f000000000000000000000000000000000000000000000000000000000000000090565b50604080517f00000000000000000000000000000000000000000000000000000000000000006020808301919091527f0000000000000000000000000000000000000000000000000000000000000000828401527f000000000000000000000000000000000000000000000000000000000000000060608301524660808301523060a0808401919091528351808403909101815260c0909201909252805191012090565b600080825160410361251a5760208301516040840151606085015160001a61250e8782858561270c565b94509450505050612522565b506000905060025b9250929050565b600081600481111561253d5761253d612e88565b036125455750565b600181600481111561255957612559612e88565b036125a65760405162461bcd60e51b815260206004820152601860248201527f45434453413a20696e76616c6964207369676e617475726500000000000000006044820152606401610809565b60028160048111156125ba576125ba612e88565b036126075760405162461bcd60e51b815260206004820152601f60248201527f45434453413a20696e76616c6964207369676e6174757265206c656e677468006044820152606401610809565b600381600481111561261b5761261b612e88565b036119205760405162461bcd60e51b815260206004820152602260248201527f45434453413a20696e76616c6964207369676e6174757265202773272076616c60448201527f75650000000000000000000000000000000000000000000000000000000000006064820152608401610809565b61269883836127d0565b6126a5600084848461218f565b6108c85760405162461bcd60e51b815260206004820152603260248201527f4552433732313a207472616e7366657220746f206e6f6e20455243373231526560448201527131b2b4bb32b91034b6b83632b6b2b73a32b960711b6064820152608401610809565b6000807f7fffffffffffffffffffffffffffffff5d576e7357a4501ddfe92f46681b20a083111561274357506000905060036127c7565b6040805160008082526020820180845289905260ff881692820192909252606081018690526080810185905260019060a0016020604051602081039080840390855afa158015612797573d6000803e3d6000fd5b5050604051601f1901519150506001600160a01b0381166127c0576000600192509250506127c7565b9150600090505b94509492505050565b6001600160a01b0382166128265760405162461bcd60e51b815260206004820181905260248201527f4552433732313a206d696e7420746f20746865207a65726f20616464726573736044820152606401610809565b6000818152600260205260409020546001600160a01b03161561288b5760405162461bcd60e51b815260206004820152601c60248201527f4552433732313a20746f6b656e20616c7265616479206d696e746564000000006044820152606401610809565b6128996000838360016120f5565b6000818152600260205260409020546001600160a01b0316156128fe5760405162461bcd60e51b815260206004820152601c60248201527f4552433732313a20746f6b656e20616c7265616479206d696e746564000000006044820152606401610809565b6001600160a01b038216600081815260036020908152604080832080546001019055848352600290915280822080546001600160a01b0319168417905551839291907fddf252ad1be2c89b69c2b068fc378daa952ba7f163c4a11628f55a4df523b3ef908290a45050565b6001600160a01b038116811461192057600080fd5b60006020828403121561299057600080fd5b81356110ec81612969565b6001600160e01b03198116811461192057600080fd5b6000602082840312156129c357600080fd5b81356110ec8161299b565b60005b838110156129e95781810151838201526020016129d1565b50506000910152565b60008151808452612a0a8160208601602086016129ce565b601f01601f19169290920160200192915050565b6020815260006110ec60208301846129f2565b600060208284031215612a4357600080fd5b5035919050565b60008060408385031215612a5d57600080fd5b8235612a6881612969565b946020939093013593505050565b600080600083850360a0811215612a8c57600080fd5b6080811215612a9a57600080fd5b50839250608084013567ffffffffffffffff80821115612ab957600080fd5b818601915086601f830112612acd57600080fd5b813581811115612adc57600080fd5b876020828501011115612aee57600080fd5b6020830194508093505050509250925092565b600080600060608486031215612b1657600080fd5b8335612b2181612969565b92506020840135612b3181612969565b929592945050506040919091013590565b801515811461192057600080fd5b60008060408385031215612b6357600080fd5b8235612b6e81612969565b91506020830135612b7e81612b42565b809150509250929050565b634e487b7160e01b600052604160045260246000fd5b60008060008060808587031215612bb557600080fd5b8435612bc081612969565b93506020850135612bd081612969565b925060408501359150606085013567ffffffffffffffff80821115612bf457600080fd5b818701915087601f830112612c0857600080fd5b813581811115612c1a57612c1a612b89565b604051601f8201601f19908116603f01168101908382118183101715612c4257612c42612b89565b816040528281528a6020848701011115612c5b57600080fd5b82602086016020830137600060208483010152809550505050505092959194509250565b60008060408385031215612c9257600080fd5b50508035926020909101359150565b60008060408385031215612cb457600080fd5b8235612cbf81612969565b91506020830135612b7e81612969565b600181811c90821680612ce357607f821691505b602082108103612d0357634e487b7160e01b600052602260045260246000fd5b50919050565b634e487b7160e01b600052601160045260246000fd5b808201808211156106ba576106ba612d09565b80820281158282048414176106ba576106ba612d09565b600082612d6657634e487b7160e01b600052601260045260246000fd5b500490565b60008351612d7d8184602088016129ce565b835190830190612d918183602088016129ce565b01949350505050565b600060208284031215612dac57600080fd5b81516110ec81612b42565b60ff81811683821601908111156106ba576106ba612d09565b600060208284031215612de257600080fd5b81516110ec81612969565b600060018201612dff57612dff612d09565b5060010190565b634e487b7160e01b600052603260045260246000fd5b818103818111156106ba576106ba612d09565b60006001600160a01b03808716835280861660208401525083604083015260806060830152612e6160808301846129f2565b9695505050505050565b600060208284031215612e7d57600080fd5b81516110ec8161299b565b634e487b7160e01b600052602160045260246000fdfea26469706673582212209debd515aecff28670dea66a49c4ab15a400b618245837893856144501677b0d64736f6c63430008120033",
  "linkReferences": {},
  "deployedLinkReferences": {}
}