{
  "_format": "hh-sol-artifact-1",
  "contractName": "Gem",
  "sourceName": "contracts/Gem.sol",
  "abi": [
    {
      "inputs": [
        {
          "internalType": "uint256",
          "name": "pricePerMerge_",
          "type": "uint256"
        },
        {
          "internalType": "address",
          "name": "referralContractAddress_",
          "type": "address"
        },
        {
          "internalType": "uint256",
          "name": "referralPricePerMerge_",
          "type": "uint256"
        },
        {
          "internalType": "uint256",
          "name": "referralReward_",
          "type": "uint256"
        },
        {
          "internalType": "uint256",
          "name": "prizePoolReward_",
          "type": "uint256"
        },
        {
          "internalType": "uint256",
          "name": "withdrawalDelay_",
          "type": "uint256"
        },
        {
          "internalType": "address",
          "name": "treasuryAddress_",
          "type": "address"
        }
      ],
      "stateMutability": "nonpayable",
      "type": "constructor"
    },
    {
      "anonymous": false,
      "inputs": [
        {
          "indexed": true,
          "internalType": "address",
          "name": "owner",
          "type": "address"
        },
        {
          "indexed": true,
          "internalType": "address",
          "name": "approved",
          "type": "address"
        },
        {
          "indexed": true,
          "internalType": "uint256",
          "name": "tokenId",
          "type": "uint256"
        }
      ],
      "name": "Approval",
      "type": "event"
    },
    {
      "anonymous": false,
      "inputs": [
        {
          "indexed": true,
          "internalType": "address",
          "name": "owner",
          "type": "address"
        },
        {
          "indexed": true,
          "internalType": "address",
          "name": "operator",
          "type": "address"
        },
        {
          "indexed": false,
          "internalType": "bool",
          "name": "approved",
          "type": "bool"
        }
      ],
      "name": "ApprovalForAll",
      "type": "event"
    },
    {
      "anonymous": false,
      "inputs": [
        {
          "indexed": true,
          "internalType": "address",
          "name": "to",
          "type": "address"
        },
        {
          "indexed": false,
          "internalType": "uint8",
          "name": "level",
          "type": "uint8"
        }
      ],
      "name": "Merged",
      "type": "event"
    },
    {
      "anonymous": false,
      "inputs": [
        {
          "indexed": true,
          "internalType": "address",
          "name": "previousOwner",
          "type": "address"
        },
        {
          "indexed": true,
          "internalType": "address",
          "name": "newOwner",
          "type": "address"
        }
      ],
      "name": "OwnershipTransferred",
      "type": "event"
    },
    {
      "anonymous": false,
      "inputs": [
        {
          "indexed": true,
          "internalType": "address",
          "name": "from",
          "type": "address"
        },
        {
          "indexed": true,
          "internalType": "address",
          "name": "to",
          "type": "address"
        },
        {
          "indexed": true,
          "internalType": "uint256",
          "name": "tokenId",
          "type": "uint256"
        }
      ],
      "name": "Transfer",
      "type": "event"
    },
    {
      "inputs": [
        {
          "internalType": "address",
          "name": "sender",
          "type": "address"
        }
      ],
      "name": "addSenderToWhitelist",
      "outputs": [],
      "stateMutability": "nonpayable",
      "type": "function"
    },
    {
      "inputs": [
        {
          "internalType": "address",
          "name": "to",
          "type": "address"
        },
        {
          "internalType": "uint256",
          "name": "tokenId",
          "type": "uint256"
        }
      ],
      "name": "approve",
      "outputs": [],
      "stateMutability": "nonpayable",
      "type": "function"
    },
    {
      "inputs": [
        {
          "internalType": "address",
          "name": "owner",
          "type": "address"
        }
      ],
      "name": "balanceOf",
      "outputs": [
        {
          "internalType": "uint256",
          "name": "",
          "type": "uint256"
        }
      ],
      "stateMutability": "view",
      "type": "function"
    },
    {
      "inputs": [],
      "name": "completeEvent",
      "outputs": [],
      "stateMutability": "nonpayable",
      "type": "function"
    },
    {
      "inputs": [
        {
          "internalType": "uint256",
          "name": "tokenId",
          "type": "uint256"
        }
      ],
      "name": "getApproved",
      "outputs": [
        {
          "internalType": "address",
          "name": "",
          "type": "address"
        }
      ],
      "stateMutability": "view",
      "type": "function"
    },
    {
      "inputs": [
        {
          "internalType": "address",
          "name": "from",
          "type": "address"
        }
      ],
      "name": "getNonce",
      "outputs": [
        {
          "internalType": "uint256",
          "name": "",
          "type": "uint256"
        }
      ],
      "stateMutability": "view",
      "type": "function"
    },
    {
      "inputs": [
        {
          "internalType": "address",
          "name": "owner",
          "type": "address"
        },
        {
          "internalType": "address",
          "name": "operator",
          "type": "address"
        }
      ],
      "name": "isApprovedForAll",
      "outputs": [
        {
          "internalType": "bool",
          "name": "",
          "type": "bool"
        }
      ],
      "stateMutability": "view",
      "type": "function"
    },
    {
      "inputs": [
        {
          "internalType": "address",
          "name": "sender",
          "type": "address"
        }
      ],
      "name": "isWhitelisted",
      "outputs": [
        {
          "internalType": "bool",
          "name": "",
          "type": "bool"
        }
      ],
      "stateMutability": "view",
      "type": "function"
    },
    {
      "inputs": [
        {
          "internalType": "uint256",
          "name": "tokenId",
          "type": "uint256"
        }
      ],
      "name": "levelOf",
      "outputs": [
        {
          "internalType": "uint8",
          "name": "",
          "type": "uint8"
        }
      ],
      "stateMutability": "view",
      "type": "function"
    },
    {
      "inputs": [
        {
          "internalType": "uint256",
          "name": "firstTokenId",
          "type": "uint256"
        },
        {
          "internalType": "uint256",
          "name": "secondTokenId",
          "type": "uint256"
        }
      ],
      "name": "merge",
      "outputs": [],
      "stateMutability": "payable",
      "type": "function"
    },
    {
      "inputs": [
        {
          "internalType": "address",
          "name": "to",
          "type": "address"
        },
        {
          "internalType": "uint8",
          "name": "level",
          "type": "uint8"
        }
      ],
      "name": "mint",
      "outputs": [],
      "stateMutability": "nonpayable",
      "type": "function"
    },
    {
      "inputs": [],
      "name": "name",
      "outputs": [
        {
          "internalType": "string",
          "name": "",
          "type": "string"
        }
      ],
      "stateMutability": "view",
      "type": "function"
    },
    {
      "inputs": [],
      "name": "owner",
      "outputs": [
        {
          "internalType": "address",
          "name": "",
          "type": "address"
        }
      ],
      "stateMutability": "view",
      "type": "function"
    },
    {
      "inputs": [
        {
          "internalType": "uint256",
          "name": "tokenId",
          "type": "uint256"
        }
      ],
      "name": "ownerOf",
      "outputs": [
        {
          "internalType": "address",
          "name": "",
          "type": "address"
        }
      ],
      "stateMutability": "view",
      "type": "function"
    },
    {
      "inputs": [
        {
          "components": [
            {
              "internalType": "address",
              "name": "sender",
              "type": "address"
            },
            {
              "internalType": "address",
              "name": "proxy",
              "type": "address"
            },
            {
              "internalType": "uint8",
              "name": "level",
              "type": "uint8"
            },
            {
              "internalType": "uint256",
              "name": "nonce",
              "type": "uint256"
            }
          ],
          "internalType": "struct Gem.MintRequest",
          "name": "req",
          "type": "tuple"
        },
        {
          "internalType": "bytes",
          "name": "signature",
          "type": "bytes"
        }
      ],
      "name": "proxyMint",
      "outputs": [],
      "stateMutability": "nonpayable",
      "type": "function"
    },
    {
      "inputs": [
        {
          "internalType": "address",
          "name": "sender",
          "type": "address"
        }
      ],
      "name": "removeSenderFromWhitelist",
      "outputs": [],
      "stateMutability": "nonpayable",
      "type": "function"
    },
    {
      "inputs": [],
      "name": "renounceOwnership",
      "outputs": [],
      "stateMutability": "nonpayable",
      "type": "function"
    },
    {
      "inputs": [
        {
          "internalType": "address",
          "name": "from",
          "type": "address"
        },
        {
          "internalType": "address",
          "name": "to",
          "type": "address"
        },
        {
          "internalType": "uint256",
          "name": "tokenId",
          "type": "uint256"
        }
      ],
      "name": "safeTransferFrom",
      "outputs": [],
      "stateMutability": "nonpayable",
      "type": "function"
    },
    {
      "inputs": [
        {
          "internalType": "address",
          "name": "from",
          "type": "address"
        },
        {
          "internalType": "address",
          "name": "to",
          "type": "address"
        },
        {
          "internalType": "uint256",
          "name": "tokenId",
          "type": "uint256"
        },
        {
          "internalType": "bytes",
          "name": "data",
          "type": "bytes"
        }
      ],
      "name": "safeTransferFrom",
      "outputs": [],
      "stateMutability": "nonpayable",
      "type": "function"
    },
    {
      "inputs": [
        {
          "internalType": "address",
          "name": "operator",
          "type": "address"
        },
        {
          "internalType": "bool",
          "name": "approved",
          "type": "bool"
        }
      ],
      "name": "setApprovalForAll",
      "outputs": [],
      "stateMutability": "nonpayable",
      "type": "function"
    },
    {
      "inputs": [
        {
          "internalType": "bytes4",
          "name": "interfaceId",
          "type": "bytes4"
        }
      ],
      "name": "supportsInterface",
      "outputs": [
        {
          "internalType": "bool",
          "name": "",
          "type": "bool"
        }
      ],
      "stateMutability": "view",
      "type": "function"
    },
    {
      "inputs": [],
      "name": "symbol",
      "outputs": [
        {
          "internalType": "string",
          "name": "",
          "type": "string"
        }
      ],
      "stateMutability": "view",
      "type": "function"
    },
    {
      "inputs": [
        {
          "internalType": "uint256",
          "name": "tokenId",
          "type": "uint256"
        }
      ],
      "name": "tokenURI",
      "outputs": [
        {
          "internalType": "string",
          "name": "",
          "type": "string"
        }
      ],
      "stateMutability": "view",
      "type": "function"
    },
    {
      "inputs": [
        {
          "internalType": "address",
          "name": "from",
          "type": "address"
        },
        {
          "internalType": "address",
          "name": "to",
          "type": "address"
        },
        {
          "internalType": "uint256",
          "name": "tokenId",
          "type": "uint256"
        }
      ],
      "name": "transferFrom",
      "outputs": [],
      "stateMutability": "nonpayable",
      "type": "function"
    },
    {
      "inputs": [
        {
          "internalType": "address",
          "name": "newOwner",
          "type": "address"
        }
      ],
      "name": "transferOwnership",
      "outputs": [],
      "stateMutability": "nonpayable",
      "type": "function"
    },
    {
      "inputs": [
        {
          "components": [
            {
              "internalType": "address",
              "name": "sender",
              "type": "address"
            },
            {
              "internalType": "address",
              "name": "proxy",
              "type": "address"
            },
            {
              "internalType": "uint8",
              "name": "level",
              "type": "uint8"
            },
            {
              "internalType": "uint256",
              "name": "nonce",
              "type": "uint256"
            }
          ],
          "internalType": "struct Gem.MintRequest",
          "name": "req",
          "type": "tuple"
        },
        {
          "internalType": "bytes",
          "name": "signature",
          "type": "bytes"
        }
      ],
      "name": "verify",
      "outputs": [
        {
          "internalType": "bool",
          "name": "",
          "type": "bool"
        }
      ],
      "stateMutability": "view",
      "type": "function"
    }
  ],
  "bytecode": "0x610220604052600b805461ffff19166101091790556000600c553480156200002657600080fd5b506040516200304a3803806200304a833981016040819052620000499162000235565b6040518060400160405280600381526020016247656d60e81b815250604051806040016040528060018152602001601960f91b815250604051806040016040528060098152602001684c656d6f6e2047656d60b81b815250604051806040016040528060038152602001624c4d4760e81b8152508160009081620000ce919062000342565b506001620000dd828262000342565b505050620000fa620000f4620001c260201b60201c565b620001c6565b815160208084019190912082518383012060e08290526101008190524660a0818152604080517f8b73c3c69bb8fe3d512ecc4cf759cc79239f7b179b0ffacaa9a75d522b39400f81880181905281830187905260608201869052608082019490945230818401528151808203909301835260c00190528051940193909320919290916080523060c05261012052505050610140979097526001600160a01b039586166101e05261016094909452610180929092526101a0526101c0521661020052506200040e565b3390565b600680546001600160a01b038381166001600160a01b0319831681179093556040519116919082907f8be0079c531659141344cd1fd0a4f28419497f9722a3daafe3b4186f6b6457e090600090a35050565b80516001600160a01b03811681146200023057600080fd5b919050565b600080600080600080600060e0888a0312156200025157600080fd5b87519650620002636020890162000218565b955060408801519450606088015193506080880151925060a088015191506200028f60c0890162000218565b905092959891949750929550565b634e487b7160e01b600052604160045260246000fd5b600181811c90821680620002c857607f821691505b602082108103620002e957634e487b7160e01b600052602260045260246000fd5b50919050565b601f8211156200033d57600081815260208120601f850160051c81016020861015620003185750805b601f850160051c820191505b81811015620003395782815560010162000324565b5050505b505050565b81516001600160401b038111156200035e576200035e6200029d565b62000376816200036f8454620002b3565b84620002ef565b602080601f831160018114620003ae5760008415620003955750858301515b600019600386901b1c1916600185901b17855562000339565b600085815260208120601f198616915b82811015620003df57888601518255948401946001909101908401620003be565b5085821015620003fe5787850151600019600388901b60f8161c191681555b5050505050600190811b01905550565b60805160a05160c05160e05161010051610120516101405161016051610180516101a0516101c0516101e05161020051612b97620004b3600039600061133401526000818161103e01526111cf015260005050600050506000818161124d0152611307015260006110e2015260006110bc01526000611e8c01526000611edb01526000611eb601526000611e0f01526000611e3901526000611e630152612b976000f3fe6080604052600436106101a15760003560e01c80636d5e3032116100e1578063ad719d0a1161008a578063d1c2babb11610064578063d1c2babb146104d3578063e41b56ee146104e6578063e985e9c514610506578063f2fde38b1461054f57600080fd5b8063ad719d0a14610473578063b88d4fde14610493578063c87b56dd146104b357600080fd5b80638da5cb5b116100bb5780638da5cb5b1461042057806395d89b411461043e578063a22cb4651461045357600080fd5b80636d5e3032146103a957806370a08231146103eb578063715018a61461040b57600080fd5b80632d0335ab1161014e57806342842e0e1161012857806342842e0e1461033457806342e52798146103545780636352211e14610369578063691562a01461038957600080fd5b80632d0335ab146102975780633af32abf146102db5780633f113a611461031457600080fd5b8063081812fc1161017f578063081812fc1461021f578063095ea7b31461025757806323b872dd1461027757600080fd5b806301a9a352146101a657806301ffc9a7146101c857806306fdde03146101fd575b600080fd5b3480156101b257600080fd5b506101c66101c13660046125e3565b61056f565b005b3480156101d457600080fd5b506101e86101e336600461261d565b610598565b60405190151581526020015b60405180910390f35b34801561020957600080fd5b50610212610635565b6040516101f4919061268a565b34801561022b57600080fd5b5061023f61023a36600461269d565b6106c7565b6040516001600160a01b0390911681526020016101f4565b34801561026357600080fd5b506101c66102723660046126b6565b6106ee565b34801561028357600080fd5b506101c66102923660046126e2565b610842565b3480156102a357600080fd5b506102cd6102b23660046125e3565b6001600160a01b031660009081526009602052604090205490565b6040519081526020016101f4565b3480156102e757600080fd5b506101e86102f63660046125e3565b6001600160a01b03166000908152600a602052604090205460ff1690565b34801561032057600080fd5b506101c661032f3660046125e3565b6108ba565b34801561034057600080fd5b506101c661034f3660046126e2565b610975565b34801561036057600080fd5b506101c6610990565b34801561037557600080fd5b5061023f61038436600461269d565b610a00565b34801561039557600080fd5b506101c66103a4366004612739565b610a65565b3480156103b557600080fd5b506103d96103c436600461269d565b60009081526007602052604090205460ff1690565b60405160ff90911681526020016101f4565b3480156103f757600080fd5b506102cd6104063660046125e3565b610ad2565b34801561041757600080fd5b506101c6610b6c565b34801561042c57600080fd5b506006546001600160a01b031661023f565b34801561044a57600080fd5b50610212610b80565b34801561045f57600080fd5b506101c661046e36600461277c565b610b8f565b34801561047f57600080fd5b506101e861048e3660046127b5565b610b9a565b34801561049f57600080fd5b506101c66104ae366004612856565b610cf5565b3480156104bf57600080fd5b506102126104ce36600461269d565b610d74565b6101c66104e1366004612936565b610dc9565b3480156104f257600080fd5b506101c66105013660046127b5565b611434565b34801561051257600080fd5b506101e8610521366004612958565b6001600160a01b03918216600090815260056020908152604080832093909416825291909152205460ff1690565b34801561055b57600080fd5b506101c661056a3660046125e3565b6115ec565b61057761167c565b6001600160a01b03166000908152600a60205260409020805460ff19169055565b60006001600160e01b031982167f80ac58cd0000000000000000000000000000000000000000000000000000000014806105fb57506001600160e01b031982167f5b5e139f00000000000000000000000000000000000000000000000000000000145b8061062f57507f01ffc9a7000000000000000000000000000000000000000000000000000000006001600160e01b03198316145b92915050565b60606000805461064490612986565b80601f016020809104026020016040519081016040528092919081815260200182805461067090612986565b80156106bd5780601f10610692576101008083540402835291602001916106bd565b820191906000526020600020905b8154815290600101906020018083116106a057829003601f168201915b5050505050905090565b60006106d2826116d6565b506000908152600460205260409020546001600160a01b031690565b60006106f982610a00565b9050806001600160a01b0316836001600160a01b0316036107875760405162461bcd60e51b815260206004820152602160248201527f4552433732313a20617070726f76616c20746f2063757272656e74206f776e6560448201527f720000000000000000000000000000000000000000000000000000000000000060648201526084015b60405180910390fd5b336001600160a01b03821614806107c157506001600160a01b038116600090815260056020908152604080832033845290915290205460ff165b6108335760405162461bcd60e51b815260206004820152603d60248201527f4552433732313a20617070726f76652063616c6c6572206973206e6f7420746f60448201527f6b656e206f776e6572206f7220617070726f76656420666f7220616c6c000000606482015260840161077e565b61083d838361173a565b505050565b61084d335b826117a8565b6108af5760405162461bcd60e51b815260206004820152602d60248201527f4552433732313a2063616c6c6572206973206e6f7420746f6b656e206f776e6560448201526c1c881bdc88185c1c1c9bdd9959609a1b606482015260840161077e565b61083d838383611827565b6108c261167c565b6001600160a01b0381166000908152600a602052604090205460ff16156109515760405162461bcd60e51b815260206004820152602560248201527f53656e646572206164647265737320697320616c72656164792077686974656c60448201527f6973746564000000000000000000000000000000000000000000000000000000606482015260840161077e565b6001600160a01b03166000908152600a60205260409020805460ff19166001179055565b61083d83838360405180602001604052806000815250610cf5565b61099861167c565b600b54610100900460ff166109ef5760405162461bcd60e51b815260206004820152601760248201527f4576656e7420616c726561647920636f6d706c65746564000000000000000000604482015260640161077e565b600b805461ff001916905542600c55565b6000818152600260205260408120546001600160a01b03168061062f5760405162461bcd60e51b815260206004820152601860248201527f4552433732313a20696e76616c696420746f6b656e2049440000000000000000604482015260640161077e565b336000908152600a602052604090205460ff16610ac45760405162461bcd60e51b815260206004820152601b60248201527f4d696e743a2063616c6c6572206973206e6f74205069636b4178650000000000604482015260640161077e565b610ace8282611a20565b5050565b60006001600160a01b038216610b505760405162461bcd60e51b815260206004820152602960248201527f4552433732313a2061646472657373207a65726f206973206e6f74206120766160448201527f6c6964206f776e65720000000000000000000000000000000000000000000000606482015260840161077e565b506001600160a01b031660009081526003602052604090205490565b610b7461167c565b610b7e6000611a68565b565b60606001805461064490612986565b610ace338383611aba565b600080610c8684848080601f016020809104026020016040519081016040528093929190818152602001838380828437600092019190915250610c8092507fb744750f18b5eb16d9494ed4f62ddc8cb47c48055b556127362d7ffb3c1676a59150610c0a905060208a018a6125e3565b610c1a60408b0160208c016125e3565b610c2a60608c0160408d016129c0565b6040805160208101959095526001600160a01b0393841690850152911660608381019190915260ff909116608083015289013560a082015260c00160405160208183030381529060405280519060200120611b88565b90611bf1565b9050606085013560096000610ca16040890160208a016125e3565b6001600160a01b03166001600160a01b0316815260200190815260200160002054148015610cec5750610cd760208601866125e3565b6001600160a01b0316816001600160a01b0316145b95945050505050565b610d00335b836117a8565b610d625760405162461bcd60e51b815260206004820152602d60248201527f4552433732313a2063616c6c6572206973206e6f7420746f6b656e206f776e6560448201526c1c881bdc88185c1c1c9bdd9959609a1b606482015260840161077e565b610d6e84848484611c15565b50505050565b6060610d7f826116d6565b610d87611c93565b600083815260076020526040902054610da29060ff16611cb3565b604051602001610db39291906129db565b6040516020818303038152906040529050919050565b610dd233610cfa565b610e445760405162461bcd60e51b815260206004820152603360248201527f4552433732313a2063616c6c6572206973206e6f7420666972737420746f6b6560448201527f6e206f776e6572206f7220617070726f76656400000000000000000000000000606482015260840161077e565b610e4d33610847565b610ebf5760405162461bcd60e51b815260206004820152603160248201527f47656d3a2063616c6c6572206973206e6f74207365636f6e6420746f6b656e2060448201527f6f776e6572206f7220617070726f766564000000000000000000000000000000606482015260840161077e565b808203610f0e5760405162461bcd60e51b815260206004820152601660248201527f47656d3a2063616e74206d6572676520697473656c6600000000000000000000604482015260640161077e565b600b5460ff16610f2d8360009081526007602052604090205460ff1690565b60ff1610610f7d5760405162461bcd60e51b815260206004820152601660248201527f47656d3a206d6178206c6576656c207265616368656400000000000000000000604482015260640161077e565b6000818152600760205260408082205484835291205460ff91821691161461100d5760405162461bcd60e51b815260206004820152602e60248201527f47656d3a2063616e74206d6572676520737469636b657273207769746820646960448201527f66666572656e74206c6576656c73000000000000000000000000000000000000606482015260840161077e565b6040517f1ff7edab0000000000000000000000000000000000000000000000000000000081523360048201526000907f00000000000000000000000000000000000000000000000000000000000000006001600160a01b031690631ff7edab90602401602060405180830381865afa15801561108d573d6000803e3d6000fd5b505050506040513d601f19601f820116820180604052508101906110b19190612a0a565b90506000816110e0577f0000000000000000000000000000000000000000000000000000000000000000611102565b7f00000000000000000000000000000000000000000000000000000000000000005b9050348111156111545760405162461bcd60e51b815260206004820152601760248201527f47656d3a20496e73756666696369656e742066756e6473000000000000000000604482015260640161077e565b8061115e84611d53565b6000858152600760205260408120805460ff1691600191906111808385612a3d565b92506101000a81548160ff021916908360ff1602179055508315611330576040517fc4cbd5e50000000000000000000000000000000000000000000000000000000081523360048201526000907f00000000000000000000000000000000000000000000000000000000000000006001600160a01b03169063c4cbd5e590602401602060405180830381865afa15801561121e573d6000803e3d6000fd5b505050506040513d601f19601f820116820180604052508101906112429190612a56565b6001600160a01b03167f000000000000000000000000000000000000000000000000000000000000000060405160006040518083038185875af1925050503d80600081146112ac576040519150601f19603f3d011682016040523d82523d6000602084013e6112b1565b606091505b50509050806113025760405162461bcd60e51b815260206004820152601860248201527f526566657272616c20726577617264206e6f742073656e740000000000000000604482015260640161077e565b61132c7f000000000000000000000000000000000000000000000000000000000000000084612a73565b9250505b60007f00000000000000000000000000000000000000000000000000000000000000006001600160a01b03168360405160006040518083038185875af1925050503d806000811461139d576040519150601f19603f3d011682016040523d82523d6000602084013e6113a2565b606091505b50509050806113f35760405162461bcd60e51b815260206004820152600c60248201527f466565206e6f742073656e740000000000000000000000000000000000000000604482015260640161077e565b60405160ff8316815233907fcb9782f2192cd7aa10f2f7e068cea08076474ccb3c067ad9faa1fb4c53b595b89060200160405180910390a250505050505050565b6006546001600160a01b031661144d60208501856125e3565b6001600160a01b0316148061148c5750600a600061146e60208601866125e3565b6001600160a01b0316815260208101919091526040016000205460ff165b6114fd5760405162461bcd60e51b8152602060048201526024808201527f50726f78794d696e743a2073656e646572206973206e6f742077686974656c6960448201527f7374656400000000000000000000000000000000000000000000000000000000606482015260840161077e565b611508838383610b9a565b61157a5760405162461bcd60e51b815260206004820152602b60248201527f50726f78794d696e743a207369676e617475726520646f6573206e6f74206d6160448201527f7463682072657175657374000000000000000000000000000000000000000000606482015260840161077e565b61158960608401356001612a86565b6009600061159d60408701602088016125e3565b6001600160a01b03166001600160a01b031681526020019081526020016000208190555061083d8360200160208101906115d791906125e3565b6115e760608601604087016129c0565b611a20565b6115f461167c565b6001600160a01b0381166116705760405162461bcd60e51b815260206004820152602660248201527f4f776e61626c653a206e6577206f776e657220697320746865207a65726f206160448201527f6464726573730000000000000000000000000000000000000000000000000000606482015260840161077e565b61167981611a68565b50565b6006546001600160a01b03163314610b7e5760405162461bcd60e51b815260206004820181905260248201527f4f776e61626c653a2063616c6c6572206973206e6f7420746865206f776e6572604482015260640161077e565b6000818152600260205260409020546001600160a01b03166116795760405162461bcd60e51b815260206004820152601860248201527f4552433732313a20696e76616c696420746f6b656e2049440000000000000000604482015260640161077e565b600081815260046020526040902080546001600160a01b0319166001600160a01b038416908117909155819061176f82610a00565b6001600160a01b03167f8c5be1e5ebec7d5bd14f71427d1e84f3dd0314c0f7b2291e5b200ac8c7c3b92560405160405180910390a45050565b6000806117b483610a00565b9050806001600160a01b0316846001600160a01b031614806117fb57506001600160a01b0380821660009081526005602090815260408083209388168352929052205460ff165b8061181f5750836001600160a01b0316611814846106c7565b6001600160a01b0316145b949350505050565b826001600160a01b031661183a82610a00565b6001600160a01b03161461189e5760405162461bcd60e51b815260206004820152602560248201527f4552433732313a207472616e736665722066726f6d20696e636f72726563742060448201526437bbb732b960d91b606482015260840161077e565b6001600160a01b0382166119195760405162461bcd60e51b8152602060048201526024808201527f4552433732313a207472616e7366657220746f20746865207a65726f2061646460448201527f7265737300000000000000000000000000000000000000000000000000000000606482015260840161077e565b826001600160a01b031661192c82610a00565b6001600160a01b0316146119905760405162461bcd60e51b815260206004820152602560248201527f4552433732313a207472616e736665722066726f6d20696e636f72726563742060448201526437bbb732b960d91b606482015260840161077e565b600081815260046020908152604080832080546001600160a01b03199081169091556001600160a01b0387811680865260038552838620805460001901905590871680865283862080546001019055868652600290945282852080549092168417909155905184937fddf252ad1be2c89b69c2b068fc378daa952ba7f163c4a11628f55a4df523b3ef91a4505050565b6000611a2b60085490565b9050611a3b600880546001019055565b611a458382611de8565b6000908152600760205260409020805460ff191660ff9290921691909117905550565b600680546001600160a01b038381166001600160a01b0319831681179093556040519116919082907f8be0079c531659141344cd1fd0a4f28419497f9722a3daafe3b4186f6b6457e090600090a35050565b816001600160a01b0316836001600160a01b031603611b1b5760405162461bcd60e51b815260206004820152601960248201527f4552433732313a20617070726f766520746f2063616c6c657200000000000000604482015260640161077e565b6001600160a01b03838116600081815260056020908152604080832094871680845294825291829020805460ff191686151590811790915591519182527f17307eab39ab6107e8899845ad3d59bd9653f200f220920489ca2b5937696c31910160405180910390a3505050565b600061062f611b95611e02565b836040517f19010000000000000000000000000000000000000000000000000000000000006020820152602281018390526042810182905260009060620160405160208183030381529060405280519060200120905092915050565b6000806000611c008585611f29565b91509150611c0d81611f6e565b509392505050565b611c20848484611827565b611c2c848484846120d3565b610d6e5760405162461bcd60e51b815260206004820152603260248201527f4552433732313a207472616e7366657220746f206e6f6e20455243373231526560448201527131b2b4bb32b91034b6b83632b6b2b73a32b960711b606482015260840161077e565b6060604051806080016040528060598152602001612b0960599139905090565b60606000611cc08361221f565b600101905060008167ffffffffffffffff811115611ce057611ce0612840565b6040519080825280601f01601f191660200182016040528015611d0a576020820181803683370190505b5090508181016020015b600019017f3031323334353637383961626364656600000000000000000000000000000000600a86061a8153600a8504945084611d1457509392505050565b6000611d5e82610a00565b9050611d6982610a00565b600083815260046020908152604080832080546001600160a01b03199081169091556001600160a01b0385168085526003845282852080546000190190558785526002909352818420805490911690555192935084927fddf252ad1be2c89b69c2b068fc378daa952ba7f163c4a11628f55a4df523b3ef908390a45050565b610ace828260405180602001604052806000815250612301565b6000306001600160a01b037f000000000000000000000000000000000000000000000000000000000000000016148015611e5b57507f000000000000000000000000000000000000000000000000000000000000000046145b15611e8557507f000000000000000000000000000000000000000000000000000000000000000090565b50604080517f00000000000000000000000000000000000000000000000000000000000000006020808301919091527f0000000000000000000000000000000000000000000000000000000000000000828401527f000000000000000000000000000000000000000000000000000000000000000060608301524660808301523060a0808401919091528351808403909101815260c0909201909252805191012090565b6000808251604103611f5f5760208301516040840151606085015160001a611f538782858561237f565b94509450505050611f67565b506000905060025b9250929050565b6000816004811115611f8257611f82612a99565b03611f8a5750565b6001816004811115611f9e57611f9e612a99565b03611feb5760405162461bcd60e51b815260206004820152601860248201527f45434453413a20696e76616c6964207369676e61747572650000000000000000604482015260640161077e565b6002816004811115611fff57611fff612a99565b0361204c5760405162461bcd60e51b815260206004820152601f60248201527f45434453413a20696e76616c6964207369676e6174757265206c656e67746800604482015260640161077e565b600381600481111561206057612060612a99565b036116795760405162461bcd60e51b815260206004820152602260248201527f45434453413a20696e76616c6964207369676e6174757265202773272076616c60448201527f7565000000000000000000000000000000000000000000000000000000000000606482015260840161077e565b60006001600160a01b0384163b1561221457604051630a85bd0160e11b81526001600160a01b0385169063150b7a0290612117903390899088908890600401612aaf565b6020604051808303816000875af1925050508015612152575060408051601f3d908101601f1916820190925261214f91810190612aeb565b60015b6121fa573d808015612180576040519150601f19603f3d011682016040523d82523d6000602084013e612185565b606091505b5080516000036121f25760405162461bcd60e51b815260206004820152603260248201527f4552433732313a207472616e7366657220746f206e6f6e20455243373231526560448201527131b2b4bb32b91034b6b83632b6b2b73a32b960711b606482015260840161077e565b805181602001fd5b6001600160e01b031916630a85bd0160e11b14905061181f565b506001949350505050565b6000807a184f03e93ff9f4daa797ed6e38ed64bf6a1f0100000000000000008310612268577a184f03e93ff9f4daa797ed6e38ed64bf6a1f010000000000000000830492506040015b6d04ee2d6d415b85acef81000000008310612294576d04ee2d6d415b85acef8100000000830492506020015b662386f26fc1000083106122b257662386f26fc10000830492506010015b6305f5e10083106122ca576305f5e100830492506008015b61271083106122de57612710830492506004015b606483106122f0576064830492506002015b600a831061062f5760010192915050565b61230b8383612443565b61231860008484846120d3565b61083d5760405162461bcd60e51b815260206004820152603260248201527f4552433732313a207472616e7366657220746f206e6f6e20455243373231526560448201527131b2b4bb32b91034b6b83632b6b2b73a32b960711b606482015260840161077e565b6000807f7fffffffffffffffffffffffffffffff5d576e7357a4501ddfe92f46681b20a08311156123b6575060009050600361243a565b6040805160008082526020820180845289905260ff881692820192909252606081018690526080810185905260019060a0016020604051602081039080840390855afa15801561240a573d6000803e3d6000fd5b5050604051601f1901519150506001600160a01b0381166124335760006001925092505061243a565b9150600090505b94509492505050565b6001600160a01b0382166124995760405162461bcd60e51b815260206004820181905260248201527f4552433732313a206d696e7420746f20746865207a65726f2061646472657373604482015260640161077e565b6000818152600260205260409020546001600160a01b0316156124fe5760405162461bcd60e51b815260206004820152601c60248201527f4552433732313a20746f6b656e20616c7265616479206d696e74656400000000604482015260640161077e565b6000818152600260205260409020546001600160a01b0316156125635760405162461bcd60e51b815260206004820152601c60248201527f4552433732313a20746f6b656e20616c7265616479206d696e74656400000000604482015260640161077e565b6001600160a01b038216600081815260036020908152604080832080546001019055848352600290915280822080546001600160a01b0319168417905551839291907fddf252ad1be2c89b69c2b068fc378daa952ba7f163c4a11628f55a4df523b3ef908290a45050565b6001600160a01b038116811461167957600080fd5b6000602082840312156125f557600080fd5b8135612600816125ce565b9392505050565b6001600160e01b03198116811461167957600080fd5b60006020828403121561262f57600080fd5b813561260081612607565b60005b8381101561265557818101518382015260200161263d565b50506000910152565b6000815180845261267681602086016020860161263a565b601f01601f19169290920160200192915050565b602081526000612600602083018461265e565b6000602082840312156126af57600080fd5b5035919050565b600080604083850312156126c957600080fd5b82356126d4816125ce565b946020939093013593505050565b6000806000606084860312156126f757600080fd5b8335612702816125ce565b92506020840135612712816125ce565b929592945050506040919091013590565b803560ff8116811461273457600080fd5b919050565b6000806040838503121561274c57600080fd5b8235612757816125ce565b915061276560208401612723565b90509250929050565b801515811461167957600080fd5b6000806040838503121561278f57600080fd5b823561279a816125ce565b915060208301356127aa8161276e565b809150509250929050565b600080600083850360a08112156127cb57600080fd5b60808112156127d957600080fd5b50839250608084013567ffffffffffffffff808211156127f857600080fd5b818601915086601f83011261280c57600080fd5b81358181111561281b57600080fd5b87602082850101111561282d57600080fd5b6020830194508093505050509250925092565b634e487b7160e01b600052604160045260246000fd5b6000806000806080858703121561286c57600080fd5b8435612877816125ce565b93506020850135612887816125ce565b925060408501359150606085013567ffffffffffffffff808211156128ab57600080fd5b818701915087601f8301126128bf57600080fd5b8135818111156128d1576128d1612840565b604051601f8201601f19908116603f011681019083821181831017156128f9576128f9612840565b816040528281528a602084870101111561291257600080fd5b82602086016020830137600060208483010152809550505050505092959194509250565b6000806040838503121561294957600080fd5b50508035926020909101359150565b6000806040838503121561296b57600080fd5b8235612976816125ce565b915060208301356127aa816125ce565b600181811c9082168061299a57607f821691505b6020821081036129ba57634e487b7160e01b600052602260045260246000fd5b50919050565b6000602082840312156129d257600080fd5b61260082612723565b600083516129ed81846020880161263a565b835190830190612a0181836020880161263a565b01949350505050565b600060208284031215612a1c57600080fd5b81516126008161276e565b634e487b7160e01b600052601160045260246000fd5b60ff818116838216019081111561062f5761062f612a27565b600060208284031215612a6857600080fd5b8151612600816125ce565b8181038181111561062f5761062f612a27565b8082018082111561062f5761062f612a27565b634e487b7160e01b600052602160045260246000fd5b60006001600160a01b03808716835280861660208401525083604083015260806060830152612ae1608083018461265e565b9695505050505050565b600060208284031215612afd57600080fd5b81516126008161260756fe68747470733a2f2f6e667473746f726167652e6c696e6b2f697066732f6261667962656961326c6c74726c6168696a356b756c36713467677267666b6d707276677273736c356f34696e706b746c61776a36726b6c66716d2fa26469706673582212203498e3c6ccc4e52507701f904d3d530edb7e42ddc02b553785964a8fc111aa9e64736f6c63430008120033",
  "linkReferences": {},
  "deployedLinkReferences": {}
}