{
  "_format": "hh-sol-artifact-1",
  "contractName": "Gem",
  "sourceName": "contracts/Gem.sol",
  "abi": [
    {
      "inputs": [
        {
          "internalType": "uint256",
          "name": "pricePerMerge_",
          "type": "uint256"
        },
        {
          "internalType": "address",
          "name": "referralContractAddress_",
          "type": "address"
        },
        {
          "internalType": "uint256",
          "name": "referralPricePerMerge_",
          "type": "uint256"
        },
        {
          "internalType": "uint256",
          "name": "referralReward_",
          "type": "uint256"
        },
        {
          "internalType": "uint256",
          "name": "prizePoolReward_",
          "type": "uint256"
        },
        {
          "internalType": "uint256",
          "name": "withdrawalDelay_",
          "type": "uint256"
        },
        {
          "internalType": "address",
          "name": "treasuryAddress_",
          "type": "address"
        }
      ],
      "stateMutability": "nonpayable",
      "type": "constructor"
    },
    {
      "anonymous": false,
      "inputs": [
        {
          "indexed": true,
          "internalType": "address",
          "name": "owner",
          "type": "address"
        },
        {
          "indexed": true,
          "internalType": "address",
          "name": "approved",
          "type": "address"
        },
        {
          "indexed": true,
          "internalType": "uint256",
          "name": "tokenId",
          "type": "uint256"
        }
      ],
      "name": "Approval",
      "type": "event"
    },
    {
      "anonymous": false,
      "inputs": [
        {
          "indexed": true,
          "internalType": "address",
          "name": "owner",
          "type": "address"
        },
        {
          "indexed": true,
          "internalType": "address",
          "name": "operator",
          "type": "address"
        },
        {
          "indexed": false,
          "internalType": "bool",
          "name": "approved",
          "type": "bool"
        }
      ],
      "name": "ApprovalForAll",
      "type": "event"
    },
    {
      "anonymous": false,
      "inputs": [
        {
          "indexed": true,
          "internalType": "address",
          "name": "to",
          "type": "address"
        },
        {
          "indexed": false,
          "internalType": "uint8",
          "name": "level",
          "type": "uint8"
        }
      ],
      "name": "Merged",
      "type": "event"
    },
    {
      "anonymous": false,
      "inputs": [
        {
          "indexed": true,
          "internalType": "address",
          "name": "previousOwner",
          "type": "address"
        },
        {
          "indexed": true,
          "internalType": "address",
          "name": "newOwner",
          "type": "address"
        }
      ],
      "name": "OwnershipTransferred",
      "type": "event"
    },
    {
      "anonymous": false,
      "inputs": [
        {
          "indexed": true,
          "internalType": "address",
          "name": "from",
          "type": "address"
        },
        {
          "indexed": true,
          "internalType": "address",
          "name": "to",
          "type": "address"
        },
        {
          "indexed": true,
          "internalType": "uint256",
          "name": "tokenId",
          "type": "uint256"
        }
      ],
      "name": "Transfer",
      "type": "event"
    },
    {
      "inputs": [
        {
          "internalType": "address",
          "name": "sender",
          "type": "address"
        }
      ],
      "name": "addSenderToWhitelist",
      "outputs": [],
      "stateMutability": "nonpayable",
      "type": "function"
    },
    {
      "inputs": [
        {
          "internalType": "address",
          "name": "to",
          "type": "address"
        },
        {
          "internalType": "uint256",
          "name": "tokenId",
          "type": "uint256"
        }
      ],
      "name": "approve",
      "outputs": [],
      "stateMutability": "nonpayable",
      "type": "function"
    },
    {
      "inputs": [
        {
          "internalType": "address",
          "name": "owner",
          "type": "address"
        }
      ],
      "name": "balanceOf",
      "outputs": [
        {
          "internalType": "uint256",
          "name": "",
          "type": "uint256"
        }
      ],
      "stateMutability": "view",
      "type": "function"
    },
    {
      "inputs": [],
      "name": "completeEvent",
      "outputs": [],
      "stateMutability": "nonpayable",
      "type": "function"
    },
    {
      "inputs": [
        {
          "internalType": "uint256",
          "name": "tokenId",
          "type": "uint256"
        }
      ],
      "name": "getApproved",
      "outputs": [
        {
          "internalType": "address",
          "name": "",
          "type": "address"
        }
      ],
      "stateMutability": "view",
      "type": "function"
    },
    {
      "inputs": [
        {
          "internalType": "address",
          "name": "from",
          "type": "address"
        }
      ],
      "name": "getNonce",
      "outputs": [
        {
          "internalType": "uint256",
          "name": "",
          "type": "uint256"
        }
      ],
      "stateMutability": "view",
      "type": "function"
    },
    {
      "inputs": [
        {
          "internalType": "address",
          "name": "owner",
          "type": "address"
        },
        {
          "internalType": "address",
          "name": "operator",
          "type": "address"
        }
      ],
      "name": "isApprovedForAll",
      "outputs": [
        {
          "internalType": "bool",
          "name": "",
          "type": "bool"
        }
      ],
      "stateMutability": "view",
      "type": "function"
    },
    {
      "inputs": [
        {
          "internalType": "address",
          "name": "sender",
          "type": "address"
        }
      ],
      "name": "isWhitelisted",
      "outputs": [
        {
          "internalType": "bool",
          "name": "",
          "type": "bool"
        }
      ],
      "stateMutability": "view",
      "type": "function"
    },
    {
      "inputs": [
        {
          "internalType": "uint256",
          "name": "tokenId",
          "type": "uint256"
        }
      ],
      "name": "levelOf",
      "outputs": [
        {
          "internalType": "uint8",
          "name": "",
          "type": "uint8"
        }
      ],
      "stateMutability": "view",
      "type": "function"
    },
    {
      "inputs": [
        {
          "internalType": "uint256",
          "name": "firstTokenId",
          "type": "uint256"
        },
        {
          "internalType": "uint256",
          "name": "secondTokenId",
          "type": "uint256"
        }
      ],
      "name": "merge",
      "outputs": [],
      "stateMutability": "payable",
      "type": "function"
    },
    {
      "inputs": [
        {
          "internalType": "address",
          "name": "to",
          "type": "address"
        },
        {
          "internalType": "uint8",
          "name": "level",
          "type": "uint8"
        }
      ],
      "name": "mint",
      "outputs": [],
      "stateMutability": "nonpayable",
      "type": "function"
    },
    {
      "inputs": [],
      "name": "name",
      "outputs": [
        {
          "internalType": "string",
          "name": "",
          "type": "string"
        }
      ],
      "stateMutability": "view",
      "type": "function"
    },
    {
      "inputs": [],
      "name": "owner",
      "outputs": [
        {
          "internalType": "address",
          "name": "",
          "type": "address"
        }
      ],
      "stateMutability": "view",
      "type": "function"
    },
    {
      "inputs": [
        {
          "internalType": "uint256",
          "name": "tokenId",
          "type": "uint256"
        }
      ],
      "name": "ownerOf",
      "outputs": [
        {
          "internalType": "address",
          "name": "",
          "type": "address"
        }
      ],
      "stateMutability": "view",
      "type": "function"
    },
    {
      "inputs": [
        {
          "internalType": "address",
          "name": "user",
          "type": "address"
        }
      ],
      "name": "pointsOf",
      "outputs": [
        {
          "internalType": "uint256",
          "name": "",
          "type": "uint256"
        }
      ],
      "stateMutability": "view",
      "type": "function"
    },
    {
      "inputs": [],
      "name": "prizePool",
      "outputs": [
        {
          "internalType": "uint256",
          "name": "",
          "type": "uint256"
        }
      ],
      "stateMutability": "view",
      "type": "function"
    },
    {
      "inputs": [
        {
          "components": [
            {
              "internalType": "address",
              "name": "sender",
              "type": "address"
            },
            {
              "internalType": "address",
              "name": "proxy",
              "type": "address"
            },
            {
              "internalType": "uint8",
              "name": "level",
              "type": "uint8"
            },
            {
              "internalType": "uint256",
              "name": "nonce",
              "type": "uint256"
            }
          ],
          "internalType": "struct Gem.MintRequest",
          "name": "req",
          "type": "tuple"
        },
        {
          "internalType": "bytes",
          "name": "signature",
          "type": "bytes"
        }
      ],
      "name": "proxyMint",
      "outputs": [],
      "stateMutability": "nonpayable",
      "type": "function"
    },
    {
      "inputs": [
        {
          "internalType": "address",
          "name": "sender",
          "type": "address"
        }
      ],
      "name": "removeSenderFromWhitelist",
      "outputs": [],
      "stateMutability": "nonpayable",
      "type": "function"
    },
    {
      "inputs": [],
      "name": "renounceOwnership",
      "outputs": [],
      "stateMutability": "nonpayable",
      "type": "function"
    },
    {
      "inputs": [
        {
          "internalType": "address",
          "name": "from",
          "type": "address"
        },
        {
          "internalType": "address",
          "name": "to",
          "type": "address"
        },
        {
          "internalType": "uint256",
          "name": "tokenId",
          "type": "uint256"
        }
      ],
      "name": "safeTransferFrom",
      "outputs": [],
      "stateMutability": "nonpayable",
      "type": "function"
    },
    {
      "inputs": [
        {
          "internalType": "address",
          "name": "from",
          "type": "address"
        },
        {
          "internalType": "address",
          "name": "to",
          "type": "address"
        },
        {
          "internalType": "uint256",
          "name": "tokenId",
          "type": "uint256"
        },
        {
          "internalType": "bytes",
          "name": "data",
          "type": "bytes"
        }
      ],
      "name": "safeTransferFrom",
      "outputs": [],
      "stateMutability": "nonpayable",
      "type": "function"
    },
    {
      "inputs": [
        {
          "internalType": "address",
          "name": "operator",
          "type": "address"
        },
        {
          "internalType": "bool",
          "name": "approved",
          "type": "bool"
        }
      ],
      "name": "setApprovalForAll",
      "outputs": [],
      "stateMutability": "nonpayable",
      "type": "function"
    },
    {
      "inputs": [
        {
          "internalType": "bytes4",
          "name": "interfaceId",
          "type": "bytes4"
        }
      ],
      "name": "supportsInterface",
      "outputs": [
        {
          "internalType": "bool",
          "name": "",
          "type": "bool"
        }
      ],
      "stateMutability": "view",
      "type": "function"
    },
    {
      "inputs": [],
      "name": "symbol",
      "outputs": [
        {
          "internalType": "string",
          "name": "",
          "type": "string"
        }
      ],
      "stateMutability": "view",
      "type": "function"
    },
    {
      "inputs": [
        {
          "internalType": "uint256",
          "name": "tokenId",
          "type": "uint256"
        }
      ],
      "name": "tokenURI",
      "outputs": [
        {
          "internalType": "string",
          "name": "",
          "type": "string"
        }
      ],
      "stateMutability": "view",
      "type": "function"
    },
    {
      "inputs": [
        {
          "internalType": "address",
          "name": "from",
          "type": "address"
        },
        {
          "internalType": "address",
          "name": "to",
          "type": "address"
        },
        {
          "internalType": "uint256",
          "name": "tokenId",
          "type": "uint256"
        }
      ],
      "name": "transferFrom",
      "outputs": [],
      "stateMutability": "nonpayable",
      "type": "function"
    },
    {
      "inputs": [
        {
          "internalType": "address",
          "name": "newOwner",
          "type": "address"
        }
      ],
      "name": "transferOwnership",
      "outputs": [],
      "stateMutability": "nonpayable",
      "type": "function"
    },
    {
      "inputs": [
        {
          "components": [
            {
              "internalType": "address",
              "name": "sender",
              "type": "address"
            },
            {
              "internalType": "address",
              "name": "proxy",
              "type": "address"
            },
            {
              "internalType": "uint8",
              "name": "level",
              "type": "uint8"
            },
            {
              "internalType": "uint256",
              "name": "nonce",
              "type": "uint256"
            }
          ],
          "internalType": "struct Gem.MintRequest",
          "name": "req",
          "type": "tuple"
        },
        {
          "internalType": "bytes",
          "name": "signature",
          "type": "bytes"
        }
      ],
      "name": "verify",
      "outputs": [
        {
          "internalType": "bool",
          "name": "",
          "type": "bool"
        }
      ],
      "stateMutability": "view",
      "type": "function"
    },
    {
      "inputs": [],
      "name": "withdrawRemains",
      "outputs": [],
      "stateMutability": "nonpayable",
      "type": "function"
    },
    {
      "inputs": [],
      "name": "withdrawRewards",
      "outputs": [],
      "stateMutability": "nonpayable",
      "type": "function"
    }
  ],
  "bytecode": "0x600c805460ff1916600b9081179091556103806040526000610220908152600361024052600961026052601b6102805260516102a05260f36102c0526102d96102e05261088b610300526119a161032052614ce36103405261e6a9610360526200006d91600d919062000289565b506018805460ff1916600117905560006019819055601a819055601b553480156200009757600080fd5b506040516200367038038062003670833981016040819052620000ba9162000306565b6040518060400160405280600381526020016247656d60e81b815250604051806040016040528060018152602001601960f91b815250604051806040016040528060098152602001684c656d6f6e2047656d60b81b815250604051806040016040528060038152602001624c4d4760e81b81525081600090816200013f919062000413565b5060016200014e828262000413565b5050506200016b620001656200023360201b60201c565b62000237565b815160208084019190912082518383012060e08290526101008190524660a0818152604080517f8b73c3c69bb8fe3d512ecc4cf759cc79239f7b179b0ffacaa9a75d522b39400f81880181905281830187905260608201869052608082019490945230818401528151808203909301835260c00190528051940193909320919290916080523060c05261012052505050610140979097526001600160a01b039586166101e05261016094909452610180929092526101a0526101c052166102005250620004df565b3390565b600680546001600160a01b038381166001600160a01b0319831681179093556040519116919082907f8be0079c531659141344cd1fd0a4f28419497f9722a3daafe3b4186f6b6457e090600090a35050565b82600b8101928215620002c0579160200282015b82811115620002c0578251829061ffff169055916020019190600101906200029d565b50620002ce929150620002d2565b5090565b5b80821115620002ce5760008155600101620002d3565b80516001600160a01b03811681146200030157600080fd5b919050565b600080600080600080600060e0888a0312156200032257600080fd5b875196506200033460208901620002e9565b955060408801519450606088015193506080880151925060a088015191506200036060c08901620002e9565b905092959891949750929550565b634e487b7160e01b600052604160045260246000fd5b600181811c908216806200039957607f821691505b602082108103620003ba57634e487b7160e01b600052602260045260246000fd5b50919050565b601f8211156200040e57600081815260208120601f850160051c81016020861015620003e95750805b601f850160051c820191505b818110156200040a57828155600101620003f5565b5050505b505050565b81516001600160401b038111156200042f576200042f6200036e565b620004478162000440845462000384565b84620003c0565b602080601f8311600181146200047f5760008415620004665750858301515b600019600386901b1c1916600185901b1785556200040a565b600085815260208120601f198616915b82811015620004b0578886015182559484019460019091019084016200048f565b5085821015620004cf5787850151600019600388901b60f8161c191681555b5050505050600190811b01905550565b60805160a05160c05160e05161010051610120516101405161016051610180516101a0516101c0516101e051610200516130df62000591600039600061177a0152600081816113b4015261154501526000610e56015260008181611712015261174d0152600081816115c3015261167d0152600061145801526000611432015260006123ad015260006123fc015260006123d7015260006123300152600061235a0152600061238401526130df6000f3fe6080604052600436106101cd5760003560e01c8063715018a6116100f7578063ba20438e11610095578063d1c2babb11610064578063d1c2babb1461055e578063e41b56ee14610571578063e985e9c514610591578063f2fde38b146105da57600080fd5b8063ba20438e146104f4578063c7b8981c14610509578063c87b56dd1461051e578063cf6a44031461053e57600080fd5b806395d89b41116100d157806395d89b411461047f578063a22cb46514610494578063ad719d0a146104b4578063b88d4fde146104d457600080fd5b8063715018a614610437578063719ce73e1461044c5780638da5cb5b1461046157600080fd5b80633af32abf1161016f5780636352211e1161013e5780636352211e14610395578063691562a0146103b55780636d5e3032146103d557806370a082311461041757600080fd5b80633af32abf146103075780633f113a611461034057806342842e0e1461036057806342e527981461038057600080fd5b8063081812fc116101ab578063081812fc1461024b578063095ea7b31461028357806323b872dd146102a35780632d0335ab146102c357600080fd5b806301a9a352146101d257806301ffc9a7146101f457806306fdde0314610229575b600080fd5b3480156101de57600080fd5b506101f26101ed366004612b12565b6105fa565b005b34801561020057600080fd5b5061021461020f366004612b4c565b610623565b60405190151581526020015b60405180910390f35b34801561023557600080fd5b5061023e6106c0565b6040516102209190612bb9565b34801561025757600080fd5b5061026b610266366004612bcc565b610752565b6040516001600160a01b039091168152602001610220565b34801561028f57600080fd5b506101f261029e366004612be5565b610779565b3480156102af57600080fd5b506101f26102be366004612c11565b6108cd565b3480156102cf57600080fd5b506102f96102de366004612b12565b6001600160a01b03166000908152600a602052604090205490565b604051908152602001610220565b34801561031357600080fd5b50610214610322366004612b12565b6001600160a01b03166000908152600b602052604090205460ff1690565b34801561034c57600080fd5b506101f261035b366004612b12565b610945565b34801561036c57600080fd5b506101f261037b366004612c11565b610a00565b34801561038c57600080fd5b506101f2610a1b565b3480156103a157600080fd5b5061026b6103b0366004612bcc565b610a85565b3480156103c157600080fd5b506101f26103d0366004612c68565b610aea565b3480156103e157600080fd5b506104056103f0366004612bcc565b60009081526007602052604090205460ff1690565b60405160ff9091168152602001610220565b34801561042357600080fd5b506102f9610432366004612b12565b610b57565b34801561044357600080fd5b506101f2610bf1565b34801561045857600080fd5b50601a546102f9565b34801561046d57600080fd5b506006546001600160a01b031661026b565b34801561048b57600080fd5b5061023e610c05565b3480156104a057600080fd5b506101f26104af366004612cab565b610c14565b3480156104c057600080fd5b506102146104cf366004612ce4565b610c1f565b3480156104e057600080fd5b506101f26104ef366004612d85565b610d7a565b34801561050057600080fd5b506101f2610df9565b34801561051557600080fd5b506101f2610efe565b34801561052a57600080fd5b5061023e610539366004612bcc565b611076565b34801561054a57600080fd5b506102f9610559366004612b12565b6110cb565b6101f261056c366004612e65565b61113f565b34801561057d57600080fd5b506101f261058c366004612ce4565b61187a565b34801561059d57600080fd5b506102146105ac366004612e87565b6001600160a01b03918216600090815260056020908152604080832093909416825291909152205460ff1690565b3480156105e657600080fd5b506101f26105f5366004612b12565b611a32565b610602611ac2565b6001600160a01b03166000908152600b60205260409020805460ff19169055565b60006001600160e01b031982167f80ac58cd00000000000000000000000000000000000000000000000000000000148061068657506001600160e01b031982167f5b5e139f00000000000000000000000000000000000000000000000000000000145b806106ba57507f01ffc9a7000000000000000000000000000000000000000000000000000000006001600160e01b03198316145b92915050565b6060600080546106cf90612eb5565b80601f01602080910402602001604051908101604052809291908181526020018280546106fb90612eb5565b80156107485780601f1061071d57610100808354040283529160200191610748565b820191906000526020600020905b81548152906001019060200180831161072b57829003601f168201915b5050505050905090565b600061075d82611b1c565b506000908152600460205260409020546001600160a01b031690565b600061078482610a85565b9050806001600160a01b0316836001600160a01b0316036108125760405162461bcd60e51b815260206004820152602160248201527f4552433732313a20617070726f76616c20746f2063757272656e74206f776e6560448201527f720000000000000000000000000000000000000000000000000000000000000060648201526084015b60405180910390fd5b336001600160a01b038216148061084c57506001600160a01b038116600090815260056020908152604080832033845290915290205460ff165b6108be5760405162461bcd60e51b815260206004820152603d60248201527f4552433732313a20617070726f76652063616c6c6572206973206e6f7420746f60448201527f6b656e206f776e6572206f7220617070726f76656420666f7220616c6c0000006064820152608401610809565b6108c88383611b80565b505050565b6108d8335b82611bee565b61093a5760405162461bcd60e51b815260206004820152602d60248201527f4552433732313a2063616c6c6572206973206e6f7420746f6b656e206f776e6560448201526c1c881bdc88185c1c1c9bdd9959609a1b6064820152608401610809565b6108c8838383611c6d565b61094d611ac2565b6001600160a01b0381166000908152600b602052604090205460ff16156109dc5760405162461bcd60e51b815260206004820152602560248201527f53656e646572206164647265737320697320616c72656164792077686974656c60448201527f69737465640000000000000000000000000000000000000000000000000000006064820152608401610809565b6001600160a01b03166000908152600b60205260409020805460ff19166001179055565b6108c883838360405180602001604052806000815250610d7a565b610a23611ac2565b60185460ff16610a755760405162461bcd60e51b815260206004820152601760248201527f4576656e7420616c726561647920636f6d706c657465640000000000000000006044820152606401610809565b6018805460ff1916905542601955565b6000818152600260205260408120546001600160a01b0316806106ba5760405162461bcd60e51b815260206004820152601860248201527f4552433732313a20696e76616c696420746f6b656e20494400000000000000006044820152606401610809565b336000908152600b602052604090205460ff16610b495760405162461bcd60e51b815260206004820152601b60248201527f4d696e743a2063616c6c6572206973206e6f74205069636b41786500000000006044820152606401610809565b610b538282611e73565b5050565b60006001600160a01b038216610bd55760405162461bcd60e51b815260206004820152602960248201527f4552433732313a2061646472657373207a65726f206973206e6f74206120766160448201527f6c6964206f776e657200000000000000000000000000000000000000000000006064820152608401610809565b506001600160a01b031660009081526003602052604090205490565b610bf9611ac2565b610c036000611ebb565b565b6060600180546106cf90612eb5565b610b53338383611f0d565b600080610d0b84848080601f016020809104026020016040519081016040528093929190818152602001838380828437600092019190915250610d0592507fb744750f18b5eb16d9494ed4f62ddc8cb47c48055b556127362d7ffb3c1676a59150610c8f905060208a018a612b12565b610c9f60408b0160208c01612b12565b610caf60608c0160408d01612eef565b6040805160208101959095526001600160a01b0393841690850152911660608381019190915260ff909116608083015289013560a082015260c00160405160208183030381529060405280519060200120611fdb565b90612044565b90506060850135600a6000610d266040890160208a01612b12565b6001600160a01b03166001600160a01b0316815260200190815260200160002054148015610d715750610d5c6020860186612b12565b6001600160a01b0316816001600160a01b0316145b95945050505050565b610d85335b83611bee565b610de75760405162461bcd60e51b815260206004820152602d60248201527f4552433732313a2063616c6c6572206973206e6f7420746f6b656e206f776e6560448201526c1c881bdc88185c1c1c9bdd9959609a1b6064820152608401610809565b610df384848484612068565b50505050565b610e01611ac2565b60185460ff1615610e545760405162461bcd60e51b815260206004820152601660248201527f4576656e74206973206e6f7420636f6d706c65746564000000000000000000006044820152606401610809565b7f0000000000000000000000000000000000000000000000000000000000000000601954610e829190612f20565b4211610ed05760405162461bcd60e51b815260206004820152601c60248201527f5769746864726177616c206e6f7420617661696c61626c65206e6f77000000006044820152606401610809565b604051339081904780156108fc02916000818181858888f19350505050158015610b53573d6000803e3d6000fd5b60185460ff1615610f515760405162461bcd60e51b815260206004820152601660248201527f4576656e74206973206e6f7420636f6d706c65746564000000000000000000006044820152606401610809565b3360009081526008602052604090205480610fae5760405162461bcd60e51b815260206004820152601160248201527f4e6f20656e6f7567687420706f696e74730000000000000000000000000000006044820152606401610809565b336000908152600860205260408120819055601b54601a54610fd1908490612f33565b610fdb9190612f4a565b604051909150600090339083908381818185875af1925050503d8060008114611020576040519150601f19603f3d011682016040523d82523d6000602084013e611025565b606091505b50509050806108c85760405162461bcd60e51b815260206004820152600f60248201527f526577617264206e6f742073656e7400000000000000000000000000000000006044820152606401610809565b606061108182611b1c565b6110896120e6565b6000838152600760205260409020546110a49060ff16612106565b6040516020016110b5929190612f6c565b6040516020818303038152906040529050919050565b60006001600160a01b0382166111235760405162461bcd60e51b815260206004820152600f60248201527f496e76616c6964206164647265737300000000000000000000000000000000006044820152606401610809565b506001600160a01b031660009081526008602052604090205490565b61114833610d7f565b6111ba5760405162461bcd60e51b815260206004820152603360248201527f4552433732313a2063616c6c6572206973206e6f7420666972737420746f6b6560448201527f6e206f776e6572206f7220617070726f766564000000000000000000000000006064820152608401610809565b6111c3336108d2565b6112355760405162461bcd60e51b815260206004820152603160248201527f47656d3a2063616c6c6572206973206e6f74207365636f6e6420746f6b656e2060448201527f6f776e6572206f7220617070726f7665640000000000000000000000000000006064820152608401610809565b8082036112845760405162461bcd60e51b815260206004820152601660248201527f47656d3a2063616e74206d6572676520697473656c66000000000000000000006044820152606401610809565b600c5460ff166112a38360009081526007602052604090205460ff1690565b60ff16106112f35760405162461bcd60e51b815260206004820152601660248201527f47656d3a206d6178206c6576656c2072656163686564000000000000000000006044820152606401610809565b6000818152600760205260408082205484835291205460ff9182169116146113835760405162461bcd60e51b815260206004820152602e60248201527f47656d3a2063616e74206d6572676520737469636b657273207769746820646960448201527f66666572656e74206c6576656c730000000000000000000000000000000000006064820152608401610809565b6040517f1ff7edab0000000000000000000000000000000000000000000000000000000081523360048201526000907f00000000000000000000000000000000000000000000000000000000000000006001600160a01b031690631ff7edab90602401602060405180830381865afa158015611403573d6000803e3d6000fd5b505050506040513d601f19601f820116820180604052508101906114279190612f9b565b9050600081611456577f0000000000000000000000000000000000000000000000000000000000000000611478565b7f00000000000000000000000000000000000000000000000000000000000000005b9050348111156114ca5760405162461bcd60e51b815260206004820152601760248201527f47656d3a20496e73756666696369656e742066756e64730000000000000000006044820152606401610809565b806114d4846121a6565b6000858152600760205260408120805460ff1691600191906114f68385612fb8565b92506101000a81548160ff021916908360ff16021790555083156116a6576040517fc4cbd5e50000000000000000000000000000000000000000000000000000000081523360048201526000907f00000000000000000000000000000000000000000000000000000000000000006001600160a01b03169063c4cbd5e590602401602060405180830381865afa158015611594573d6000803e3d6000fd5b505050506040513d601f19601f820116820180604052508101906115b89190612fd1565b6001600160a01b03167f000000000000000000000000000000000000000000000000000000000000000060405160006040518083038185875af1925050503d8060008114611622576040519150601f19603f3d011682016040523d82523d6000602084013e611627565b606091505b50509050806116785760405162461bcd60e51b815260206004820152601860248201527f526566657272616c20726577617264206e6f742073656e7400000000000000006044820152606401610809565b6116a27f000000000000000000000000000000000000000000000000000000000000000084612fee565b9250505b60185460ff1615611776576000868152600760205260408120546116cc9060ff16612249565b336000908152600860205260408120805492935083929091906116f0908490612f20565b9250508190555080601b60008282546117099190612f20565b925050819055507f0000000000000000000000000000000000000000000000000000000000000000601a60008282546117429190612f20565b9091555061177290507f000000000000000000000000000000000000000000000000000000000000000084612fee565b9250505b60007f00000000000000000000000000000000000000000000000000000000000000006001600160a01b03168360405160006040518083038185875af1925050503d80600081146117e3576040519150601f19603f3d011682016040523d82523d6000602084013e6117e8565b606091505b50509050806118395760405162461bcd60e51b815260206004820152600c60248201527f466565206e6f742073656e7400000000000000000000000000000000000000006044820152606401610809565b60405160ff8316815233907fcb9782f2192cd7aa10f2f7e068cea08076474ccb3c067ad9faa1fb4c53b595b89060200160405180910390a250505050505050565b6006546001600160a01b03166118936020850185612b12565b6001600160a01b031614806118d25750600b60006118b46020860186612b12565b6001600160a01b0316815260208101919091526040016000205460ff165b6119435760405162461bcd60e51b8152602060048201526024808201527f50726f78794d696e743a2073656e646572206973206e6f742077686974656c6960448201527f73746564000000000000000000000000000000000000000000000000000000006064820152608401610809565b61194e838383610c1f565b6119c05760405162461bcd60e51b815260206004820152602b60248201527f50726f78794d696e743a207369676e617475726520646f6573206e6f74206d6160448201527f74636820726571756573740000000000000000000000000000000000000000006064820152608401610809565b6119cf60608401356001612f20565b600a60006119e36040870160208801612b12565b6001600160a01b03166001600160a01b03168152602001908152602001600020819055506108c8836020016020810190611a1d9190612b12565b611a2d6060860160408701612eef565b611e73565b611a3a611ac2565b6001600160a01b038116611ab65760405162461bcd60e51b815260206004820152602660248201527f4f776e61626c653a206e6577206f776e657220697320746865207a65726f206160448201527f64647265737300000000000000000000000000000000000000000000000000006064820152608401610809565b611abf81611ebb565b50565b6006546001600160a01b03163314610c035760405162461bcd60e51b815260206004820181905260248201527f4f776e61626c653a2063616c6c6572206973206e6f7420746865206f776e65726044820152606401610809565b6000818152600260205260409020546001600160a01b0316611abf5760405162461bcd60e51b815260206004820152601860248201527f4552433732313a20696e76616c696420746f6b656e20494400000000000000006044820152606401610809565b600081815260046020526040902080546001600160a01b0319166001600160a01b0384169081179091558190611bb582610a85565b6001600160a01b03167f8c5be1e5ebec7d5bd14f71427d1e84f3dd0314c0f7b2291e5b200ac8c7c3b92560405160405180910390a45050565b600080611bfa83610a85565b9050806001600160a01b0316846001600160a01b03161480611c4157506001600160a01b0380821660009081526005602090815260408083209388168352929052205460ff165b80611c655750836001600160a01b0316611c5a84610752565b6001600160a01b0316145b949350505050565b826001600160a01b0316611c8082610a85565b6001600160a01b031614611ce45760405162461bcd60e51b815260206004820152602560248201527f4552433732313a207472616e736665722066726f6d20696e636f72726563742060448201526437bbb732b960d91b6064820152608401610809565b6001600160a01b038216611d5f5760405162461bcd60e51b8152602060048201526024808201527f4552433732313a207472616e7366657220746f20746865207a65726f2061646460448201527f72657373000000000000000000000000000000000000000000000000000000006064820152608401610809565b611d6c8383836001612269565b826001600160a01b0316611d7f82610a85565b6001600160a01b031614611de35760405162461bcd60e51b815260206004820152602560248201527f4552433732313a207472616e736665722066726f6d20696e636f72726563742060448201526437bbb732b960d91b6064820152608401610809565b600081815260046020908152604080832080546001600160a01b03199081169091556001600160a01b0387811680865260038552838620805460001901905590871680865283862080546001019055868652600290945282852080549092168417909155905184937fddf252ad1be2c89b69c2b068fc378daa952ba7f163c4a11628f55a4df523b3ef91a4505050565b6000611e7e60095490565b9050611e8e600980546001019055565b611e988382612309565b6000908152600760205260409020805460ff191660ff9290921691909117905550565b600680546001600160a01b038381166001600160a01b0319831681179093556040519116919082907f8be0079c531659141344cd1fd0a4f28419497f9722a3daafe3b4186f6b6457e090600090a35050565b816001600160a01b0316836001600160a01b031603611f6e5760405162461bcd60e51b815260206004820152601960248201527f4552433732313a20617070726f766520746f2063616c6c6572000000000000006044820152606401610809565b6001600160a01b03838116600081815260056020908152604080832094871680845294825291829020805460ff191686151590811790915591519182527f17307eab39ab6107e8899845ad3d59bd9653f200f220920489ca2b5937696c31910160405180910390a3505050565b60006106ba611fe8612323565b836040517f19010000000000000000000000000000000000000000000000000000000000006020820152602281018390526042810182905260009060620160405160208183030381529060405280519060200120905092915050565b6000806000612053858561244a565b915091506120608161248f565b509392505050565b612073848484611c6d565b61207f848484846125f4565b610df35760405162461bcd60e51b815260206004820152603260248201527f4552433732313a207472616e7366657220746f206e6f6e20455243373231526560448201527131b2b4bb32b91034b6b83632b6b2b73a32b960711b6064820152608401610809565b606060405180606001604052806023815260200161308760239139905090565b6060600061211383612740565b600101905060008167ffffffffffffffff81111561213357612133612d6f565b6040519080825280601f01601f19166020018201604052801561215d576020820181803683370190505b5090508181016020015b600019017f3031323334353637383961626364656600000000000000000000000000000000600a86061a8153600a850494508461216757509392505050565b60006121b182610a85565b90506121c1816000846001612269565b6121ca82610a85565b600083815260046020908152604080832080546001600160a01b03199081169091556001600160a01b0385168085526003845282852080546000190190558785526002909352818420805490911690555192935084927fddf252ad1be2c89b69c2b068fc378daa952ba7f163c4a11628f55a4df523b3ef908390a45050565b6000600d8260ff16600b811061226157612261613001565b015492915050565b6001600160a01b03841615610df3576000828152600760205260408120546122939060ff16612249565b6001600160a01b0386166000908152600860205260408120805492935083929091906122c0908490612fee565b90915550506001600160a01b03841615612302576001600160a01b038416600090815260086020526040812080548392906122fc908490612f20565b90915550505b5050505050565b610b53828260405180602001604052806000815250612822565b6000306001600160a01b037f00000000000000000000000000000000000000000000000000000000000000001614801561237c57507f000000000000000000000000000000000000000000000000000000000000000046145b156123a657507f000000000000000000000000000000000000000000000000000000000000000090565b50604080517f00000000000000000000000000000000000000000000000000000000000000006020808301919091527f0000000000000000000000000000000000000000000000000000000000000000828401527f000000000000000000000000000000000000000000000000000000000000000060608301524660808301523060a0808401919091528351808403909101815260c0909201909252805191012090565b60008082516041036124805760208301516040840151606085015160001a612474878285856128a0565b94509450505050612488565b506000905060025b9250929050565b60008160048111156124a3576124a3613017565b036124ab5750565b60018160048111156124bf576124bf613017565b0361250c5760405162461bcd60e51b815260206004820152601860248201527f45434453413a20696e76616c6964207369676e617475726500000000000000006044820152606401610809565b600281600481111561252057612520613017565b0361256d5760405162461bcd60e51b815260206004820152601f60248201527f45434453413a20696e76616c6964207369676e6174757265206c656e677468006044820152606401610809565b600381600481111561258157612581613017565b03611abf5760405162461bcd60e51b815260206004820152602260248201527f45434453413a20696e76616c6964207369676e6174757265202773272076616c60448201527f75650000000000000000000000000000000000000000000000000000000000006064820152608401610809565b60006001600160a01b0384163b1561273557604051630a85bd0160e11b81526001600160a01b0385169063150b7a029061263890339089908890889060040161302d565b6020604051808303816000875af1925050508015612673575060408051601f3d908101601f1916820190925261267091810190613069565b60015b61271b573d8080156126a1576040519150601f19603f3d011682016040523d82523d6000602084013e6126a6565b606091505b5080516000036127135760405162461bcd60e51b815260206004820152603260248201527f4552433732313a207472616e7366657220746f206e6f6e20455243373231526560448201527131b2b4bb32b91034b6b83632b6b2b73a32b960711b6064820152608401610809565b805181602001fd5b6001600160e01b031916630a85bd0160e11b149050611c65565b506001949350505050565b6000807a184f03e93ff9f4daa797ed6e38ed64bf6a1f0100000000000000008310612789577a184f03e93ff9f4daa797ed6e38ed64bf6a1f010000000000000000830492506040015b6d04ee2d6d415b85acef810000000083106127b5576d04ee2d6d415b85acef8100000000830492506020015b662386f26fc1000083106127d357662386f26fc10000830492506010015b6305f5e10083106127eb576305f5e100830492506008015b61271083106127ff57612710830492506004015b60648310612811576064830492506002015b600a83106106ba5760010192915050565b61282c8383612964565b61283960008484846125f4565b6108c85760405162461bcd60e51b815260206004820152603260248201527f4552433732313a207472616e7366657220746f206e6f6e20455243373231526560448201527131b2b4bb32b91034b6b83632b6b2b73a32b960711b6064820152608401610809565b6000807f7fffffffffffffffffffffffffffffff5d576e7357a4501ddfe92f46681b20a08311156128d7575060009050600361295b565b6040805160008082526020820180845289905260ff881692820192909252606081018690526080810185905260019060a0016020604051602081039080840390855afa15801561292b573d6000803e3d6000fd5b5050604051601f1901519150506001600160a01b0381166129545760006001925092505061295b565b9150600090505b94509492505050565b6001600160a01b0382166129ba5760405162461bcd60e51b815260206004820181905260248201527f4552433732313a206d696e7420746f20746865207a65726f20616464726573736044820152606401610809565b6000818152600260205260409020546001600160a01b031615612a1f5760405162461bcd60e51b815260206004820152601c60248201527f4552433732313a20746f6b656e20616c7265616479206d696e746564000000006044820152606401610809565b612a2d600083836001612269565b6000818152600260205260409020546001600160a01b031615612a925760405162461bcd60e51b815260206004820152601c60248201527f4552433732313a20746f6b656e20616c7265616479206d696e746564000000006044820152606401610809565b6001600160a01b038216600081815260036020908152604080832080546001019055848352600290915280822080546001600160a01b0319168417905551839291907fddf252ad1be2c89b69c2b068fc378daa952ba7f163c4a11628f55a4df523b3ef908290a45050565b6001600160a01b0381168114611abf57600080fd5b600060208284031215612b2457600080fd5b8135612b2f81612afd565b9392505050565b6001600160e01b031981168114611abf57600080fd5b600060208284031215612b5e57600080fd5b8135612b2f81612b36565b60005b83811015612b84578181015183820152602001612b6c565b50506000910152565b60008151808452612ba5816020860160208601612b69565b601f01601f19169290920160200192915050565b602081526000612b2f6020830184612b8d565b600060208284031215612bde57600080fd5b5035919050565b60008060408385031215612bf857600080fd5b8235612c0381612afd565b946020939093013593505050565b600080600060608486031215612c2657600080fd5b8335612c3181612afd565b92506020840135612c4181612afd565b929592945050506040919091013590565b803560ff81168114612c6357600080fd5b919050565b60008060408385031215612c7b57600080fd5b8235612c8681612afd565b9150612c9460208401612c52565b90509250929050565b8015158114611abf57600080fd5b60008060408385031215612cbe57600080fd5b8235612cc981612afd565b91506020830135612cd981612c9d565b809150509250929050565b600080600083850360a0811215612cfa57600080fd5b6080811215612d0857600080fd5b50839250608084013567ffffffffffffffff80821115612d2757600080fd5b818601915086601f830112612d3b57600080fd5b813581811115612d4a57600080fd5b876020828501011115612d5c57600080fd5b6020830194508093505050509250925092565b634e487b7160e01b600052604160045260246000fd5b60008060008060808587031215612d9b57600080fd5b8435612da681612afd565b93506020850135612db681612afd565b925060408501359150606085013567ffffffffffffffff80821115612dda57600080fd5b818701915087601f830112612dee57600080fd5b813581811115612e0057612e00612d6f565b604051601f8201601f19908116603f01168101908382118183101715612e2857612e28612d6f565b816040528281528a6020848701011115612e4157600080fd5b82602086016020830137600060208483010152809550505050505092959194509250565b60008060408385031215612e7857600080fd5b50508035926020909101359150565b60008060408385031215612e9a57600080fd5b8235612ea581612afd565b91506020830135612cd981612afd565b600181811c90821680612ec957607f821691505b602082108103612ee957634e487b7160e01b600052602260045260246000fd5b50919050565b600060208284031215612f0157600080fd5b612b2f82612c52565b634e487b7160e01b600052601160045260246000fd5b808201808211156106ba576106ba612f0a565b80820281158282048414176106ba576106ba612f0a565b600082612f6757634e487b7160e01b600052601260045260246000fd5b500490565b60008351612f7e818460208801612b69565b835190830190612f92818360208801612b69565b01949350505050565b600060208284031215612fad57600080fd5b8151612b2f81612c9d565b60ff81811683821601908111156106ba576106ba612f0a565b600060208284031215612fe357600080fd5b8151612b2f81612afd565b818103818111156106ba576106ba612f0a565b634e487b7160e01b600052603260045260246000fd5b634e487b7160e01b600052602160045260246000fd5b60006001600160a01b0380871683528086166020840152508360408301526080606083015261305f6080830184612b8d565b9695505050505050565b60006020828403121561307b57600080fd5b8151612b2f81612b3656fe68747470733a2f2f626174746c656d6f6e2e636f6d2f6e66742f646174612f67656d2fa26469706673582212205da85dcb84108e0d67ab59ed6d42b2c50c4faab740cdc98e8303159b397d39a264736f6c63430008120033",
  "linkReferences": {},
  "deployedLinkReferences": {}
}