{
  "_format": "hh-sol-artifact-1",
  "contractName": "Items",
  "sourceName": "contracts/Items.sol",
  "abi": [
    {
      "inputs": [
        {
          "internalType": "uint256[]",
          "name": "maxTypeIds",
          "type": "uint256[]"
        },
        {
          "internalType": "string[]",
          "name": "typeNames",
          "type": "string[]"
        },
        {
          "internalType": "string",
          "name": "name_",
          "type": "string"
        },
        {
          "internalType": "string",
          "name": "symbol_",
          "type": "string"
        }
      ],
      "stateMutability": "nonpayable",
      "type": "constructor"
    },
    {
      "anonymous": false,
      "inputs": [
        {
          "indexed": true,
          "internalType": "address",
          "name": "account",
          "type": "address"
        },
        {
          "indexed": true,
          "internalType": "address",
          "name": "operator",
          "type": "address"
        },
        {
          "indexed": false,
          "internalType": "bool",
          "name": "approved",
          "type": "bool"
        }
      ],
      "name": "ApprovalForAll",
      "type": "event"
    },
    {
      "anonymous": false,
      "inputs": [
        {
          "indexed": true,
          "internalType": "address",
          "name": "account",
          "type": "address"
        },
        {
          "indexed": false,
          "internalType": "string",
          "name": "typeName",
          "type": "string"
        },
        {
          "indexed": true,
          "internalType": "uint256",
          "name": "itemId",
          "type": "uint256"
        }
      ],
      "name": "MintRandom",
      "type": "event"
    },
    {
      "anonymous": false,
      "inputs": [
        {
          "indexed": true,
          "internalType": "address",
          "name": "previousOwner",
          "type": "address"
        },
        {
          "indexed": true,
          "internalType": "address",
          "name": "newOwner",
          "type": "address"
        }
      ],
      "name": "OwnershipTransferred",
      "type": "event"
    },
    {
      "anonymous": false,
      "inputs": [
        {
          "indexed": true,
          "internalType": "address",
          "name": "operator",
          "type": "address"
        },
        {
          "indexed": true,
          "internalType": "address",
          "name": "from",
          "type": "address"
        },
        {
          "indexed": true,
          "internalType": "address",
          "name": "to",
          "type": "address"
        },
        {
          "indexed": false,
          "internalType": "uint256[]",
          "name": "ids",
          "type": "uint256[]"
        },
        {
          "indexed": false,
          "internalType": "uint256[]",
          "name": "values",
          "type": "uint256[]"
        }
      ],
      "name": "TransferBatch",
      "type": "event"
    },
    {
      "anonymous": false,
      "inputs": [
        {
          "indexed": true,
          "internalType": "address",
          "name": "operator",
          "type": "address"
        },
        {
          "indexed": true,
          "internalType": "address",
          "name": "from",
          "type": "address"
        },
        {
          "indexed": true,
          "internalType": "address",
          "name": "to",
          "type": "address"
        },
        {
          "indexed": false,
          "internalType": "uint256",
          "name": "id",
          "type": "uint256"
        },
        {
          "indexed": false,
          "internalType": "uint256",
          "name": "value",
          "type": "uint256"
        }
      ],
      "name": "TransferSingle",
      "type": "event"
    },
    {
      "anonymous": false,
      "inputs": [
        {
          "indexed": false,
          "internalType": "string",
          "name": "value",
          "type": "string"
        },
        {
          "indexed": true,
          "internalType": "uint256",
          "name": "id",
          "type": "uint256"
        }
      ],
      "name": "URI",
      "type": "event"
    },
    {
      "inputs": [
        {
          "internalType": "address",
          "name": "account",
          "type": "address"
        },
        {
          "internalType": "uint256",
          "name": "id",
          "type": "uint256"
        }
      ],
      "name": "balanceOf",
      "outputs": [
        {
          "internalType": "uint256",
          "name": "",
          "type": "uint256"
        }
      ],
      "stateMutability": "view",
      "type": "function"
    },
    {
      "inputs": [
        {
          "internalType": "address[]",
          "name": "accounts",
          "type": "address[]"
        },
        {
          "internalType": "uint256[]",
          "name": "ids",
          "type": "uint256[]"
        }
      ],
      "name": "balanceOfBatch",
      "outputs": [
        {
          "internalType": "uint256[]",
          "name": "",
          "type": "uint256[]"
        }
      ],
      "stateMutability": "view",
      "type": "function"
    },
    {
      "inputs": [],
      "name": "baseURI",
      "outputs": [
        {
          "internalType": "string",
          "name": "",
          "type": "string"
        }
      ],
      "stateMutability": "view",
      "type": "function"
    },
    {
      "inputs": [
        {
          "internalType": "uint256",
          "name": "_itemType",
          "type": "uint256"
        },
        {
          "internalType": "uint256",
          "name": "_itemId",
          "type": "uint256"
        },
        {
          "internalType": "address",
          "name": "sender",
          "type": "address"
        }
      ],
      "name": "equipItem",
      "outputs": [],
      "stateMutability": "nonpayable",
      "type": "function"
    },
    {
      "inputs": [
        {
          "internalType": "address",
          "name": "account",
          "type": "address"
        },
        {
          "internalType": "address",
          "name": "operator",
          "type": "address"
        }
      ],
      "name": "isApprovedForAll",
      "outputs": [
        {
          "internalType": "bool",
          "name": "",
          "type": "bool"
        }
      ],
      "stateMutability": "view",
      "type": "function"
    },
    {
      "inputs": [
        {
          "internalType": "uint256",
          "name": "",
          "type": "uint256"
        }
      ],
      "name": "itemsInType",
      "outputs": [
        {
          "internalType": "uint256",
          "name": "",
          "type": "uint256"
        }
      ],
      "stateMutability": "view",
      "type": "function"
    },
    {
      "inputs": [],
      "name": "lemonsAddress",
      "outputs": [
        {
          "internalType": "address",
          "name": "",
          "type": "address"
        }
      ],
      "stateMutability": "view",
      "type": "function"
    },
    {
      "inputs": [
        {
          "internalType": "address",
          "name": "account",
          "type": "address"
        },
        {
          "internalType": "uint256",
          "name": "amount",
          "type": "uint256"
        }
      ],
      "name": "mintRandom",
      "outputs": [],
      "stateMutability": "nonpayable",
      "type": "function"
    },
    {
      "inputs": [],
      "name": "name",
      "outputs": [
        {
          "internalType": "string",
          "name": "",
          "type": "string"
        }
      ],
      "stateMutability": "view",
      "type": "function"
    },
    {
      "inputs": [],
      "name": "owner",
      "outputs": [
        {
          "internalType": "address",
          "name": "",
          "type": "address"
        }
      ],
      "stateMutability": "view",
      "type": "function"
    },
    {
      "inputs": [],
      "name": "renounceOwnership",
      "outputs": [],
      "stateMutability": "nonpayable",
      "type": "function"
    },
    {
      "inputs": [
        {
          "internalType": "address",
          "name": "from",
          "type": "address"
        },
        {
          "internalType": "address",
          "name": "to",
          "type": "address"
        },
        {
          "internalType": "uint256[]",
          "name": "ids",
          "type": "uint256[]"
        },
        {
          "internalType": "uint256[]",
          "name": "amounts",
          "type": "uint256[]"
        },
        {
          "internalType": "bytes",
          "name": "data",
          "type": "bytes"
        }
      ],
      "name": "safeBatchTransferFrom",
      "outputs": [],
      "stateMutability": "nonpayable",
      "type": "function"
    },
    {
      "inputs": [
        {
          "internalType": "address",
          "name": "from",
          "type": "address"
        },
        {
          "internalType": "address",
          "name": "to",
          "type": "address"
        },
        {
          "internalType": "uint256",
          "name": "id",
          "type": "uint256"
        },
        {
          "internalType": "uint256",
          "name": "amount",
          "type": "uint256"
        },
        {
          "internalType": "bytes",
          "name": "data",
          "type": "bytes"
        }
      ],
      "name": "safeTransferFrom",
      "outputs": [],
      "stateMutability": "nonpayable",
      "type": "function"
    },
    {
      "inputs": [
        {
          "internalType": "address",
          "name": "operator",
          "type": "address"
        },
        {
          "internalType": "bool",
          "name": "approved",
          "type": "bool"
        }
      ],
      "name": "setApprovalForAll",
      "outputs": [],
      "stateMutability": "nonpayable",
      "type": "function"
    },
    {
      "inputs": [
        {
          "internalType": "address",
          "name": "lemonsAddress_",
          "type": "address"
        }
      ],
      "name": "setLemonAddress",
      "outputs": [],
      "stateMutability": "nonpayable",
      "type": "function"
    },
    {
      "inputs": [
        {
          "internalType": "address",
          "name": "stickersAddress_",
          "type": "address"
        }
      ],
      "name": "setStickersAddress",
      "outputs": [],
      "stateMutability": "nonpayable",
      "type": "function"
    },
    {
      "inputs": [
        {
          "internalType": "string",
          "name": "newuri",
          "type": "string"
        }
      ],
      "name": "setURI",
      "outputs": [],
      "stateMutability": "nonpayable",
      "type": "function"
    },
    {
      "inputs": [],
      "name": "stickersAddress",
      "outputs": [
        {
          "internalType": "address",
          "name": "",
          "type": "address"
        }
      ],
      "stateMutability": "view",
      "type": "function"
    },
    {
      "inputs": [
        {
          "internalType": "bytes4",
          "name": "interfaceId",
          "type": "bytes4"
        }
      ],
      "name": "supportsInterface",
      "outputs": [
        {
          "internalType": "bool",
          "name": "",
          "type": "bool"
        }
      ],
      "stateMutability": "view",
      "type": "function"
    },
    {
      "inputs": [],
      "name": "symbol",
      "outputs": [
        {
          "internalType": "string",
          "name": "",
          "type": "string"
        }
      ],
      "stateMutability": "view",
      "type": "function"
    },
    {
      "inputs": [
        {
          "internalType": "address",
          "name": "newOwner",
          "type": "address"
        }
      ],
      "name": "transferOwnership",
      "outputs": [],
      "stateMutability": "nonpayable",
      "type": "function"
    },
    {
      "inputs": [
        {
          "internalType": "uint256",
          "name": "",
          "type": "uint256"
        }
      ],
      "name": "typeToName",
      "outputs": [
        {
          "internalType": "string",
          "name": "",
          "type": "string"
        }
      ],
      "stateMutability": "view",
      "type": "function"
    },
    {
      "inputs": [
        {
          "internalType": "uint256",
          "name": "_itemType",
          "type": "uint256"
        },
        {
          "internalType": "uint256",
          "name": "_itemId",
          "type": "uint256"
        },
        {
          "internalType": "address",
          "name": "sender",
          "type": "address"
        }
      ],
      "name": "unequipItem",
      "outputs": [],
      "stateMutability": "nonpayable",
      "type": "function"
    },
    {
      "inputs": [
        {
          "internalType": "uint256",
          "name": "id_",
          "type": "uint256"
        }
      ],
      "name": "uri",
      "outputs": [
        {
          "internalType": "string",
          "name": "",
          "type": "string"
        }
      ],
      "stateMutability": "view",
      "type": "function"
    }
  ],
  "bytecode": "0x60806040523480156200001157600080fd5b50604051620027aa380380620027aa8339810160408190526200003491620003d3565b6200003f33620001ed565b82518451146200008a5760405162461bcd60e51b8152602060048201526011602482015270125d195b4e95dc9bdb99c81b195b99da1d607a1b60448201526064015b60405180910390fd5b8351600914620000cf5760405162461bcd60e51b815260206004820152600f60248201526e4974656d3a4c656e677468203e203960881b604482015260640162000081565b60005b8451811015620001c4576000858281518110620000f357620000f3620004e9565b6020026020010151116200013c5760405162461bcd60e51b815260206004820152600f60248201526e4974656d3a456d707479207479706560881b604482015260640162000081565b848181518110620001515762000151620004e9565b60200260200101516006600083815260200190815260200160002081905550838181518110620001855762000185620004e9565b6020026020010151600760008381526020019081526020016000209081620001ae91906200058e565b5080620001bb816200065a565b915050620000d2565b506008620001d383826200058e565b506009620001e282826200058e565b505050505062000682565b600080546001600160a01b038381166001600160a01b0319831681178455604051919092169283917f8be0079c531659141344cd1fd0a4f28419497f9722a3daafe3b4186f6b6457e09190a35050565b634e487b7160e01b600052604160045260246000fd5b604051601f8201601f191681016001600160401b03811182821017156200027e576200027e6200023d565b604052919050565b60006001600160401b03821115620002a257620002a26200023d565b5060051b60200190565b600082601f830112620002be57600080fd5b81516001600160401b03811115620002da57620002da6200023d565b6020620002f0601f8301601f1916820162000253565b82815285828487010111156200030557600080fd5b60005b838110156200032557858101830151828201840152820162000308565b506000928101909101919091529392505050565b600082601f8301126200034b57600080fd5b81516020620003646200035e8362000286565b62000253565b82815260059290921b840181019181810190868411156200038457600080fd5b8286015b84811015620003c85780516001600160401b03811115620003a95760008081fd5b620003b98986838b0101620002ac565b84525091830191830162000388565b509695505050505050565b60008060008060808587031215620003ea57600080fd5b84516001600160401b03808211156200040257600080fd5b818701915087601f8301126200041757600080fd5b815160206200042a6200035e8362000286565b82815260059290921b8401810191818101908b8411156200044a57600080fd5b948201945b838610156200046a578551825294820194908201906200044f565b918a01519198509093505050808211156200048457600080fd5b620004928883890162000339565b94506040870151915080821115620004a957600080fd5b620004b788838901620002ac565b93506060870151915080821115620004ce57600080fd5b50620004dd87828801620002ac565b91505092959194509250565b634e487b7160e01b600052603260045260246000fd5b600181811c908216806200051457607f821691505b6020821081036200053557634e487b7160e01b600052602260045260246000fd5b50919050565b601f8211156200058957600081815260208120601f850160051c81016020861015620005645750805b601f850160051c820191505b81811015620005855782815560010162000570565b5050505b505050565b81516001600160401b03811115620005aa57620005aa6200023d565b620005c281620005bb8454620004ff565b846200053b565b602080601f831160018114620005fa5760008415620005e15750858301515b600019600386901b1c1916600185901b17855562000585565b600085815260208120601f198616915b828110156200062b578886015182559484019460019091019084016200060a565b50858210156200064a5787850151600019600388901b60f8161c191681555b5050505050600190811b01905550565b6000600182016200067b57634e487b7160e01b600052601160045260246000fd5b5060010190565b61211880620006926000396000f3fe608060405234801561001057600080fd5b50600436106101975760003560e01c8063715018a6116100e3578063a22cb4651161008c578063e985e9c511610066578063e985e9c514610361578063f242432a1461039d578063f2fde38b146103b057600080fd5b8063a22cb4651461031b578063c02d9bbb1461032e578063c84f76671461034157600080fd5b80638da5cb5b116100bd5780638da5cb5b146102ef5780638fdc442a1461030057806395d89b411461031357600080fd5b8063715018a6146102c15780637d7b8466146102c9578063802d27c7146102dc57600080fd5b80630e89341c116101455780634e1273f41161011f5780634e1273f41461028657806355cc441d146102a65780636c0360eb146102b957600080fd5b80630e89341c1461024d5780632eb2c2d61461026057806332034d271461027357600080fd5b8063038028301161017657806303802830146101fa578063048610921461022557806306fdde031461023857600080fd5b8062fdd58e1461019c57806301ffc9a7146101c257806302fe5305146101e5575b600080fd5b6101af6101aa36600461179f565b6103c3565b6040519081526020015b60405180910390f35b6101d56101d03660046117c9565b610471565b60405190151581526020016101b9565b6101f86101f3366004611852565b610508565b005b60025461020d906001600160a01b031681565b6040516001600160a01b0390911681526020016101b9565b6101f86102333660046118e7565b610520565b61024061062c565b6040516101b99190611926565b61024061025b366004611959565b6106be565b6101f861026e366004611a00565b610726565b6101f861028136600461179f565b61081b565b610299610294366004611b4a565b610927565b6040516101b99190611c45565b6101f86102b4366004611c58565b610a65565b610240610afc565b6101f8610b0b565b6101f86102d7366004611c58565b610b1f565b6101f86102ea3660046118e7565b610c0e565b6000546001600160a01b031661020d565b60035461020d906001600160a01b031681565b610240610d1a565b6101f8610329366004611c8d565b610d29565b61024061033c366004611959565b610d34565b6101af61034f366004611959565b60066020526000908152604090205481565b6101d561036f366004611cc9565b6001600160a01b03918216600090815260056020908152604080832093909416825291909152205460ff1690565b6101f86103ab366004611cfc565b610dce565b6101f86103be3660046118e7565b610e5e565b60006001600160a01b0383166104465760405162461bcd60e51b815260206004820152602760248201527f4974656d3a2061646472657373207a65726f206973206e6f7420612076616c6960448201527f64206f776e65720000000000000000000000000000000000000000000000000060648201526084015b60405180910390fd5b5060008181526004602090815260408083206001600160a01b03861684529091529020545b92915050565b60007fffffffff0000000000000000000000000000000000000000000000000000000082167fd9b67a2600000000000000000000000000000000000000000000000000000000148061046b57507f01ffc9a7000000000000000000000000000000000000000000000000000000007fffffffff0000000000000000000000000000000000000000000000000000000083161461046b565b610510610eee565b600a61051c8282611df4565b5050565b610528610eee565b6001600160a01b03811661057e5760405162461bcd60e51b815260206004820152601360248201527f4974656d733a205a65726f206164647265737300000000000000000000000000604482015260640161043d565b6003546001600160a01b0316156105fd5760405162461bcd60e51b815260206004820152602e60248201527f4974656d733a204c656d6f6e7320616464726573732063616e2062652063686160448201527f6e676564206f6e6c79206f6e6365000000000000000000000000000000000000606482015260840161043d565b6003805473ffffffffffffffffffffffffffffffffffffffff19166001600160a01b0392909216919091179055565b60606008805461063b90611d74565b80601f016020809104026020016040519081016040528092919081815260200182805461066790611d74565b80156106b45780601f10610689576101008083540402835291602001916106b4565b820191906000526020600020905b81548152906001019060200180831161069757829003601f168201915b5050505050905090565b606060006106cb83610f48565b905060006106db6103e885611eca565b90506106e5610afc565b60008381526007602052604090206106fc83610f56565b60405160200161070e93929190611ede565b60405160208183030381529060405292505050919050565b6001600160a01b0388163314806107425750610742883361036f565b6107a25760405162461bcd60e51b815260206004820152602b60248201527f4974656d3a2063616c6c6572206973206e6f7420746f6b656e206f776e65722060448201526a1bdc88185c1c1c9bdd995960aa1b606482015260840161043d565b610811888888888080602002602001604051908101604052809392919081815260200183836020028082843760009201919091525050604080516020808c0282810182019093528b82529093508b92508a918291850190849080828437600092019190915250610ff692505050565b5050505050505050565b6001600160a01b0382166108715760405162461bcd60e51b815260206004820152601e60248201527f4974656d3a206d696e7420746f20746865207a65726f20616464726573730000604482015260640161043d565b60005b818110156109225760006108886009611288565b600081815260066020526040812054919250906108a490611288565b905060006108b283836112f5565b90506108c086826001611315565b80866001600160a01b03167f99de7459d45e3a0b652ee06c941eb3f7373c1e52041074f7431bf616493a94d06007600087815260200190815260200160002060405161090c9190611fa6565b60405180910390a3836001019350505050610874565b505050565b606081518351146109a05760405162461bcd60e51b815260206004820152602660248201527f4974656d3a206163636f756e747320616e6420696473206c656e677468206d6960448201527f736d617463680000000000000000000000000000000000000000000000000000606482015260840161043d565b6000835167ffffffffffffffff8111156109bc576109bc61180b565b6040519080825280602002602001820160405280156109e5578160200160208202803683370190505b50905060005b8451811015610a5d57610a30858281518110610a0957610a09612031565b6020026020010151858381518110610a2357610a23612031565b60200260200101516103c3565b828281518110610a4257610a42612031565b6020908102919091010152610a568161205d565b90506109eb565b509392505050565b6002546001600160a01b03163314610abf5760405162461bcd60e51b815260206004820152601c60248201527f4974656d733a2053656e646572206e6f7420746865204c656d6f6e7300000000604482015260640161043d565b6000610acb84846112f5565b60009081526004602090815260408083206001600160a01b0390951683529390529190912080546001019055505050565b6060600a805461063b90611d74565b610b13610eee565b610b1d60006113a0565b565b6002546001600160a01b03163314610b795760405162461bcd60e51b815260206004820152601c60248201527f4974656d733a2053656e646572206e6f7420746865204c656d6f6e7300000000604482015260640161043d565b6000610b8584846112f5565b90506000610b9383836103c3565b11610be05760405162461bcd60e51b815260206004820152601960248201527f4974656d733a204e6f206974656d7320617661696c61626c6500000000000000604482015260640161043d565b60009081526004602090815260408083206001600160a01b0390941683529290522080546000190190555050565b610c16610eee565b6001600160a01b038116610c6c5760405162461bcd60e51b815260206004820152601360248201527f4974656d733a205a65726f206164647265737300000000000000000000000000604482015260640161043d565b6002546001600160a01b031615610ceb5760405162461bcd60e51b815260206004820152602e60248201527f4974656d733a204c656d6f6e7320616464726573732063616e2062652063686160448201527f6e676564206f6e6c79206f6e6365000000000000000000000000000000000000606482015260840161043d565b6002805473ffffffffffffffffffffffffffffffffffffffff19166001600160a01b0392909216919091179055565b60606009805461063b90611d74565b61051c3383836113fd565b60076020526000908152604090208054610d4d90611d74565b80601f0160208091040260200160405190810160405280929190818152602001828054610d7990611d74565b8015610dc65780601f10610d9b57610100808354040283529160200191610dc6565b820191906000526020600020905b815481529060010190602001808311610da957829003601f168201915b505050505081565b6001600160a01b038616331480610dea5750610dea863361036f565b610e4a5760405162461bcd60e51b815260206004820152602b60248201527f4974656d3a2063616c6c6572206973206e6f7420746f6b656e206f776e65722060448201526a1bdc88185c1c1c9bdd995960aa1b606482015260840161043d565b610e56868686866114f1565b505050505050565b610e66610eee565b6001600160a01b038116610ee25760405162461bcd60e51b815260206004820152602660248201527f4f776e61626c653a206e6577206f776e657220697320746865207a65726f206160448201527f6464726573730000000000000000000000000000000000000000000000000000606482015260840161043d565b610eeb816113a0565b50565b6000546001600160a01b03163314610b1d5760405162461bcd60e51b815260206004820181905260248201527f4f776e61626c653a2063616c6c6572206973206e6f7420746865206f776e6572604482015260640161043d565b600061046b6103e883612076565b60606000610f63836116a1565b600101905060008167ffffffffffffffff811115610f8357610f8361180b565b6040519080825280601f01601f191660200182016040528015610fad576020820181803683370190505b5090508181016020015b600019017f3031323334353637383961626364656600000000000000000000000000000000600a86061a8153600a8504945084610fb757509392505050565b805182511461106d5760405162461bcd60e51b815260206004820152602560248201527f4974656d3a2069647320616e6420616d6f756e7473206c656e677468206d697360448201527f6d61746368000000000000000000000000000000000000000000000000000000606482015260840161043d565b6001600160a01b0383166110e95760405162461bcd60e51b815260206004820152602260248201527f4974656d3a207472616e7366657220746f20746865207a65726f20616464726560448201527f7373000000000000000000000000000000000000000000000000000000000000606482015260840161043d565b3360005b835181101561122957600084828151811061110a5761110a612031565b60200260200101519050600084838151811061112857611128612031565b60209081029190910181015160008481526004835260408082206001600160a01b038d1683529093529190912054909150818110156111cf5760405162461bcd60e51b815260206004820152602760248201527f4974656d3a20696e73756666696369656e742062616c616e636520666f72207460448201527f72616e7366657200000000000000000000000000000000000000000000000000606482015260840161043d565b60008381526004602090815260408083206001600160a01b038d8116855292528083208585039055908a1682528120805484929061120e90849061208a565b92505081905550505050806112229061205d565b90506110ed565b50836001600160a01b0316856001600160a01b0316826001600160a01b03167f4a39dc06d4c0dbc64b70af90fd698a233a518aa5d07e595d983b8c0526c8f7fb868660405161127992919061209d565b60405180910390a45050505050565b60018054600091826112998361205d565b9091555050600154604080514260208201526bffffffffffffffffffffffff193360601b1691810191909152605481019190915282906074016040516020818303038152906040528051906020012060001c61046b9190611eca565b600081611304846103e86120cb565b61130e919061208a565b9392505050565b60008281526004602090815260408083206001600160a01b038716845290915281208054339284929161134990849061208a565b909155505060408051848152602081018490526001600160a01b0380871692600092918516917fc3d58168c5ae7397731d063d5bbf3d657854427343f4c083240f7aacaa2d0f62910160405180910390a450505050565b600080546001600160a01b0383811673ffffffffffffffffffffffffffffffffffffffff19831681178455604051919092169283917f8be0079c531659141344cd1fd0a4f28419497f9722a3daafe3b4186f6b6457e09190a35050565b816001600160a01b0316836001600160a01b0316036114845760405162461bcd60e51b815260206004820152602660248201527f4974656d3a2073657474696e6720617070726f76616c2073746174757320666f60448201527f722073656c660000000000000000000000000000000000000000000000000000606482015260840161043d565b6001600160a01b03838116600081815260056020908152604080832094871680845294825291829020805460ff191686151590811790915591519182527f17307eab39ab6107e8899845ad3d59bd9653f200f220920489ca2b5937696c31910160405180910390a3505050565b6001600160a01b03831661156d5760405162461bcd60e51b815260206004820152602360248201527f4974656d733a207472616e7366657220746f20746865207a65726f206164647260448201527f6573730000000000000000000000000000000000000000000000000000000000606482015260840161043d565b60008281526004602090815260408083206001600160a01b03881684529091529020543390828110156116085760405162461bcd60e51b815260206004820152602860248201527f4974656d733a20696e73756666696369656e742062616c616e636520666f722060448201527f7472616e73666572000000000000000000000000000000000000000000000000606482015260840161043d565b60008481526004602090815260408083206001600160a01b038a811685529252808320868503905590871682528120805485929061164790849061208a565b909155505060408051858152602081018590526001600160a01b038088169289821692918616917fc3d58168c5ae7397731d063d5bbf3d657854427343f4c083240f7aacaa2d0f62910160405180910390a4505050505050565b6000807a184f03e93ff9f4daa797ed6e38ed64bf6a1f01000000000000000083106116ea577a184f03e93ff9f4daa797ed6e38ed64bf6a1f010000000000000000830492506040015b6d04ee2d6d415b85acef81000000008310611716576d04ee2d6d415b85acef8100000000830492506020015b662386f26fc10000831061173457662386f26fc10000830492506010015b6305f5e100831061174c576305f5e100830492506008015b612710831061176057612710830492506004015b60648310611772576064830492506002015b600a831061046b5760010192915050565b80356001600160a01b038116811461179a57600080fd5b919050565b600080604083850312156117b257600080fd5b6117bb83611783565b946020939093013593505050565b6000602082840312156117db57600080fd5b81357fffffffff000000000000000000000000000000000000000000000000000000008116811461130e57600080fd5b634e487b7160e01b600052604160045260246000fd5b604051601f8201601f1916810167ffffffffffffffff8111828210171561184a5761184a61180b565b604052919050565b6000602080838503121561186557600080fd5b823567ffffffffffffffff8082111561187d57600080fd5b818501915085601f83011261189157600080fd5b8135818111156118a3576118a361180b565b6118b5601f8201601f19168501611821565b915080825286848285010111156118cb57600080fd5b8084840185840137600090820190930192909252509392505050565b6000602082840312156118f957600080fd5b61130e82611783565b60005b8381101561191d578181015183820152602001611905565b50506000910152565b6020815260008251806020840152611945816040850160208701611902565b601f01601f19169190910160400192915050565b60006020828403121561196b57600080fd5b5035919050565b60008083601f84011261198457600080fd5b50813567ffffffffffffffff81111561199c57600080fd5b6020830191508360208260051b85010111156119b757600080fd5b9250929050565b60008083601f8401126119d057600080fd5b50813567ffffffffffffffff8111156119e857600080fd5b6020830191508360208285010111156119b757600080fd5b60008060008060008060008060a0898b031215611a1c57600080fd5b611a2589611783565b9750611a3360208a01611783565b9650604089013567ffffffffffffffff80821115611a5057600080fd5b611a5c8c838d01611972565b909850965060608b0135915080821115611a7557600080fd5b611a818c838d01611972565b909650945060808b0135915080821115611a9a57600080fd5b50611aa78b828c016119be565b999c989b5096995094979396929594505050565b600067ffffffffffffffff821115611ad557611ad561180b565b5060051b60200190565b600082601f830112611af057600080fd5b81356020611b05611b0083611abb565b611821565b82815260059290921b84018101918181019086841115611b2457600080fd5b8286015b84811015611b3f5780358352918301918301611b28565b509695505050505050565b60008060408385031215611b5d57600080fd5b823567ffffffffffffffff80821115611b7557600080fd5b818501915085601f830112611b8957600080fd5b81356020611b99611b0083611abb565b82815260059290921b84018101918181019089841115611bb857600080fd5b948201945b83861015611bdd57611bce86611783565b82529482019490820190611bbd565b96505086013592505080821115611bf357600080fd5b50611c0085828601611adf565b9150509250929050565b600081518084526020808501945080840160005b83811015611c3a57815187529582019590820190600101611c1e565b509495945050505050565b60208152600061130e6020830184611c0a565b600080600060608486031215611c6d57600080fd5b8335925060208401359150611c8460408501611783565b90509250925092565b60008060408385031215611ca057600080fd5b611ca983611783565b915060208301358015158114611cbe57600080fd5b809150509250929050565b60008060408385031215611cdc57600080fd5b611ce583611783565b9150611cf360208401611783565b90509250929050565b60008060008060008060a08789031215611d1557600080fd5b611d1e87611783565b9550611d2c60208801611783565b94506040870135935060608701359250608087013567ffffffffffffffff811115611d5657600080fd5b611d6289828a016119be565b979a9699509497509295939492505050565b600181811c90821680611d8857607f821691505b602082108103611da857634e487b7160e01b600052602260045260246000fd5b50919050565b601f82111561092257600081815260208120601f850160051c81016020861015611dd55750805b601f850160051c820191505b81811015610e5657828155600101611de1565b815167ffffffffffffffff811115611e0e57611e0e61180b565b611e2281611e1c8454611d74565b84611dae565b602080601f831160018114611e575760008415611e3f5750858301515b600019600386901b1c1916600185901b178555610e56565b600085815260208120601f198616915b82811015611e8657888601518255948401946001909101908401611e67565b5085821015611ea45787850151600019600388901b60f8161c191681555b5050505050600190811b01905550565b634e487b7160e01b600052601260045260246000fd5b600082611ed957611ed9611eb4565b500690565b600084516020611ef18285838a01611902565b818401915060008654611f0381611d74565b60018281168015611f1b5760018114611f3057611f5c565b60ff1984168752821515830287019450611f5c565b8a6000528560002060005b84811015611f5457815489820152908301908701611f3b565b505082870194505b507f5f00000000000000000000000000000000000000000000000000000000000000845288519550611f9386828601878c01611902565b9290940190910198975050505050505050565b6000602080835260008454611fba81611d74565b80848701526040600180841660008114611fdb5760018114611ff557612023565b60ff1985168984015283151560051b890183019550612023565b896000528660002060005b8581101561201b5781548b8201860152908301908801612000565b8a0184019650505b509398975050505050505050565b634e487b7160e01b600052603260045260246000fd5b634e487b7160e01b600052601160045260246000fd5b60006001820161206f5761206f612047565b5060010190565b60008261208557612085611eb4565b500490565b8082018082111561046b5761046b612047565b6040815260006120b06040830185611c0a565b82810360208401526120c28185611c0a565b95945050505050565b808202811582820484141761046b5761046b61204756fea2646970667358221220455d4514324bb11f4a8bcf20b14a7ca665766fe4040dafab5e9c19d293f4380364736f6c63430008120033",
  "linkReferences": {},
  "deployedLinkReferences": {}
}