{
  "_format": "hh-sol-artifact-1",
  "contractName": "Lemons",
  "sourceName": "contracts/Lemons.sol",
  "abi": [
    {
      "inputs": [
        {
          "internalType": "address",
          "name": "itemsContract_",
          "type": "address"
        }
      ],
      "stateMutability": "nonpayable",
      "type": "constructor"
    },
    {
      "anonymous": false,
      "inputs": [
        {
          "indexed": true,
          "internalType": "address",
          "name": "owner",
          "type": "address"
        },
        {
          "indexed": true,
          "internalType": "address",
          "name": "approved",
          "type": "address"
        },
        {
          "indexed": true,
          "internalType": "uint256",
          "name": "tokenId",
          "type": "uint256"
        }
      ],
      "name": "Approval",
      "type": "event"
    },
    {
      "anonymous": false,
      "inputs": [
        {
          "indexed": true,
          "internalType": "address",
          "name": "owner",
          "type": "address"
        },
        {
          "indexed": true,
          "internalType": "address",
          "name": "operator",
          "type": "address"
        },
        {
          "indexed": false,
          "internalType": "bool",
          "name": "approved",
          "type": "bool"
        }
      ],
      "name": "ApprovalForAll",
      "type": "event"
    },
    {
      "anonymous": false,
      "inputs": [
        {
          "indexed": true,
          "internalType": "address",
          "name": "previousOwner",
          "type": "address"
        },
        {
          "indexed": true,
          "internalType": "address",
          "name": "newOwner",
          "type": "address"
        }
      ],
      "name": "OwnershipTransferred",
      "type": "event"
    },
    {
      "anonymous": false,
      "inputs": [
        {
          "indexed": true,
          "internalType": "address",
          "name": "from",
          "type": "address"
        },
        {
          "indexed": true,
          "internalType": "address",
          "name": "to",
          "type": "address"
        },
        {
          "indexed": true,
          "internalType": "uint256",
          "name": "tokenId",
          "type": "uint256"
        }
      ],
      "name": "Transfer",
      "type": "event"
    },
    {
      "inputs": [
        {
          "internalType": "address",
          "name": "to",
          "type": "address"
        },
        {
          "internalType": "uint256",
          "name": "tokenId",
          "type": "uint256"
        }
      ],
      "name": "approve",
      "outputs": [],
      "stateMutability": "nonpayable",
      "type": "function"
    },
    {
      "inputs": [
        {
          "internalType": "address",
          "name": "owner",
          "type": "address"
        }
      ],
      "name": "balanceOf",
      "outputs": [
        {
          "internalType": "uint256",
          "name": "",
          "type": "uint256"
        }
      ],
      "stateMutability": "view",
      "type": "function"
    },
    {
      "inputs": [
        {
          "internalType": "uint256",
          "name": "_lemonId",
          "type": "uint256"
        },
        {
          "internalType": "int256[]",
          "name": "itemIds",
          "type": "int256[]"
        }
      ],
      "name": "changeEquipmentBatch",
      "outputs": [],
      "stateMutability": "nonpayable",
      "type": "function"
    },
    {
      "inputs": [
        {
          "internalType": "uint256",
          "name": "",
          "type": "uint256"
        },
        {
          "internalType": "uint256",
          "name": "",
          "type": "uint256"
        }
      ],
      "name": "equipment",
      "outputs": [
        {
          "internalType": "uint256",
          "name": "itemId",
          "type": "uint256"
        },
        {
          "internalType": "bool",
          "name": "equipped",
          "type": "bool"
        }
      ],
      "stateMutability": "view",
      "type": "function"
    },
    {
      "inputs": [
        {
          "internalType": "uint256",
          "name": "tokenId",
          "type": "uint256"
        }
      ],
      "name": "getAllEquipment",
      "outputs": [
        {
          "internalType": "int256[9]",
          "name": "",
          "type": "int256[9]"
        }
      ],
      "stateMutability": "view",
      "type": "function"
    },
    {
      "inputs": [
        {
          "internalType": "uint256",
          "name": "tokenId",
          "type": "uint256"
        }
      ],
      "name": "getApproved",
      "outputs": [
        {
          "internalType": "address",
          "name": "",
          "type": "address"
        }
      ],
      "stateMutability": "view",
      "type": "function"
    },
    {
      "inputs": [
        {
          "internalType": "uint256",
          "name": "tokenId",
          "type": "uint256"
        },
        {
          "internalType": "uint256",
          "name": "itemType",
          "type": "uint256"
        }
      ],
      "name": "getEquipment",
      "outputs": [
        {
          "internalType": "uint256",
          "name": "",
          "type": "uint256"
        }
      ],
      "stateMutability": "view",
      "type": "function"
    },
    {
      "inputs": [
        {
          "internalType": "address",
          "name": "owner",
          "type": "address"
        },
        {
          "internalType": "address",
          "name": "operator",
          "type": "address"
        }
      ],
      "name": "isApprovedForAll",
      "outputs": [
        {
          "internalType": "bool",
          "name": "",
          "type": "bool"
        }
      ],
      "stateMutability": "view",
      "type": "function"
    },
    {
      "inputs": [],
      "name": "name",
      "outputs": [
        {
          "internalType": "string",
          "name": "",
          "type": "string"
        }
      ],
      "stateMutability": "view",
      "type": "function"
    },
    {
      "inputs": [],
      "name": "owner",
      "outputs": [
        {
          "internalType": "address",
          "name": "",
          "type": "address"
        }
      ],
      "stateMutability": "view",
      "type": "function"
    },
    {
      "inputs": [
        {
          "internalType": "uint256",
          "name": "tokenId",
          "type": "uint256"
        }
      ],
      "name": "ownerOf",
      "outputs": [
        {
          "internalType": "address",
          "name": "",
          "type": "address"
        }
      ],
      "stateMutability": "view",
      "type": "function"
    },
    {
      "inputs": [],
      "name": "renounceOwnership",
      "outputs": [],
      "stateMutability": "nonpayable",
      "type": "function"
    },
    {
      "inputs": [
        {
          "internalType": "address",
          "name": "to",
          "type": "address"
        }
      ],
      "name": "safeMint",
      "outputs": [],
      "stateMutability": "nonpayable",
      "type": "function"
    },
    {
      "inputs": [
        {
          "internalType": "address",
          "name": "from",
          "type": "address"
        },
        {
          "internalType": "address",
          "name": "to",
          "type": "address"
        },
        {
          "internalType": "uint256",
          "name": "tokenId",
          "type": "uint256"
        }
      ],
      "name": "safeTransferFrom",
      "outputs": [],
      "stateMutability": "nonpayable",
      "type": "function"
    },
    {
      "inputs": [
        {
          "internalType": "address",
          "name": "from",
          "type": "address"
        },
        {
          "internalType": "address",
          "name": "to",
          "type": "address"
        },
        {
          "internalType": "uint256",
          "name": "tokenId",
          "type": "uint256"
        },
        {
          "internalType": "bytes",
          "name": "data",
          "type": "bytes"
        }
      ],
      "name": "safeTransferFrom",
      "outputs": [],
      "stateMutability": "nonpayable",
      "type": "function"
    },
    {
      "inputs": [
        {
          "internalType": "address",
          "name": "operator",
          "type": "address"
        },
        {
          "internalType": "bool",
          "name": "approved",
          "type": "bool"
        }
      ],
      "name": "setApprovalForAll",
      "outputs": [],
      "stateMutability": "nonpayable",
      "type": "function"
    },
    {
      "inputs": [
        {
          "internalType": "uint256",
          "name": "tokenId",
          "type": "uint256"
        },
        {
          "internalType": "uint256",
          "name": "itemType",
          "type": "uint256"
        }
      ],
      "name": "slotEquipped",
      "outputs": [
        {
          "internalType": "bool",
          "name": "",
          "type": "bool"
        }
      ],
      "stateMutability": "view",
      "type": "function"
    },
    {
      "inputs": [
        {
          "internalType": "bytes4",
          "name": "interfaceId",
          "type": "bytes4"
        }
      ],
      "name": "supportsInterface",
      "outputs": [
        {
          "internalType": "bool",
          "name": "",
          "type": "bool"
        }
      ],
      "stateMutability": "view",
      "type": "function"
    },
    {
      "inputs": [],
      "name": "symbol",
      "outputs": [
        {
          "internalType": "string",
          "name": "",
          "type": "string"
        }
      ],
      "stateMutability": "view",
      "type": "function"
    },
    {
      "inputs": [
        {
          "internalType": "uint256",
          "name": "tokenId",
          "type": "uint256"
        }
      ],
      "name": "tokenURI",
      "outputs": [
        {
          "internalType": "string",
          "name": "",
          "type": "string"
        }
      ],
      "stateMutability": "view",
      "type": "function"
    },
    {
      "inputs": [
        {
          "internalType": "address",
          "name": "from",
          "type": "address"
        },
        {
          "internalType": "address",
          "name": "to",
          "type": "address"
        },
        {
          "internalType": "uint256",
          "name": "tokenId",
          "type": "uint256"
        }
      ],
      "name": "transferFrom",
      "outputs": [],
      "stateMutability": "nonpayable",
      "type": "function"
    },
    {
      "inputs": [
        {
          "internalType": "address",
          "name": "newOwner",
          "type": "address"
        }
      ],
      "name": "transferOwnership",
      "outputs": [],
      "stateMutability": "nonpayable",
      "type": "function"
    }
  ],
  "bytecode": "0x60a06040523480156200001157600080fd5b506040516200224538038062002245833981016040819052620000349162000115565b604051806040016040528060058152602001642632b6b7b760d91b815250604051806040016040528060058152602001642622a6a7a760d91b8152508160009081620000819190620001ec565b506001620000908282620001ec565b505050620000ad620000a7620000bf60201b60201c565b620000c3565b6001600160a01b0316608052620002b8565b3390565b600680546001600160a01b038381166001600160a01b0319831681179093556040519116919082907f8be0079c531659141344cd1fd0a4f28419497f9722a3daafe3b4186f6b6457e090600090a35050565b6000602082840312156200012857600080fd5b81516001600160a01b03811681146200014057600080fd5b9392505050565b634e487b7160e01b600052604160045260246000fd5b600181811c908216806200017257607f821691505b6020821081036200019357634e487b7160e01b600052602260045260246000fd5b50919050565b601f821115620001e757600081815260208120601f850160051c81016020861015620001c25750805b601f850160051c820191505b81811015620001e357828155600101620001ce565b5050505b505050565b81516001600160401b0381111562000208576200020862000147565b62000220816200021984546200015d565b8462000199565b602080601f8311600181146200025857600084156200023f5750858301515b600019600386901b1c1916600185901b178555620001e3565b600085815260208120601f198616915b82811015620002895788860151825594840194600190910190840162000268565b5085821015620002a85787850151600019600388901b60f8161c191681555b5050505050600190811b01905550565b608051611f63620002e260003960008181610af101528181610b590152610d9c0152611f636000f3fe608060405234801561001057600080fd5b50600436106101825760003560e01c806370a08231116100d8578063a22cb4651161008c578063c87b56dd11610066578063c87b56dd14610339578063e985e9c51461034c578063f2fde38b1461038857600080fd5b8063a22cb46514610300578063b18b379614610313578063b88d4fde1461032657600080fd5b8063791e5246116100bd578063791e5246146102d45780638da5cb5b146102e757806395d89b41146102f857600080fd5b806370a08231146102ab578063715018a6146102cc57600080fd5b806323b872dd1161013a578063605414c511610114578063605414c5146102505780636352211e1461027057806363c0c1b01461028357600080fd5b806323b872dd1461021757806340d097c31461022a57806342842e0e1461023d57600080fd5b8063081812fc1161016b578063081812fc146101c4578063095ea7b3146101ef578063200362051461020457600080fd5b806301ffc9a71461018757806306fdde03146101af575b600080fd5b61019a610195366004611a64565b61039b565b60405190151581526020015b60405180910390f35b6101b7610438565b6040516101a69190611ad8565b6101d76101d2366004611aeb565b6104ca565b6040516001600160a01b0390911681526020016101a6565b6102026101fd366004611b20565b6104f1565b005b61019a610212366004611b4a565b610627565b610202610225366004611b6c565b610658565b610202610238366004611ba8565b6106cf565b61020261024b366004611b6c565b6106f4565b61026361025e366004611aeb565b61070f565b6040516101a69190611bc3565b6101d761027e366004611aeb565b6107d1565b610296610291366004611b4a565b610836565b604080519283529015156020830152016101a6565b6102be6102b9366004611ba8565b610869565b6040519081526020016101a6565b610202610903565b6102026102e2366004611bf5565b610917565b6006546001600160a01b03166101d7565b6101b7610e18565b61020261030e366004611c74565b610e27565b6102be610321366004611b4a565b610e32565b610202610334366004611cc6565b610e5d565b6101b7610347366004611aeb565b610ed5565b61019a61035a366004611da2565b6001600160a01b03918216600090815260056020908152604080832093909416825291909152205460ff1690565b610202610396366004611ba8565b610f18565b60006001600160e01b031982167f80ac58cd0000000000000000000000000000000000000000000000000000000014806103fe57506001600160e01b031982167f5b5e139f00000000000000000000000000000000000000000000000000000000145b8061043257507f01ffc9a7000000000000000000000000000000000000000000000000000000006001600160e01b03198316145b92915050565b60606000805461044790611dd5565b80601f016020809104026020016040519081016040528092919081815260200182805461047390611dd5565b80156104c05780601f10610495576101008083540402835291602001916104c0565b820191906000526020600020905b8154815290600101906020018083116104a357829003601f168201915b5050505050905090565b60006104d582610fa8565b506000908152600460205260409020546001600160a01b031690565b60006104fc826107d1565b9050806001600160a01b0316836001600160a01b03160361058a5760405162461bcd60e51b815260206004820152602160248201527f4552433732313a20617070726f76616c20746f2063757272656e74206f776e6560448201527f720000000000000000000000000000000000000000000000000000000000000060648201526084015b60405180910390fd5b336001600160a01b03821614806105a657506105a6813361035a565b6106185760405162461bcd60e51b815260206004820152603d60248201527f4552433732313a20617070726f76652063616c6c6572206973206e6f7420746f60448201527f6b656e206f776e6572206f7220617070726f76656420666f7220616c6c0000006064820152608401610581565b610622838361100c565b505050565b6000828152600860205260408120826009811061064657610646611e0f565b600202016001015460ff169392505050565b6106623382611087565b6106c45760405162461bcd60e51b815260206004820152602d60248201527f4552433732313a2063616c6c6572206973206e6f7420746f6b656e206f776e6560448201526c1c881bdc88185c1c1c9bdd9959609a1b6064820152608401610581565b610622838383611106565b60078054600091826106e083611e25565b9190505590506106f0828261130c565b5050565b61062283838360405180602001604052806000815250610e5d565b610717611a2f565b61071f611a2f565b60005b60098110156107ca576000848152600860205260409020816009811061074a5761074a611e0f565b6002020160019081015460ff161515900361079f576000848152600860205260409020816009811061077e5761077e611e0f565b600202015482826009811061079557610795611e0f565b60200201526107ba565b6000198282600981106107b4576107b4611e0f565b60200201525b6107c381611e25565b9050610722565b5092915050565b6000818152600260205260408120546001600160a01b0316806104325760405162461bcd60e51b815260206004820152601860248201527f4552433732313a20696e76616c696420746f6b656e20494400000000000000006044820152606401610581565b6008602052816000526040600020816009811061085257600080fd5b60020201805460019091015490925060ff16905082565b60006001600160a01b0382166108e75760405162461bcd60e51b815260206004820152602960248201527f4552433732313a2061646472657373207a65726f206973206e6f74206120766160448201527f6c6964206f776e657200000000000000000000000000000000000000000000006064820152608401610581565b506001600160a01b031660009081526003602052604090205490565b61090b611326565b6109156000611380565b565b600981146109675760405162461bcd60e51b815260206004820152601e60248201527f4c656d6f6e733a2057726f6e672065717569706d656e7420616d6f756e7400006044820152606401610581565b33610971846107d1565b6001600160a01b0316146109c75760405162461bcd60e51b815260206004820152601760248201527f4c656d6f6e733a204e6f7420746f6b656e206f776e65720000000000000000006044820152606401610581565b60005b6009811015610e12576000198383838181106109e8576109e8611e0f565b905060200201351315610c815760008481526008602052604090208160098110610a1457610a14611e0f565b6002020160019081015460ff161515148015610a6f5750828282818110610a3d57610a3d611e0f565b90506020020135600860008681526020019081526020016000208260098110610a6857610a68611e0f565b6002020154145b610c815760008481526008602052604090208160098110610a9257610a92611e0f565b6002020160019081015460ff1615159003610b575760008481526008602052604081208260098110610ac657610ac6611e0f565b60020201546040516355cc441d60e01b815260048101849052602481018290523360448201529091507f00000000000000000000000000000000000000000000000000000000000000006001600160a01b0316906355cc441d90606401600060405180830381600087803b158015610b3d57600080fd5b505af1158015610b51573d6000803e3d6000fd5b50505050505b7f00000000000000000000000000000000000000000000000000000000000000006001600160a01b0316637d7b846682858585818110610b9957610b99611e0f565b6040516001600160e01b031960e087901b16815260048101949094526020029190910135602483015250336044820152606401600060405180830381600087803b158015610be657600080fd5b505af1158015610bfa573d6000803e3d6000fd5b5050506000858152600860205260409020600191508260098110610c2057610c20611e0f565b6002020160010160006101000a81548160ff021916908315150217905550828282818110610c5057610c50611e0f565b90506020020135600860008681526020019081526020016000208260098110610c7b57610c7b611e0f565b60020201555b828282818110610c9357610c93611e0f565b9050602002013560001903610e025760008481526008602052604090208160098110610cc157610cc1611e0f565b6002020160019081015460ff16151514610d1d5760405162461bcd60e51b815260206004820152601860248201527f4c656d6f6e733a204e6f206974656d20657175697070656400000000000000006044820152606401610581565b60008481526008602052604081208260098110610d3c57610d3c611e0f565b60020201600101805460ff191691151591909117905560008481526008602052604081208260098110610d7157610d71611e0f565b60020201546040516355cc441d60e01b815260048101849052602481018290523360448201529091507f00000000000000000000000000000000000000000000000000000000000000006001600160a01b0316906355cc441d90606401600060405180830381600087803b158015610de857600080fd5b505af1158015610dfc573d6000803e3d6000fd5b50505050505b610e0b81611e25565b90506109ca565b50505050565b60606001805461044790611dd5565b6106f03383836113df565b60008281526008602052604081208260098110610e5157610e51611e0f565b60020201549392505050565b610e673383611087565b610ec95760405162461bcd60e51b815260206004820152602d60248201527f4552433732313a2063616c6c6572206973206e6f7420746f6b656e206f776e6560448201526c1c881bdc88185c1c1c9bdd9959609a1b6064820152608401610581565b610e12848484846114ad565b6060610ee082610fa8565b610ee861152b565b610ef18361154b565b604051602001610f02929190611e4c565b6040516020818303038152906040529050919050565b610f20611326565b6001600160a01b038116610f9c5760405162461bcd60e51b815260206004820152602660248201527f4f776e61626c653a206e6577206f776e657220697320746865207a65726f206160448201527f64647265737300000000000000000000000000000000000000000000000000006064820152608401610581565b610fa581611380565b50565b6000818152600260205260409020546001600160a01b0316610fa55760405162461bcd60e51b815260206004820152601860248201527f4552433732313a20696e76616c696420746f6b656e20494400000000000000006044820152606401610581565b6000818152600460205260409020805473ffffffffffffffffffffffffffffffffffffffff19166001600160a01b038416908117909155819061104e826107d1565b6001600160a01b03167f8c5be1e5ebec7d5bd14f71427d1e84f3dd0314c0f7b2291e5b200ac8c7c3b92560405160405180910390a45050565b600080611093836107d1565b9050806001600160a01b0316846001600160a01b031614806110da57506001600160a01b0380821660009081526005602090815260408083209388168352929052205460ff165b806110fe5750836001600160a01b03166110f3846104ca565b6001600160a01b0316145b949350505050565b826001600160a01b0316611119826107d1565b6001600160a01b03161461117d5760405162461bcd60e51b815260206004820152602560248201527f4552433732313a207472616e736665722066726f6d20696e636f72726563742060448201526437bbb732b960d91b6064820152608401610581565b6001600160a01b0382166111f85760405162461bcd60e51b8152602060048201526024808201527f4552433732313a207472616e7366657220746f20746865207a65726f2061646460448201527f72657373000000000000000000000000000000000000000000000000000000006064820152608401610581565b826001600160a01b031661120b826107d1565b6001600160a01b03161461126f5760405162461bcd60e51b815260206004820152602560248201527f4552433732313a207472616e736665722066726f6d20696e636f72726563742060448201526437bbb732b960d91b6064820152608401610581565b6000818152600460209081526040808320805473ffffffffffffffffffffffffffffffffffffffff199081169091556001600160a01b0387811680865260038552838620805460001901905590871680865283862080546001019055868652600290945282852080549092168417909155905184937fddf252ad1be2c89b69c2b068fc378daa952ba7f163c4a11628f55a4df523b3ef91a4505050565b6106f08282604051806020016040528060008152506115eb565b6006546001600160a01b031633146109155760405162461bcd60e51b815260206004820181905260248201527f4f776e61626c653a2063616c6c6572206973206e6f7420746865206f776e65726044820152606401610581565b600680546001600160a01b0383811673ffffffffffffffffffffffffffffffffffffffff19831681179093556040519116919082907f8be0079c531659141344cd1fd0a4f28419497f9722a3daafe3b4186f6b6457e090600090a35050565b816001600160a01b0316836001600160a01b0316036114405760405162461bcd60e51b815260206004820152601960248201527f4552433732313a20617070726f766520746f2063616c6c6572000000000000006044820152606401610581565b6001600160a01b03838116600081815260056020908152604080832094871680845294825291829020805460ff191686151590811790915591519182527f17307eab39ab6107e8899845ad3d59bd9653f200f220920489ca2b5937696c31910160405180910390a3505050565b6114b8848484611106565b6114c484848484611669565b610e125760405162461bcd60e51b815260206004820152603260248201527f4552433732313a207472616e7366657220746f206e6f6e20455243373231526560448201527131b2b4bb32b91034b6b83632b6b2b73a32b960711b6064820152608401610581565b6060604051806080016040528060598152602001611ed560599139905090565b60606000611558836117b5565b600101905060008167ffffffffffffffff81111561157857611578611cb0565b6040519080825280601f01601f1916602001820160405280156115a2576020820181803683370190505b5090508181016020015b600019017f3031323334353637383961626364656600000000000000000000000000000000600a86061a8153600a85049450846115ac57509392505050565b6115f58383611897565b6116026000848484611669565b6106225760405162461bcd60e51b815260206004820152603260248201527f4552433732313a207472616e7366657220746f206e6f6e20455243373231526560448201527131b2b4bb32b91034b6b83632b6b2b73a32b960711b6064820152608401610581565b60006001600160a01b0384163b156117aa57604051630a85bd0160e11b81526001600160a01b0385169063150b7a02906116ad903390899088908890600401611e7b565b6020604051808303816000875af19250505080156116e8575060408051601f3d908101601f191682019092526116e591810190611eb7565b60015b611790573d808015611716576040519150601f19603f3d011682016040523d82523d6000602084013e61171b565b606091505b5080516000036117885760405162461bcd60e51b815260206004820152603260248201527f4552433732313a207472616e7366657220746f206e6f6e20455243373231526560448201527131b2b4bb32b91034b6b83632b6b2b73a32b960711b6064820152608401610581565b805181602001fd5b6001600160e01b031916630a85bd0160e11b1490506110fe565b506001949350505050565b6000807a184f03e93ff9f4daa797ed6e38ed64bf6a1f01000000000000000083106117fe577a184f03e93ff9f4daa797ed6e38ed64bf6a1f010000000000000000830492506040015b6d04ee2d6d415b85acef8100000000831061182a576d04ee2d6d415b85acef8100000000830492506020015b662386f26fc10000831061184857662386f26fc10000830492506010015b6305f5e1008310611860576305f5e100830492506008015b612710831061187457612710830492506004015b60648310611886576064830492506002015b600a83106104325760010192915050565b6001600160a01b0382166118ed5760405162461bcd60e51b815260206004820181905260248201527f4552433732313a206d696e7420746f20746865207a65726f20616464726573736044820152606401610581565b6000818152600260205260409020546001600160a01b0316156119525760405162461bcd60e51b815260206004820152601c60248201527f4552433732313a20746f6b656e20616c7265616479206d696e746564000000006044820152606401610581565b6000818152600260205260409020546001600160a01b0316156119b75760405162461bcd60e51b815260206004820152601c60248201527f4552433732313a20746f6b656e20616c7265616479206d696e746564000000006044820152606401610581565b6001600160a01b0382166000818152600360209081526040808320805460010190558483526002909152808220805473ffffffffffffffffffffffffffffffffffffffff19168417905551839291907fddf252ad1be2c89b69c2b068fc378daa952ba7f163c4a11628f55a4df523b3ef908290a45050565b6040518061012001604052806009906020820280368337509192915050565b6001600160e01b031981168114610fa557600080fd5b600060208284031215611a7657600080fd5b8135611a8181611a4e565b9392505050565b60005b83811015611aa3578181015183820152602001611a8b565b50506000910152565b60008151808452611ac4816020860160208601611a88565b601f01601f19169290920160200192915050565b602081526000611a816020830184611aac565b600060208284031215611afd57600080fd5b5035919050565b80356001600160a01b0381168114611b1b57600080fd5b919050565b60008060408385031215611b3357600080fd5b611b3c83611b04565b946020939093013593505050565b60008060408385031215611b5d57600080fd5b50508035926020909101359150565b600080600060608486031215611b8157600080fd5b611b8a84611b04565b9250611b9860208501611b04565b9150604084013590509250925092565b600060208284031215611bba57600080fd5b611a8182611b04565b6101208101818360005b6009811015611bec578151835260209283019290910190600101611bcd565b50505092915050565b600080600060408486031215611c0a57600080fd5b83359250602084013567ffffffffffffffff80821115611c2957600080fd5b818601915086601f830112611c3d57600080fd5b813581811115611c4c57600080fd5b8760208260051b8501011115611c6157600080fd5b6020830194508093505050509250925092565b60008060408385031215611c8757600080fd5b611c9083611b04565b915060208301358015158114611ca557600080fd5b809150509250929050565b634e487b7160e01b600052604160045260246000fd5b60008060008060808587031215611cdc57600080fd5b611ce585611b04565b9350611cf360208601611b04565b925060408501359150606085013567ffffffffffffffff80821115611d1757600080fd5b818701915087601f830112611d2b57600080fd5b813581811115611d3d57611d3d611cb0565b604051601f8201601f19908116603f01168101908382118183101715611d6557611d65611cb0565b816040528281528a6020848701011115611d7e57600080fd5b82602086016020830137600060208483010152809550505050505092959194509250565b60008060408385031215611db557600080fd5b611dbe83611b04565b9150611dcc60208401611b04565b90509250929050565b600181811c90821680611de957607f821691505b602082108103611e0957634e487b7160e01b600052602260045260246000fd5b50919050565b634e487b7160e01b600052603260045260246000fd5b600060018201611e4557634e487b7160e01b600052601160045260246000fd5b5060010190565b60008351611e5e818460208801611a88565b835190830190611e72818360208801611a88565b01949350505050565b60006001600160a01b03808716835280861660208401525083604083015260806060830152611ead6080830184611aac565b9695505050505050565b600060208284031215611ec957600080fd5b8151611a8181611a4e56fe68747470733a2f2f6e667473746f726167652e6c696e6b2f697066732f62616679626569617061716e76673262347275656c6a6f686e33367765726b33796b616337626868677a62713779326133797970786e71746962692fa2646970667358221220b78a9981a09ec51930cc9c394ec7cdbb68aa21da2d4ee2175bd1a5004afa646764736f6c63430008120033",
  "linkReferences": {},
  "deployedLinkReferences": {}
}