{
  "_format": "hh-sol-artifact-1",
  "contractName": "PickAxe",
  "sourceName": "contracts/PickAxe.sol",
  "abi": [
    {
      "inputs": [
        {
          "internalType": "uint256",
          "name": "mintPrice_",
          "type": "uint256"
        }
      ],
      "stateMutability": "nonpayable",
      "type": "constructor"
    },
    {
      "anonymous": false,
      "inputs": [
        {
          "indexed": true,
          "internalType": "address",
          "name": "owner",
          "type": "address"
        },
        {
          "indexed": true,
          "internalType": "address",
          "name": "approved",
          "type": "address"
        },
        {
          "indexed": true,
          "internalType": "uint256",
          "name": "tokenId",
          "type": "uint256"
        }
      ],
      "name": "Approval",
      "type": "event"
    },
    {
      "anonymous": false,
      "inputs": [
        {
          "indexed": true,
          "internalType": "address",
          "name": "owner",
          "type": "address"
        },
        {
          "indexed": true,
          "internalType": "address",
          "name": "operator",
          "type": "address"
        },
        {
          "indexed": false,
          "internalType": "bool",
          "name": "approved",
          "type": "bool"
        }
      ],
      "name": "ApprovalForAll",
      "type": "event"
    },
    {
      "anonymous": false,
      "inputs": [
        {
          "indexed": true,
          "internalType": "address",
          "name": "previousOwner",
          "type": "address"
        },
        {
          "indexed": true,
          "internalType": "address",
          "name": "newOwner",
          "type": "address"
        }
      ],
      "name": "OwnershipTransferred",
      "type": "event"
    },
    {
      "anonymous": false,
      "inputs": [
        {
          "indexed": true,
          "internalType": "address",
          "name": "from",
          "type": "address"
        },
        {
          "indexed": true,
          "internalType": "address",
          "name": "to",
          "type": "address"
        },
        {
          "indexed": true,
          "internalType": "uint256",
          "name": "tokenId",
          "type": "uint256"
        }
      ],
      "name": "Transfer",
      "type": "event"
    },
    {
      "inputs": [
        {
          "internalType": "address",
          "name": "to",
          "type": "address"
        },
        {
          "internalType": "uint256",
          "name": "tokenId",
          "type": "uint256"
        }
      ],
      "name": "approve",
      "outputs": [],
      "stateMutability": "nonpayable",
      "type": "function"
    },
    {
      "inputs": [
        {
          "internalType": "address",
          "name": "owner",
          "type": "address"
        }
      ],
      "name": "balanceOf",
      "outputs": [
        {
          "internalType": "uint256",
          "name": "",
          "type": "uint256"
        }
      ],
      "stateMutability": "view",
      "type": "function"
    },
    {
      "inputs": [
        {
          "internalType": "uint256",
          "name": "tokenId",
          "type": "uint256"
        }
      ],
      "name": "getApproved",
      "outputs": [
        {
          "internalType": "address",
          "name": "",
          "type": "address"
        }
      ],
      "stateMutability": "view",
      "type": "function"
    },
    {
      "inputs": [
        {
          "internalType": "address",
          "name": "owner",
          "type": "address"
        },
        {
          "internalType": "address",
          "name": "operator",
          "type": "address"
        }
      ],
      "name": "isApprovedForAll",
      "outputs": [
        {
          "internalType": "bool",
          "name": "",
          "type": "bool"
        }
      ],
      "stateMutability": "view",
      "type": "function"
    },
    {
      "inputs": [
        {
          "internalType": "address",
          "name": "to",
          "type": "address"
        }
      ],
      "name": "mint",
      "outputs": [],
      "stateMutability": "payable",
      "type": "function"
    },
    {
      "inputs": [],
      "name": "name",
      "outputs": [
        {
          "internalType": "string",
          "name": "",
          "type": "string"
        }
      ],
      "stateMutability": "view",
      "type": "function"
    },
    {
      "inputs": [],
      "name": "owner",
      "outputs": [
        {
          "internalType": "address",
          "name": "",
          "type": "address"
        }
      ],
      "stateMutability": "view",
      "type": "function"
    },
    {
      "inputs": [
        {
          "internalType": "uint256",
          "name": "tokenId",
          "type": "uint256"
        }
      ],
      "name": "ownerOf",
      "outputs": [
        {
          "internalType": "address",
          "name": "",
          "type": "address"
        }
      ],
      "stateMutability": "view",
      "type": "function"
    },
    {
      "inputs": [],
      "name": "renounceOwnership",
      "outputs": [],
      "stateMutability": "nonpayable",
      "type": "function"
    },
    {
      "inputs": [
        {
          "internalType": "address",
          "name": "from",
          "type": "address"
        },
        {
          "internalType": "address",
          "name": "to",
          "type": "address"
        },
        {
          "internalType": "uint256",
          "name": "tokenId",
          "type": "uint256"
        }
      ],
      "name": "safeTransferFrom",
      "outputs": [],
      "stateMutability": "nonpayable",
      "type": "function"
    },
    {
      "inputs": [
        {
          "internalType": "address",
          "name": "from",
          "type": "address"
        },
        {
          "internalType": "address",
          "name": "to",
          "type": "address"
        },
        {
          "internalType": "uint256",
          "name": "tokenId",
          "type": "uint256"
        },
        {
          "internalType": "bytes",
          "name": "data",
          "type": "bytes"
        }
      ],
      "name": "safeTransferFrom",
      "outputs": [],
      "stateMutability": "nonpayable",
      "type": "function"
    },
    {
      "inputs": [
        {
          "internalType": "address",
          "name": "operator",
          "type": "address"
        },
        {
          "internalType": "bool",
          "name": "approved",
          "type": "bool"
        }
      ],
      "name": "setApprovalForAll",
      "outputs": [],
      "stateMutability": "nonpayable",
      "type": "function"
    },
    {
      "inputs": [
        {
          "internalType": "bytes4",
          "name": "interfaceId",
          "type": "bytes4"
        }
      ],
      "name": "supportsInterface",
      "outputs": [
        {
          "internalType": "bool",
          "name": "",
          "type": "bool"
        }
      ],
      "stateMutability": "view",
      "type": "function"
    },
    {
      "inputs": [],
      "name": "symbol",
      "outputs": [
        {
          "internalType": "string",
          "name": "",
          "type": "string"
        }
      ],
      "stateMutability": "view",
      "type": "function"
    },
    {
      "inputs": [
        {
          "internalType": "uint256",
          "name": "tokenId",
          "type": "uint256"
        }
      ],
      "name": "tokenURI",
      "outputs": [
        {
          "internalType": "string",
          "name": "",
          "type": "string"
        }
      ],
      "stateMutability": "view",
      "type": "function"
    },
    {
      "inputs": [
        {
          "internalType": "address",
          "name": "from",
          "type": "address"
        },
        {
          "internalType": "address",
          "name": "to",
          "type": "address"
        },
        {
          "internalType": "uint256",
          "name": "tokenId",
          "type": "uint256"
        }
      ],
      "name": "transferFrom",
      "outputs": [],
      "stateMutability": "nonpayable",
      "type": "function"
    },
    {
      "inputs": [
        {
          "internalType": "address",
          "name": "newOwner",
          "type": "address"
        }
      ],
      "name": "transferOwnership",
      "outputs": [],
      "stateMutability": "nonpayable",
      "type": "function"
    }
  ],
  "bytecode": "0x60a06040523480156200001157600080fd5b50604051620018d5380380620018d583398101604081905262000034916200010c565b604051806040016040528060078152602001665069636b41786560c81b815250604051806040016040528060038152602001620a082b60eb1b8152508160009081620000819190620001cb565b506001620000908282620001cb565b505050620000ad620000a7620000b660201b60201c565b620000ba565b60805262000297565b3390565b600680546001600160a01b038381166001600160a01b0319831681179093556040519116919082907f8be0079c531659141344cd1fd0a4f28419497f9722a3daafe3b4186f6b6457e090600090a35050565b6000602082840312156200011f57600080fd5b5051919050565b634e487b7160e01b600052604160045260246000fd5b600181811c908216806200015157607f821691505b6020821081036200017257634e487b7160e01b600052602260045260246000fd5b50919050565b601f821115620001c657600081815260208120601f850160051c81016020861015620001a15750805b601f850160051c820191505b81811015620001c257828155600101620001ad565b5050505b505050565b81516001600160401b03811115620001e757620001e762000126565b620001ff81620001f884546200013c565b8462000178565b602080601f8311600181146200023757600084156200021e5750858301515b600019600386901b1c1916600185901b178555620001c2565b600085815260208120601f198616915b82811015620002685788860151825594840194600190910190840162000247565b5085821015620002875787850151600019600388901b60f8161c191681555b5050505050600190811b01905550565b608051611622620002b360003960006106fc01526116226000f3fe60806040526004361061010e5760003560e01c806370a08231116100a5578063a22cb46511610074578063c87b56dd11610059578063c87b56dd146102ed578063e985e9c51461030d578063f2fde38b1461035657600080fd5b8063a22cb465146102ad578063b88d4fde146102cd57600080fd5b806370a0823114610237578063715018a6146102655780638da5cb5b1461027a57806395d89b411461029857600080fd5b806323b872dd116100e157806323b872dd146101c457806342842e0e146101e45780636352211e146102045780636a6278421461022457600080fd5b806301ffc9a71461011357806306fdde0314610148578063081812fc1461016a578063095ea7b3146101a2575b600080fd5b34801561011f57600080fd5b5061013361012e36600461129f565b610376565b60405190151581526020015b60405180910390f35b34801561015457600080fd5b5061015d610413565b60405161013f9190611309565b34801561017657600080fd5b5061018a61018536600461131c565b6104a5565b6040516001600160a01b03909116815260200161013f565b3480156101ae57600080fd5b506101c26101bd366004611351565b6104cc565b005b3480156101d057600080fd5b506101c26101df36600461137b565b610602565b3480156101f057600080fd5b506101c26101ff36600461137b565b610679565b34801561021057600080fd5b5061018a61021f36600461131c565b610694565b6101c26102323660046113b7565b6106f9565b34801561024357600080fd5b506102576102523660046113b7565b610775565b60405190815260200161013f565b34801561027157600080fd5b506101c261080f565b34801561028657600080fd5b506006546001600160a01b031661018a565b3480156102a457600080fd5b5061015d610823565b3480156102b957600080fd5b506101c26102c83660046113d2565b610832565b3480156102d957600080fd5b506101c26102e8366004611424565b610841565b3480156102f957600080fd5b5061015d61030836600461131c565b6108bf565b34801561031957600080fd5b50610133610328366004611500565b6001600160a01b03918216600090815260056020908152604080832093909416825291909152205460ff1690565b34801561036257600080fd5b506101c26103713660046113b7565b6108d2565b60006001600160e01b031982167f80ac58cd0000000000000000000000000000000000000000000000000000000014806103d957506001600160e01b031982167f5b5e139f00000000000000000000000000000000000000000000000000000000145b8061040d57507f01ffc9a7000000000000000000000000000000000000000000000000000000006001600160e01b03198316145b92915050565b60606000805461042290611533565b80601f016020809104026020016040519081016040528092919081815260200182805461044e90611533565b801561049b5780601f106104705761010080835404028352916020019161049b565b820191906000526020600020905b81548152906001019060200180831161047e57829003601f168201915b5050505050905090565b60006104b08261095f565b506000908152600460205260409020546001600160a01b031690565b60006104d782610694565b9050806001600160a01b0316836001600160a01b0316036105655760405162461bcd60e51b815260206004820152602160248201527f4552433732313a20617070726f76616c20746f2063757272656e74206f776e6560448201527f720000000000000000000000000000000000000000000000000000000000000060648201526084015b60405180910390fd5b336001600160a01b038216148061058157506105818133610328565b6105f35760405162461bcd60e51b815260206004820152603d60248201527f4552433732313a20617070726f76652063616c6c6572206973206e6f7420746f60448201527f6b656e206f776e6572206f7220617070726f76656420666f7220616c6c000000606482015260840161055c565b6105fd83836109c3565b505050565b61060c3382610a3e565b61066e5760405162461bcd60e51b815260206004820152602d60248201527f4552433732313a2063616c6c6572206973206e6f7420746f6b656e206f776e6560448201526c1c881bdc88185c1c1c9bdd9959609a1b606482015260840161055c565b6105fd838383610abd565b6105fd83838360405180602001604052806000815250610841565b6000818152600260205260408120546001600160a01b03168061040d5760405162461bcd60e51b815260206004820152601860248201527f4552433732313a20696e76616c696420746f6b656e2049440000000000000000604482015260640161055c565b347f000000000000000000000000000000000000000000000000000000000000000011156107695760405162461bcd60e51b815260206004820152601b60248201527f5069636b4178653a20496e73756666696369656e742066756e64730000000000604482015260640161055c565b61077281610cc3565b50565b60006001600160a01b0382166107f35760405162461bcd60e51b815260206004820152602960248201527f4552433732313a2061646472657373207a65726f206973206e6f74206120766160448201527f6c6964206f776e65720000000000000000000000000000000000000000000000606482015260840161055c565b506001600160a01b031660009081526003602052604090205490565b610817610ce8565b6108216000610d42565b565b60606001805461042290611533565b61083d338383610da1565b5050565b61084b3383610a3e565b6108ad5760405162461bcd60e51b815260206004820152602d60248201527f4552433732313a2063616c6c6572206973206e6f7420746f6b656e206f776e6560448201526c1c881bdc88185c1c1c9bdd9959609a1b606482015260840161055c565b6108b984848484610e6f565b50505050565b60606108ca8261095f565b61040d610eed565b6108da610ce8565b6001600160a01b0381166109565760405162461bcd60e51b815260206004820152602660248201527f4f776e61626c653a206e6577206f776e657220697320746865207a65726f206160448201527f6464726573730000000000000000000000000000000000000000000000000000606482015260840161055c565b61077281610d42565b6000818152600260205260409020546001600160a01b03166107725760405162461bcd60e51b815260206004820152601860248201527f4552433732313a20696e76616c696420746f6b656e2049440000000000000000604482015260640161055c565b6000818152600460205260409020805473ffffffffffffffffffffffffffffffffffffffff19166001600160a01b0384169081179091558190610a0582610694565b6001600160a01b03167f8c5be1e5ebec7d5bd14f71427d1e84f3dd0314c0f7b2291e5b200ac8c7c3b92560405160405180910390a45050565b600080610a4a83610694565b9050806001600160a01b0316846001600160a01b03161480610a9157506001600160a01b0380821660009081526005602090815260408083209388168352929052205460ff165b80610ab55750836001600160a01b0316610aaa846104a5565b6001600160a01b0316145b949350505050565b826001600160a01b0316610ad082610694565b6001600160a01b031614610b345760405162461bcd60e51b815260206004820152602560248201527f4552433732313a207472616e736665722066726f6d20696e636f72726563742060448201526437bbb732b960d91b606482015260840161055c565b6001600160a01b038216610baf5760405162461bcd60e51b8152602060048201526024808201527f4552433732313a207472616e7366657220746f20746865207a65726f2061646460448201527f7265737300000000000000000000000000000000000000000000000000000000606482015260840161055c565b826001600160a01b0316610bc282610694565b6001600160a01b031614610c265760405162461bcd60e51b815260206004820152602560248201527f4552433732313a207472616e736665722066726f6d20696e636f72726563742060448201526437bbb732b960d91b606482015260840161055c565b6000818152600460209081526040808320805473ffffffffffffffffffffffffffffffffffffffff199081169091556001600160a01b0387811680865260038552838620805460001901905590871680865283862080546001019055868652600290945282852080549092168417909155905184937fddf252ad1be2c89b69c2b068fc378daa952ba7f163c4a11628f55a4df523b3ef91a4505050565b6000610cce60075490565b9050610cde600780546001019055565b61083d8282610f0d565b6006546001600160a01b031633146108215760405162461bcd60e51b815260206004820181905260248201527f4f776e61626c653a2063616c6c6572206973206e6f7420746865206f776e6572604482015260640161055c565b600680546001600160a01b0383811673ffffffffffffffffffffffffffffffffffffffff19831681179093556040519116919082907f8be0079c531659141344cd1fd0a4f28419497f9722a3daafe3b4186f6b6457e090600090a35050565b816001600160a01b0316836001600160a01b031603610e025760405162461bcd60e51b815260206004820152601960248201527f4552433732313a20617070726f766520746f2063616c6c657200000000000000604482015260640161055c565b6001600160a01b03838116600081815260056020908152604080832094871680845294825291829020805460ff191686151590811790915591519182527f17307eab39ab6107e8899845ad3d59bd9653f200f220920489ca2b5937696c31910160405180910390a3505050565b610e7a848484610abd565b610e8684848484610f27565b6108b95760405162461bcd60e51b815260206004820152603260248201527f4552433732313a207472616e7366657220746f206e6f6e20455243373231526560448201527131b2b4bb32b91034b6b83632b6b2b73a32b960711b606482015260840161055c565b60606040518060600160405280602681526020016115c760269139905090565b61083d828260405180602001604052806000815250611073565b60006001600160a01b0384163b1561106857604051630a85bd0160e11b81526001600160a01b0385169063150b7a0290610f6b90339089908890889060040161156d565b6020604051808303816000875af1925050508015610fa6575060408051601f3d908101601f19168201909252610fa3918101906115a9565b60015b61104e573d808015610fd4576040519150601f19603f3d011682016040523d82523d6000602084013e610fd9565b606091505b5080516000036110465760405162461bcd60e51b815260206004820152603260248201527f4552433732313a207472616e7366657220746f206e6f6e20455243373231526560448201527131b2b4bb32b91034b6b83632b6b2b73a32b960711b606482015260840161055c565b805181602001fd5b6001600160e01b031916630a85bd0160e11b149050610ab5565b506001949350505050565b61107d83836110f1565b61108a6000848484610f27565b6105fd5760405162461bcd60e51b815260206004820152603260248201527f4552433732313a207472616e7366657220746f206e6f6e20455243373231526560448201527131b2b4bb32b91034b6b83632b6b2b73a32b960711b606482015260840161055c565b6001600160a01b0382166111475760405162461bcd60e51b815260206004820181905260248201527f4552433732313a206d696e7420746f20746865207a65726f2061646472657373604482015260640161055c565b6000818152600260205260409020546001600160a01b0316156111ac5760405162461bcd60e51b815260206004820152601c60248201527f4552433732313a20746f6b656e20616c7265616479206d696e74656400000000604482015260640161055c565b6000818152600260205260409020546001600160a01b0316156112115760405162461bcd60e51b815260206004820152601c60248201527f4552433732313a20746f6b656e20616c7265616479206d696e74656400000000604482015260640161055c565b6001600160a01b0382166000818152600360209081526040808320805460010190558483526002909152808220805473ffffffffffffffffffffffffffffffffffffffff19168417905551839291907fddf252ad1be2c89b69c2b068fc378daa952ba7f163c4a11628f55a4df523b3ef908290a45050565b6001600160e01b03198116811461077257600080fd5b6000602082840312156112b157600080fd5b81356112bc81611289565b9392505050565b6000815180845260005b818110156112e9576020818501810151868301820152016112cd565b506000602082860101526020601f19601f83011685010191505092915050565b6020815260006112bc60208301846112c3565b60006020828403121561132e57600080fd5b5035919050565b80356001600160a01b038116811461134c57600080fd5b919050565b6000806040838503121561136457600080fd5b61136d83611335565b946020939093013593505050565b60008060006060848603121561139057600080fd5b61139984611335565b92506113a760208501611335565b9150604084013590509250925092565b6000602082840312156113c957600080fd5b6112bc82611335565b600080604083850312156113e557600080fd5b6113ee83611335565b91506020830135801515811461140357600080fd5b809150509250929050565b634e487b7160e01b600052604160045260246000fd5b6000806000806080858703121561143a57600080fd5b61144385611335565b935061145160208601611335565b925060408501359150606085013567ffffffffffffffff8082111561147557600080fd5b818701915087601f83011261148957600080fd5b81358181111561149b5761149b61140e565b604051601f8201601f19908116603f011681019083821181831017156114c3576114c361140e565b816040528281528a60208487010111156114dc57600080fd5b82602086016020830137600060208483010152809550505050505092959194509250565b6000806040838503121561151357600080fd5b61151c83611335565b915061152a60208401611335565b90509250929050565b600181811c9082168061154757607f821691505b60208210810361156757634e487b7160e01b600052602260045260246000fd5b50919050565b60006001600160a01b0380871683528086166020840152508360408301526080606083015261159f60808301846112c3565b9695505050505050565b6000602082840312156115bb57600080fd5b81516112bc8161128956fe68747470733a2f2f626174746c656d6f6e2e636f6d2f6e66742f646174612f7069636b617865a26469706673582212206d09f9a896d5c18e9b96b38bce507c1e4673c5f02620cca0de3ae9230cd82a3164736f6c63430008120033",
  "linkReferences": {},
  "deployedLinkReferences": {}
}