{
  "_format": "hh-sol-artifact-1",
  "contractName": "PickAxe",
  "sourceName": "contracts/PickAxe.sol",
  "abi": [
    {
      "inputs": [
        {
          "internalType": "uint256",
          "name": "cheapMintPrice_",
          "type": "uint256"
        },
        {
          "internalType": "uint256",
          "name": "goodMintPrice_",
          "type": "uint256"
        },
        {
          "internalType": "uint256",
          "name": "greatMintPrice_",
          "type": "uint256"
        },
        {
          "internalType": "uint256",
          "name": "cheapSharpPrice_",
          "type": "uint256"
        },
        {
          "internalType": "uint256",
          "name": "goodSharpPrice_",
          "type": "uint256"
        },
        {
          "internalType": "uint256",
          "name": "greatSharpPrice_",
          "type": "uint256"
        },
        {
          "internalType": "address",
          "name": "treasuryAddress_",
          "type": "address"
        },
        {
          "internalType": "address",
          "name": "gemAddress_",
          "type": "address"
        }
      ],
      "stateMutability": "nonpayable",
      "type": "constructor"
    },
    {
      "anonymous": false,
      "inputs": [
        {
          "indexed": true,
          "internalType": "address",
          "name": "owner",
          "type": "address"
        },
        {
          "indexed": true,
          "internalType": "address",
          "name": "approved",
          "type": "address"
        },
        {
          "indexed": true,
          "internalType": "uint256",
          "name": "tokenId",
          "type": "uint256"
        }
      ],
      "name": "Approval",
      "type": "event"
    },
    {
      "anonymous": false,
      "inputs": [
        {
          "indexed": true,
          "internalType": "address",
          "name": "owner",
          "type": "address"
        },
        {
          "indexed": true,
          "internalType": "address",
          "name": "operator",
          "type": "address"
        },
        {
          "indexed": false,
          "internalType": "bool",
          "name": "approved",
          "type": "bool"
        }
      ],
      "name": "ApprovalForAll",
      "type": "event"
    },
    {
      "anonymous": false,
      "inputs": [
        {
          "indexed": true,
          "internalType": "address",
          "name": "previousOwner",
          "type": "address"
        },
        {
          "indexed": true,
          "internalType": "address",
          "name": "newOwner",
          "type": "address"
        }
      ],
      "name": "OwnershipTransferred",
      "type": "event"
    },
    {
      "anonymous": false,
      "inputs": [
        {
          "indexed": true,
          "internalType": "address",
          "name": "from",
          "type": "address"
        },
        {
          "indexed": true,
          "internalType": "address",
          "name": "to",
          "type": "address"
        },
        {
          "indexed": true,
          "internalType": "uint256",
          "name": "tokenId",
          "type": "uint256"
        }
      ],
      "name": "Transfer",
      "type": "event"
    },
    {
      "inputs": [
        {
          "internalType": "address",
          "name": "to",
          "type": "address"
        },
        {
          "internalType": "uint256",
          "name": "tokenId",
          "type": "uint256"
        }
      ],
      "name": "approve",
      "outputs": [],
      "stateMutability": "nonpayable",
      "type": "function"
    },
    {
      "inputs": [
        {
          "internalType": "address",
          "name": "owner",
          "type": "address"
        }
      ],
      "name": "balanceOf",
      "outputs": [
        {
          "internalType": "uint256",
          "name": "",
          "type": "uint256"
        }
      ],
      "stateMutability": "view",
      "type": "function"
    },
    {
      "inputs": [
        {
          "internalType": "uint256",
          "name": "tokenId",
          "type": "uint256"
        }
      ],
      "name": "chipOff",
      "outputs": [],
      "stateMutability": "nonpayable",
      "type": "function"
    },
    {
      "inputs": [
        {
          "internalType": "uint256",
          "name": "tokenId",
          "type": "uint256"
        }
      ],
      "name": "getApproved",
      "outputs": [
        {
          "internalType": "address",
          "name": "",
          "type": "address"
        }
      ],
      "stateMutability": "view",
      "type": "function"
    },
    {
      "inputs": [
        {
          "internalType": "address",
          "name": "owner",
          "type": "address"
        },
        {
          "internalType": "address",
          "name": "operator",
          "type": "address"
        }
      ],
      "name": "isApprovedForAll",
      "outputs": [
        {
          "internalType": "bool",
          "name": "",
          "type": "bool"
        }
      ],
      "stateMutability": "view",
      "type": "function"
    },
    {
      "inputs": [
        {
          "internalType": "address",
          "name": "to",
          "type": "address"
        },
        {
          "internalType": "enum PickAxe.Rank",
          "name": "rank",
          "type": "uint8"
        }
      ],
      "name": "mint",
      "outputs": [],
      "stateMutability": "payable",
      "type": "function"
    },
    {
      "inputs": [],
      "name": "name",
      "outputs": [
        {
          "internalType": "string",
          "name": "",
          "type": "string"
        }
      ],
      "stateMutability": "view",
      "type": "function"
    },
    {
      "inputs": [],
      "name": "owner",
      "outputs": [
        {
          "internalType": "address",
          "name": "",
          "type": "address"
        }
      ],
      "stateMutability": "view",
      "type": "function"
    },
    {
      "inputs": [
        {
          "internalType": "uint256",
          "name": "tokenId",
          "type": "uint256"
        }
      ],
      "name": "ownerOf",
      "outputs": [
        {
          "internalType": "address",
          "name": "",
          "type": "address"
        }
      ],
      "stateMutability": "view",
      "type": "function"
    },
    {
      "inputs": [
        {
          "internalType": "uint256",
          "name": "tokenId",
          "type": "uint256"
        }
      ],
      "name": "rankOf",
      "outputs": [
        {
          "internalType": "enum PickAxe.Rank",
          "name": "",
          "type": "uint8"
        }
      ],
      "stateMutability": "view",
      "type": "function"
    },
    {
      "inputs": [],
      "name": "renounceOwnership",
      "outputs": [],
      "stateMutability": "nonpayable",
      "type": "function"
    },
    {
      "inputs": [
        {
          "internalType": "address",
          "name": "from",
          "type": "address"
        },
        {
          "internalType": "address",
          "name": "to",
          "type": "address"
        },
        {
          "internalType": "uint256",
          "name": "tokenId",
          "type": "uint256"
        }
      ],
      "name": "safeTransferFrom",
      "outputs": [],
      "stateMutability": "nonpayable",
      "type": "function"
    },
    {
      "inputs": [
        {
          "internalType": "address",
          "name": "from",
          "type": "address"
        },
        {
          "internalType": "address",
          "name": "to",
          "type": "address"
        },
        {
          "internalType": "uint256",
          "name": "tokenId",
          "type": "uint256"
        },
        {
          "internalType": "bytes",
          "name": "data",
          "type": "bytes"
        }
      ],
      "name": "safeTransferFrom",
      "outputs": [],
      "stateMutability": "nonpayable",
      "type": "function"
    },
    {
      "inputs": [
        {
          "internalType": "address",
          "name": "operator",
          "type": "address"
        },
        {
          "internalType": "bool",
          "name": "approved",
          "type": "bool"
        }
      ],
      "name": "setApprovalForAll",
      "outputs": [],
      "stateMutability": "nonpayable",
      "type": "function"
    },
    {
      "inputs": [
        {
          "internalType": "uint256",
          "name": "tokenId",
          "type": "uint256"
        }
      ],
      "name": "sharp",
      "outputs": [],
      "stateMutability": "payable",
      "type": "function"
    },
    {
      "inputs": [
        {
          "internalType": "uint256",
          "name": "tokenId",
          "type": "uint256"
        }
      ],
      "name": "sharpnessOf",
      "outputs": [
        {
          "internalType": "uint8",
          "name": "",
          "type": "uint8"
        }
      ],
      "stateMutability": "view",
      "type": "function"
    },
    {
      "inputs": [
        {
          "internalType": "enum PickAxe.Rank",
          "name": "rank",
          "type": "uint8"
        }
      ],
      "name": "supplyOf",
      "outputs": [
        {
          "internalType": "uint256",
          "name": "",
          "type": "uint256"
        }
      ],
      "stateMutability": "view",
      "type": "function"
    },
    {
      "inputs": [
        {
          "internalType": "bytes4",
          "name": "interfaceId",
          "type": "bytes4"
        }
      ],
      "name": "supportsInterface",
      "outputs": [
        {
          "internalType": "bool",
          "name": "",
          "type": "bool"
        }
      ],
      "stateMutability": "view",
      "type": "function"
    },
    {
      "inputs": [],
      "name": "symbol",
      "outputs": [
        {
          "internalType": "string",
          "name": "",
          "type": "string"
        }
      ],
      "stateMutability": "view",
      "type": "function"
    },
    {
      "inputs": [
        {
          "internalType": "uint256",
          "name": "tokenId",
          "type": "uint256"
        }
      ],
      "name": "tokenURI",
      "outputs": [
        {
          "internalType": "string",
          "name": "",
          "type": "string"
        }
      ],
      "stateMutability": "view",
      "type": "function"
    },
    {
      "inputs": [
        {
          "internalType": "address",
          "name": "from",
          "type": "address"
        },
        {
          "internalType": "address",
          "name": "to",
          "type": "address"
        },
        {
          "internalType": "uint256",
          "name": "tokenId",
          "type": "uint256"
        }
      ],
      "name": "transferFrom",
      "outputs": [],
      "stateMutability": "nonpayable",
      "type": "function"
    },
    {
      "inputs": [
        {
          "internalType": "address",
          "name": "newOwner",
          "type": "address"
        }
      ],
      "name": "transferOwnership",
      "outputs": [],
      "stateMutability": "nonpayable",
      "type": "function"
    }
  ],
  "bytecode": "0x6101e0604052606461018090815260286101a05260146101c0526200002990600890600362000175565b506000600955620186a0600a55617530600b553480156200004957600080fd5b5060405162002823380380620028238339810160408190526200006c9162000256565b604051806040016040528060078152602001665069636b41786560c81b815250604051806040016040528060038152602001620a082b60eb1b8152508160009081620000b991906200036d565b506001620000c882826200036d565b505050620000e5620000df6200011f60201b60201c565b62000123565b60809790975260a09590955260c09390935260e09190915261010052610120526001600160a01b0390811661014052166101605262000439565b3390565b600680546001600160a01b038381166001600160a01b0319831681179093556040519116919082907f8be0079c531659141344cd1fd0a4f28419497f9722a3daafe3b4186f6b6457e090600090a35050565b82805482825590600052602060002090601f01602090048101928215620002105791602002820160005b83821115620001df57835183826101000a81548160ff021916908360ff16021790555092602001926001016020816000010492830192600103026200019f565b80156200020e5782816101000a81549060ff0219169055600101602081600001049283019260010302620001df565b505b506200021e92915062000222565b5090565b5b808211156200021e576000815560010162000223565b80516001600160a01b03811681146200025157600080fd5b919050565b600080600080600080600080610100898b0312156200027457600080fd5b885197506020890151965060408901519550606089015194506080890151935060a08901519250620002a960c08a0162000239565b9150620002b960e08a0162000239565b90509295985092959890939650565b634e487b7160e01b600052604160045260246000fd5b600181811c90821680620002f357607f821691505b6020821081036200031457634e487b7160e01b600052602260045260246000fd5b50919050565b601f8211156200036857600081815260208120601f850160051c81016020861015620003435750805b601f850160051c820191505b8181101562000364578281556001016200034f565b5050505b505050565b81516001600160401b03811115620003895762000389620002c8565b620003a1816200039a8454620002de565b846200031a565b602080601f831160018114620003d95760008415620003c05750858301515b600019600386901b1c1916600185901b17855562000364565b600085815260208120601f198616915b828110156200040a57888601518255948401946001909101908401620003e9565b5085821015620004295787850151600019600388901b60f8161c191681555b5050505050600190811b01905550565b60805160a05160c05160e0516101005161012051610140516101605161237d620004a66000396000610c890152600081816109030152610fb40152600061199e0152600061197701526000611937015260006114660152600061143f015260006113ff015261237d6000f3fe6080604052600436106101755760003560e01c806382f68dc4116100cb578063a22cb4651161007f578063e985e9c511610059578063e985e9c514610413578063f2fde38b1461045c578063fac64e8b1461047c57600080fd5b8063a22cb465146103b3578063b88d4fde146103d3578063c87b56dd146103f357600080fd5b80638da5cb5b116100b05780638da5cb5b1461036057806395d89b411461037e5780639b87eb281461039357600080fd5b806382f68dc414610313578063873ca2d11461034057600080fd5b806342842e0e1161012d578063691562a011610107578063691562a0146102bd57806370a08231146102d0578063715018a6146102fe57600080fd5b806342842e0e1461024b5780634e63103c1461026b5780636352211e1461029d57600080fd5b8063081812fc1161015e578063081812fc146101d1578063095ea7b31461020957806323b872dd1461022b57600080fd5b806301ffc9a71461017a57806306fdde03146101af575b600080fd5b34801561018657600080fd5b5061019a610195366004611e36565b61048f565b60405190151581526020015b60405180910390f35b3480156101bb57600080fd5b506101c461052c565b6040516101a69190611eaa565b3480156101dd57600080fd5b506101f16101ec366004611ebd565b6105be565b6040516001600160a01b0390911681526020016101a6565b34801561021557600080fd5b50610229610224366004611eed565b6105e5565b005b34801561023757600080fd5b50610229610246366004611f17565b610739565b34801561025757600080fd5b50610229610266366004611f17565b6107b1565b34801561027757600080fd5b5061028b610286366004611ebd565b6107cc565b60405160ff90911681526020016101a6565b3480156102a957600080fd5b506101f16102b8366004611ebd565b6107ed565b6102296102cb366004611f62565b610852565b3480156102dc57600080fd5b506102f06102eb366004611f95565b6109bb565b6040519081526020016101a6565b34801561030a57600080fd5b50610229610a55565b34801561031f57600080fd5b5061033361032e366004611ebd565b610a69565b6040516101a69190611fc6565b34801561034c57600080fd5b5061022961035b366004611ebd565b610a8a565b34801561036c57600080fd5b506006546001600160a01b03166101f1565b34801561038a57600080fd5b506101c4610d07565b34801561039f57600080fd5b506102f06103ae366004611fee565b610d16565b3480156103bf57600080fd5b506102296103ce366004612009565b610d55565b3480156103df57600080fd5b506102296103ee36600461205b565b610d64565b3480156103ff57600080fd5b506101c461040e366004611ebd565b610de2565b34801561041f57600080fd5b5061019a61042e366004612137565b6001600160a01b03918216600090815260056020908152604080832093909416825291909152205460ff1690565b34801561046857600080fd5b50610229610477366004611f95565b610e41565b61022961048a366004611ebd565b610ed1565b60006001600160e01b031982167f80ac58cd0000000000000000000000000000000000000000000000000000000014806104f257506001600160e01b031982167f5b5e139f00000000000000000000000000000000000000000000000000000000145b8061052657507f01ffc9a7000000000000000000000000000000000000000000000000000000006001600160e01b03198316145b92915050565b60606000805461053b90612161565b80601f016020809104026020016040519081016040528092919081815260200182805461056790612161565b80156105b45780601f10610589576101008083540402835291602001916105b4565b820191906000526020600020905b81548152906001019060200180831161059757829003601f168201915b5050505050905090565b60006105c98261107e565b506000908152600460205260409020546001600160a01b031690565b60006105f0826107ed565b9050806001600160a01b0316836001600160a01b03160361067e5760405162461bcd60e51b815260206004820152602160248201527f4552433732313a20617070726f76616c20746f2063757272656e74206f776e6560448201527f720000000000000000000000000000000000000000000000000000000000000060648201526084015b60405180910390fd5b336001600160a01b03821614806106b857506001600160a01b038116600090815260056020908152604080832033845290915290205460ff165b61072a5760405162461bcd60e51b815260206004820152603d60248201527f4552433732313a20617070726f76652063616c6c6572206973206e6f7420746f60448201527f6b656e206f776e6572206f7220617070726f76656420666f7220616c6c0000006064820152608401610675565b61073483836110e2565b505050565b610744335b8261115d565b6107a65760405162461bcd60e51b815260206004820152602d60248201527f4552433732313a2063616c6c6572206973206e6f7420746f6b656e206f776e6560448201526c1c881bdc88185c1c1c9bdd9959609a1b6064820152608401610675565b6107348383836111dc565b61073483838360405180602001604052806000815250610d64565b60006107d78261107e565b506000908152600d602052604090205460ff1690565b6000818152600260205260408120546001600160a01b0316806105265760405162461bcd60e51b815260206004820152601860248201527f4552433732313a20696e76616c696420746f6b656e20494400000000000000006044820152606401610675565b3461085c826113e2565b11156108aa5760405162461bcd60e51b815260206004820152601b60248201527f5069636b4178653a20496e73756666696369656e742066756e647300000000006044820152606401610675565b6108b38161148f565b6108ff5760405162461bcd60e51b815260206004820152601d60248201527f5069636b4178653a20537570706c79206c696d697420726561636865640000006044820152606401610675565b60007f00000000000000000000000000000000000000000000000000000000000000006001600160a01b03163460405160006040518083038185875af1925050503d806000811461096c576040519150601f19603f3d011682016040523d82523d6000602084013e610971565b606091505b50509050806109b15760405162461bcd60e51b815260206004820152600c60248201526b119959481b9bdd081cd95b9d60a21b6044820152606401610675565b6107348383611524565b60006001600160a01b038216610a395760405162461bcd60e51b815260206004820152602960248201527f4552433732313a2061646472657373207a65726f206973206e6f74206120766160448201527f6c6964206f776e657200000000000000000000000000000000000000000000006064820152608401610675565b506001600160a01b031660009081526003602052604090205490565b610a5d6115e2565b610a67600061163c565b565b6000610a748261107e565b506000908152600c602052604090205460ff1690565b610a938161107e565b610a9c3361073e565b610afe5760405162461bcd60e51b815260206004820152602d60248201527f4552433732313a2063616c6c6572206973206e6f7420746f6b656e206f776e6560448201526c1c881bdc88185c1c1c9bdd9959609a1b6064820152608401610675565b6000818152600d6020526040902054600560ff9091161015610b785760405162461bcd60e51b815260206004820152602d60248201527f4552433732313a2063616c6c6572206973206e6f7420746f6b656e206f776e6560448201526c1c881bdc88185c1c1c9bdd9959609a1b6064820152608401610675565b6000818152600c602052604081205460ff166002811115610b9b57610b9b611fb0565b9050805b6000610ba961169b565b6000858152600d60205260409020546008805492935060ff918216926064928616908110610bd957610bd961219b565b90600052602060002090602091828204019190069054906101000a900460ff16610c0391906121dd565b610c0d91906121ff565b60ff16811015610cf4576000848152600d60205260408120805460059290610c3990849060ff16612222565b82546101009290920a60ff8181021990931691831602179091556040517f691562a000000000000000000000000000000000000000000000000000000000815233600482015290841660248201527f00000000000000000000000000000000000000000000000000000000000000006001600160a01b0316915063691562a090604401600060405180830381600087803b158015610cd657600080fd5b505af1158015610cea573d6000803e3d6000fd5b5050505050505050565b5080610cff8161223b565b915050610b9f565b60606001805461053b90612161565b6000600e6000836002811115610d2e57610d2e611fb0565b6002811115610d3f57610d3f611fb0565b8152602001908152602001600020549050919050565b610d6033838361170e565b5050565b610d6e338361115d565b610dd05760405162461bcd60e51b815260206004820152602d60248201527f4552433732313a2063616c6c6572206973206e6f7420746f6b656e206f776e6560448201526c1c881bdc88185c1c1c9bdd9959609a1b6064820152608401610675565b610ddc848484846117dc565b50505050565b6060610ded8261107e565b610df561185a565b610e1a610e0184610a69565b6002811115610e1257610e12611fb0565b60ff1661187a565b604051602001610e2b929190612258565b6040516020818303038152906040529050919050565b610e496115e2565b6001600160a01b038116610ec55760405162461bcd60e51b815260206004820152602660248201527f4f776e61626c653a206e6577206f776e657220697320746865207a65726f206160448201527f64647265737300000000000000000000000000000000000000000000000000006064820152608401610675565b610ece8161163c565b50565b610eda8161107e565b610ee33361073e565b610f455760405162461bcd60e51b815260206004820152602d60248201527f4552433732313a2063616c6c6572206973206e6f7420746f6b656e206f776e6560448201526c1c881bdc88185c1c1c9bdd9959609a1b6064820152608401610675565b6000818152600c60205260409020543490610f629060ff1661191a565b1115610fb05760405162461bcd60e51b815260206004820152601b60248201527f5069636b4178653a20496e73756666696369656e742066756e647300000000006044820152606401610675565b60007f00000000000000000000000000000000000000000000000000000000000000006001600160a01b03163460405160006040518083038185875af1925050503d806000811461101d576040519150601f19603f3d011682016040523d82523d6000602084013e611022565b606091505b50509050806110625760405162461bcd60e51b815260206004820152600c60248201526b119959481b9bdd081cd95b9d60a21b6044820152606401610675565b506000908152600d60205260409020805460ff19166064179055565b6000818152600260205260409020546001600160a01b0316610ece5760405162461bcd60e51b815260206004820152601860248201527f4552433732313a20696e76616c696420746f6b656e20494400000000000000006044820152606401610675565b6000818152600460205260409020805473ffffffffffffffffffffffffffffffffffffffff19166001600160a01b0384169081179091558190611124826107ed565b6001600160a01b03167f8c5be1e5ebec7d5bd14f71427d1e84f3dd0314c0f7b2291e5b200ac8c7c3b92560405160405180910390a45050565b600080611169836107ed565b9050806001600160a01b0316846001600160a01b031614806111b057506001600160a01b0380821660009081526005602090815260408083209388168352929052205460ff165b806111d45750836001600160a01b03166111c9846105be565b6001600160a01b0316145b949350505050565b826001600160a01b03166111ef826107ed565b6001600160a01b0316146112535760405162461bcd60e51b815260206004820152602560248201527f4552433732313a207472616e736665722066726f6d20696e636f72726563742060448201526437bbb732b960d91b6064820152608401610675565b6001600160a01b0382166112ce5760405162461bcd60e51b8152602060048201526024808201527f4552433732313a207472616e7366657220746f20746865207a65726f2061646460448201527f72657373000000000000000000000000000000000000000000000000000000006064820152608401610675565b826001600160a01b03166112e1826107ed565b6001600160a01b0316146113455760405162461bcd60e51b815260206004820152602560248201527f4552433732313a207472616e736665722066726f6d20696e636f72726563742060448201526437bbb732b960d91b6064820152608401610675565b6000818152600460209081526040808320805473ffffffffffffffffffffffffffffffffffffffff199081169091556001600160a01b0387811680865260038552838620805460001901905590871680865283862080546001019055868652600290945282852080549092168417909155905184937fddf252ad1be2c89b69c2b068fc378daa952ba7f163c4a11628f55a4df523b3ef91a4505050565b6000808260028111156113f7576113f7611fb0565b0361142357507f0000000000000000000000000000000000000000000000000000000000000000919050565b600182600281111561143757611437611fb0565b0361146357507f0000000000000000000000000000000000000000000000000000000000000000919050565b507f0000000000000000000000000000000000000000000000000000000000000000919050565b919050565b6000808260028111156114a4576114a4611fb0565b036114b157506001919050565b60018260028111156114c5576114c5611fb0565b0361150b57600a54600e60008460028111156114e3576114e3611fb0565b60028111156114f4576114f4611fb0565b815260200190815260200160002054109050919050565b600b54600e60008460028111156114e3576114e3611fb0565b600061152f60075490565b905061153f600780546001019055565b61154983826119c2565b6000818152600c60205260409020805483919060ff1916600183600281111561157457611574611fb0565b02179055506000818152600d60205260408120805460ff19166064179055600190600e908460028111156115aa576115aa611fb0565b60028111156115bb576115bb611fb0565b815260200190815260200160002060008282546115d89190612287565b9091555050505050565b6006546001600160a01b03163314610a675760405162461bcd60e51b815260206004820181905260248201527f4f776e61626c653a2063616c6c6572206973206e6f7420746865206f776e65726044820152606401610675565b600680546001600160a01b0383811673ffffffffffffffffffffffffffffffffffffffff19831681179093556040519116919082907f8be0079c531659141344cd1fd0a4f28419497f9722a3daafe3b4186f6b6457e090600090a35050565b60098054600091826116ac8361229a565b9091555050600954604080514260208201526bffffffffffffffffffffffff193360601b169181019190915260548101919091526064906074016040516020818303038152906040528051906020012060001c61170991906122b3565b905090565b816001600160a01b0316836001600160a01b03160361176f5760405162461bcd60e51b815260206004820152601960248201527f4552433732313a20617070726f766520746f2063616c6c6572000000000000006044820152606401610675565b6001600160a01b03838116600081815260056020908152604080832094871680845294825291829020805460ff191686151590811790915591519182527f17307eab39ab6107e8899845ad3d59bd9653f200f220920489ca2b5937696c31910160405180910390a3505050565b6117e78484846111dc565b6117f3848484846119dc565b610ddc5760405162461bcd60e51b815260206004820152603260248201527f4552433732313a207472616e7366657220746f206e6f6e20455243373231526560448201527131b2b4bb32b91034b6b83632b6b2b73a32b960711b6064820152608401610675565b606060405180606001604052806027815260200161232160279139905090565b6060600061188783611b28565b600101905060008167ffffffffffffffff8111156118a7576118a7612045565b6040519080825280601f01601f1916602001820160405280156118d1576020820181803683370190505b5090508181016020015b600019017f3031323334353637383961626364656600000000000000000000000000000000600a86061a8153600a85049450846118db57509392505050565b60008082600281111561192f5761192f611fb0565b0361195b57507f0000000000000000000000000000000000000000000000000000000000000000919050565b600182600281111561196f5761196f611fb0565b0361199b57507f0000000000000000000000000000000000000000000000000000000000000000919050565b507f0000000000000000000000000000000000000000000000000000000000000000919050565b610d60828260405180602001604052806000815250611c0a565b60006001600160a01b0384163b15611b1d57604051630a85bd0160e11b81526001600160a01b0385169063150b7a0290611a209033908990889088906004016122c7565b6020604051808303816000875af1925050508015611a5b575060408051601f3d908101601f19168201909252611a5891810190612303565b60015b611b03573d808015611a89576040519150601f19603f3d011682016040523d82523d6000602084013e611a8e565b606091505b508051600003611afb5760405162461bcd60e51b815260206004820152603260248201527f4552433732313a207472616e7366657220746f206e6f6e20455243373231526560448201527131b2b4bb32b91034b6b83632b6b2b73a32b960711b6064820152608401610675565b805181602001fd5b6001600160e01b031916630a85bd0160e11b1490506111d4565b506001949350505050565b6000807a184f03e93ff9f4daa797ed6e38ed64bf6a1f0100000000000000008310611b71577a184f03e93ff9f4daa797ed6e38ed64bf6a1f010000000000000000830492506040015b6d04ee2d6d415b85acef81000000008310611b9d576d04ee2d6d415b85acef8100000000830492506020015b662386f26fc100008310611bbb57662386f26fc10000830492506010015b6305f5e1008310611bd3576305f5e100830492506008015b6127108310611be757612710830492506004015b60648310611bf9576064830492506002015b600a83106105265760010192915050565b611c148383611c88565b611c2160008484846119dc565b6107345760405162461bcd60e51b815260206004820152603260248201527f4552433732313a207472616e7366657220746f206e6f6e20455243373231526560448201527131b2b4bb32b91034b6b83632b6b2b73a32b960711b6064820152608401610675565b6001600160a01b038216611cde5760405162461bcd60e51b815260206004820181905260248201527f4552433732313a206d696e7420746f20746865207a65726f20616464726573736044820152606401610675565b6000818152600260205260409020546001600160a01b031615611d435760405162461bcd60e51b815260206004820152601c60248201527f4552433732313a20746f6b656e20616c7265616479206d696e746564000000006044820152606401610675565b6000818152600260205260409020546001600160a01b031615611da85760405162461bcd60e51b815260206004820152601c60248201527f4552433732313a20746f6b656e20616c7265616479206d696e746564000000006044820152606401610675565b6001600160a01b0382166000818152600360209081526040808320805460010190558483526002909152808220805473ffffffffffffffffffffffffffffffffffffffff19168417905551839291907fddf252ad1be2c89b69c2b068fc378daa952ba7f163c4a11628f55a4df523b3ef908290a45050565b6001600160e01b031981168114610ece57600080fd5b600060208284031215611e4857600080fd5b8135611e5381611e20565b9392505050565b60005b83811015611e75578181015183820152602001611e5d565b50506000910152565b60008151808452611e96816020860160208601611e5a565b601f01601f19169290920160200192915050565b602081526000611e536020830184611e7e565b600060208284031215611ecf57600080fd5b5035919050565b80356001600160a01b038116811461148a57600080fd5b60008060408385031215611f0057600080fd5b611f0983611ed6565b946020939093013593505050565b600080600060608486031215611f2c57600080fd5b611f3584611ed6565b9250611f4360208501611ed6565b9150604084013590509250925092565b80356003811061148a57600080fd5b60008060408385031215611f7557600080fd5b611f7e83611ed6565b9150611f8c60208401611f53565b90509250929050565b600060208284031215611fa757600080fd5b611e5382611ed6565b634e487b7160e01b600052602160045260246000fd5b6020810160038310611fe857634e487b7160e01b600052602160045260246000fd5b91905290565b60006020828403121561200057600080fd5b611e5382611f53565b6000806040838503121561201c57600080fd5b61202583611ed6565b91506020830135801515811461203a57600080fd5b809150509250929050565b634e487b7160e01b600052604160045260246000fd5b6000806000806080858703121561207157600080fd5b61207a85611ed6565b935061208860208601611ed6565b925060408501359150606085013567ffffffffffffffff808211156120ac57600080fd5b818701915087601f8301126120c057600080fd5b8135818111156120d2576120d2612045565b604051601f8201601f19908116603f011681019083821181831017156120fa576120fa612045565b816040528281528a602084870101111561211357600080fd5b82602086016020830137600060208483010152809550505050505092959194509250565b6000806040838503121561214a57600080fd5b61215383611ed6565b9150611f8c60208401611ed6565b600181811c9082168061217557607f821691505b60208210810361219557634e487b7160e01b600052602260045260246000fd5b50919050565b634e487b7160e01b600052603260045260246000fd5b634e487b7160e01b600052601260045260246000fd5b634e487b7160e01b600052601160045260246000fd5b600060ff8316806121f0576121f06121b1565b8060ff84160491505092915050565b60ff818116838216029081169081811461221b5761221b6121c7565b5092915050565b60ff8281168282160390811115610526576105266121c7565b600060ff82168061224e5761224e6121c7565b6000190192915050565b6000835161226a818460208801611e5a565b83519083019061227e818360208801611e5a565b01949350505050565b80820180821115610526576105266121c7565b6000600182016122ac576122ac6121c7565b5060010190565b6000826122c2576122c26121b1565b500690565b60006001600160a01b038087168352808616602084015250836040830152608060608301526122f96080830184611e7e565b9695505050505050565b60006020828403121561231557600080fd5b8151611e5381611e2056fe68747470733a2f2f626174746c656d6f6e2e636f6d2f6e66742f646174612f7069636b6178652fa2646970667358221220373426fabe1284f36d5db0d6d33883344e063ebfb4b11990f3c0b567fb23df4064736f6c63430008120033",
  "linkReferences": {},
  "deployedLinkReferences": {}
}