{
  "_format": "hh-sol-artifact-1",
  "contractName": "Referral",
  "sourceName": "contracts/Referral.sol",
  "abi": [
    {
      "inputs": [
        {
          "internalType": "address",
          "name": "conductor",
          "type": "address"
        }
      ],
      "name": "addReferral",
      "outputs": [],
      "stateMutability": "nonpayable",
      "type": "function"
    },
    {
      "inputs": [
        {
          "internalType": "address",
          "name": "user",
          "type": "address"
        }
      ],
      "name": "getConductor",
      "outputs": [
        {
          "internalType": "address",
          "name": "",
          "type": "address"
        }
      ],
      "stateMutability": "view",
      "type": "function"
    },
    {
      "inputs": [
        {
          "internalType": "address",
          "name": "user",
          "type": "address"
        }
      ],
      "name": "isReferral",
      "outputs": [
        {
          "internalType": "bool",
          "name": "",
          "type": "bool"
        }
      ],
      "stateMutability": "view",
      "type": "function"
    }
  ],
  "bytecode": "0x608060405234801561001057600080fd5b50610278806100206000396000f3fe608060405234801561001057600080fd5b50600436106100415760003560e01c80631ff7edab14610046578063c4cbd5e514610089578063e8aca46a146100cd575b600080fd5b610074610054366004610212565b6001600160a01b0390811660009081526020819052604090205416151590565b60405190151581526020015b60405180910390f35b6100b5610097366004610212565b6001600160a01b039081166000908152602081905260409020541690565b6040516001600160a01b039091168152602001610080565b6100e06100db366004610212565b6100e2565b005b336001600160a01b0382160361013f5760405162461bcd60e51b815260206004820152601960248201527f496e76616c696420636f6e647563746f7220616464726573730000000000000060448201526064015b60405180910390fd5b336000908152602081905260409020546001600160a01b0316156101cb5760405162461bcd60e51b815260206004820152602260248201527f53656e646572206164647265737320697320616c72656164792072656665727260448201527f616c0000000000000000000000000000000000000000000000000000000000006064820152608401610136565b33600090815260208190526040902080547fffffffffffffffffffffffff0000000000000000000000000000000000000000166001600160a01b0392909216919091179055565b60006020828403121561022457600080fd5b81356001600160a01b038116811461023b57600080fd5b939250505056fea2646970667358221220372102348bffa5d7434f9a35f8872fa406a027d50b226c9c8d2359af07247ba664736f6c63430008120033",
  "linkReferences": {},
  "deployedLinkReferences": {}
}