{
  "_format": "hh-sol-artifact-1",
  "contractName": "Gem",
  "sourceName": "contracts/Gem.sol",
  "abi": [
    {
      "inputs": [
        {
          "internalType": "string",
          "name": "name",
          "type": "string"
        },
        {
          "internalType": "string",
          "name": "version",
          "type": "string"
        },
        {
          "internalType": "uint256",
          "name": "pricePerMerge_",
          "type": "uint256"
        },
        {
          "internalType": "uint256",
          "name": "referralPricePerMerge_",
          "type": "uint256"
        },
        {
          "internalType": "uint256",
          "name": "referralReward_",
          "type": "uint256"
        },
        {
          "internalType": "uint256",
          "name": "prizePoolReward_",
          "type": "uint256"
        },
        {
          "internalType": "uint256",
          "name": "withdrawalDelay_",
          "type": "uint256"
        }
      ],
      "stateMutability": "nonpayable",
      "type": "constructor"
    },
    {
      "anonymous": false,
      "inputs": [
        {
          "indexed": true,
          "internalType": "address",
          "name": "owner",
          "type": "address"
        },
        {
          "indexed": true,
          "internalType": "address",
          "name": "approved",
          "type": "address"
        },
        {
          "indexed": true,
          "internalType": "uint256",
          "name": "tokenId",
          "type": "uint256"
        }
      ],
      "name": "Approval",
      "type": "event"
    },
    {
      "anonymous": false,
      "inputs": [
        {
          "indexed": true,
          "internalType": "address",
          "name": "owner",
          "type": "address"
        },
        {
          "indexed": true,
          "internalType": "address",
          "name": "operator",
          "type": "address"
        },
        {
          "indexed": false,
          "internalType": "bool",
          "name": "approved",
          "type": "bool"
        }
      ],
      "name": "ApprovalForAll",
      "type": "event"
    },
    {
      "anonymous": false,
      "inputs": [
        {
          "indexed": true,
          "internalType": "address",
          "name": "previousOwner",
          "type": "address"
        },
        {
          "indexed": true,
          "internalType": "address",
          "name": "newOwner",
          "type": "address"
        }
      ],
      "name": "OwnershipTransferred",
      "type": "event"
    },
    {
      "anonymous": false,
      "inputs": [
        {
          "indexed": true,
          "internalType": "address",
          "name": "from",
          "type": "address"
        },
        {
          "indexed": true,
          "internalType": "address",
          "name": "to",
          "type": "address"
        },
        {
          "indexed": true,
          "internalType": "uint256",
          "name": "tokenId",
          "type": "uint256"
        }
      ],
      "name": "Transfer",
      "type": "event"
    },
    {
      "inputs": [
        {
          "internalType": "address",
          "name": "conductor",
          "type": "address"
        }
      ],
      "name": "addReferral",
      "outputs": [],
      "stateMutability": "nonpayable",
      "type": "function"
    },
    {
      "inputs": [
        {
          "internalType": "address",
          "name": "sender",
          "type": "address"
        }
      ],
      "name": "addSenderToWhitelist",
      "outputs": [],
      "stateMutability": "nonpayable",
      "type": "function"
    },
    {
      "inputs": [
        {
          "internalType": "address",
          "name": "to",
          "type": "address"
        },
        {
          "internalType": "uint256",
          "name": "tokenId",
          "type": "uint256"
        }
      ],
      "name": "approve",
      "outputs": [],
      "stateMutability": "nonpayable",
      "type": "function"
    },
    {
      "inputs": [
        {
          "internalType": "address",
          "name": "owner",
          "type": "address"
        }
      ],
      "name": "balanceOf",
      "outputs": [
        {
          "internalType": "uint256",
          "name": "",
          "type": "uint256"
        }
      ],
      "stateMutability": "view",
      "type": "function"
    },
    {
      "inputs": [],
      "name": "completeEvent",
      "outputs": [],
      "stateMutability": "nonpayable",
      "type": "function"
    },
    {
      "inputs": [
        {
          "internalType": "uint256",
          "name": "tokenId",
          "type": "uint256"
        }
      ],
      "name": "getApproved",
      "outputs": [
        {
          "internalType": "address",
          "name": "",
          "type": "address"
        }
      ],
      "stateMutability": "view",
      "type": "function"
    },
    {
      "inputs": [
        {
          "internalType": "address",
          "name": "from",
          "type": "address"
        }
      ],
      "name": "getNonce",
      "outputs": [
        {
          "internalType": "uint256",
          "name": "",
          "type": "uint256"
        }
      ],
      "stateMutability": "view",
      "type": "function"
    },
    {
      "inputs": [
        {
          "internalType": "address",
          "name": "owner",
          "type": "address"
        },
        {
          "internalType": "address",
          "name": "operator",
          "type": "address"
        }
      ],
      "name": "isApprovedForAll",
      "outputs": [
        {
          "internalType": "bool",
          "name": "",
          "type": "bool"
        }
      ],
      "stateMutability": "view",
      "type": "function"
    },
    {
      "inputs": [
        {
          "internalType": "address",
          "name": "user",
          "type": "address"
        }
      ],
      "name": "isReferral",
      "outputs": [
        {
          "internalType": "bool",
          "name": "",
          "type": "bool"
        }
      ],
      "stateMutability": "view",
      "type": "function"
    },
    {
      "inputs": [
        {
          "internalType": "address",
          "name": "sender",
          "type": "address"
        }
      ],
      "name": "isWhitelisted",
      "outputs": [
        {
          "internalType": "bool",
          "name": "",
          "type": "bool"
        }
      ],
      "stateMutability": "view",
      "type": "function"
    },
    {
      "inputs": [
        {
          "internalType": "uint256",
          "name": "tokenId",
          "type": "uint256"
        }
      ],
      "name": "levelOf",
      "outputs": [
        {
          "internalType": "uint8",
          "name": "",
          "type": "uint8"
        }
      ],
      "stateMutability": "view",
      "type": "function"
    },
    {
      "inputs": [
        {
          "internalType": "uint256",
          "name": "firstTokenId",
          "type": "uint256"
        },
        {
          "internalType": "uint256",
          "name": "secondTokenId",
          "type": "uint256"
        }
      ],
      "name": "merge",
      "outputs": [],
      "stateMutability": "payable",
      "type": "function"
    },
    {
      "inputs": [
        {
          "internalType": "address",
          "name": "to",
          "type": "address"
        },
        {
          "internalType": "uint256",
          "name": "amount",
          "type": "uint256"
        }
      ],
      "name": "mint",
      "outputs": [],
      "stateMutability": "nonpayable",
      "type": "function"
    },
    {
      "inputs": [],
      "name": "name",
      "outputs": [
        {
          "internalType": "string",
          "name": "",
          "type": "string"
        }
      ],
      "stateMutability": "view",
      "type": "function"
    },
    {
      "inputs": [],
      "name": "owner",
      "outputs": [
        {
          "internalType": "address",
          "name": "",
          "type": "address"
        }
      ],
      "stateMutability": "view",
      "type": "function"
    },
    {
      "inputs": [
        {
          "internalType": "uint256",
          "name": "tokenId",
          "type": "uint256"
        }
      ],
      "name": "ownerOf",
      "outputs": [
        {
          "internalType": "address",
          "name": "",
          "type": "address"
        }
      ],
      "stateMutability": "view",
      "type": "function"
    },
    {
      "inputs": [
        {
          "internalType": "address",
          "name": "user",
          "type": "address"
        }
      ],
      "name": "pointsOf",
      "outputs": [
        {
          "internalType": "uint256",
          "name": "",
          "type": "uint256"
        }
      ],
      "stateMutability": "view",
      "type": "function"
    },
    {
      "inputs": [],
      "name": "prizePool",
      "outputs": [
        {
          "internalType": "uint256",
          "name": "",
          "type": "uint256"
        }
      ],
      "stateMutability": "view",
      "type": "function"
    },
    {
      "inputs": [
        {
          "components": [
            {
              "internalType": "address",
              "name": "sender",
              "type": "address"
            },
            {
              "internalType": "address",
              "name": "proxy",
              "type": "address"
            },
            {
              "internalType": "uint256",
              "name": "amount",
              "type": "uint256"
            },
            {
              "internalType": "uint256",
              "name": "nonce",
              "type": "uint256"
            }
          ],
          "internalType": "struct Gem.MintRequest",
          "name": "req",
          "type": "tuple"
        },
        {
          "internalType": "bytes",
          "name": "signature",
          "type": "bytes"
        }
      ],
      "name": "proxyMint",
      "outputs": [],
      "stateMutability": "nonpayable",
      "type": "function"
    },
    {
      "inputs": [
        {
          "internalType": "address",
          "name": "sender",
          "type": "address"
        }
      ],
      "name": "removeSenderFromWhitelist",
      "outputs": [],
      "stateMutability": "nonpayable",
      "type": "function"
    },
    {
      "inputs": [],
      "name": "renounceOwnership",
      "outputs": [],
      "stateMutability": "nonpayable",
      "type": "function"
    },
    {
      "inputs": [
        {
          "internalType": "address",
          "name": "from",
          "type": "address"
        },
        {
          "internalType": "address",
          "name": "to",
          "type": "address"
        },
        {
          "internalType": "uint256",
          "name": "tokenId",
          "type": "uint256"
        }
      ],
      "name": "safeTransferFrom",
      "outputs": [],
      "stateMutability": "nonpayable",
      "type": "function"
    },
    {
      "inputs": [
        {
          "internalType": "address",
          "name": "from",
          "type": "address"
        },
        {
          "internalType": "address",
          "name": "to",
          "type": "address"
        },
        {
          "internalType": "uint256",
          "name": "tokenId",
          "type": "uint256"
        },
        {
          "internalType": "bytes",
          "name": "data",
          "type": "bytes"
        }
      ],
      "name": "safeTransferFrom",
      "outputs": [],
      "stateMutability": "nonpayable",
      "type": "function"
    },
    {
      "inputs": [
        {
          "internalType": "address",
          "name": "operator",
          "type": "address"
        },
        {
          "internalType": "bool",
          "name": "approved",
          "type": "bool"
        }
      ],
      "name": "setApprovalForAll",
      "outputs": [],
      "stateMutability": "nonpayable",
      "type": "function"
    },
    {
      "inputs": [
        {
          "internalType": "bytes4",
          "name": "interfaceId",
          "type": "bytes4"
        }
      ],
      "name": "supportsInterface",
      "outputs": [
        {
          "internalType": "bool",
          "name": "",
          "type": "bool"
        }
      ],
      "stateMutability": "view",
      "type": "function"
    },
    {
      "inputs": [],
      "name": "symbol",
      "outputs": [
        {
          "internalType": "string",
          "name": "",
          "type": "string"
        }
      ],
      "stateMutability": "view",
      "type": "function"
    },
    {
      "inputs": [
        {
          "internalType": "uint256",
          "name": "tokenId",
          "type": "uint256"
        }
      ],
      "name": "tokenURI",
      "outputs": [
        {
          "internalType": "string",
          "name": "",
          "type": "string"
        }
      ],
      "stateMutability": "view",
      "type": "function"
    },
    {
      "inputs": [
        {
          "internalType": "address",
          "name": "from",
          "type": "address"
        },
        {
          "internalType": "address",
          "name": "to",
          "type": "address"
        },
        {
          "internalType": "uint256",
          "name": "tokenId",
          "type": "uint256"
        }
      ],
      "name": "transferFrom",
      "outputs": [],
      "stateMutability": "nonpayable",
      "type": "function"
    },
    {
      "inputs": [
        {
          "internalType": "address",
          "name": "newOwner",
          "type": "address"
        }
      ],
      "name": "transferOwnership",
      "outputs": [],
      "stateMutability": "nonpayable",
      "type": "function"
    },
    {
      "inputs": [
        {
          "components": [
            {
              "internalType": "address",
              "name": "sender",
              "type": "address"
            },
            {
              "internalType": "address",
              "name": "proxy",
              "type": "address"
            },
            {
              "internalType": "uint256",
              "name": "amount",
              "type": "uint256"
            },
            {
              "internalType": "uint256",
              "name": "nonce",
              "type": "uint256"
            }
          ],
          "internalType": "struct Gem.MintRequest",
          "name": "req",
          "type": "tuple"
        },
        {
          "internalType": "bytes",
          "name": "signature",
          "type": "bytes"
        }
      ],
      "name": "verify",
      "outputs": [
        {
          "internalType": "bool",
          "name": "",
          "type": "bool"
        }
      ],
      "stateMutability": "view",
      "type": "function"
    },
    {
      "inputs": [],
      "name": "withdrawRemains",
      "outputs": [],
      "stateMutability": "nonpayable",
      "type": "function"
    },
    {
      "inputs": [],
      "name": "withdrawRewards",
      "outputs": [],
      "stateMutability": "nonpayable",
      "type": "function"
    }
  ],
  "bytecode": "0x600d805460ff1916600b90811790915561034060405260006101e0908152600361020052600961022052601b6102405260516102605260f3610280526102d96102a05261088b6102c0526119a16102e052614ce36103005261e6a9610320526200006d91600e91906200023f565b506019805460ff191660011790556000601a819055601b819055601c553480156200009757600080fd5b506040516200344a3803806200344a833981016040819052620000ba9162000364565b8686604051806040016040528060098152602001684c656d6f6e2047656d60b81b815250604051806040016040528060038152602001624c4d4760e81b81525081600090816200010b91906200048c565b5060016200011a82826200048c565b5050506200013762000131620001e960201b60201c565b620001ed565b815160209283012081519183019190912060e08290526101008190524660a0818152604080517f8b73c3c69bb8fe3d512ecc4cf759cc79239f7b179b0ffacaa9a75d522b39400f818801819052818301969096526060810194909452608080850193909352308483018190528151808603909301835260c094850190915281519190950120905291909152610120526101409490945261016092909252610180526101a0526101c05250620005589050565b3390565b600680546001600160a01b038381166001600160a01b0319831681179093556040519116919082907f8be0079c531659141344cd1fd0a4f28419497f9722a3daafe3b4186f6b6457e090600090a35050565b82600b810192821562000276579160200282015b8281111562000276578251829061ffff1690559160200191906001019062000253565b506200028492915062000288565b5090565b5b8082111562000284576000815560010162000289565b634e487b7160e01b600052604160045260246000fd5b600082601f830112620002c757600080fd5b81516001600160401b0380821115620002e457620002e46200029f565b604051601f8301601f19908116603f011681019082821181831017156200030f576200030f6200029f565b816040528381526020925086838588010111156200032c57600080fd5b600091505b8382101562000350578582018301518183018401529082019062000331565b600093810190920192909252949350505050565b600080600080600080600060e0888a0312156200038057600080fd5b87516001600160401b03808211156200039857600080fd5b620003a68b838c01620002b5565b985060208a0151915080821115620003bd57600080fd5b50620003cc8a828b01620002b5565b60408a015160608b015160808c015160a08d015160c0909d01519b9e939d50919b909a919950975095509350505050565b600181811c908216806200041257607f821691505b6020821081036200043357634e487b7160e01b600052602260045260246000fd5b50919050565b601f8211156200048757600081815260208120601f850160051c81016020861015620004625750805b601f850160051c820191505b8181101562000483578281556001016200046e565b5050505b505050565b81516001600160401b03811115620004a857620004a86200029f565b620004c081620004b98454620003fd565b8462000439565b602080601f831160018114620004f85760008415620004df5750858301515b600019600386901b1c1916600185901b17855562000483565b600085815260208120601f198616915b82811015620005295788860151825594840194600190910190840162000508565b5085821015620005485787850151600019600388901b60f8161c191681555b5050505050600190811b01905550565b60805160a05160c05160e05161010051610120516101405161016051610180516101a0516101c051612e6b620005df6000396000610e98015260006117af01526000611693015260006115b70152600061159101526000612424015260006124730152600061244e015260006123a7015260006123d1015260006123fb0152612e6b6000f3fe6080604052600436106101e35760003560e01c806370a0823111610102578063c7b8981c11610095578063d1c2babb11610064578063d1c2babb146105cf578063e8aca46a146105e2578063e985e9c514610602578063f2fde38b1461064b57600080fd5b8063c7b8981c1461055a578063c87b56dd1461056f578063cb74082d1461058f578063cf6a4403146105af57600080fd5b806395d89b41116100d157806395d89b41146104f0578063a22cb46514610505578063b88d4fde14610525578063ba20438e1461054557600080fd5b806370a0823114610488578063715018a6146104a8578063719ce73e146104bd5780638da5cb5b146104d257600080fd5b80632d0335ab1161017a57806342842e0e1161014957806342842e0e146103f157806342e52798146104115780636352211e146104265780636d5e30321461044657600080fd5b80632d0335ab146103345780633af32abf146103785780633f113a61146103b157806340c10f19146103d157600080fd5b8063095ea7b3116101b6578063095ea7b3146102995780631ff7edab146102b95780632388e996146102f457806323b872dd1461031457600080fd5b806301a9a352146101e857806301ffc9a71461020a57806306fdde031461023f578063081812fc14610261575b600080fd5b3480156101f457600080fd5b50610208610203366004612962565b61066b565b005b34801561021657600080fd5b5061022a610225366004612993565b610694565b60405190151581526020015b60405180910390f35b34801561024b57600080fd5b50610254610731565b6040516102369190612a00565b34801561026d57600080fd5b5061028161027c366004612a13565b6107c3565b6040516001600160a01b039091168152602001610236565b3480156102a557600080fd5b506102086102b4366004612a2c565b6107ea565b3480156102c557600080fd5b5061022a6102d4366004612962565b6001600160a01b039081166000908152600b602052604090205416151590565b34801561030057600080fd5b5061020861030f366004612a56565b61093e565b34801561032057600080fd5b5061020861032f366004612ae1565b610ac1565b34801561034057600080fd5b5061036a61034f366004612962565b6001600160a01b031660009081526009602052604090205490565b604051908152602001610236565b34801561038457600080fd5b5061022a610393366004612962565b6001600160a01b03166000908152600a602052604090205460ff1690565b3480156103bd57600080fd5b506102086103cc366004612962565b610b39565b3480156103dd57600080fd5b506102086103ec366004612a2c565b610bf4565b3480156103fd57600080fd5b5061020861040c366004612ae1565b610c0a565b34801561041d57600080fd5b50610208610c25565b34801561043257600080fd5b50610281610441366004612a13565b610c8f565b34801561045257600080fd5b50610476610461366004612a13565b60009081526008602052604090205460ff1690565b60405160ff9091168152602001610236565b34801561049457600080fd5b5061036a6104a3366004612962565b610cf4565b3480156104b457600080fd5b50610208610d8e565b3480156104c957600080fd5b50601b5461036a565b3480156104de57600080fd5b506006546001600160a01b0316610281565b3480156104fc57600080fd5b50610254610da2565b34801561051157600080fd5b50610208610520366004612b1d565b610db1565b34801561053157600080fd5b50610208610540366004612b6f565b610dbc565b34801561055157600080fd5b50610208610e3b565b34801561056657600080fd5b50610208610f40565b34801561057b57600080fd5b5061025461058a366004612a13565b6110b8565b34801561059b57600080fd5b5061022a6105aa366004612a56565b61116c565b3480156105bb57600080fd5b5061036a6105ca366004612962565b6112b6565b6102086105dd366004612c4b565b61132a565b3480156105ee57600080fd5b506102086105fd366004612962565b6117eb565b34801561060e57600080fd5b5061022a61061d366004612c6d565b6001600160a01b03918216600090815260056020908152604080832093909416825291909152205460ff1690565b34801561065757600080fd5b50610208610666366004612962565b6118a6565b610673611936565b6001600160a01b03166000908152600a60205260409020805460ff19169055565b60006001600160e01b031982167f80ac58cd0000000000000000000000000000000000000000000000000000000014806106f757506001600160e01b031982167f5b5e139f00000000000000000000000000000000000000000000000000000000145b8061072b57507f01ffc9a7000000000000000000000000000000000000000000000000000000006001600160e01b03198316145b92915050565b60606000805461074090612ca0565b80601f016020809104026020016040519081016040528092919081815260200182805461076c90612ca0565b80156107b95780601f1061078e576101008083540402835291602001916107b9565b820191906000526020600020905b81548152906001019060200180831161079c57829003601f168201915b5050505050905090565b60006107ce82611990565b506000908152600460205260409020546001600160a01b031690565b60006107f582610c8f565b9050806001600160a01b0316836001600160a01b0316036108835760405162461bcd60e51b815260206004820152602160248201527f4552433732313a20617070726f76616c20746f2063757272656e74206f776e6560448201527f720000000000000000000000000000000000000000000000000000000000000060648201526084015b60405180910390fd5b336001600160a01b03821614806108bd57506001600160a01b038116600090815260056020908152604080832033845290915290205460ff165b61092f5760405162461bcd60e51b815260206004820152603d60248201527f4552433732313a20617070726f76652063616c6c6572206973206e6f7420746f60448201527f6b656e206f776e6572206f7220617070726f76656420666f7220616c6c000000606482015260840161087a565b61093983836119f4565b505050565b600a600061094f6020860186612962565b6001600160a01b0316815260208101919091526040016000205460ff166109dd5760405162461bcd60e51b8152602060048201526024808201527f50726f78794d696e743a2073656e646572206973206e6f742077686974656c6960448201527f7374656400000000000000000000000000000000000000000000000000000000606482015260840161087a565b6109e883838361116c565b610a5a5760405162461bcd60e51b815260206004820152602b60248201527f50726f78794d696e743a207369676e617475726520646f6573206e6f74206d6160448201527f7463682072657175657374000000000000000000000000000000000000000000606482015260840161087a565b610a6960608401356001612cf0565b60096000610a7d6040870160208801612962565b6001600160a01b03166001600160a01b0316815260200190815260200160002081905550610939836020016020810190610ab79190612962565b8460400135611a62565b610acc335b82611aa5565b610b2e5760405162461bcd60e51b815260206004820152602d60248201527f4552433732313a2063616c6c6572206973206e6f7420746f6b656e206f776e6560448201526c1c881bdc88185c1c1c9bdd9959609a1b606482015260840161087a565b610939838383611b24565b610b41611936565b6001600160a01b0381166000908152600a602052604090205460ff1615610bd05760405162461bcd60e51b815260206004820152602560248201527f53656e646572206164647265737320697320616c72656164792077686974656c60448201527f6973746564000000000000000000000000000000000000000000000000000000606482015260840161087a565b6001600160a01b03166000908152600a60205260409020805460ff19166001179055565b610bfc611936565b610c068282611a62565b5050565b61093983838360405180602001604052806000815250610dbc565b610c2d611936565b60195460ff16610c7f5760405162461bcd60e51b815260206004820152601760248201527f4576656e7420616c726561647920636f6d706c65746564000000000000000000604482015260640161087a565b6019805460ff1916905542601a55565b6000818152600260205260408120546001600160a01b03168061072b5760405162461bcd60e51b815260206004820152601860248201527f4552433732313a20696e76616c696420746f6b656e2049440000000000000000604482015260640161087a565b60006001600160a01b038216610d725760405162461bcd60e51b815260206004820152602960248201527f4552433732313a2061646472657373207a65726f206973206e6f74206120766160448201527f6c6964206f776e65720000000000000000000000000000000000000000000000606482015260840161087a565b506001600160a01b031660009081526003602052604090205490565b610d96611936565b610da06000611d2a565b565b60606001805461074090612ca0565b610c06338383611d7c565b610dc7335b83611aa5565b610e295760405162461bcd60e51b815260206004820152602d60248201527f4552433732313a2063616c6c6572206973206e6f7420746f6b656e206f776e6560448201526c1c881bdc88185c1c1c9bdd9959609a1b606482015260840161087a565b610e3584848484611e4a565b50505050565b610e43611936565b60195460ff1615610e965760405162461bcd60e51b815260206004820152601660248201527f4576656e74206973206e6f7420636f6d706c6574656400000000000000000000604482015260640161087a565b7f0000000000000000000000000000000000000000000000000000000000000000601a54610ec49190612cf0565b4211610f125760405162461bcd60e51b815260206004820152601c60248201527f5769746864726177616c206e6f7420617661696c61626c65206e6f7700000000604482015260640161087a565b604051339081904780156108fc02916000818181858888f19350505050158015610c06573d6000803e3d6000fd5b60195460ff1615610f935760405162461bcd60e51b815260206004820152601660248201527f4576656e74206973206e6f7420636f6d706c6574656400000000000000000000604482015260640161087a565b336000908152600c602052604090205480610ff05760405162461bcd60e51b815260206004820152601160248201527f4e6f20656e6f7567687420706f696e7473000000000000000000000000000000604482015260640161087a565b336000908152600c60205260408120819055601c54601b54611013908490612d03565b61101d9190612d1a565b604051909150600090339083908381818185875af1925050503d8060008114611062576040519150601f19603f3d011682016040523d82523d6000602084013e611067565b606091505b50509050806109395760405162461bcd60e51b815260206004820152600f60248201527f526577617264206e6f742073656e740000000000000000000000000000000000604482015260640161087a565b60606110c382611990565b60006110ff60408051808201909152601881527f68747470733a2f2f6578616d706c652e636f6d2f6e66742f0000000000000000602082015290565b9050600081511161111f5760405180602001604052806000815250611165565b8061114461113c8560009081526008602052604090205460ff1690565b60ff16611ec8565b604051602001611155929190612d3c565b6040516020818303038152906040525b9392505050565b60008061124784848080601f01602080910402602001604051908101604052809392919081815260200183838082843760009201919091525061124192507f581876f5aa376f49a25bf7104865572d181fc041c0f7584b87c0b0c6958385ec91506111dc905060208a018a612962565b6111ec60408b0160208c01612962565b6040805160208101949094526001600160a01b03928316848201529116606083810191909152908a0135608083015289013560a082015260c00160405160208183030381529060405280519060200120611f68565b90611fd1565b90506060850135600960006112626040890160208a01612962565b6001600160a01b03166001600160a01b03168152602001908152602001600020541480156112ad57506112986020860186612962565b6001600160a01b0316816001600160a01b0316145b95945050505050565b60006001600160a01b03821661130e5760405162461bcd60e51b815260206004820152600f60248201527f496e76616c696420616464726573730000000000000000000000000000000000604482015260640161087a565b506001600160a01b03166000908152600c602052604090205490565b61133333610dc1565b6113a55760405162461bcd60e51b815260206004820152603360248201527f4552433732313a2063616c6c6572206973206e6f7420666972737420746f6b6560448201527f6e206f776e6572206f7220617070726f76656400000000000000000000000000606482015260840161087a565b6113ae33610ac6565b6114205760405162461bcd60e51b815260206004820152603160248201527f47656d3a2063616c6c6572206973206e6f74207365636f6e6420746f6b656e2060448201527f6f776e6572206f7220617070726f766564000000000000000000000000000000606482015260840161087a565b80820361146f5760405162461bcd60e51b815260206004820152601660248201527f47656d3a2063616e74206d6572676520697473656c6600000000000000000000604482015260640161087a565b600d5460ff1661148e8360009081526008602052604090205460ff1690565b60ff16106114de5760405162461bcd60e51b815260206004820152601660248201527f47656d3a206d6178206c6576656c207265616368656400000000000000000000604482015260640161087a565b6000818152600860205260408082205484835291205460ff91821691161461156e5760405162461bcd60e51b815260206004820152602e60248201527f47656d3a2063616e74206d6572676520737469636b657273207769746820646960448201527f66666572656e74206c6576656c73000000000000000000000000000000000000606482015260840161087a565b336000908152600b60205260408120546001600160a01b0316151590816115b5577f00000000000000000000000000000000000000000000000000000000000000006115d7565b7f00000000000000000000000000000000000000000000000000000000000000005b9050348111156116295760405162461bcd60e51b815260206004820152601760248201527f47656d3a20496e73756666696369656e742066756e6473000000000000000000604482015260640161087a565b61163283611ff5565b600084815260086020526040812080546001929061165490849060ff16612d6b565b92506101000a81548160ff021916908360ff160217905550811561174357336000908152600b60205260408082205490516001600160a01b03909116907f0000000000000000000000000000000000000000000000000000000000000000908381818185875af1925050503d80600081146116eb576040519150601f19603f3d011682016040523d82523d6000602084013e6116f0565b606091505b50509050806117415760405162461bcd60e51b815260206004820152601860248201527f526566657272616c20726577617264206e6f742073656e740000000000000000604482015260640161087a565b505b60195460ff1615610e35576000848152600860205260408120546117699060ff16612098565b336000908152600c602052604081208054929350839290919061178d908490612cf0565b9250508190555080601c60008282546117a69190612cf0565b925050819055507f0000000000000000000000000000000000000000000000000000000000000000601b60008282546117df9190612cf0565b90915550505050505050565b336000908152600b60205260409020546001600160a01b0316156118775760405162461bcd60e51b815260206004820152602260248201527f53656e646572206164647265737320697320616c72656164792072656665727260448201527f616c000000000000000000000000000000000000000000000000000000000000606482015260840161087a565b336000908152600b6020526040902080546001600160a01b0319166001600160a01b0392909216919091179055565b6118ae611936565b6001600160a01b03811661192a5760405162461bcd60e51b815260206004820152602660248201527f4f776e61626c653a206e6577206f776e657220697320746865207a65726f206160448201527f6464726573730000000000000000000000000000000000000000000000000000606482015260840161087a565b61193381611d2a565b50565b6006546001600160a01b03163314610da05760405162461bcd60e51b815260206004820181905260248201527f4f776e61626c653a2063616c6c6572206973206e6f7420746865206f776e6572604482015260640161087a565b6000818152600260205260409020546001600160a01b03166119335760405162461bcd60e51b815260206004820152601860248201527f4552433732313a20696e76616c696420746f6b656e2049440000000000000000604482015260640161087a565b600081815260046020526040902080546001600160a01b0319166001600160a01b0384169081179091558190611a2982610c8f565b6001600160a01b03167f8c5be1e5ebec7d5bd14f71427d1e84f3dd0314c0f7b2291e5b200ac8c7c3b92560405160405180910390a45050565b60005b81811015610939576000611a7860075490565b9050611a88600780546001019055565b611a9284826120b8565b5080611a9d81612d84565b915050611a65565b600080611ab183610c8f565b9050806001600160a01b0316846001600160a01b03161480611af857506001600160a01b0380821660009081526005602090815260408083209388168352929052205460ff165b80611b1c5750836001600160a01b0316611b11846107c3565b6001600160a01b0316145b949350505050565b826001600160a01b0316611b3782610c8f565b6001600160a01b031614611b9b5760405162461bcd60e51b815260206004820152602560248201527f4552433732313a207472616e736665722066726f6d20696e636f72726563742060448201526437bbb732b960d91b606482015260840161087a565b6001600160a01b038216611c165760405162461bcd60e51b8152602060048201526024808201527f4552433732313a207472616e7366657220746f20746865207a65726f2061646460448201527f7265737300000000000000000000000000000000000000000000000000000000606482015260840161087a565b611c2383838360016120d2565b826001600160a01b0316611c3682610c8f565b6001600160a01b031614611c9a5760405162461bcd60e51b815260206004820152602560248201527f4552433732313a207472616e736665722066726f6d20696e636f72726563742060448201526437bbb732b960d91b606482015260840161087a565b600081815260046020908152604080832080546001600160a01b03199081169091556001600160a01b0387811680865260038552838620805460001901905590871680865283862080546001019055868652600290945282852080549092168417909155905184937fddf252ad1be2c89b69c2b068fc378daa952ba7f163c4a11628f55a4df523b3ef91a4505050565b600680546001600160a01b038381166001600160a01b0319831681179093556040519116919082907f8be0079c531659141344cd1fd0a4f28419497f9722a3daafe3b4186f6b6457e090600090a35050565b816001600160a01b0316836001600160a01b031603611ddd5760405162461bcd60e51b815260206004820152601960248201527f4552433732313a20617070726f766520746f2063616c6c657200000000000000604482015260640161087a565b6001600160a01b03838116600081815260056020908152604080832094871680845294825291829020805460ff191686151590811790915591519182527f17307eab39ab6107e8899845ad3d59bd9653f200f220920489ca2b5937696c31910160405180910390a3505050565b611e55848484611b24565b611e618484848461216c565b610e355760405162461bcd60e51b815260206004820152603260248201527f4552433732313a207472616e7366657220746f206e6f6e20455243373231526560448201527131b2b4bb32b91034b6b83632b6b2b73a32b960711b606482015260840161087a565b60606000611ed5836122b8565b600101905060008167ffffffffffffffff811115611ef557611ef5612b59565b6040519080825280601f01601f191660200182016040528015611f1f576020820181803683370190505b5090508181016020015b600019017f3031323334353637383961626364656600000000000000000000000000000000600a86061a8153600a8504945084611f2957509392505050565b600061072b611f7561239a565b836040517f19010000000000000000000000000000000000000000000000000000000000006020820152602281018390526042810182905260009060620160405160208183030381529060405280519060200120905092915050565b6000806000611fe085856124c1565b91509150611fed81612506565b509392505050565b600061200082610c8f565b90506120108160008460016120d2565b61201982610c8f565b600083815260046020908152604080832080546001600160a01b03199081169091556001600160a01b0385168085526003845282852080546000190190558785526002909352818420805490911690555192935084927fddf252ad1be2c89b69c2b068fc378daa952ba7f163c4a11628f55a4df523b3ef908390a45050565b6000600e8260ff16600b81106120b0576120b0612d9d565b015492915050565b610c0682826040518060200160405280600081525061266b565b6001600160a01b03841615610e35576000828152600860205260408120546120fc9060ff16612098565b6001600160a01b0386166000908152600c6020526040812080549293508392909190612129908490612db3565b90915550506001600160a01b03841615612165576001600160a01b0384166000908152600c6020526040812080548392906117df908490612cf0565b5050505050565b60006001600160a01b0384163b156122ad57604051630a85bd0160e11b81526001600160a01b0385169063150b7a02906121b0903390899088908890600401612dc6565b6020604051808303816000875af19250505080156121eb575060408051601f3d908101601f191682019092526121e891810190612e02565b60015b612293573d808015612219576040519150601f19603f3d011682016040523d82523d6000602084013e61221e565b606091505b50805160000361228b5760405162461bcd60e51b815260206004820152603260248201527f4552433732313a207472616e7366657220746f206e6f6e20455243373231526560448201527131b2b4bb32b91034b6b83632b6b2b73a32b960711b606482015260840161087a565b805181602001fd5b6001600160e01b031916630a85bd0160e11b149050611b1c565b506001949350505050565b6000807a184f03e93ff9f4daa797ed6e38ed64bf6a1f0100000000000000008310612301577a184f03e93ff9f4daa797ed6e38ed64bf6a1f010000000000000000830492506040015b6d04ee2d6d415b85acef8100000000831061232d576d04ee2d6d415b85acef8100000000830492506020015b662386f26fc10000831061234b57662386f26fc10000830492506010015b6305f5e1008310612363576305f5e100830492506008015b612710831061237757612710830492506004015b60648310612389576064830492506002015b600a831061072b5760010192915050565b6000306001600160a01b037f0000000000000000000000000000000000000000000000000000000000000000161480156123f357507f000000000000000000000000000000000000000000000000000000000000000046145b1561241d57507f000000000000000000000000000000000000000000000000000000000000000090565b50604080517f00000000000000000000000000000000000000000000000000000000000000006020808301919091527f0000000000000000000000000000000000000000000000000000000000000000828401527f000000000000000000000000000000000000000000000000000000000000000060608301524660808301523060a0808401919091528351808403909101815260c0909201909252805191012090565b60008082516041036124f75760208301516040840151606085015160001a6124eb878285856126e9565b945094505050506124ff565b506000905060025b9250929050565b600081600481111561251a5761251a612e1f565b036125225750565b600181600481111561253657612536612e1f565b036125835760405162461bcd60e51b815260206004820152601860248201527f45434453413a20696e76616c6964207369676e61747572650000000000000000604482015260640161087a565b600281600481111561259757612597612e1f565b036125e45760405162461bcd60e51b815260206004820152601f60248201527f45434453413a20696e76616c6964207369676e6174757265206c656e67746800604482015260640161087a565b60038160048111156125f8576125f8612e1f565b036119335760405162461bcd60e51b815260206004820152602260248201527f45434453413a20696e76616c6964207369676e6174757265202773272076616c60448201527f7565000000000000000000000000000000000000000000000000000000000000606482015260840161087a565b61267583836127ad565b612682600084848461216c565b6109395760405162461bcd60e51b815260206004820152603260248201527f4552433732313a207472616e7366657220746f206e6f6e20455243373231526560448201527131b2b4bb32b91034b6b83632b6b2b73a32b960711b606482015260840161087a565b6000807f7fffffffffffffffffffffffffffffff5d576e7357a4501ddfe92f46681b20a083111561272057506000905060036127a4565b6040805160008082526020820180845289905260ff881692820192909252606081018690526080810185905260019060a0016020604051602081039080840390855afa158015612774573d6000803e3d6000fd5b5050604051601f1901519150506001600160a01b03811661279d576000600192509250506127a4565b9150600090505b94509492505050565b6001600160a01b0382166128035760405162461bcd60e51b815260206004820181905260248201527f4552433732313a206d696e7420746f20746865207a65726f2061646472657373604482015260640161087a565b6000818152600260205260409020546001600160a01b0316156128685760405162461bcd60e51b815260206004820152601c60248201527f4552433732313a20746f6b656e20616c7265616479206d696e74656400000000604482015260640161087a565b6128766000838360016120d2565b6000818152600260205260409020546001600160a01b0316156128db5760405162461bcd60e51b815260206004820152601c60248201527f4552433732313a20746f6b656e20616c7265616479206d696e74656400000000604482015260640161087a565b6001600160a01b038216600081815260036020908152604080832080546001019055848352600290915280822080546001600160a01b0319168417905551839291907fddf252ad1be2c89b69c2b068fc378daa952ba7f163c4a11628f55a4df523b3ef908290a45050565b80356001600160a01b038116811461295d57600080fd5b919050565b60006020828403121561297457600080fd5b61116582612946565b6001600160e01b03198116811461193357600080fd5b6000602082840312156129a557600080fd5b81356111658161297d565b60005b838110156129cb5781810151838201526020016129b3565b50506000910152565b600081518084526129ec8160208601602086016129b0565b601f01601f19169290920160200192915050565b60208152600061116560208301846129d4565b600060208284031215612a2557600080fd5b5035919050565b60008060408385031215612a3f57600080fd5b612a4883612946565b946020939093013593505050565b600080600083850360a0811215612a6c57600080fd5b6080811215612a7a57600080fd5b50839250608084013567ffffffffffffffff80821115612a9957600080fd5b818601915086601f830112612aad57600080fd5b813581811115612abc57600080fd5b876020828501011115612ace57600080fd5b6020830194508093505050509250925092565b600080600060608486031215612af657600080fd5b612aff84612946565b9250612b0d60208501612946565b9150604084013590509250925092565b60008060408385031215612b3057600080fd5b612b3983612946565b915060208301358015158114612b4e57600080fd5b809150509250929050565b634e487b7160e01b600052604160045260246000fd5b60008060008060808587031215612b8557600080fd5b612b8e85612946565b9350612b9c60208601612946565b925060408501359150606085013567ffffffffffffffff80821115612bc057600080fd5b818701915087601f830112612bd457600080fd5b813581811115612be657612be6612b59565b604051601f8201601f19908116603f01168101908382118183101715612c0e57612c0e612b59565b816040528281528a6020848701011115612c2757600080fd5b82602086016020830137600060208483010152809550505050505092959194509250565b60008060408385031215612c5e57600080fd5b50508035926020909101359150565b60008060408385031215612c8057600080fd5b612c8983612946565b9150612c9760208401612946565b90509250929050565b600181811c90821680612cb457607f821691505b602082108103612cd457634e487b7160e01b600052602260045260246000fd5b50919050565b634e487b7160e01b600052601160045260246000fd5b8082018082111561072b5761072b612cda565b808202811582820484141761072b5761072b612cda565b600082612d3757634e487b7160e01b600052601260045260246000fd5b500490565b60008351612d4e8184602088016129b0565b835190830190612d628183602088016129b0565b01949350505050565b60ff818116838216019081111561072b5761072b612cda565b600060018201612d9657612d96612cda565b5060010190565b634e487b7160e01b600052603260045260246000fd5b8181038181111561072b5761072b612cda565b60006001600160a01b03808716835280861660208401525083604083015260806060830152612df860808301846129d4565b9695505050505050565b600060208284031215612e1457600080fd5b81516111658161297d565b634e487b7160e01b600052602160045260246000fdfea2646970667358221220c90c41ac03b1bd557d11152a7939415d1a1d69566f3075cb22ed7a2c489a3c1364736f6c63430008120033",
  "linkReferences": {},
  "deployedLinkReferences": {}
}