{
  "_format": "hh-sol-artifact-1",
  "contractName": "Shoes",
  "sourceName": "contracts/Shoes.sol",
  "abi": [
    {
      "inputs": [
        {
          "internalType": "string",
          "name": "collectionMetadata_",
          "type": "string"
        },
        {
          "internalType": "string",
          "name": "tokenURI_",
          "type": "string"
        },
        {
          "internalType": "address",
          "name": "lemons_",
          "type": "address"
        },
        {
          "internalType": "uint256",
          "name": "maxSupply_",
          "type": "uint256"
        }
      ],
      "stateMutability": "nonpayable",
      "type": "constructor"
    },
    {
      "inputs": [],
      "name": "CannotMintEquipmentForNotOwnedToken",
      "type": "error"
    },
    {
      "inputs": [],
      "name": "ERC721AddressZeroIsNotaValidOwner",
      "type": "error"
    },
    {
      "inputs": [],
      "name": "ERC721ApprovalToCurrentOwner",
      "type": "error"
    },
    {
      "inputs": [],
      "name": "ERC721ApproveCallerIsNotOwnerNorApprovedForAll",
      "type": "error"
    },
    {
      "inputs": [],
      "name": "ERC721ApproveToCaller",
      "type": "error"
    },
    {
      "inputs": [],
      "name": "ERC721InvalidTokenId",
      "type": "error"
    },
    {
      "inputs": [],
      "name": "ERC721MintToTheZeroAddress",
      "type": "error"
    },
    {
      "inputs": [],
      "name": "ERC721NotApprovedOrOwner",
      "type": "error"
    },
    {
      "inputs": [],
      "name": "ERC721TokenAlreadyMinted",
      "type": "error"
    },
    {
      "inputs": [],
      "name": "ERC721TransferFromIncorrectOwner",
      "type": "error"
    },
    {
      "inputs": [],
      "name": "ERC721TransferToNonReceiverImplementer",
      "type": "error"
    },
    {
      "inputs": [],
      "name": "ERC721TransferToTheZeroAddress",
      "type": "error"
    },
    {
      "inputs": [],
      "name": "MintOverMax",
      "type": "error"
    },
    {
      "inputs": [],
      "name": "RMRKApprovalForAssetsToCurrentOwner",
      "type": "error"
    },
    {
      "inputs": [],
      "name": "RMRKApproveForAssetsCallerIsNotOwnerNorApprovedForAll",
      "type": "error"
    },
    {
      "inputs": [],
      "name": "RMRKAssetAlreadyExists",
      "type": "error"
    },
    {
      "inputs": [],
      "name": "RMRKBadPriorityListLength",
      "type": "error"
    },
    {
      "inputs": [],
      "name": "RMRKCatalogRequiredForParts",
      "type": "error"
    },
    {
      "inputs": [],
      "name": "RMRKChildAlreadyExists",
      "type": "error"
    },
    {
      "inputs": [],
      "name": "RMRKChildIndexOutOfRange",
      "type": "error"
    },
    {
      "inputs": [],
      "name": "RMRKEquippableEquipNotAllowedByCatalog",
      "type": "error"
    },
    {
      "inputs": [],
      "name": "RMRKIdZeroForbidden",
      "type": "error"
    },
    {
      "inputs": [],
      "name": "RMRKIndexOutOfRange",
      "type": "error"
    },
    {
      "inputs": [],
      "name": "RMRKIsNotContract",
      "type": "error"
    },
    {
      "inputs": [],
      "name": "RMRKMaxPendingAssetsReached",
      "type": "error"
    },
    {
      "inputs": [],
      "name": "RMRKMaxPendingChildrenReached",
      "type": "error"
    },
    {
      "inputs": [
        {
          "internalType": "address",
          "name": "childContract",
          "type": "address"
        },
        {
          "internalType": "uint256",
          "name": "childId",
          "type": "uint256"
        }
      ],
      "name": "RMRKMaxRecursiveBurnsReached",
      "type": "error"
    },
    {
      "inputs": [],
      "name": "RMRKMintToNonRMRKNestableImplementer",
      "type": "error"
    },
    {
      "inputs": [],
      "name": "RMRKMustUnequipFirst",
      "type": "error"
    },
    {
      "inputs": [],
      "name": "RMRKNestableTooDeep",
      "type": "error"
    },
    {
      "inputs": [],
      "name": "RMRKNestableTransferToDescendant",
      "type": "error"
    },
    {
      "inputs": [],
      "name": "RMRKNestableTransferToNonRMRKNestableImplementer",
      "type": "error"
    },
    {
      "inputs": [],
      "name": "RMRKNestableTransferToSelf",
      "type": "error"
    },
    {
      "inputs": [],
      "name": "RMRKNewContributorIsZeroAddress",
      "type": "error"
    },
    {
      "inputs": [],
      "name": "RMRKNewOwnerIsZeroAddress",
      "type": "error"
    },
    {
      "inputs": [],
      "name": "RMRKNoAssetMatchingId",
      "type": "error"
    },
    {
      "inputs": [],
      "name": "RMRKNotApprovedForAssetsOrOwner",
      "type": "error"
    },
    {
      "inputs": [],
      "name": "RMRKNotApprovedOrDirectOwner",
      "type": "error"
    },
    {
      "inputs": [],
      "name": "RMRKNotEquipped",
      "type": "error"
    },
    {
      "inputs": [],
      "name": "RMRKNotOwner",
      "type": "error"
    },
    {
      "inputs": [],
      "name": "RMRKNotOwnerOrContributor",
      "type": "error"
    },
    {
      "inputs": [],
      "name": "RMRKPendingChildIndexOutOfRange",
      "type": "error"
    },
    {
      "inputs": [],
      "name": "RMRKRoyaltiesTooHigh",
      "type": "error"
    },
    {
      "inputs": [],
      "name": "RMRKSlotAlreadyUsed",
      "type": "error"
    },
    {
      "inputs": [],
      "name": "RMRKTargetAssetCannotReceiveSlot",
      "type": "error"
    },
    {
      "inputs": [],
      "name": "RMRKTokenCannotBeEquippedWithAssetIntoSlot",
      "type": "error"
    },
    {
      "inputs": [],
      "name": "RMRKTokenDoesNotHaveAsset",
      "type": "error"
    },
    {
      "inputs": [],
      "name": "RMRKUnexpectedAssetId",
      "type": "error"
    },
    {
      "inputs": [],
      "name": "RMRKUnexpectedChildId",
      "type": "error"
    },
    {
      "inputs": [],
      "name": "RMRKUnexpectedNumberOfAssets",
      "type": "error"
    },
    {
      "inputs": [],
      "name": "RMRKUnexpectedNumberOfChildren",
      "type": "error"
    },
    {
      "inputs": [],
      "name": "RentrantCall",
      "type": "error"
    },
    {
      "anonymous": false,
      "inputs": [
        {
          "indexed": true,
          "internalType": "uint256",
          "name": "tokenId",
          "type": "uint256"
        }
      ],
      "name": "AllChildrenRejected",
      "type": "event"
    },
    {
      "anonymous": false,
      "inputs": [
        {
          "indexed": true,
          "internalType": "address",
          "name": "owner",
          "type": "address"
        },
        {
          "indexed": true,
          "internalType": "address",
          "name": "approved",
          "type": "address"
        },
        {
          "indexed": true,
          "internalType": "uint256",
          "name": "tokenId",
          "type": "uint256"
        }
      ],
      "name": "Approval",
      "type": "event"
    },
    {
      "anonymous": false,
      "inputs": [
        {
          "indexed": true,
          "internalType": "address",
          "name": "owner",
          "type": "address"
        },
        {
          "indexed": true,
          "internalType": "address",
          "name": "operator",
          "type": "address"
        },
        {
          "indexed": false,
          "internalType": "bool",
          "name": "approved",
          "type": "bool"
        }
      ],
      "name": "ApprovalForAll",
      "type": "event"
    },
    {
      "anonymous": false,
      "inputs": [
        {
          "indexed": true,
          "internalType": "address",
          "name": "owner",
          "type": "address"
        },
        {
          "indexed": true,
          "internalType": "address",
          "name": "operator",
          "type": "address"
        },
        {
          "indexed": false,
          "internalType": "bool",
          "name": "approved",
          "type": "bool"
        }
      ],
      "name": "ApprovalForAllForAssets",
      "type": "event"
    },
    {
      "anonymous": false,
      "inputs": [
        {
          "indexed": true,
          "internalType": "address",
          "name": "owner",
          "type": "address"
        },
        {
          "indexed": true,
          "internalType": "address",
          "name": "approved",
          "type": "address"
        },
        {
          "indexed": true,
          "internalType": "uint256",
          "name": "tokenId",
          "type": "uint256"
        }
      ],
      "name": "ApprovalForAssets",
      "type": "event"
    },
    {
      "anonymous": false,
      "inputs": [
        {
          "indexed": true,
          "internalType": "uint256",
          "name": "tokenId",
          "type": "uint256"
        },
        {
          "indexed": true,
          "internalType": "uint64",
          "name": "assetId",
          "type": "uint64"
        },
        {
          "indexed": true,
          "internalType": "uint64",
          "name": "replacesId",
          "type": "uint64"
        }
      ],
      "name": "AssetAccepted",
      "type": "event"
    },
    {
      "anonymous": false,
      "inputs": [
        {
          "indexed": false,
          "internalType": "uint256[]",
          "name": "tokenIds",
          "type": "uint256[]"
        },
        {
          "indexed": true,
          "internalType": "uint64",
          "name": "assetId",
          "type": "uint64"
        },
        {
          "indexed": true,
          "internalType": "uint64",
          "name": "replacesId",
          "type": "uint64"
        }
      ],
      "name": "AssetAddedToTokens",
      "type": "event"
    },
    {
      "anonymous": false,
      "inputs": [
        {
          "indexed": true,
          "internalType": "uint256",
          "name": "tokenId",
          "type": "uint256"
        }
      ],
      "name": "AssetPrioritySet",
      "type": "event"
    },
    {
      "anonymous": false,
      "inputs": [
        {
          "indexed": true,
          "internalType": "uint256",
          "name": "tokenId",
          "type": "uint256"
        },
        {
          "indexed": true,
          "internalType": "uint64",
          "name": "assetId",
          "type": "uint64"
        }
      ],
      "name": "AssetRejected",
      "type": "event"
    },
    {
      "anonymous": false,
      "inputs": [
        {
          "indexed": true,
          "internalType": "uint64",
          "name": "assetId",
          "type": "uint64"
        }
      ],
      "name": "AssetSet",
      "type": "event"
    },
    {
      "anonymous": false,
      "inputs": [
        {
          "indexed": true,
          "internalType": "uint256",
          "name": "tokenId",
          "type": "uint256"
        },
        {
          "indexed": false,
          "internalType": "uint256",
          "name": "childIndex",
          "type": "uint256"
        },
        {
          "indexed": true,
          "internalType": "address",
          "name": "childAddress",
          "type": "address"
        },
        {
          "indexed": true,
          "internalType": "uint256",
          "name": "childId",
          "type": "uint256"
        }
      ],
      "name": "ChildAccepted",
      "type": "event"
    },
    {
      "anonymous": false,
      "inputs": [
        {
          "indexed": true,
          "internalType": "uint256",
          "name": "tokenId",
          "type": "uint256"
        },
        {
          "indexed": true,
          "internalType": "uint64",
          "name": "assetId",
          "type": "uint64"
        },
        {
          "indexed": true,
          "internalType": "uint64",
          "name": "slotPartId",
          "type": "uint64"
        },
        {
          "indexed": false,
          "internalType": "uint256",
          "name": "childId",
          "type": "uint256"
        },
        {
          "indexed": false,
          "internalType": "address",
          "name": "childAddress",
          "type": "address"
        },
        {
          "indexed": false,
          "internalType": "uint64",
          "name": "childAssetId",
          "type": "uint64"
        }
      ],
      "name": "ChildAssetEquipped",
      "type": "event"
    },
    {
      "anonymous": false,
      "inputs": [
        {
          "indexed": true,
          "internalType": "uint256",
          "name": "tokenId",
          "type": "uint256"
        },
        {
          "indexed": true,
          "internalType": "uint64",
          "name": "assetId",
          "type": "uint64"
        },
        {
          "indexed": true,
          "internalType": "uint64",
          "name": "slotPartId",
          "type": "uint64"
        },
        {
          "indexed": false,
          "internalType": "uint256",
          "name": "childId",
          "type": "uint256"
        },
        {
          "indexed": false,
          "internalType": "address",
          "name": "childAddress",
          "type": "address"
        },
        {
          "indexed": false,
          "internalType": "uint64",
          "name": "childAssetId",
          "type": "uint64"
        }
      ],
      "name": "ChildAssetUnequipped",
      "type": "event"
    },
    {
      "anonymous": false,
      "inputs": [
        {
          "indexed": true,
          "internalType": "uint256",
          "name": "tokenId",
          "type": "uint256"
        },
        {
          "indexed": false,
          "internalType": "uint256",
          "name": "childIndex",
          "type": "uint256"
        },
        {
          "indexed": true,
          "internalType": "address",
          "name": "childAddress",
          "type": "address"
        },
        {
          "indexed": true,
          "internalType": "uint256",
          "name": "childId",
          "type": "uint256"
        }
      ],
      "name": "ChildProposed",
      "type": "event"
    },
    {
      "anonymous": false,
      "inputs": [
        {
          "indexed": true,
          "internalType": "uint256",
          "name": "tokenId",
          "type": "uint256"
        },
        {
          "indexed": false,
          "internalType": "uint256",
          "name": "childIndex",
          "type": "uint256"
        },
        {
          "indexed": true,
          "internalType": "address",
          "name": "childAddress",
          "type": "address"
        },
        {
          "indexed": true,
          "internalType": "uint256",
          "name": "childId",
          "type": "uint256"
        },
        {
          "indexed": false,
          "internalType": "bool",
          "name": "fromPending",
          "type": "bool"
        },
        {
          "indexed": false,
          "internalType": "bool",
          "name": "toZero",
          "type": "bool"
        }
      ],
      "name": "ChildTransferred",
      "type": "event"
    },
    {
      "anonymous": false,
      "inputs": [
        {
          "indexed": true,
          "internalType": "address",
          "name": "contributor",
          "type": "address"
        },
        {
          "indexed": false,
          "internalType": "bool",
          "name": "isContributor",
          "type": "bool"
        }
      ],
      "name": "ContributorUpdate",
      "type": "event"
    },
    {
      "anonymous": false,
      "inputs": [
        {
          "indexed": true,
          "internalType": "address",
          "name": "from",
          "type": "address"
        },
        {
          "indexed": true,
          "internalType": "address",
          "name": "to",
          "type": "address"
        },
        {
          "indexed": false,
          "internalType": "uint256",
          "name": "fromTokenId",
          "type": "uint256"
        },
        {
          "indexed": false,
          "internalType": "uint256",
          "name": "toTokenId",
          "type": "uint256"
        },
        {
          "indexed": true,
          "internalType": "uint256",
          "name": "tokenId",
          "type": "uint256"
        }
      ],
      "name": "NestTransfer",
      "type": "event"
    },
    {
      "anonymous": false,
      "inputs": [
        {
          "indexed": true,
          "internalType": "address",
          "name": "previousOwner",
          "type": "address"
        },
        {
          "indexed": true,
          "internalType": "address",
          "name": "newOwner",
          "type": "address"
        }
      ],
      "name": "OwnershipTransferred",
      "type": "event"
    },
    {
      "anonymous": false,
      "inputs": [
        {
          "indexed": true,
          "internalType": "address",
          "name": "from",
          "type": "address"
        },
        {
          "indexed": true,
          "internalType": "address",
          "name": "to",
          "type": "address"
        },
        {
          "indexed": true,
          "internalType": "uint256",
          "name": "tokenId",
          "type": "uint256"
        }
      ],
      "name": "Transfer",
      "type": "event"
    },
    {
      "anonymous": false,
      "inputs": [
        {
          "indexed": true,
          "internalType": "uint64",
          "name": "equippableGroupId",
          "type": "uint64"
        },
        {
          "indexed": true,
          "internalType": "uint64",
          "name": "slotPartId",
          "type": "uint64"
        },
        {
          "indexed": false,
          "internalType": "address",
          "name": "parentAddress",
          "type": "address"
        }
      ],
      "name": "ValidParentEquippableGroupIdSet",
      "type": "event"
    },
    {
      "inputs": [],
      "name": "VERSION",
      "outputs": [
        {
          "internalType": "string",
          "name": "",
          "type": "string"
        }
      ],
      "stateMutability": "view",
      "type": "function"
    },
    {
      "inputs": [
        {
          "internalType": "uint256",
          "name": "tokenId",
          "type": "uint256"
        },
        {
          "internalType": "uint256",
          "name": "index",
          "type": "uint256"
        },
        {
          "internalType": "uint64",
          "name": "assetId",
          "type": "uint64"
        }
      ],
      "name": "acceptAsset",
      "outputs": [],
      "stateMutability": "nonpayable",
      "type": "function"
    },
    {
      "inputs": [
        {
          "internalType": "uint256",
          "name": "parentId",
          "type": "uint256"
        },
        {
          "internalType": "uint256",
          "name": "childIndex",
          "type": "uint256"
        },
        {
          "internalType": "address",
          "name": "childAddress",
          "type": "address"
        },
        {
          "internalType": "uint256",
          "name": "childId",
          "type": "uint256"
        }
      ],
      "name": "acceptChild",
      "outputs": [],
      "stateMutability": "nonpayable",
      "type": "function"
    },
    {
      "inputs": [
        {
          "internalType": "string",
          "name": "metadataURI",
          "type": "string"
        }
      ],
      "name": "addAssetEntry",
      "outputs": [
        {
          "internalType": "uint256",
          "name": "",
          "type": "uint256"
        }
      ],
      "stateMutability": "nonpayable",
      "type": "function"
    },
    {
      "inputs": [
        {
          "internalType": "uint256[]",
          "name": "tokenIds",
          "type": "uint256[]"
        },
        {
          "internalType": "uint64",
          "name": "assetId",
          "type": "uint64"
        },
        {
          "internalType": "uint64",
          "name": "overwrites",
          "type": "uint64"
        }
      ],
      "name": "addAssetToTokens",
      "outputs": [],
      "stateMutability": "nonpayable",
      "type": "function"
    },
    {
      "inputs": [
        {
          "internalType": "uint256",
          "name": "parentId",
          "type": "uint256"
        },
        {
          "internalType": "uint256",
          "name": "childId",
          "type": "uint256"
        },
        {
          "internalType": "bytes",
          "name": "data",
          "type": "bytes"
        }
      ],
      "name": "addChild",
      "outputs": [],
      "stateMutability": "nonpayable",
      "type": "function"
    },
    {
      "inputs": [
        {
          "internalType": "uint64",
          "name": "equippableGroupId",
          "type": "uint64"
        },
        {
          "internalType": "address",
          "name": "catalogAddress",
          "type": "address"
        },
        {
          "internalType": "string",
          "name": "metadataURI",
          "type": "string"
        },
        {
          "internalType": "uint64[]",
          "name": "partIds",
          "type": "uint64[]"
        }
      ],
      "name": "addEquippableAssetEntry",
      "outputs": [
        {
          "internalType": "uint256",
          "name": "",
          "type": "uint256"
        }
      ],
      "stateMutability": "nonpayable",
      "type": "function"
    },
    {
      "inputs": [
        {
          "internalType": "address",
          "name": "to",
          "type": "address"
        },
        {
          "internalType": "uint256",
          "name": "tokenId",
          "type": "uint256"
        }
      ],
      "name": "approve",
      "outputs": [],
      "stateMutability": "nonpayable",
      "type": "function"
    },
    {
      "inputs": [
        {
          "internalType": "address",
          "name": "to",
          "type": "address"
        },
        {
          "internalType": "uint256",
          "name": "tokenId",
          "type": "uint256"
        }
      ],
      "name": "approveForAssets",
      "outputs": [],
      "stateMutability": "nonpayable",
      "type": "function"
    },
    {
      "inputs": [
        {
          "internalType": "address",
          "name": "owner",
          "type": "address"
        }
      ],
      "name": "balanceOf",
      "outputs": [
        {
          "internalType": "uint256",
          "name": "",
          "type": "uint256"
        }
      ],
      "stateMutability": "view",
      "type": "function"
    },
    {
      "inputs": [
        {
          "internalType": "uint256",
          "name": "tokenId",
          "type": "uint256"
        }
      ],
      "name": "burn",
      "outputs": [],
      "stateMutability": "nonpayable",
      "type": "function"
    },
    {
      "inputs": [
        {
          "internalType": "uint256",
          "name": "tokenId",
          "type": "uint256"
        },
        {
          "internalType": "uint256",
          "name": "maxChildrenBurns",
          "type": "uint256"
        }
      ],
      "name": "burn",
      "outputs": [
        {
          "internalType": "uint256",
          "name": "",
          "type": "uint256"
        }
      ],
      "stateMutability": "nonpayable",
      "type": "function"
    },
    {
      "inputs": [
        {
          "internalType": "address",
          "name": "parent",
          "type": "address"
        },
        {
          "internalType": "uint256",
          "name": "tokenId",
          "type": "uint256"
        },
        {
          "internalType": "uint64",
          "name": "assetId",
          "type": "uint64"
        },
        {
          "internalType": "uint64",
          "name": "slotId",
          "type": "uint64"
        }
      ],
      "name": "canTokenBeEquippedWithAssetIntoSlot",
      "outputs": [
        {
          "internalType": "bool",
          "name": "",
          "type": "bool"
        }
      ],
      "stateMutability": "view",
      "type": "function"
    },
    {
      "inputs": [
        {
          "internalType": "address",
          "name": "childAddress",
          "type": "address"
        },
        {
          "internalType": "uint256",
          "name": "childId",
          "type": "uint256"
        }
      ],
      "name": "childIsInActive",
      "outputs": [
        {
          "internalType": "bool",
          "name": "",
          "type": "bool"
        }
      ],
      "stateMutability": "view",
      "type": "function"
    },
    {
      "inputs": [
        {
          "internalType": "uint256",
          "name": "parentId",
          "type": "uint256"
        },
        {
          "internalType": "uint256",
          "name": "index",
          "type": "uint256"
        }
      ],
      "name": "childOf",
      "outputs": [
        {
          "components": [
            {
              "internalType": "uint256",
              "name": "tokenId",
              "type": "uint256"
            },
            {
              "internalType": "address",
              "name": "contractAddress",
              "type": "address"
            }
          ],
          "internalType": "struct IRMRKNestable.Child",
          "name": "",
          "type": "tuple"
        }
      ],
      "stateMutability": "view",
      "type": "function"
    },
    {
      "inputs": [
        {
          "internalType": "uint256",
          "name": "parentId",
          "type": "uint256"
        }
      ],
      "name": "childrenOf",
      "outputs": [
        {
          "components": [
            {
              "internalType": "uint256",
              "name": "tokenId",
              "type": "uint256"
            },
            {
              "internalType": "address",
              "name": "contractAddress",
              "type": "address"
            }
          ],
          "internalType": "struct IRMRKNestable.Child[]",
          "name": "",
          "type": "tuple[]"
        }
      ],
      "stateMutability": "view",
      "type": "function"
    },
    {
      "inputs": [],
      "name": "collectionMetadata",
      "outputs": [
        {
          "internalType": "string",
          "name": "",
          "type": "string"
        }
      ],
      "stateMutability": "view",
      "type": "function"
    },
    {
      "inputs": [
        {
          "internalType": "uint256",
          "name": "tokenId",
          "type": "uint256"
        }
      ],
      "name": "directOwnerOf",
      "outputs": [
        {
          "internalType": "address",
          "name": "",
          "type": "address"
        },
        {
          "internalType": "uint256",
          "name": "",
          "type": "uint256"
        },
        {
          "internalType": "bool",
          "name": "",
          "type": "bool"
        }
      ],
      "stateMutability": "view",
      "type": "function"
    },
    {
      "inputs": [
        {
          "components": [
            {
              "internalType": "uint256",
              "name": "tokenId",
              "type": "uint256"
            },
            {
              "internalType": "uint256",
              "name": "childIndex",
              "type": "uint256"
            },
            {
              "internalType": "uint64",
              "name": "assetId",
              "type": "uint64"
            },
            {
              "internalType": "uint64",
              "name": "slotPartId",
              "type": "uint64"
            },
            {
              "internalType": "uint64",
              "name": "childAssetId",
              "type": "uint64"
            }
          ],
          "internalType": "struct IRMRKEquippable.IntakeEquip",
          "name": "data",
          "type": "tuple"
        }
      ],
      "name": "equip",
      "outputs": [],
      "stateMutability": "nonpayable",
      "type": "function"
    },
    {
      "inputs": [
        {
          "internalType": "uint256",
          "name": "tokenId",
          "type": "uint256"
        }
      ],
      "name": "getActiveAssetPriorities",
      "outputs": [
        {
          "internalType": "uint64[]",
          "name": "",
          "type": "uint64[]"
        }
      ],
      "stateMutability": "view",
      "type": "function"
    },
    {
      "inputs": [
        {
          "internalType": "uint256",
          "name": "tokenId",
          "type": "uint256"
        }
      ],
      "name": "getActiveAssets",
      "outputs": [
        {
          "internalType": "uint64[]",
          "name": "",
          "type": "uint64[]"
        }
      ],
      "stateMutability": "view",
      "type": "function"
    },
    {
      "inputs": [
        {
          "internalType": "uint256",
          "name": "tokenId",
          "type": "uint256"
        }
      ],
      "name": "getApproved",
      "outputs": [
        {
          "internalType": "address",
          "name": "",
          "type": "address"
        }
      ],
      "stateMutability": "view",
      "type": "function"
    },
    {
      "inputs": [
        {
          "internalType": "uint256",
          "name": "tokenId",
          "type": "uint256"
        }
      ],
      "name": "getApprovedForAssets",
      "outputs": [
        {
          "internalType": "address",
          "name": "",
          "type": "address"
        }
      ],
      "stateMutability": "view",
      "type": "function"
    },
    {
      "inputs": [
        {
          "internalType": "uint256",
          "name": "tokenId",
          "type": "uint256"
        },
        {
          "internalType": "uint64",
          "name": "assetId",
          "type": "uint64"
        }
      ],
      "name": "getAssetAndEquippableData",
      "outputs": [
        {
          "internalType": "string",
          "name": "",
          "type": "string"
        },
        {
          "internalType": "uint64",
          "name": "",
          "type": "uint64"
        },
        {
          "internalType": "address",
          "name": "",
          "type": "address"
        },
        {
          "internalType": "uint64[]",
          "name": "",
          "type": "uint64[]"
        }
      ],
      "stateMutability": "view",
      "type": "function"
    },
    {
      "inputs": [
        {
          "internalType": "uint256",
          "name": "tokenId",
          "type": "uint256"
        },
        {
          "internalType": "uint64",
          "name": "assetId",
          "type": "uint64"
        }
      ],
      "name": "getAssetMetadata",
      "outputs": [
        {
          "internalType": "string",
          "name": "",
          "type": "string"
        }
      ],
      "stateMutability": "view",
      "type": "function"
    },
    {
      "inputs": [
        {
          "internalType": "uint256",
          "name": "tokenId",
          "type": "uint256"
        },
        {
          "internalType": "uint64",
          "name": "newAssetId",
          "type": "uint64"
        }
      ],
      "name": "getAssetReplacements",
      "outputs": [
        {
          "internalType": "uint64",
          "name": "",
          "type": "uint64"
        }
      ],
      "stateMutability": "view",
      "type": "function"
    },
    {
      "inputs": [
        {
          "internalType": "uint256",
          "name": "tokenId",
          "type": "uint256"
        },
        {
          "internalType": "address",
          "name": "targetCatalogAddress",
          "type": "address"
        },
        {
          "internalType": "uint64",
          "name": "slotPartId",
          "type": "uint64"
        }
      ],
      "name": "getEquipment",
      "outputs": [
        {
          "components": [
            {
              "internalType": "uint64",
              "name": "assetId",
              "type": "uint64"
            },
            {
              "internalType": "uint64",
              "name": "childAssetId",
              "type": "uint64"
            },
            {
              "internalType": "uint256",
              "name": "childId",
              "type": "uint256"
            },
            {
              "internalType": "address",
              "name": "childEquippableAddress",
              "type": "address"
            }
          ],
          "internalType": "struct IRMRKEquippable.Equipment",
          "name": "",
          "type": "tuple"
        }
      ],
      "stateMutability": "view",
      "type": "function"
    },
    {
      "inputs": [
        {
          "internalType": "uint256",
          "name": "tokenId",
          "type": "uint256"
        }
      ],
      "name": "getPendingAssets",
      "outputs": [
        {
          "internalType": "uint64[]",
          "name": "",
          "type": "uint64[]"
        }
      ],
      "stateMutability": "view",
      "type": "function"
    },
    {
      "inputs": [],
      "name": "getRoyaltyPercentage",
      "outputs": [
        {
          "internalType": "uint256",
          "name": "",
          "type": "uint256"
        }
      ],
      "stateMutability": "view",
      "type": "function"
    },
    {
      "inputs": [],
      "name": "getRoyaltyRecipient",
      "outputs": [
        {
          "internalType": "address",
          "name": "",
          "type": "address"
        }
      ],
      "stateMutability": "view",
      "type": "function"
    },
    {
      "inputs": [
        {
          "internalType": "address",
          "name": "owner",
          "type": "address"
        },
        {
          "internalType": "address",
          "name": "operator",
          "type": "address"
        }
      ],
      "name": "isApprovedForAll",
      "outputs": [
        {
          "internalType": "bool",
          "name": "",
          "type": "bool"
        }
      ],
      "stateMutability": "view",
      "type": "function"
    },
    {
      "inputs": [
        {
          "internalType": "address",
          "name": "owner",
          "type": "address"
        },
        {
          "internalType": "address",
          "name": "operator",
          "type": "address"
        }
      ],
      "name": "isApprovedForAllForAssets",
      "outputs": [
        {
          "internalType": "bool",
          "name": "",
          "type": "bool"
        }
      ],
      "stateMutability": "view",
      "type": "function"
    },
    {
      "inputs": [
        {
          "internalType": "uint256",
          "name": "tokenId",
          "type": "uint256"
        },
        {
          "internalType": "address",
          "name": "childAddress",
          "type": "address"
        },
        {
          "internalType": "uint256",
          "name": "childId",
          "type": "uint256"
        }
      ],
      "name": "isChildEquipped",
      "outputs": [
        {
          "internalType": "bool",
          "name": "",
          "type": "bool"
        }
      ],
      "stateMutability": "view",
      "type": "function"
    },
    {
      "inputs": [
        {
          "internalType": "address",
          "name": "contributor",
          "type": "address"
        }
      ],
      "name": "isContributor",
      "outputs": [
        {
          "internalType": "bool",
          "name": "",
          "type": "bool"
        }
      ],
      "stateMutability": "view",
      "type": "function"
    },
    {
      "inputs": [],
      "name": "lemon",
      "outputs": [
        {
          "internalType": "address",
          "name": "",
          "type": "address"
        }
      ],
      "stateMutability": "view",
      "type": "function"
    },
    {
      "inputs": [
        {
          "internalType": "address",
          "name": "contributor",
          "type": "address"
        },
        {
          "internalType": "bool",
          "name": "grantRole",
          "type": "bool"
        }
      ],
      "name": "manageContributor",
      "outputs": [],
      "stateMutability": "nonpayable",
      "type": "function"
    },
    {
      "inputs": [],
      "name": "maxSupply",
      "outputs": [
        {
          "internalType": "uint256",
          "name": "",
          "type": "uint256"
        }
      ],
      "stateMutability": "view",
      "type": "function"
    },
    {
      "inputs": [
        {
          "internalType": "uint256",
          "name": "lemonTokenId",
          "type": "uint256"
        }
      ],
      "name": "mint",
      "outputs": [],
      "stateMutability": "nonpayable",
      "type": "function"
    },
    {
      "inputs": [],
      "name": "name",
      "outputs": [
        {
          "internalType": "string",
          "name": "",
          "type": "string"
        }
      ],
      "stateMutability": "view",
      "type": "function"
    },
    {
      "inputs": [
        {
          "internalType": "address",
          "name": "from",
          "type": "address"
        },
        {
          "internalType": "address",
          "name": "to",
          "type": "address"
        },
        {
          "internalType": "uint256",
          "name": "tokenId",
          "type": "uint256"
        },
        {
          "internalType": "uint256",
          "name": "destinationId",
          "type": "uint256"
        },
        {
          "internalType": "bytes",
          "name": "data",
          "type": "bytes"
        }
      ],
      "name": "nestTransferFrom",
      "outputs": [],
      "stateMutability": "nonpayable",
      "type": "function"
    },
    {
      "inputs": [],
      "name": "owner",
      "outputs": [
        {
          "internalType": "address",
          "name": "",
          "type": "address"
        }
      ],
      "stateMutability": "view",
      "type": "function"
    },
    {
      "inputs": [
        {
          "internalType": "uint256",
          "name": "tokenId",
          "type": "uint256"
        }
      ],
      "name": "ownerOf",
      "outputs": [
        {
          "internalType": "address",
          "name": "",
          "type": "address"
        }
      ],
      "stateMutability": "view",
      "type": "function"
    },
    {
      "inputs": [
        {
          "internalType": "uint256",
          "name": "parentId",
          "type": "uint256"
        },
        {
          "internalType": "uint256",
          "name": "index",
          "type": "uint256"
        }
      ],
      "name": "pendingChildOf",
      "outputs": [
        {
          "components": [
            {
              "internalType": "uint256",
              "name": "tokenId",
              "type": "uint256"
            },
            {
              "internalType": "address",
              "name": "contractAddress",
              "type": "address"
            }
          ],
          "internalType": "struct IRMRKNestable.Child",
          "name": "",
          "type": "tuple"
        }
      ],
      "stateMutability": "view",
      "type": "function"
    },
    {
      "inputs": [
        {
          "internalType": "uint256",
          "name": "parentId",
          "type": "uint256"
        }
      ],
      "name": "pendingChildrenOf",
      "outputs": [
        {
          "components": [
            {
              "internalType": "uint256",
              "name": "tokenId",
              "type": "uint256"
            },
            {
              "internalType": "address",
              "name": "contractAddress",
              "type": "address"
            }
          ],
          "internalType": "struct IRMRKNestable.Child[]",
          "name": "",
          "type": "tuple[]"
        }
      ],
      "stateMutability": "view",
      "type": "function"
    },
    {
      "inputs": [
        {
          "internalType": "uint256",
          "name": "tokenId",
          "type": "uint256"
        },
        {
          "internalType": "uint256",
          "name": "maxRejections",
          "type": "uint256"
        }
      ],
      "name": "rejectAllAssets",
      "outputs": [],
      "stateMutability": "nonpayable",
      "type": "function"
    },
    {
      "inputs": [
        {
          "internalType": "uint256",
          "name": "tokenId",
          "type": "uint256"
        },
        {
          "internalType": "uint256",
          "name": "maxRejections",
          "type": "uint256"
        }
      ],
      "name": "rejectAllChildren",
      "outputs": [],
      "stateMutability": "nonpayable",
      "type": "function"
    },
    {
      "inputs": [
        {
          "internalType": "uint256",
          "name": "tokenId",
          "type": "uint256"
        },
        {
          "internalType": "uint256",
          "name": "index",
          "type": "uint256"
        },
        {
          "internalType": "uint64",
          "name": "assetId",
          "type": "uint64"
        }
      ],
      "name": "rejectAsset",
      "outputs": [],
      "stateMutability": "nonpayable",
      "type": "function"
    },
    {
      "inputs": [],
      "name": "renounceOwnership",
      "outputs": [],
      "stateMutability": "nonpayable",
      "type": "function"
    },
    {
      "inputs": [
        {
          "internalType": "uint256",
          "name": "tokenId",
          "type": "uint256"
        },
        {
          "internalType": "uint256",
          "name": "salePrice",
          "type": "uint256"
        }
      ],
      "name": "royaltyInfo",
      "outputs": [
        {
          "internalType": "address",
          "name": "receiver",
          "type": "address"
        },
        {
          "internalType": "uint256",
          "name": "royaltyAmount",
          "type": "uint256"
        }
      ],
      "stateMutability": "view",
      "type": "function"
    },
    {
      "inputs": [
        {
          "internalType": "address",
          "name": "from",
          "type": "address"
        },
        {
          "internalType": "address",
          "name": "to",
          "type": "address"
        },
        {
          "internalType": "uint256",
          "name": "tokenId",
          "type": "uint256"
        }
      ],
      "name": "safeTransferFrom",
      "outputs": [],
      "stateMutability": "nonpayable",
      "type": "function"
    },
    {
      "inputs": [
        {
          "internalType": "address",
          "name": "from",
          "type": "address"
        },
        {
          "internalType": "address",
          "name": "to",
          "type": "address"
        },
        {
          "internalType": "uint256",
          "name": "tokenId",
          "type": "uint256"
        },
        {
          "internalType": "bytes",
          "name": "data",
          "type": "bytes"
        }
      ],
      "name": "safeTransferFrom",
      "outputs": [],
      "stateMutability": "nonpayable",
      "type": "function"
    },
    {
      "inputs": [
        {
          "internalType": "address",
          "name": "operator",
          "type": "address"
        },
        {
          "internalType": "bool",
          "name": "approved",
          "type": "bool"
        }
      ],
      "name": "setApprovalForAll",
      "outputs": [],
      "stateMutability": "nonpayable",
      "type": "function"
    },
    {
      "inputs": [
        {
          "internalType": "address",
          "name": "operator",
          "type": "address"
        },
        {
          "internalType": "bool",
          "name": "approved",
          "type": "bool"
        }
      ],
      "name": "setApprovalForAllForAssets",
      "outputs": [],
      "stateMutability": "nonpayable",
      "type": "function"
    },
    {
      "inputs": [
        {
          "internalType": "uint256",
          "name": "tokenId",
          "type": "uint256"
        },
        {
          "internalType": "uint64[]",
          "name": "priorities",
          "type": "uint64[]"
        }
      ],
      "name": "setPriority",
      "outputs": [],
      "stateMutability": "nonpayable",
      "type": "function"
    },
    {
      "inputs": [
        {
          "internalType": "uint64",
          "name": "equippableGroupId",
          "type": "uint64"
        },
        {
          "internalType": "address",
          "name": "parentAddress",
          "type": "address"
        },
        {
          "internalType": "uint64",
          "name": "slotPartId",
          "type": "uint64"
        }
      ],
      "name": "setValidParentForEquippableGroup",
      "outputs": [],
      "stateMutability": "nonpayable",
      "type": "function"
    },
    {
      "inputs": [
        {
          "internalType": "bytes4",
          "name": "interfaceId",
          "type": "bytes4"
        }
      ],
      "name": "supportsInterface",
      "outputs": [
        {
          "internalType": "bool",
          "name": "",
          "type": "bool"
        }
      ],
      "stateMutability": "view",
      "type": "function"
    },
    {
      "inputs": [],
      "name": "symbol",
      "outputs": [
        {
          "internalType": "string",
          "name": "",
          "type": "string"
        }
      ],
      "stateMutability": "view",
      "type": "function"
    },
    {
      "inputs": [
        {
          "internalType": "uint256",
          "name": "tokenId",
          "type": "uint256"
        }
      ],
      "name": "tokenURI",
      "outputs": [
        {
          "internalType": "string",
          "name": "",
          "type": "string"
        }
      ],
      "stateMutability": "view",
      "type": "function"
    },
    {
      "inputs": [],
      "name": "totalSupply",
      "outputs": [
        {
          "internalType": "uint256",
          "name": "",
          "type": "uint256"
        }
      ],
      "stateMutability": "view",
      "type": "function"
    },
    {
      "inputs": [
        {
          "internalType": "uint256",
          "name": "tokenId",
          "type": "uint256"
        },
        {
          "internalType": "address",
          "name": "to",
          "type": "address"
        },
        {
          "internalType": "uint256",
          "name": "destinationId",
          "type": "uint256"
        },
        {
          "internalType": "uint256",
          "name": "childIndex",
          "type": "uint256"
        },
        {
          "internalType": "address",
          "name": "childAddress",
          "type": "address"
        },
        {
          "internalType": "uint256",
          "name": "childId",
          "type": "uint256"
        },
        {
          "internalType": "bool",
          "name": "isPending",
          "type": "bool"
        },
        {
          "internalType": "bytes",
          "name": "data",
          "type": "bytes"
        }
      ],
      "name": "transferChild",
      "outputs": [],
      "stateMutability": "nonpayable",
      "type": "function"
    },
    {
      "inputs": [
        {
          "internalType": "address",
          "name": "from",
          "type": "address"
        },
        {
          "internalType": "address",
          "name": "to",
          "type": "address"
        },
        {
          "internalType": "uint256",
          "name": "tokenId",
          "type": "uint256"
        }
      ],
      "name": "transferFrom",
      "outputs": [],
      "stateMutability": "nonpayable",
      "type": "function"
    },
    {
      "inputs": [
        {
          "internalType": "address",
          "name": "newOwner",
          "type": "address"
        }
      ],
      "name": "transferOwnership",
      "outputs": [],
      "stateMutability": "nonpayable",
      "type": "function"
    },
    {
      "inputs": [
        {
          "internalType": "uint256",
          "name": "tokenId",
          "type": "uint256"
        },
        {
          "internalType": "uint64",
          "name": "assetId",
          "type": "uint64"
        },
        {
          "internalType": "uint64",
          "name": "slotPartId",
          "type": "uint64"
        }
      ],
      "name": "unequip",
      "outputs": [],
      "stateMutability": "nonpayable",
      "type": "function"
    },
    {
      "inputs": [
        {
          "internalType": "address",
          "name": "newRoyaltyRecipient",
          "type": "address"
        }
      ],
      "name": "updateRoyaltyRecipient",
      "outputs": [],
      "stateMutability": "nonpayable",
      "type": "function"
    },
    {
      "inputs": [
        {
          "internalType": "address",
          "name": "to",
          "type": "address"
        },
        {
          "internalType": "uint256",
          "name": "amount",
          "type": "uint256"
        }
      ],
      "name": "withdrawRaised",
      "outputs": [],
      "stateMutability": "nonpayable",
      "type": "function"
    }
  ],
  "bytecode": "0x60e06040523480156200001157600080fd5b5060405162005ec138038062005ec1833981016040819052620000349162000277565b6040518060400160405280600b81526020016a4c656d6f6e2053686f657360a81b815250604051806040016040528060028152602001614c5360f01b8152508585858560028686818181816200008f6200014a60201b60201c565b60016000556101f48c620000a3336200014e565b620000ae81620001a0565b50600480546001600160a01b0319166001600160a01b0384161790556127108110620000ed57604051634006185d60e11b815260040160405180910390fd5b600555506006620000ff838262000399565b5060076200010e828262000399565b5050506001600160a01b03871660805250505060a083905250601d62000135858262000399565b5060c052506200046598505050505050505050565b3390565b600180546001600160a01b038381166001600160a01b0319831681179093556040519116919082907f8be0079c531659141344cd1fd0a4f28419497f9722a3daafe3b4186f6b6457e090600090a35050565b6003620001ae828262000399565b5050565b634e487b7160e01b600052604160045260246000fd5b600082601f830112620001da57600080fd5b81516001600160401b0380821115620001f757620001f7620001b2565b604051601f8301601f19908116603f01168101908282118183101715620002225762000222620001b2565b816040528381526020925086838588010111156200023f57600080fd5b600091505b8382101562000263578582018301518183018401529082019062000244565b600093810190920192909252949350505050565b600080600080608085870312156200028e57600080fd5b84516001600160401b0380821115620002a657600080fd5b620002b488838901620001c8565b95506020870151915080821115620002cb57600080fd5b50620002da87828801620001c8565b604087015190945090506001600160a01b0381168114620002fa57600080fd5b6060959095015193969295505050565b600181811c908216806200031f57607f821691505b6020821081036200034057634e487b7160e01b600052602260045260246000fd5b50919050565b601f8211156200039457600081815260208120601f850160051c810160208610156200036f5750805b601f850160051c820191505b8181101562000390578281556001016200037b565b5050505b505050565b81516001600160401b03811115620003b557620003b5620001b2565b620003cd81620003c684546200030a565b8462000346565b602080601f831160018114620004055760008415620003ec5750858301515b600019600386901b1c1916600185901b17855562000390565b600085815260208120601f198616915b82811015620004365788860151825594840194600190910190840162000415565b5085821015620004555787850151600019600388901b60f8161c191681555b5050505050600190811b01905550565b60805160a05160c051615a10620004b160003960008181611308015261133a01526000818161097b01526119b401526000818161087801528181612ffd01526130b90152615a106000f3fe608060405234801561001057600080fd5b50600436106103eb5760003560e01c80636f19951c1161021a578063b390c0ab11610135578063e467a48f116100c8578063ee1dffcf11610097578063fb25fb7a1161007c578063fb25fb7a14610adb578063fc3517c814610b15578063ffa1ad7414610b2857600080fd5b8063ee1dffcf14610a89578063f2fde38b14610ac857600080fd5b8063e467a48f14610a14578063e7de4de414610a27578063e97ceaa814610a3a578063e985e9c514610a4d57600080fd5b8063d5abeb0111610104578063d5abeb0114610979578063de8e602c1461099f578063defa80c3146109b2578063df6f556b146109c557600080fd5b8063b390c0ab1461092d578063b88d4fde14610940578063c259a98814610953578063c87b56dd1461096657600080fd5b806389ed2edf116101ad578063979613361161017c57806397961336146108e1578063a0712d68146108f4578063a22cb46514610907578063a898e3641461091a57600080fd5b806389ed2edf146108af5780638da5cb5b146108b757806395d89b41146108c857806395edc18c146108d057600080fd5b80637507e2ae116101e95780637507e2ae1461077357806379e8ca9e1461086357806381c811e7146108765780638507dc281461089c57600080fd5b80636f19951c1461073257806370a0823114610745578063715018a6146107585780637280281e1461076057600080fd5b806333ed28451161030a57806359c8b7dd1161029d578063613af03b1161026c578063613af03b146106e65780636352211e146106f9578063635490cc1461070c57806365b67eb91461071f57600080fd5b806359c8b7dd146106a55780635e2e3292146106ad5780635e94354a146106c05780635ea72f36146106d357600080fd5b806342966c68116102d957806342966c681461062f57806344ec9344146106425780634e60edba1461066257806351532e5a1461068557600080fd5b806333ed2845146105be57806338dcf74c146105d15780634182e4a3146105e457806342842e0e1461061c57600080fd5b80631d0d35f5116103825780632452cd91116103515780632452cd91146105465780632a55205a146105595780632f32f9371461058b57806330ffb1d6146105ab57600080fd5b80631d0d35f5146104b857806322e6d160146104e457806322f6da9c1461052057806323b872dd1461053357600080fd5b8063081812fc116103be578063081812fc14610455578063095ea7b3146104805780630fc499f51461049357806318160ddd146104a657600080fd5b806301ffc9a7146103f0578063064c0a3a1461041857806306fdde031461042d578063074334fb14610442575b600080fd5b6104036103fe366004614c6a565b610b64565b60405190151581526020015b60405180910390f35b61042b610426366004614d45565b610bdd565b005b610435610bfc565b60405161040f9190614e0a565b610403610450366004614e34565b610c8e565b610468610463366004614e83565b610d08565b6040516001600160a01b03909116815260200161040f565b61042b61048e366004614e9c565b610d4e565b61042b6104a1366004614ec8565b610e0c565b601e545b60405190815260200161040f565b6104036104c6366004614ec8565b6001600160a01b031660009081526002602052604090205460011490565b6104036104f2366004614ee5565b6001600160a01b03918216600090815260156020908152604080832093909416825291909152205460ff1690565b61042b61052e366004614f1e565b610e35565b61042b610541366004614f53565b610e50565b6104aa610554366004614fd8565b610e75565b61056c610567366004615065565b610ed7565b604080516001600160a01b03909316835260208301919091520161040f565b61059e610599366004615065565b610f0d565b60405161040f9190615087565b6104aa6105b93660046150a7565b610fbf565b61042b6105cc366004614e9c565b610fe8565b61042b6105df3660046150db565b6110b2565b6104036105f2366004614e9c565b6001600160a01b03919091166000908152600e602090815260408083209383529290522054151590565b61042b61062a366004614f53565b6110d7565b61042b61063d366004614e83565b6110f2565b610655610650366004614e83565b611101565b60405161040f919061515c565b6106756106703660046151bc565b611180565b60405161040f9493929190615223565b610698610693366004614e83565b61125d565b60405161040f9190615271565b6005546104aa565b6104356106bb3660046151bc565b6112f1565b6106986106ce366004614e83565b611394565b61042b6106e1366004614e9c565b6113fd565b61042b6106f4366004615284565b6114ba565b610468610707366004614e83565b6114f9565b61042b61071a3660046152dd565b611589565b61042b61072d36600461532c565b6116b4565b610655610740366004614e83565b6116c7565b6104aa610753366004614ec8565b611737565b61042b611795565b61069861076e366004614e83565b6117a9565b610815610781366004615368565b6040805160808082018352600080835260208084018290528385018290526060938401829052968152601a87528381206001600160a01b03968716825287528381206001600160401b03958616825287528390208351918201845280548086168352680100000000000000009004909416958101959095526001830154918501919091526002909101549091169082015290565b60405161040f919060006080820190506001600160401b0380845116835280602085015116602084015250604083015160408301526001600160a01b03606084015116606083015292915050565b61042b61087136600461539d565b611812565b7f0000000000000000000000000000000000000000000000000000000000000000610468565b61042b6108aa36600461539d565b6118e8565b610435611980565b6001546001600160a01b0316610468565b61043561198f565b6004546001600160a01b0316610468565b61042b6108ef366004615065565b61199e565b61042b610902366004614e83565b6119b2565b61042b61091536600461539d565b611a23565b61059e610928366004615065565b611ad1565b6104aa61093b366004615065565b611b47565b61042b61094e3660046153cb565b611b5d565b61042b610961366004615436565b611b7a565b610435610974366004614e83565b611b8f565b7f00000000000000000000000000000000000000000000000000000000000000006104aa565b61042b6109ad36600461545b565b611bc3565b61042b6109c03660046154a6565b611bd8565b6109fc6109d33660046151bc565b60009182526010602090815260408084206001600160401b039384168552909152909120541690565b6040516001600160401b03909116815260200161040f565b610468610a22366004614e83565b611bfd565b61042b610a35366004615065565b611c20565b61042b610a48366004615541565b611c34565b610403610a5b366004614ee5565b6001600160a01b039182166000908152600a6020908152604080832093909416825291909152205460ff1690565b610403610a97366004615580565b6000928352601b602090815260408085206001600160a01b0394909416855292815282842091845252902054151590565b61042b610ad6366004614ec8565b611c4a565b610aee610ae9366004614e83565b611c9b565b604080516001600160a01b039094168452602084019290925215159082015260600161040f565b61042b610b23366004614f1e565b611d1c565b6104356040518060400160405280600681526020017f302e32382e30000000000000000000000000000000000000000000000000000081525081565b6000610b6f82611d31565b80610ba357506001600160e01b031982167f06b4329a00000000000000000000000000000000000000000000000000000000145b80610bd757506001600160e01b031982167f28bc9ae400000000000000000000000000000000000000000000000000000000145b92915050565b82610be781611dcf565b610bf48686868686611e0f565b505050505050565b606060068054610c0b906155a7565b80601f0160208091040260200160405190810160405280929190818152602001828054610c37906155a7565b8015610c845780601f10610c5957610100808354040283529160200191610c84565b820191906000526020600020905b815481529060010190602001808311610c6757829003601f168201915b5050505050905090565b6001600160401b038083166000908152601860209081526040808320548416808452601c83528184206001600160a01b038a1685529092528220549192909181169084168103610cf9576000610ced86610ce7896117a9565b90612021565b9450610d009350505050565b6000925050505b949350505050565b6000610d138261208a565b600082815260096020526040812090610d2b846114f9565b6001600160a01b0390811682526020820192909252604001600020541692915050565b6000610d59826114f9565b9050806001600160a01b0316836001600160a01b031603610da6576040517f0591db6d00000000000000000000000000000000000000000000000000000000815260040160405180910390fd5b336001600160a01b03821614801590610dc65750610dc48133610a5b565b155b15610dfd576040517f982462b200000000000000000000000000000000000000000000000000000000815260040160405180910390fd5b610e0783836120c2565b505050565b610e1461213b565b600480546001600160a01b0319166001600160a01b03831617905550565b50565b82610e3f8161217f565b610e4a8484846121bf565b50505050565b80610e5a81611dcf565b610e4a8484846040518060200160405280600081525061222e565b6000610e7f61238d565b601f8054600101908190556040805160208086028281018201909352858252610eca93928a928a928a928a918a9182918501908490808284376000920191909152506123e592505050565b50601f5495945050505050565b6004546005546001600160a01b039091169060009061271090610efa90856155f7565b610f049190615624565b90509250929050565b604080518082019091526000808252602082015281610f2b846116c7565b5111610f63576040517fca7cc84a00000000000000000000000000000000000000000000000000000000815260040160405180910390fd5b6000838152600c60205260408120805484908110610f8357610f83615638565b60009182526020918290206040805180820190915260029092020180548252600101546001600160a01b03169181019190915291505092915050565b6000610fc961238d565b601f805460010190819055610fde90836124a5565b50601f545b919050565b610ff061213b565b6000826001600160a01b03168260405160006040518083038185875af1925050503d806000811461103d576040519150601f19603f3d011682016040523d82523d6000602084013e611042565b606091505b5050905080610e07576040517f08c379a000000000000000000000000000000000000000000000000000000000815260206004820152601060248201527f5472616e73666572206661696c65642e0000000000000000000000000000000060448201526064015b60405180910390fd5b80516110bd8161256b565b6110c56125ab565b6110ce826125ee565b50506001600055565b610e0783838360405180602001604052806000815250611b5d565b6110fd816000611b47565b5050565b6000818152600d60209081526040808320805482518185028101850190935280835260609493849084015b828210156111745760008481526020908190206040805180820190915260028502909101805482526001908101546001600160a01b031682840152908352909201910161112c565b50929695505050505050565b6060600080606061119186866112f1565b6001600160401b0380871660009081526018602090815260408083205460178352818420546019845293829020805483518186028101860190945280845291909516946001600160a01b03909416939283919083018282801561124557602002820191906000526020600020906000905b82829054906101000a90046001600160401b03166001600160401b0316815260200190600801906020826007010492830192600103820291508084116112025790505b50505050509050935093509350935092959194509250565b6000818152601260209081526040918290208054835181840281018401909452808452606093928301828280156112e557602002820191906000526020600020906000905b82829054906101000a90046001600160401b03166001600160401b0316815260200190600801906020826007010492830192600103820291508084116112a25790505b50505050509050919050565b606060006112ff84846129e5565b9050600061132d7f00000000000000000000000000000000000000000000000000000000000000008661564e565b90508060000361135a57507f00000000000000000000000000000000000000000000000000000000000000005b600061136582612aed565b9050828160405160200161137a929190615662565b604051602081830303815290604052935050505092915050565b6000818152601360209081526040918290208054835181840281018401909452808452606093928301828280156112e557600091825260209182902080546001600160401b031684529082028301929091600891018084116112a2575094979650505050505050565b6000611408826114f9565b9050806001600160a01b0316836001600160a01b03160361143c576040516375f45abd60e01b815260040160405180910390fd5b336001600160a01b0382161480159061147957506001600160a01b038116600090815260156020908152604080832033845290915290205460ff16155b156114b0576040517faf45d29200000000000000000000000000000000000000000000000000000000815260040160405180910390fd5b610e078383612b8c565b6114c261238d565b8260005b81811015610bf4576114f18686838181106114e3576114e3615638565b905060200201358585612c05565b6001016114c6565b60008060008061150885611c9b565b9250925092508015611580576040516331a9108f60e11b8152600481018390526001600160a01b03841690636352211e90602401602060405180830381865afa158015611559573d6000803e3d6000fd5b505050506040513d601f19601f8201168201806040525081019061157d9190615691565b92505b50909392505050565b6115928361208a565b33803b6115b25760405163b9d3114760e01b815260040160405180910390fd5b604080518082019091528381526001600160a01b038216602082015260006115d986611101565b5190506080811015611638576000868152600d60209081526040822080546001808201835591845292829020855160029094020192835590840151910180546001600160a01b0319166001600160a01b0390921691909117905561166a565b6040517fa53c8c0500000000000000000000000000000000000000000000000000000000815260040160405180910390fd5b84836001600160a01b0316877fe65085e689b77b126ba0bac3b079aa8288f19f4d5445af11c76003f8ab3075dd846040516116a791815260200190565b60405180910390a4610bf4565b6116bc61213b565b610e07838383612e2d565b6000818152600c602090815260408083208054825181850281018501909352808352606094938490840182156111745760008481526020908190206040805180820190915260028502909101805482526001908101546001600160a01b031682840152908352909201910161112c565b60006001600160a01b038216611779576040517f7772286600000000000000000000000000000000000000000000000000000000815260040160405180910390fd5b506001600160a01b031660009081526008602052604090205490565b61179d61213b565b6117a76000612ed9565b565b6000818152601160209081526040918290208054835181840281018401909452808452606093928301828280156112e557600091825260209182902080546001600160401b031684529082028301929091600891018084116112a2575094979650505050505050565b61181a61213b565b6001600160a01b03821661185a576040517fb5c0938000000000000000000000000000000000000000000000000000000000815260040160405180910390fd5b8061187f576001600160a01b038216600090815260026020526040812081905561189e565b6001600160a01b03821660009081526002602052604090206001908190555b50816001600160a01b03167f4b5657e84cf8a17ac5587bbeb3cc2bab9826c4c67b8bad81b4849de49d37aac2826040516118dc911515815260200190565b60405180910390a25050565b336001600160a01b0383168103611912576040516375f45abd60e01b815260040160405180910390fd5b6001600160a01b03818116600081815260156020908152604080832094881680845294825291829020805460ff191687151590811790915591519182527f0cff4fcf777050010027190b8061fd8bfd1de16d81b1f94e9752df1427a2623591015b60405180910390a3505050565b606060038054610c0b906155a7565b606060078054610c0b906155a7565b816119a88161256b565b610e078383612f2b565b7f0000000000000000000000000000000000000000000000000000000000000000601e5460016119e291906156ae565b1115611a1a576040517f79027f2f00000000000000000000000000000000000000000000000000000000815260040160405180910390fd5b610e3281612fb9565b6001600160a01b0382163303611a65576040517f2dee66e400000000000000000000000000000000000000000000000000000000815260040160405180910390fd5b336000818152600a602090815260408083206001600160a01b03871680855290835292819020805460ff191686151590811790915590519081529192917f17307eab39ab6107e8899845ad3d59bd9653f200f220920489ca2b5937696c31910160405180910390a35050565b604080518082019091526000808252602082015281611aef84611101565b5111611b27576040517fda22687f00000000000000000000000000000000000000000000000000000000815260040160405180910390fd5b6000838152600d60205260408120805484908110610f8357610f83615638565b600082611b5381611dcf565b610d008484613109565b81611b6781611dcf565b611b73858585856134a6565b5050505050565b82611b848161256b565b610e4a8484846134db565b6060601d611b9c83612aed565b604051602001611bad9291906156c1565b6040516020818303038152906040529050919050565b82611bcd8161217f565b610e4a8484846136b4565b87611be28161256b565b611bf28989898989898989613747565b505050505050505050565b6000611c088261208a565b600082815260166020526040812090610d2b846114f9565b81611c2a8161217f565b610e0783836137c8565b83611c3e8161256b565b611b73858585856138d9565b611c5261213b565b6001600160a01b038116611c92576040517f4ece6ecf00000000000000000000000000000000000000000000000000000000815260040160405180910390fd5b610e3281612ed9565b6000818152600b602090815260408083208151606081018352815481526001909101546001600160a01b038116938201849052600160a01b900460ff161515918101919091528291829190611d035760405163089ba7e160e41b815260040160405180910390fd5b6020810151815160409092015190969195509350915050565b82611d268161217f565b610e4a8484846139f8565b60006001600160e01b031982166301ffc9a760e01b1480611d7b57506001600160e01b031982167f80ac58cd00000000000000000000000000000000000000000000000000000000145b80611daf57506001600160e01b031982167f5b5e139f00000000000000000000000000000000000000000000000000000000145b80610bd757506001600160e01b031982166342b0e56f60e01b1492915050565b611dd93382613c38565b610e32576040517f8be7930600000000000000000000000000000000000000000000000000000000815260040160405180910390fd5b600080611e1b85611c9b565b5091509150866001600160a01b0316826001600160a01b031614611e525760405163e146af6f60e01b815260040160405180910390fd5b6001600160a01b038616611e79576040516338f646ff60e21b815260040160405180910390fd5b6001600160a01b03861630148015611e9057508385145b15611ec7576040517f3d76b10700000000000000000000000000000000000000000000000000000000815260040160405180910390fd5b6001600160a01b0386163b611eef5760405163b9d3114760e01b815260040160405180910390fd5b6040516301ffc9a760e01b81526342b0e56f60e01b60048201526001600160a01b038716906301ffc9a790602401602060405180830381865afa158015611f3a573d6000803e3d6000fd5b505050506040513d601f19601f82011682018060405250810190611f5e919061573f565b611f94576040517f5e13b1cc00000000000000000000000000000000000000000000000000000000815260040160405180910390fd5b611f9f858786613cdb565b6001600160a01b0387166000908152600860205260408120805460019290611fc890849061575c565b90915550611fdb90508585886001613dfe565b6001600160a01b03861660009081526008602052604081208054600192906120049084906156ae565b909155506120189050828783878988613e87565b50505050505050565b81516000908190815b8181101561207957846001600160401b031686828151811061204e5761204e615638565b60200260200101516001600160401b031603612071579250600191506120839050565b60010161202a565b5060008092509250505b9250929050565b6000818152600b60205260409020600101546001600160a01b0316610e325760405163089ba7e160e41b815260040160405180910390fd5b60006120cd826114f9565b60008381526009602090815260408083206001600160a01b038581168086529190935281842080546001600160a01b031916938916938417905590519394508593919290917f8c5be1e5ebec7d5bd14f71427d1e84f3dd0314c0f7b2291e5b200ac8c7c3b9259190a4505050565b6001546001600160a01b031633146117a7576040517f38c5ab1e00000000000000000000000000000000000000000000000000000000815260040160405180910390fd5b6121893382613fa1565b610e32576040517f5d64832900000000000000000000000000000000000000000000000000000000815260040160405180910390fd5b6121ca83838361401f565b6121d58383836140f9565b60008381526014602090815260408083206001600160401b0385168085529252808320805460ff1916905551909185917f1010837a46db9510cad56c9b63e97183557a136e9d4ddbec309ce52c99afb1249190a3505050565b60008061223a84611c9b565b5091509150856001600160a01b0316826001600160a01b0316146122715760405163e146af6f60e01b815260040160405180910390fd5b6001600160a01b038516612298576040516338f646ff60e21b815260040160405180910390fd5b6001600160a01b03861660009081526008602052604081208054600192906122c190849061575c565b909155506122d490508460008781613dfe565b6001600160a01b03851660009081526008602052604081208054600192906122fd9084906156ae565b909155505060405184906001600160a01b0380881691908916907fddf252ad1be2c89b69c2b068fc378daa952ba7f163c4a11628f55a4df523b3ef90600090a483856001600160a01b0316836001600160a01b03167f04444026cefd1b05506559cab59d1b865ae3ba4ed2fe5c894f04e522776c552d8460006040516116a7929190918252602082015260400190565b6001546001600160a01b031633148015906123ae57506123ac336104c6565b155b156117a7576040517f1eca167000000000000000000000000000000000000000000000000000000000815260040160405180910390fd5b6123ef85836124a5565b6001600160a01b0383161580156124065750805115155b1561243d576040517f206b5a0e00000000000000000000000000000000000000000000000000000000815260040160405180910390fd5b6001600160401b03858116600090815260176020908152604080832080546001600160a01b0319166001600160a01b03891617905560188252808320805467ffffffffffffffff191694891694909417909355601981529190208251610bf492840190614aa2565b6001600160401b0382166124cc576040516312c33ce360e01b815260040160405180910390fd5b6001600160401b0382166000908152600f6020526040812080546124ef906155a7565b90501115612510576040516308fe3c3160e41b815260040160405180910390fd5b6001600160401b0382166000908152600f6020526040902061253282826157b5565b506040516001600160401b038316907f3cd061096eaf881067d936308fbd8b81d060c45ab2ec910c02b953162befc10990600090a25050565b6125753382614147565b610e32576040517f2728a9d000000000000000000000000000000000000000000000000000000000815260040160405180910390fd5b6002600054036125e7576040517fc57fd5d200000000000000000000000000000000000000000000000000000000815260040160405180910390fd5b6002600055565b6040808201516001600160401b0390811660009081526017602090815283822054606086015186518452601a83528584206001600160a01b039283168086529084528685209582168552949092529390912060020154919290911615612680576040517fbd0650ab00000000000000000000000000000000000000000000000000000000815260040160405180910390fd5b61268e8360400151826141b3565b60006126a284600001518560200151610f0d565b6020810151815160808701516040517f074334fb00000000000000000000000000000000000000000000000000000000815230600482015260248101929092526001600160401b039081166044830152851660648201529192506001600160a01b03169063074334fb90608401602060405180830381865afa15801561272c573d6000803e3d6000fd5b505050506040513d601f19601f82011682018060405250810190612750919061573f565b612786576040517f2c36cd3300000000000000000000000000000000000000000000000000000000815260040160405180910390fd5b60208101516040517fdcb79d560000000000000000000000000000000000000000000000000000000081526001600160401b03841660048201526001600160a01b0391821660248201529084169063dcb79d5690604401602060405180830381865afa1580156127fa573d6000803e3d6000fd5b505050506040513d601f19601f8201168201806040525081019061281e919061573f565b612854576040517fe451dfea00000000000000000000000000000000000000000000000000000000815260040160405180910390fd5b6040805160808082018352868301516001600160401b0390811683529087015181166020808401918252855184860190815286820180516001600160a01b03908116606088019081528c516000908152601a86528981208d8416825286528981208c8916825286528981208951815498518a1668010000000000000000026fffffffffffffffffffffffffffffffff1990991699169890981796909617875592516001808801919091559251600290960180549682166001600160a01b0319909716969096179095558a518452601b8352868420905190941683529281528482208651835290529283208054929391929091906129529084906156ae565b92505081905550826001600160401b031685604001516001600160401b031686600001517f1f5de02b1d9c93ca468f54630e1daf13f6dc458a63f8061ff73e85bf9bc38884856000015186602001518a608001516040516129d8939291909283526001600160a01b039190911660208301526001600160401b0316604082015260600190565b60405180910390a4611b73565b60008281526014602090815260408083206001600160401b038516845290915290205460609060ff16612a44576040517fdcc947e800000000000000000000000000000000000000000000000000000000815260040160405180910390fd5b6001600160401b0382166000908152600f602052604090208054612a67906155a7565b80601f0160208091040260200160405190810160405280929190818152602001828054612a93906155a7565b8015612ae05780601f10612ab557610100808354040283529160200191612ae0565b820191906000526020600020905b815481529060010190602001808311612ac357829003601f168201915b5050505050905092915050565b60606000612afa8361426c565b60010190506000816001600160401b03811115612b1957612b19614ca3565b6040519080825280601f01601f191660200182016040528015612b43576020820181803683370190505b5090508181016020015b600019017f3031323334353637383961626364656600000000000000000000000000000000600a86061a8153600a8504945084612b4d57509392505050565b6000612b97826114f9565b60008381526016602090815260408083206001600160a01b038581168086529190935281842080546001600160a01b031916938916938417905590519394508593919290917fb90cc0d925ac3511ab6af2d7ca73ffcf7ec4bd871fff36b958ecf440079c463e9190a4505050565b60008381526014602090815260408083206001600160401b038616845290915290205460ff1615612c49576040516308fe3c3160e41b815260040160405180910390fd5b6001600160401b0382166000908152600f602052604081208054612c6c906155a7565b905003612ca5576040517f554bdff200000000000000000000000000000000000000000000000000000000815260040160405180910390fd5b600083815260126020526040902054608011612ced576040517fbade3a7b00000000000000000000000000000000000000000000000000000000815260040160405180910390fd5b60008381526014602090815260408083206001600160401b038681168086529184528285208054600160ff19909116811790915588865260128552928520805493840181558552929093206004820401805460039092166008026101000a808402199092169190930217909155811615612d9b5760008381526010602090815260408083206001600160401b0386811685529252909120805467ffffffffffffffff19169183169190911790555b604080516001808252818301909252600091602080830190803683370190505090508381600081518110612dd157612dd1615638565b602002602001018181525050816001600160401b0316836001600160401b03167f4a85a0221f784dbe75db7c29c422f474c15bde9211a98e50a30018fa8dfa937b83604051612e209190615874565b60405180910390a3610e4a565b6001600160401b0383161580612e4a57506001600160401b038116155b15612e68576040516312c33ce360e01b815260040160405180910390fd5b6001600160401b038381166000818152601c602090815260408083206001600160a01b03881680855290835292819020805467ffffffffffffffff19169587169586179055519182527f5b5af0622001a9b735a56357ddc1abd65e6a640126498674daf9d2fb051607259101611973565b600180546001600160a01b038381166001600160a01b0319831681179093556040519116919082907f8be0079c531659141344cd1fd0a4f28419497f9722a3daafe3b4186f6b6457e090600090a35050565b6000828152600d6020526040902054811015612f73576040517f3ce62f1600000000000000000000000000000000000000000000000000000000815260040160405180910390fd5b6000828152600d60205260408120612f8a91614b5a565b60405182907f8ac4a0d65950c3e40448afb2260e2e0ec36ea15644d9b39e37e85472e5f9445190600090a25050565b6000601e546001612fca91906156ae565b90506001601e6000828254612fdf91906156ae565b90915550506040516331a9108f60e11b8152600481018390526000907f00000000000000000000000000000000000000000000000000000000000000006001600160a01b031690636352211e90602401602060405180830381865afa15801561304c573d6000803e3d6000fd5b505050506040513d601f19601f820116820180604052508101906130709190615691565b9050336001600160a01b038216146130b4576040517f7f63f5f000000000000000000000000000000000000000000000000000000000815260040160405180910390fd5b6130ef7f000000000000000000000000000000000000000000000000000000000000000083856040518060200160405280600081525061434e565b6130fc8260016000612c05565b610e0782600060016139f8565b600080600061311785611c9b565b50915091506000613127866114f9565b6001600160a01b0384166000908152600860205260408120805492935060019290919061315590849061575c565b909155506131609050565b60408051602081019091526000905261317a6000876120c2565b61318386614437565b600061318e876116c7565b6000888152600c602052604081209192506131a99190614b5a565b6000878152600d602052604081206131c091614b5a565b60008781526009602090815260408083206001600160a01b0386168452909152812080546001600160a01b031916905581518190815b818110156133da578983106132845784818151811061321757613217615638565b60200260200101516020015185828151811061323557613235615638565b6020908102919091010151516040517f6177b2500000000000000000000000000000000000000000000000000000000081526001600160a01b03909216600483015260248201526044016110a9565b600e600086838151811061329a5761329a615638565b6020026020010151602001516001600160a01b03166001600160a01b0316815260200190815260200160002060008683815181106132da576132da615638565b602002602001015160000151815260200190815260200160002060009055828a03935084818151811061330f5761330f615638565b6020026020010151602001516001600160a01b031663b390c0ab86838151811061333b5761333b615638565b602002602001015160000151600187613354919061575c565b6040516001600160e01b031960e085901b168152600481019290925260248201526044016020604051808303816000875af1158015613397573d6000803e3d6000fd5b505050506040513d601f19601f820116820180604052508101906133bb91906158b8565b6133c69060016156ae565b6133d090846156ae565b92506001016131f6565b5060008a8152600b6020526040808220828155600101805474ffffffffffffffffffffffffffffffffffffffffff19169055518b91906001600160a01b038816907fddf252ad1be2c89b69c2b068fc378daa952ba7f163c4a11628f55a4df523b3ef908390a4604080518781526000602082018190528c9290916001600160a01b038b16917f04444026cefd1b05506559cab59d1b865ae3ba4ed2fe5c894f04e522776c552d910160405180910390a46040805160208101909152600090525098975050505050505050565b6134b28484848461222e565b6134be84848484614442565b610e4a5760405163bcb5663760e01b815260040160405180910390fd5b6001600160401b03808316600090815260176020908152604080832054878452601a83528184206001600160a01b039182168086529084528285208787168652845293829020825160808101845281548088168252680100000000000000009004909616938601939093526001830154918501919091526002909101541660608301819052909190613599576040517f5f79f75c00000000000000000000000000000000000000000000000000000000815260040160405180910390fd5b6000858152601a602090815260408083206001600160a01b0380871685529083528184206001600160401b0388168552835281842080546fffffffffffffffffffffffffffffffff191681556001808201869055600290910180546001600160a01b0319169055898552601b845282852060608701519092168552908352818420858301518552909252822080549192909161363690849061575c565b92505081905550826001600160401b0316846001600160401b0316867f438e039ebbba8f290f3b5d41aaf3295eccc9b5e6b0e1d52ace700772afb7da138460400151856060015186602001516040516129d8939291909283526001600160a01b039190911660208301526001600160401b0316604082015260600190565b600083815260116020526040902054819081146136fd576040517f6b037c3a00000000000000000000000000000000000000000000000000000000815260040160405180910390fd5b6000848152601360205260409020613716908484614b7b565b5060405184907ff0bfd70b0068f973d58178846ca67112671ec45e060838f7de5662036bcf801790600090a2610e4a565b816137ae576000888152601b602090815260408083206001600160a01b03881684528252808320868452909152902054156137ae576040517f1867727400000000000000000000000000000000000000000000000000000000815260040160405180910390fd5b6137be888888888888888861453e565b5050505050505050565b60008281526012602052604090205481811115613811576040517f5134ce8900000000000000000000000000000000000000000000000000000000815260040160405180910390fd5b60005b8181101561388f57600084815260126020526040812080548390811061383c5761383c615638565b6000918252602080832060048304015488845260108252604080852060039094166008026101000a9091046001600160401b031684529190529020805467ffffffffffffffff1916905550600101613814565b5060008381526012602052604081206138a791614bf7565b60405160009084907f1010837a46db9510cad56c9b63e97183557a136e9d4ddbec309ce52c99afb124908390a3505050565b60006138e58585611ad1565b90506138f2818484614751565b6001600160a01b0383166000908152600e602090815260408083208584529091529020541561394d576040517f188a497300000000000000000000000000000000000000000000000000000000815260040160405180910390fd5b6000858152600d6020526040902061396590856147ae565b6000858152600c6020908152604080832080546001808201835591855283852086516002909202019081558584015190820180546001600160a01b0319166001600160a01b039283161790558716808552600e8452828520878652845293829020555186815284929188917f29486b9e2ae569b440933a9b1b421467306fa21f3dcad439c262910a634963a991016129d8565b613a0383838361401f565b60008381526010602090815260408083206001600160401b03808616855292528220541690808215613adb57613ad58360116000898152602001908152602001600020805480602002602001604051908101604052809291908181526020018280548015613ac257602002820191906000526020600020906000905b82829054906101000a90046001600160401b03166001600160401b031681526020019060080190602082600701049283019260010382029150808411613a7f5790505b505050505061202190919063ffffffff16565b90925090505b8015613b5c576000868152601160205260409020805485919084908110613b0457613b04615638565b600091825260208083206004830401805460039093166008026101000a6001600160401b038181021990941695841602949094179093558882526014835260408083209187168352925220805460ff19169055613be7565b6000868152601360209081526040808320601183529083208054825460018181018555938652848620600480830490910180546001600160401b0394851660086003958616810261010090810a9283029288021990931691909117909255855496870186559488529587209085040180548b84169590921690950290920a9283029202191617905592505b613bf28686866140f9565b826001600160401b0316846001600160401b0316877f3f2709a99f6c06b4e57bbb38eb0134332f96f51a3da314f41a515adbb28b17cc60405160405180910390a4610bf4565b6000806000613c4684611c9b565b509150915080600014613c6957506001600160a01b038481169116149050610bd7565b816001600160a01b0316856001600160a01b03161480613cae57506001600160a01b038083166000908152600a602090815260408083209389168352929052205460ff165b80613cd25750846001600160a01b0316613cc785610d08565b6001600160a01b0316145b95945050505050565b60005b6064811015613dcb576000806000856001600160a01b031663fb25fb7a866040518263ffffffff1660e01b8152600401613d1a91815260200190565b606060405180830381865afa158015613d37573d6000803e3d6000fd5b505050506040513d601f19601f82011682018060405250810190613d5b91906158d1565b92509250925080613d6f5750505050505050565b6001600160a01b03831630148015613d8657508682145b15613dbd576040517f48a87cda00000000000000000000000000000000000000000000000000000000815260040160405180910390fd5b509093509150600101613cde565b506040517f6934d7a000000000000000000000000000000000000000000000000000000000815260040160405180910390fd5b604080516060810182528481526001600160a01b03808516602080840191825285151584860190815260008a8152600b9092529481209351845590516001909301805494511515600160a01b0274ffffffffffffffffffffffffffffffffffffffffff19909516939092169290921792909217909155613e7e90856120c2565b610e4a84614437565b6040517f635490cc00000000000000000000000000000000000000000000000000000000815285906001600160a01b0382169063635490cc90613ed290879087908790600401615914565b600060405180830381600087803b158015613eec57600080fd5b505af1158015613f00573d6000803e3d6000fd5b5050505082866001600160a01b0316886001600160a01b03167fddf252ad1be2c89b69c2b068fc378daa952ba7f163c4a11628f55a4df523b3ef60405160405180910390a482866001600160a01b0316886001600160a01b03167f04444026cefd1b05506559cab59d1b865ae3ba4ed2fe5c894f04e522776c552d8888604051613f94929190918252602082015260400190565b60405180910390a4612018565b600080613fad836114f9565b9050806001600160a01b0316846001600160a01b03161480613ff457506001600160a01b0380821660009081526015602090815260408083209388168352929052205460ff165b80610d005750836001600160a01b031661400d84611bfd565b6001600160a01b031614949350505050565b6000838152601260205260409020548210614066576040517f0757d52100000000000000000000000000000000000000000000000000000000815260040160405180910390fd5b600083815260126020526040902080548390811061408657614086615638565b90600052602060002090600491828204019190066008029054906101000a90046001600160401b03166001600160401b0316816001600160401b031614610e07576040517f78eeeecf00000000000000000000000000000000000000000000000000000000815260040160405180910390fd5b60008381526012602052604090206141119083614868565b60009283526010602090815260408085206001600160401b039093168552919052909120805467ffffffffffffffff1916905550565b600080614153836114f9565b9050806001600160a01b0316846001600160a01b0316148061419a57506001600160a01b038082166000908152600a602090815260408083209388168352929052205460ff165b80610d005750836001600160a01b031661400d84610d08565b6001600160401b03821660009081526019602090815260408083208054825181850281018501909352808352614232938693929190830182828015613ac257600091825260209182902080546001600160401b03168452908202830192909160089101808411613a7f579050505050505061202190919063ffffffff16565b91505080610e07576040517f4ef44ed500000000000000000000000000000000000000000000000000000000815260040160405180910390fd5b6000807a184f03e93ff9f4daa797ed6e38ed64bf6a1f01000000000000000083106142b5577a184f03e93ff9f4daa797ed6e38ed64bf6a1f010000000000000000830492506040015b6d04ee2d6d415b85acef810000000083106142e1576d04ee2d6d415b85acef8100000000830492506020015b662386f26fc1000083106142ff57662386f26fc10000830492506010015b6305f5e1008310614317576305f5e100830492506008015b612710831061432b57612710830492506004015b6064831061433d576064830492506002015b600a8310610bd75760010192915050565b6001600160a01b0384163b6143765760405163b9d3114760e01b815260040160405180910390fd5b6040516301ffc9a760e01b81526342b0e56f60e01b60048201526001600160a01b038516906301ffc9a790602401602060405180830381865afa1580156143c1573d6000803e3d6000fd5b505050506040513d601f19601f820116820180604052508101906143e5919061573f565b61441b576040517ffbd5d8b900000000000000000000000000000000000000000000000000000000815260040160405180910390fd5b6144278484848461494e565b610e4a6000856000858786613e87565b610e32600082612b8c565b60006001600160a01b0384163b1561453657604051630a85bd0160e11b81526001600160a01b0385169063150b7a0290614486903390899088908890600401615933565b6020604051808303816000875af19250505080156144c1575060408051601f3d908101601f191682019092526144be9181019061596f565b60015b61451c573d8080156144ef576040519150601f19603f3d011682016040523d82523d6000602084013e6144f4565b606091505b5080516145145760405163bcb5663760e01b815260040160405180910390fd5b805181602001fd5b6001600160e01b031916630a85bd0160e11b149050610d00565b506001610d00565b60408051808201909152600080825260208201528215614569576145628987611ad1565b9050614576565b6145738987610f0d565b90505b614581818686614751565b82156145a4576000898152600d6020526040902061459f90876147ae565b6145de565b6001600160a01b0385166000908152600e6020908152604080832087845282528083208390558b8352600c90915290206145de90876147ae565b6001600160a01b038816156146fa5786614674576040517fb88d4fde0000000000000000000000000000000000000000000000000000000081526001600160a01b0386169063b88d4fde9061463d9030908c9089908890600401615933565b600060405180830381600087803b15801561465757600080fd5b505af115801561466b573d6000803e3d6000fd5b505050506146fa565b602081015181516040517f064c0a3a0000000000000000000000000000000000000000000000000000000081526001600160a01b039092169163064c0a3a916146c79130918d918d90899060040161598c565b600060405180830381600087803b1580156146e157600080fd5b505af11580156146f5573d6000803e3d6000fd5b505050505b6040805187815284151560208201526001600160a01b038a81161582840152915186928816918c917f02d6d6dbcb604d5e1e8c7886456e82a9cdce88b0a580071358f206b5a4d58f709181900360600190a4611bf2565b82602001516001600160a01b0316826001600160a01b0316141580614777575082518114155b15610e07576040517fe707e58200000000000000000000000000000000000000000000000000000000815260040160405180910390fd5b815482906147be9060019061575c565b815481106147ce576147ce615638565b90600052602060002090600202018282815481106147ee576147ee615638565b600091825260209091208254600290920201908155600191820154910180546001600160a01b0319166001600160a01b039092169190911790558154829080614839576148396159c4565b60008281526020812060026000199093019283020190815560010180546001600160a01b031916905590555050565b8154811061487557600080fd5b815482906148859060019061575c565b8154811061489557614895615638565b90600052602060002090600491828204019190066008029054906101000a90046001600160401b03168282815481106148d0576148d0615638565b90600052602060002090600491828204019190066008026101000a8154816001600160401b0302191690836001600160401b0316021790555081805480614919576149196159c4565b60008281526020902060046000199092019182040180546001600160401b03600860038516026101000a021916905590555050565b6001600160a01b03841661498e576040517f25bd6bd300000000000000000000000000000000000000000000000000000000815260040160405180910390fd5b6000838152600b60205260409020600101546001600160a01b0316156149e0576040517fc5a8d37100000000000000000000000000000000000000000000000000000000815260040160405180910390fd5b826149fe576040516312c33ce360e01b815260040160405180910390fd5b6001600160a01b0384166000908152600860205260408120805460019290614a279084906156ae565b9091555050604080516060810182528381526001600160a01b0395861660208083019182529415158284019081526000968752600b9095529190942093518455516001909301805492511515600160a01b0274ffffffffffffffffffffffffffffffffffffffffff1990931693909416929092171790915550565b82805482825590600052602060002090600301600490048101928215614b4a5791602002820160005b83821115614b1557835183826101000a8154816001600160401b0302191690836001600160401b031602179055509260200192600801602081600701049283019260010302614acb565b8015614b485782816101000a8154906001600160401b030219169055600801602081600701049283019260010302614b15565b505b50614b56929150614c18565b5090565b5080546000825560020290600052602060002090810190610e329190614c2d565b82805482825590600052602060002090600301600490048101928215614b4a5791602002820160005b83821115614b155783356001600160401b031683826101000a8154816001600160401b0302191690836001600160401b031602179055509260200192600801602081600701049283019260010302614ba4565b508054600082556003016004900490600052602060002090810190610e3291905b5b80821115614b565760008155600101614c19565b5b80821115614b5657600081556001810180546001600160a01b0319169055600201614c2e565b6001600160e01b031981168114610e3257600080fd5b600060208284031215614c7c57600080fd5b8135614c8781614c54565b9392505050565b6001600160a01b0381168114610e3257600080fd5b634e487b7160e01b600052604160045260246000fd5b600082601f830112614cca57600080fd5b81356001600160401b0380821115614ce457614ce4614ca3565b604051601f8301601f19908116603f01168101908282118183101715614d0c57614d0c614ca3565b81604052838152866020858801011115614d2557600080fd5b836020870160208301376000602085830101528094505050505092915050565b600080600080600060a08688031215614d5d57600080fd5b8535614d6881614c8e565b94506020860135614d7881614c8e565b9350604086013592506060860135915060808601356001600160401b03811115614da157600080fd5b614dad88828901614cb9565b9150509295509295909350565b60005b83811015614dd5578181015183820152602001614dbd565b50506000910152565b60008151808452614df6816020860160208601614dba565b601f01601f19169290920160200192915050565b602081526000614c876020830184614dde565b80356001600160401b0381168114610fe357600080fd5b60008060008060808587031215614e4a57600080fd5b8435614e5581614c8e565b935060208501359250614e6a60408601614e1d565b9150614e7860608601614e1d565b905092959194509250565b600060208284031215614e9557600080fd5b5035919050565b60008060408385031215614eaf57600080fd5b8235614eba81614c8e565b946020939093013593505050565b600060208284031215614eda57600080fd5b8135614c8781614c8e565b60008060408385031215614ef857600080fd5b8235614f0381614c8e565b91506020830135614f1381614c8e565b809150509250929050565b600080600060608486031215614f3357600080fd5b8335925060208401359150614f4a60408501614e1d565b90509250925092565b600080600060608486031215614f6857600080fd5b8335614f7381614c8e565b92506020840135614f8381614c8e565b929592945050506040919091013590565b60008083601f840112614fa657600080fd5b5081356001600160401b03811115614fbd57600080fd5b6020830191508360208260051b850101111561208357600080fd5b600080600080600060808688031215614ff057600080fd5b614ff986614e1d565b9450602086013561500981614c8e565b935060408601356001600160401b038082111561502557600080fd5b61503189838a01614cb9565b9450606088013591508082111561504757600080fd5b5061505488828901614f94565b969995985093965092949392505050565b6000806040838503121561507857600080fd5b50508035926020909101359150565b815181526020808301516001600160a01b03169082015260408101610bd7565b6000602082840312156150b957600080fd5b81356001600160401b038111156150cf57600080fd5b610d0084828501614cb9565b600060a082840312156150ed57600080fd5b60405160a081018181106001600160401b038211171561510f5761510f614ca3565b8060405250823581526020830135602082015261512e60408401614e1d565b604082015261513f60608401614e1d565b606082015261515060808401614e1d565b60808201529392505050565b602080825282518282018190526000919060409081850190868401855b828110156151af5761519f848351805182526020908101516001600160a01b0316910152565b9284019290850190600101615179565b5091979650505050505050565b600080604083850312156151cf57600080fd5b82359150610f0460208401614e1d565b600081518084526020808501945080840160005b838110156152185781516001600160401b0316875295820195908201906001016151f3565b509495945050505050565b6080815260006152366080830187614dde565b6001600160401b03861660208401526001600160a01b0385166040840152828103606084015261526681856151df565b979650505050505050565b602081526000614c8760208301846151df565b6000806000806060858703121561529a57600080fd5b84356001600160401b038111156152b057600080fd5b6152bc87828801614f94565b90955093506152cf905060208601614e1d565b9150614e7860408601614e1d565b6000806000606084860312156152f257600080fd5b833592506020840135915060408401356001600160401b0381111561531657600080fd5b61532286828701614cb9565b9150509250925092565b60008060006060848603121561534157600080fd5b61534a84614e1d565b9250602084013561535a81614c8e565b9150614f4a60408501614e1d565b60008060006060848603121561537d57600080fd5b83359250602084013561535a81614c8e565b8015158114610e3257600080fd5b600080604083850312156153b057600080fd5b82356153bb81614c8e565b91506020830135614f138161538f565b600080600080608085870312156153e157600080fd5b84356153ec81614c8e565b935060208501356153fc81614c8e565b92506040850135915060608501356001600160401b0381111561541e57600080fd5b61542a87828801614cb9565b91505092959194509250565b60008060006060848603121561544b57600080fd5b8335925061535a60208501614e1d565b60008060006040848603121561547057600080fd5b8335925060208401356001600160401b0381111561548d57600080fd5b61549986828701614f94565b9497909650939450505050565b600080600080600080600080610100898b0312156154c357600080fd5b8835975060208901356154d581614c8e565b9650604089013595506060890135945060808901356154f381614c8e565b935060a0890135925060c089013561550a8161538f565b915060e08901356001600160401b0381111561552557600080fd5b6155318b828c01614cb9565b9150509295985092959890939650565b6000806000806080858703121561555757600080fd5b8435935060208501359250604085013561557081614c8e565b9396929550929360600135925050565b60008060006060848603121561559557600080fd5b833592506020840135614f8381614c8e565b600181811c908216806155bb57607f821691505b6020821081036155db57634e487b7160e01b600052602260045260246000fd5b50919050565b634e487b7160e01b600052601160045260246000fd5b8082028115828204841417610bd757610bd76155e1565b634e487b7160e01b600052601260045260246000fd5b6000826156335761563361560e565b500490565b634e487b7160e01b600052603260045260246000fd5b60008261565d5761565d61560e565b500690565b60008351615674818460208801614dba565b835190830190615688818360208801614dba565b01949350505050565b6000602082840312156156a357600080fd5b8151614c8781614c8e565b80820180821115610bd757610bd76155e1565b60008084546156cf816155a7565b600182811680156156e757600181146156fc5761572b565b60ff198416875282151583028701945061572b565b8860005260208060002060005b858110156157225781548a820152908401908201615709565b50505082870194505b505050508351615688818360208801614dba565b60006020828403121561575157600080fd5b8151614c878161538f565b81810381811115610bd757610bd76155e1565b601f821115610e0757600081815260208120601f850160051c810160208610156157965750805b601f850160051c820191505b81811015610bf4578281556001016157a2565b81516001600160401b038111156157ce576157ce614ca3565b6157e2816157dc84546155a7565b8461576f565b602080601f83116001811461581757600084156157ff5750858301515b600019600386901b1c1916600185901b178555610bf4565b600085815260208120601f198616915b8281101561584657888601518255948401946001909101908401615827565b50858210156158645787850151600019600388901b60f8161c191681555b5050505050600190811b01905550565b6020808252825182820181905260009190848201906040850190845b818110156158ac57835183529284019291840191600101615890565b50909695505050505050565b6000602082840312156158ca57600080fd5b5051919050565b6000806000606084860312156158e657600080fd5b83516158f181614c8e565b6020850151604086015191945092506159098161538f565b809150509250925092565b838152826020820152606060408201526000613cd26060830184614dde565b60006001600160a01b038087168352808616602084015250836040830152608060608301526159656080830184614dde565b9695505050505050565b60006020828403121561598157600080fd5b8151614c8781614c54565b60006001600160a01b03808816835280871660208401525084604083015283606083015260a0608083015261526660a0830184614dde565b634e487b7160e01b600052603160045260246000fdfea26469706673582212202456bd6079c98d203572023aa61b3afb6c6a7d8883e7087d672fe865f30fdac564736f6c63430008120033",
  "linkReferences": {},
  "deployedLinkReferences": {}
}