{
  "_format": "hh-sol-artifact-1",
  "contractName": "Lemon",
  "sourceName": "contracts/Lemon.sol",
  "abi": [
    {
      "inputs": [
        {
          "internalType": "string",
          "name": "collectionMetadata_",
          "type": "string"
        },
        {
          "internalType": "string",
          "name": "defaultTokenUri",
          "type": "string"
        }
      ],
      "stateMutability": "nonpayable",
      "type": "constructor"
    },
    {
      "inputs": [],
      "name": "ERC721AddressZeroIsNotaValidOwner",
      "type": "error"
    },
    {
      "inputs": [],
      "name": "ERC721ApprovalToCurrentOwner",
      "type": "error"
    },
    {
      "inputs": [],
      "name": "ERC721ApproveCallerIsNotOwnerNorApprovedForAll",
      "type": "error"
    },
    {
      "inputs": [],
      "name": "ERC721ApproveToCaller",
      "type": "error"
    },
    {
      "inputs": [],
      "name": "ERC721InvalidTokenId",
      "type": "error"
    },
    {
      "inputs": [],
      "name": "ERC721MintToTheZeroAddress",
      "type": "error"
    },
    {
      "inputs": [],
      "name": "ERC721NotApprovedOrOwner",
      "type": "error"
    },
    {
      "inputs": [],
      "name": "ERC721TokenAlreadyMinted",
      "type": "error"
    },
    {
      "inputs": [],
      "name": "ERC721TransferFromIncorrectOwner",
      "type": "error"
    },
    {
      "inputs": [],
      "name": "ERC721TransferToNonReceiverImplementer",
      "type": "error"
    },
    {
      "inputs": [],
      "name": "ERC721TransferToTheZeroAddress",
      "type": "error"
    },
    {
      "inputs": [],
      "name": "MintOverMax",
      "type": "error"
    },
    {
      "inputs": [],
      "name": "MintUnderpriced",
      "type": "error"
    },
    {
      "inputs": [],
      "name": "MintZero",
      "type": "error"
    },
    {
      "inputs": [],
      "name": "RMRKApprovalForAssetsToCurrentOwner",
      "type": "error"
    },
    {
      "inputs": [],
      "name": "RMRKApproveForAssetsCallerIsNotOwnerNorApprovedForAll",
      "type": "error"
    },
    {
      "inputs": [],
      "name": "RMRKAssetAlreadyExists",
      "type": "error"
    },
    {
      "inputs": [],
      "name": "RMRKBadPriorityListLength",
      "type": "error"
    },
    {
      "inputs": [],
      "name": "RMRKCatalogRequiredForParts",
      "type": "error"
    },
    {
      "inputs": [],
      "name": "RMRKChildAlreadyExists",
      "type": "error"
    },
    {
      "inputs": [],
      "name": "RMRKChildIndexOutOfRange",
      "type": "error"
    },
    {
      "inputs": [],
      "name": "RMRKEquippableEquipNotAllowedByCatalog",
      "type": "error"
    },
    {
      "inputs": [],
      "name": "RMRKIdZeroForbidden",
      "type": "error"
    },
    {
      "inputs": [],
      "name": "RMRKIndexOutOfRange",
      "type": "error"
    },
    {
      "inputs": [],
      "name": "RMRKIsNotContract",
      "type": "error"
    },
    {
      "inputs": [],
      "name": "RMRKMaxPendingAssetsReached",
      "type": "error"
    },
    {
      "inputs": [],
      "name": "RMRKMaxPendingChildrenReached",
      "type": "error"
    },
    {
      "inputs": [
        {
          "internalType": "address",
          "name": "childContract",
          "type": "address"
        },
        {
          "internalType": "uint256",
          "name": "childId",
          "type": "uint256"
        }
      ],
      "name": "RMRKMaxRecursiveBurnsReached",
      "type": "error"
    },
    {
      "inputs": [],
      "name": "RMRKMustUnequipFirst",
      "type": "error"
    },
    {
      "inputs": [],
      "name": "RMRKNestableTooDeep",
      "type": "error"
    },
    {
      "inputs": [],
      "name": "RMRKNestableTransferToDescendant",
      "type": "error"
    },
    {
      "inputs": [],
      "name": "RMRKNestableTransferToNonRMRKNestableImplementer",
      "type": "error"
    },
    {
      "inputs": [],
      "name": "RMRKNestableTransferToSelf",
      "type": "error"
    },
    {
      "inputs": [],
      "name": "RMRKNewContributorIsZeroAddress",
      "type": "error"
    },
    {
      "inputs": [],
      "name": "RMRKNewOwnerIsZeroAddress",
      "type": "error"
    },
    {
      "inputs": [],
      "name": "RMRKNoAssetMatchingId",
      "type": "error"
    },
    {
      "inputs": [],
      "name": "RMRKNotApprovedForAssetsOrOwner",
      "type": "error"
    },
    {
      "inputs": [],
      "name": "RMRKNotApprovedOrDirectOwner",
      "type": "error"
    },
    {
      "inputs": [],
      "name": "RMRKNotEquipped",
      "type": "error"
    },
    {
      "inputs": [],
      "name": "RMRKNotOwner",
      "type": "error"
    },
    {
      "inputs": [],
      "name": "RMRKNotOwnerOrContributor",
      "type": "error"
    },
    {
      "inputs": [],
      "name": "RMRKPendingChildIndexOutOfRange",
      "type": "error"
    },
    {
      "inputs": [],
      "name": "RMRKRoyaltiesTooHigh",
      "type": "error"
    },
    {
      "inputs": [],
      "name": "RMRKSlotAlreadyUsed",
      "type": "error"
    },
    {
      "inputs": [],
      "name": "RMRKTargetAssetCannotReceiveSlot",
      "type": "error"
    },
    {
      "inputs": [],
      "name": "RMRKTokenCannotBeEquippedWithAssetIntoSlot",
      "type": "error"
    },
    {
      "inputs": [],
      "name": "RMRKTokenDoesNotHaveAsset",
      "type": "error"
    },
    {
      "inputs": [],
      "name": "RMRKUnexpectedAssetId",
      "type": "error"
    },
    {
      "inputs": [],
      "name": "RMRKUnexpectedChildId",
      "type": "error"
    },
    {
      "inputs": [],
      "name": "RMRKUnexpectedNumberOfAssets",
      "type": "error"
    },
    {
      "inputs": [],
      "name": "RMRKUnexpectedNumberOfChildren",
      "type": "error"
    },
    {
      "inputs": [],
      "name": "RentrantCall",
      "type": "error"
    },
    {
      "anonymous": false,
      "inputs": [
        {
          "indexed": true,
          "internalType": "uint256",
          "name": "tokenId",
          "type": "uint256"
        }
      ],
      "name": "AllChildrenRejected",
      "type": "event"
    },
    {
      "anonymous": false,
      "inputs": [
        {
          "indexed": true,
          "internalType": "address",
          "name": "owner",
          "type": "address"
        },
        {
          "indexed": true,
          "internalType": "address",
          "name": "approved",
          "type": "address"
        },
        {
          "indexed": true,
          "internalType": "uint256",
          "name": "tokenId",
          "type": "uint256"
        }
      ],
      "name": "Approval",
      "type": "event"
    },
    {
      "anonymous": false,
      "inputs": [
        {
          "indexed": true,
          "internalType": "address",
          "name": "owner",
          "type": "address"
        },
        {
          "indexed": true,
          "internalType": "address",
          "name": "operator",
          "type": "address"
        },
        {
          "indexed": false,
          "internalType": "bool",
          "name": "approved",
          "type": "bool"
        }
      ],
      "name": "ApprovalForAll",
      "type": "event"
    },
    {
      "anonymous": false,
      "inputs": [
        {
          "indexed": true,
          "internalType": "address",
          "name": "owner",
          "type": "address"
        },
        {
          "indexed": true,
          "internalType": "address",
          "name": "operator",
          "type": "address"
        },
        {
          "indexed": false,
          "internalType": "bool",
          "name": "approved",
          "type": "bool"
        }
      ],
      "name": "ApprovalForAllForAssets",
      "type": "event"
    },
    {
      "anonymous": false,
      "inputs": [
        {
          "indexed": true,
          "internalType": "address",
          "name": "owner",
          "type": "address"
        },
        {
          "indexed": true,
          "internalType": "address",
          "name": "approved",
          "type": "address"
        },
        {
          "indexed": true,
          "internalType": "uint256",
          "name": "tokenId",
          "type": "uint256"
        }
      ],
      "name": "ApprovalForAssets",
      "type": "event"
    },
    {
      "anonymous": false,
      "inputs": [
        {
          "indexed": true,
          "internalType": "uint256",
          "name": "tokenId",
          "type": "uint256"
        },
        {
          "indexed": true,
          "internalType": "uint64",
          "name": "assetId",
          "type": "uint64"
        },
        {
          "indexed": true,
          "internalType": "uint64",
          "name": "replacesId",
          "type": "uint64"
        }
      ],
      "name": "AssetAccepted",
      "type": "event"
    },
    {
      "anonymous": false,
      "inputs": [
        {
          "indexed": false,
          "internalType": "uint256[]",
          "name": "tokenIds",
          "type": "uint256[]"
        },
        {
          "indexed": true,
          "internalType": "uint64",
          "name": "assetId",
          "type": "uint64"
        },
        {
          "indexed": true,
          "internalType": "uint64",
          "name": "replacesId",
          "type": "uint64"
        }
      ],
      "name": "AssetAddedToTokens",
      "type": "event"
    },
    {
      "anonymous": false,
      "inputs": [
        {
          "indexed": true,
          "internalType": "uint256",
          "name": "tokenId",
          "type": "uint256"
        }
      ],
      "name": "AssetPrioritySet",
      "type": "event"
    },
    {
      "anonymous": false,
      "inputs": [
        {
          "indexed": true,
          "internalType": "uint256",
          "name": "tokenId",
          "type": "uint256"
        },
        {
          "indexed": true,
          "internalType": "uint64",
          "name": "assetId",
          "type": "uint64"
        }
      ],
      "name": "AssetRejected",
      "type": "event"
    },
    {
      "anonymous": false,
      "inputs": [
        {
          "indexed": true,
          "internalType": "uint64",
          "name": "assetId",
          "type": "uint64"
        }
      ],
      "name": "AssetSet",
      "type": "event"
    },
    {
      "anonymous": false,
      "inputs": [
        {
          "indexed": true,
          "internalType": "uint256",
          "name": "tokenId",
          "type": "uint256"
        },
        {
          "indexed": false,
          "internalType": "uint256",
          "name": "childIndex",
          "type": "uint256"
        },
        {
          "indexed": true,
          "internalType": "address",
          "name": "childAddress",
          "type": "address"
        },
        {
          "indexed": true,
          "internalType": "uint256",
          "name": "childId",
          "type": "uint256"
        }
      ],
      "name": "ChildAccepted",
      "type": "event"
    },
    {
      "anonymous": false,
      "inputs": [
        {
          "indexed": true,
          "internalType": "uint256",
          "name": "tokenId",
          "type": "uint256"
        },
        {
          "indexed": true,
          "internalType": "uint64",
          "name": "assetId",
          "type": "uint64"
        },
        {
          "indexed": true,
          "internalType": "uint64",
          "name": "slotPartId",
          "type": "uint64"
        },
        {
          "indexed": false,
          "internalType": "uint256",
          "name": "childId",
          "type": "uint256"
        },
        {
          "indexed": false,
          "internalType": "address",
          "name": "childAddress",
          "type": "address"
        },
        {
          "indexed": false,
          "internalType": "uint64",
          "name": "childAssetId",
          "type": "uint64"
        }
      ],
      "name": "ChildAssetEquipped",
      "type": "event"
    },
    {
      "anonymous": false,
      "inputs": [
        {
          "indexed": true,
          "internalType": "uint256",
          "name": "tokenId",
          "type": "uint256"
        },
        {
          "indexed": true,
          "internalType": "uint64",
          "name": "assetId",
          "type": "uint64"
        },
        {
          "indexed": true,
          "internalType": "uint64",
          "name": "slotPartId",
          "type": "uint64"
        },
        {
          "indexed": false,
          "internalType": "uint256",
          "name": "childId",
          "type": "uint256"
        },
        {
          "indexed": false,
          "internalType": "address",
          "name": "childAddress",
          "type": "address"
        },
        {
          "indexed": false,
          "internalType": "uint64",
          "name": "childAssetId",
          "type": "uint64"
        }
      ],
      "name": "ChildAssetUnequipped",
      "type": "event"
    },
    {
      "anonymous": false,
      "inputs": [
        {
          "indexed": true,
          "internalType": "uint256",
          "name": "tokenId",
          "type": "uint256"
        },
        {
          "indexed": false,
          "internalType": "uint256",
          "name": "childIndex",
          "type": "uint256"
        },
        {
          "indexed": true,
          "internalType": "address",
          "name": "childAddress",
          "type": "address"
        },
        {
          "indexed": true,
          "internalType": "uint256",
          "name": "childId",
          "type": "uint256"
        }
      ],
      "name": "ChildProposed",
      "type": "event"
    },
    {
      "anonymous": false,
      "inputs": [
        {
          "indexed": true,
          "internalType": "uint256",
          "name": "tokenId",
          "type": "uint256"
        },
        {
          "indexed": false,
          "internalType": "uint256",
          "name": "childIndex",
          "type": "uint256"
        },
        {
          "indexed": true,
          "internalType": "address",
          "name": "childAddress",
          "type": "address"
        },
        {
          "indexed": true,
          "internalType": "uint256",
          "name": "childId",
          "type": "uint256"
        },
        {
          "indexed": false,
          "internalType": "bool",
          "name": "fromPending",
          "type": "bool"
        },
        {
          "indexed": false,
          "internalType": "bool",
          "name": "toZero",
          "type": "bool"
        }
      ],
      "name": "ChildTransferred",
      "type": "event"
    },
    {
      "anonymous": false,
      "inputs": [
        {
          "indexed": true,
          "internalType": "address",
          "name": "contributor",
          "type": "address"
        },
        {
          "indexed": false,
          "internalType": "bool",
          "name": "isContributor",
          "type": "bool"
        }
      ],
      "name": "ContributorUpdate",
      "type": "event"
    },
    {
      "anonymous": false,
      "inputs": [
        {
          "indexed": true,
          "internalType": "address",
          "name": "buyer",
          "type": "address"
        },
        {
          "indexed": true,
          "internalType": "uint256",
          "name": "from",
          "type": "uint256"
        },
        {
          "indexed": true,
          "internalType": "uint256",
          "name": "to",
          "type": "uint256"
        }
      ],
      "name": "Minted",
      "type": "event"
    },
    {
      "anonymous": false,
      "inputs": [
        {
          "indexed": true,
          "internalType": "address",
          "name": "from",
          "type": "address"
        },
        {
          "indexed": true,
          "internalType": "address",
          "name": "to",
          "type": "address"
        },
        {
          "indexed": false,
          "internalType": "uint256",
          "name": "fromTokenId",
          "type": "uint256"
        },
        {
          "indexed": false,
          "internalType": "uint256",
          "name": "toTokenId",
          "type": "uint256"
        },
        {
          "indexed": true,
          "internalType": "uint256",
          "name": "tokenId",
          "type": "uint256"
        }
      ],
      "name": "NestTransfer",
      "type": "event"
    },
    {
      "anonymous": false,
      "inputs": [
        {
          "indexed": true,
          "internalType": "address",
          "name": "previousOwner",
          "type": "address"
        },
        {
          "indexed": true,
          "internalType": "address",
          "name": "newOwner",
          "type": "address"
        }
      ],
      "name": "OwnershipTransferred",
      "type": "event"
    },
    {
      "anonymous": false,
      "inputs": [
        {
          "indexed": true,
          "internalType": "address",
          "name": "from",
          "type": "address"
        },
        {
          "indexed": true,
          "internalType": "address",
          "name": "to",
          "type": "address"
        },
        {
          "indexed": true,
          "internalType": "uint256",
          "name": "tokenId",
          "type": "uint256"
        }
      ],
      "name": "Transfer",
      "type": "event"
    },
    {
      "anonymous": false,
      "inputs": [
        {
          "indexed": true,
          "internalType": "uint64",
          "name": "equippableGroupId",
          "type": "uint64"
        },
        {
          "indexed": true,
          "internalType": "uint64",
          "name": "slotPartId",
          "type": "uint64"
        },
        {
          "indexed": false,
          "internalType": "address",
          "name": "parentAddress",
          "type": "address"
        }
      ],
      "name": "ValidParentEquippableGroupIdSet",
      "type": "event"
    },
    {
      "inputs": [],
      "name": "VERSION",
      "outputs": [
        {
          "internalType": "string",
          "name": "",
          "type": "string"
        }
      ],
      "stateMutability": "view",
      "type": "function"
    },
    {
      "inputs": [
        {
          "internalType": "uint256",
          "name": "tokenId",
          "type": "uint256"
        },
        {
          "internalType": "uint256",
          "name": "index",
          "type": "uint256"
        },
        {
          "internalType": "uint64",
          "name": "assetId",
          "type": "uint64"
        }
      ],
      "name": "acceptAsset",
      "outputs": [],
      "stateMutability": "nonpayable",
      "type": "function"
    },
    {
      "inputs": [
        {
          "internalType": "uint256",
          "name": "parentId",
          "type": "uint256"
        },
        {
          "internalType": "uint256",
          "name": "childIndex",
          "type": "uint256"
        },
        {
          "internalType": "address",
          "name": "childAddress",
          "type": "address"
        },
        {
          "internalType": "uint256",
          "name": "childId",
          "type": "uint256"
        }
      ],
      "name": "acceptChild",
      "outputs": [],
      "stateMutability": "nonpayable",
      "type": "function"
    },
    {
      "inputs": [
        {
          "internalType": "string",
          "name": "metadataURI",
          "type": "string"
        }
      ],
      "name": "addAssetEntry",
      "outputs": [
        {
          "internalType": "uint256",
          "name": "",
          "type": "uint256"
        }
      ],
      "stateMutability": "nonpayable",
      "type": "function"
    },
    {
      "inputs": [
        {
          "internalType": "uint256",
          "name": "tokenId",
          "type": "uint256"
        },
        {
          "internalType": "uint64",
          "name": "assetId",
          "type": "uint64"
        },
        {
          "internalType": "uint64",
          "name": "replacesAssetWithId",
          "type": "uint64"
        }
      ],
      "name": "addAssetToToken",
      "outputs": [],
      "stateMutability": "nonpayable",
      "type": "function"
    },
    {
      "inputs": [
        {
          "internalType": "uint256",
          "name": "parentId",
          "type": "uint256"
        },
        {
          "internalType": "uint256",
          "name": "childId",
          "type": "uint256"
        },
        {
          "internalType": "bytes",
          "name": "data",
          "type": "bytes"
        }
      ],
      "name": "addChild",
      "outputs": [],
      "stateMutability": "nonpayable",
      "type": "function"
    },
    {
      "inputs": [
        {
          "internalType": "uint64",
          "name": "equippableGroupId",
          "type": "uint64"
        },
        {
          "internalType": "address",
          "name": "catalogAddress",
          "type": "address"
        },
        {
          "internalType": "string",
          "name": "metadataURI",
          "type": "string"
        },
        {
          "internalType": "uint64[]",
          "name": "partIds",
          "type": "uint64[]"
        }
      ],
      "name": "addEquippableAssetEntry",
      "outputs": [
        {
          "internalType": "uint256",
          "name": "",
          "type": "uint256"
        }
      ],
      "stateMutability": "nonpayable",
      "type": "function"
    },
    {
      "inputs": [
        {
          "internalType": "address",
          "name": "to",
          "type": "address"
        },
        {
          "internalType": "uint256",
          "name": "tokenId",
          "type": "uint256"
        }
      ],
      "name": "approve",
      "outputs": [],
      "stateMutability": "nonpayable",
      "type": "function"
    },
    {
      "inputs": [
        {
          "internalType": "address",
          "name": "to",
          "type": "address"
        },
        {
          "internalType": "uint256",
          "name": "tokenId",
          "type": "uint256"
        }
      ],
      "name": "approveForAssets",
      "outputs": [],
      "stateMutability": "nonpayable",
      "type": "function"
    },
    {
      "inputs": [
        {
          "internalType": "address",
          "name": "owner",
          "type": "address"
        }
      ],
      "name": "balanceOf",
      "outputs": [
        {
          "internalType": "uint256",
          "name": "",
          "type": "uint256"
        }
      ],
      "stateMutability": "view",
      "type": "function"
    },
    {
      "inputs": [
        {
          "internalType": "uint256",
          "name": "tokenId",
          "type": "uint256"
        }
      ],
      "name": "burn",
      "outputs": [],
      "stateMutability": "nonpayable",
      "type": "function"
    },
    {
      "inputs": [
        {
          "internalType": "uint256",
          "name": "tokenId",
          "type": "uint256"
        },
        {
          "internalType": "uint256",
          "name": "maxChildrenBurns",
          "type": "uint256"
        }
      ],
      "name": "burn",
      "outputs": [
        {
          "internalType": "uint256",
          "name": "",
          "type": "uint256"
        }
      ],
      "stateMutability": "nonpayable",
      "type": "function"
    },
    {
      "inputs": [
        {
          "internalType": "address",
          "name": "parent",
          "type": "address"
        },
        {
          "internalType": "uint256",
          "name": "tokenId",
          "type": "uint256"
        },
        {
          "internalType": "uint64",
          "name": "assetId",
          "type": "uint64"
        },
        {
          "internalType": "uint64",
          "name": "slotId",
          "type": "uint64"
        }
      ],
      "name": "canTokenBeEquippedWithAssetIntoSlot",
      "outputs": [
        {
          "internalType": "bool",
          "name": "",
          "type": "bool"
        }
      ],
      "stateMutability": "view",
      "type": "function"
    },
    {
      "inputs": [
        {
          "internalType": "address",
          "name": "childAddress",
          "type": "address"
        },
        {
          "internalType": "uint256",
          "name": "childId",
          "type": "uint256"
        }
      ],
      "name": "childIsInActive",
      "outputs": [
        {
          "internalType": "bool",
          "name": "",
          "type": "bool"
        }
      ],
      "stateMutability": "view",
      "type": "function"
    },
    {
      "inputs": [
        {
          "internalType": "uint256",
          "name": "parentId",
          "type": "uint256"
        },
        {
          "internalType": "uint256",
          "name": "index",
          "type": "uint256"
        }
      ],
      "name": "childOf",
      "outputs": [
        {
          "components": [
            {
              "internalType": "uint256",
              "name": "tokenId",
              "type": "uint256"
            },
            {
              "internalType": "address",
              "name": "contractAddress",
              "type": "address"
            }
          ],
          "internalType": "struct IRMRKNestable.Child",
          "name": "",
          "type": "tuple"
        }
      ],
      "stateMutability": "view",
      "type": "function"
    },
    {
      "inputs": [
        {
          "internalType": "uint256",
          "name": "parentId",
          "type": "uint256"
        }
      ],
      "name": "childrenOf",
      "outputs": [
        {
          "components": [
            {
              "internalType": "uint256",
              "name": "tokenId",
              "type": "uint256"
            },
            {
              "internalType": "address",
              "name": "contractAddress",
              "type": "address"
            }
          ],
          "internalType": "struct IRMRKNestable.Child[]",
          "name": "",
          "type": "tuple[]"
        }
      ],
      "stateMutability": "view",
      "type": "function"
    },
    {
      "inputs": [],
      "name": "collectionMetadata",
      "outputs": [
        {
          "internalType": "string",
          "name": "",
          "type": "string"
        }
      ],
      "stateMutability": "view",
      "type": "function"
    },
    {
      "inputs": [
        {
          "internalType": "uint256",
          "name": "tokenId",
          "type": "uint256"
        }
      ],
      "name": "directOwnerOf",
      "outputs": [
        {
          "internalType": "address",
          "name": "",
          "type": "address"
        },
        {
          "internalType": "uint256",
          "name": "",
          "type": "uint256"
        },
        {
          "internalType": "bool",
          "name": "",
          "type": "bool"
        }
      ],
      "stateMutability": "view",
      "type": "function"
    },
    {
      "inputs": [
        {
          "components": [
            {
              "internalType": "uint256",
              "name": "tokenId",
              "type": "uint256"
            },
            {
              "internalType": "uint256",
              "name": "childIndex",
              "type": "uint256"
            },
            {
              "internalType": "uint64",
              "name": "assetId",
              "type": "uint64"
            },
            {
              "internalType": "uint64",
              "name": "slotPartId",
              "type": "uint64"
            },
            {
              "internalType": "uint64",
              "name": "childAssetId",
              "type": "uint64"
            }
          ],
          "internalType": "struct IRMRKEquippable.IntakeEquip",
          "name": "data",
          "type": "tuple"
        }
      ],
      "name": "equip",
      "outputs": [],
      "stateMutability": "nonpayable",
      "type": "function"
    },
    {
      "inputs": [
        {
          "internalType": "uint256",
          "name": "tokenId",
          "type": "uint256"
        }
      ],
      "name": "getActiveAssetPriorities",
      "outputs": [
        {
          "internalType": "uint64[]",
          "name": "",
          "type": "uint64[]"
        }
      ],
      "stateMutability": "view",
      "type": "function"
    },
    {
      "inputs": [
        {
          "internalType": "uint256",
          "name": "tokenId",
          "type": "uint256"
        }
      ],
      "name": "getActiveAssets",
      "outputs": [
        {
          "internalType": "uint64[]",
          "name": "",
          "type": "uint64[]"
        }
      ],
      "stateMutability": "view",
      "type": "function"
    },
    {
      "inputs": [
        {
          "internalType": "uint256",
          "name": "tokenId",
          "type": "uint256"
        }
      ],
      "name": "getApproved",
      "outputs": [
        {
          "internalType": "address",
          "name": "",
          "type": "address"
        }
      ],
      "stateMutability": "view",
      "type": "function"
    },
    {
      "inputs": [
        {
          "internalType": "uint256",
          "name": "tokenId",
          "type": "uint256"
        }
      ],
      "name": "getApprovedForAssets",
      "outputs": [
        {
          "internalType": "address",
          "name": "",
          "type": "address"
        }
      ],
      "stateMutability": "view",
      "type": "function"
    },
    {
      "inputs": [
        {
          "internalType": "uint256",
          "name": "tokenId",
          "type": "uint256"
        },
        {
          "internalType": "uint64",
          "name": "assetId",
          "type": "uint64"
        }
      ],
      "name": "getAssetAndEquippableData",
      "outputs": [
        {
          "internalType": "string",
          "name": "",
          "type": "string"
        },
        {
          "internalType": "uint64",
          "name": "",
          "type": "uint64"
        },
        {
          "internalType": "address",
          "name": "",
          "type": "address"
        },
        {
          "internalType": "uint64[]",
          "name": "",
          "type": "uint64[]"
        }
      ],
      "stateMutability": "view",
      "type": "function"
    },
    {
      "inputs": [
        {
          "internalType": "uint256",
          "name": "tokenId",
          "type": "uint256"
        },
        {
          "internalType": "uint64",
          "name": "assetId",
          "type": "uint64"
        }
      ],
      "name": "getAssetMetadata",
      "outputs": [
        {
          "internalType": "string",
          "name": "",
          "type": "string"
        }
      ],
      "stateMutability": "view",
      "type": "function"
    },
    {
      "inputs": [
        {
          "internalType": "uint256",
          "name": "tokenId",
          "type": "uint256"
        },
        {
          "internalType": "uint64",
          "name": "newAssetId",
          "type": "uint64"
        }
      ],
      "name": "getAssetReplacements",
      "outputs": [
        {
          "internalType": "uint64",
          "name": "",
          "type": "uint64"
        }
      ],
      "stateMutability": "view",
      "type": "function"
    },
    {
      "inputs": [
        {
          "internalType": "uint256",
          "name": "tokenId",
          "type": "uint256"
        },
        {
          "internalType": "address",
          "name": "targetCatalogAddress",
          "type": "address"
        },
        {
          "internalType": "uint64",
          "name": "slotPartId",
          "type": "uint64"
        }
      ],
      "name": "getEquipment",
      "outputs": [
        {
          "components": [
            {
              "internalType": "uint64",
              "name": "assetId",
              "type": "uint64"
            },
            {
              "internalType": "uint64",
              "name": "childAssetId",
              "type": "uint64"
            },
            {
              "internalType": "uint256",
              "name": "childId",
              "type": "uint256"
            },
            {
              "internalType": "address",
              "name": "childEquippableAddress",
              "type": "address"
            }
          ],
          "internalType": "struct IRMRKEquippable.Equipment",
          "name": "",
          "type": "tuple"
        }
      ],
      "stateMutability": "view",
      "type": "function"
    },
    {
      "inputs": [
        {
          "internalType": "uint256",
          "name": "tokenId",
          "type": "uint256"
        }
      ],
      "name": "getPendingAssets",
      "outputs": [
        {
          "internalType": "uint64[]",
          "name": "",
          "type": "uint64[]"
        }
      ],
      "stateMutability": "view",
      "type": "function"
    },
    {
      "inputs": [],
      "name": "getRoyaltyPercentage",
      "outputs": [
        {
          "internalType": "uint256",
          "name": "",
          "type": "uint256"
        }
      ],
      "stateMutability": "view",
      "type": "function"
    },
    {
      "inputs": [],
      "name": "getRoyaltyRecipient",
      "outputs": [
        {
          "internalType": "address",
          "name": "",
          "type": "address"
        }
      ],
      "stateMutability": "view",
      "type": "function"
    },
    {
      "inputs": [
        {
          "internalType": "address",
          "name": "owner",
          "type": "address"
        },
        {
          "internalType": "address",
          "name": "operator",
          "type": "address"
        }
      ],
      "name": "isApprovedForAll",
      "outputs": [
        {
          "internalType": "bool",
          "name": "",
          "type": "bool"
        }
      ],
      "stateMutability": "view",
      "type": "function"
    },
    {
      "inputs": [
        {
          "internalType": "address",
          "name": "owner",
          "type": "address"
        },
        {
          "internalType": "address",
          "name": "operator",
          "type": "address"
        }
      ],
      "name": "isApprovedForAllForAssets",
      "outputs": [
        {
          "internalType": "bool",
          "name": "",
          "type": "bool"
        }
      ],
      "stateMutability": "view",
      "type": "function"
    },
    {
      "inputs": [
        {
          "internalType": "uint256",
          "name": "tokenId",
          "type": "uint256"
        },
        {
          "internalType": "address",
          "name": "childAddress",
          "type": "address"
        },
        {
          "internalType": "uint256",
          "name": "childId",
          "type": "uint256"
        }
      ],
      "name": "isChildEquipped",
      "outputs": [
        {
          "internalType": "bool",
          "name": "",
          "type": "bool"
        }
      ],
      "stateMutability": "view",
      "type": "function"
    },
    {
      "inputs": [
        {
          "internalType": "address",
          "name": "contributor",
          "type": "address"
        }
      ],
      "name": "isContributor",
      "outputs": [
        {
          "internalType": "bool",
          "name": "",
          "type": "bool"
        }
      ],
      "stateMutability": "view",
      "type": "function"
    },
    {
      "inputs": [
        {
          "internalType": "address",
          "name": "contributor",
          "type": "address"
        },
        {
          "internalType": "bool",
          "name": "grantRole",
          "type": "bool"
        }
      ],
      "name": "manageContributor",
      "outputs": [],
      "stateMutability": "nonpayable",
      "type": "function"
    },
    {
      "inputs": [],
      "name": "maxSupply",
      "outputs": [
        {
          "internalType": "uint256",
          "name": "",
          "type": "uint256"
        }
      ],
      "stateMutability": "pure",
      "type": "function"
    },
    {
      "inputs": [
        {
          "internalType": "address",
          "name": "to",
          "type": "address"
        },
        {
          "internalType": "uint256",
          "name": "numToMint",
          "type": "uint256"
        }
      ],
      "name": "mint",
      "outputs": [],
      "stateMutability": "payable",
      "type": "function"
    },
    {
      "inputs": [],
      "name": "name",
      "outputs": [
        {
          "internalType": "string",
          "name": "",
          "type": "string"
        }
      ],
      "stateMutability": "view",
      "type": "function"
    },
    {
      "inputs": [
        {
          "internalType": "address",
          "name": "from",
          "type": "address"
        },
        {
          "internalType": "address",
          "name": "to",
          "type": "address"
        },
        {
          "internalType": "uint256",
          "name": "tokenId",
          "type": "uint256"
        },
        {
          "internalType": "uint256",
          "name": "destinationId",
          "type": "uint256"
        },
        {
          "internalType": "bytes",
          "name": "data",
          "type": "bytes"
        }
      ],
      "name": "nestTransferFrom",
      "outputs": [],
      "stateMutability": "nonpayable",
      "type": "function"
    },
    {
      "inputs": [],
      "name": "owner",
      "outputs": [
        {
          "internalType": "address",
          "name": "",
          "type": "address"
        }
      ],
      "stateMutability": "view",
      "type": "function"
    },
    {
      "inputs": [
        {
          "internalType": "uint256",
          "name": "tokenId",
          "type": "uint256"
        }
      ],
      "name": "ownerOf",
      "outputs": [
        {
          "internalType": "address",
          "name": "",
          "type": "address"
        }
      ],
      "stateMutability": "view",
      "type": "function"
    },
    {
      "inputs": [
        {
          "internalType": "uint256",
          "name": "parentId",
          "type": "uint256"
        },
        {
          "internalType": "uint256",
          "name": "index",
          "type": "uint256"
        }
      ],
      "name": "pendingChildOf",
      "outputs": [
        {
          "components": [
            {
              "internalType": "uint256",
              "name": "tokenId",
              "type": "uint256"
            },
            {
              "internalType": "address",
              "name": "contractAddress",
              "type": "address"
            }
          ],
          "internalType": "struct IRMRKNestable.Child",
          "name": "",
          "type": "tuple"
        }
      ],
      "stateMutability": "view",
      "type": "function"
    },
    {
      "inputs": [
        {
          "internalType": "uint256",
          "name": "parentId",
          "type": "uint256"
        }
      ],
      "name": "pendingChildrenOf",
      "outputs": [
        {
          "components": [
            {
              "internalType": "uint256",
              "name": "tokenId",
              "type": "uint256"
            },
            {
              "internalType": "address",
              "name": "contractAddress",
              "type": "address"
            }
          ],
          "internalType": "struct IRMRKNestable.Child[]",
          "name": "",
          "type": "tuple[]"
        }
      ],
      "stateMutability": "view",
      "type": "function"
    },
    {
      "inputs": [
        {
          "internalType": "uint256",
          "name": "tokenId",
          "type": "uint256"
        },
        {
          "internalType": "uint256",
          "name": "maxRejections",
          "type": "uint256"
        }
      ],
      "name": "rejectAllAssets",
      "outputs": [],
      "stateMutability": "nonpayable",
      "type": "function"
    },
    {
      "inputs": [
        {
          "internalType": "uint256",
          "name": "tokenId",
          "type": "uint256"
        },
        {
          "internalType": "uint256",
          "name": "maxRejections",
          "type": "uint256"
        }
      ],
      "name": "rejectAllChildren",
      "outputs": [],
      "stateMutability": "nonpayable",
      "type": "function"
    },
    {
      "inputs": [
        {
          "internalType": "uint256",
          "name": "tokenId",
          "type": "uint256"
        },
        {
          "internalType": "uint256",
          "name": "index",
          "type": "uint256"
        },
        {
          "internalType": "uint64",
          "name": "assetId",
          "type": "uint64"
        }
      ],
      "name": "rejectAsset",
      "outputs": [],
      "stateMutability": "nonpayable",
      "type": "function"
    },
    {
      "inputs": [],
      "name": "renounceOwnership",
      "outputs": [],
      "stateMutability": "nonpayable",
      "type": "function"
    },
    {
      "inputs": [
        {
          "internalType": "uint256",
          "name": "tokenId",
          "type": "uint256"
        },
        {
          "internalType": "uint256",
          "name": "salePrice",
          "type": "uint256"
        }
      ],
      "name": "royaltyInfo",
      "outputs": [
        {
          "internalType": "address",
          "name": "receiver",
          "type": "address"
        },
        {
          "internalType": "uint256",
          "name": "royaltyAmount",
          "type": "uint256"
        }
      ],
      "stateMutability": "view",
      "type": "function"
    },
    {
      "inputs": [
        {
          "internalType": "address",
          "name": "from",
          "type": "address"
        },
        {
          "internalType": "address",
          "name": "to",
          "type": "address"
        },
        {
          "internalType": "uint256",
          "name": "tokenId",
          "type": "uint256"
        }
      ],
      "name": "safeTransferFrom",
      "outputs": [],
      "stateMutability": "nonpayable",
      "type": "function"
    },
    {
      "inputs": [
        {
          "internalType": "address",
          "name": "from",
          "type": "address"
        },
        {
          "internalType": "address",
          "name": "to",
          "type": "address"
        },
        {
          "internalType": "uint256",
          "name": "tokenId",
          "type": "uint256"
        },
        {
          "internalType": "bytes",
          "name": "data",
          "type": "bytes"
        }
      ],
      "name": "safeTransferFrom",
      "outputs": [],
      "stateMutability": "nonpayable",
      "type": "function"
    },
    {
      "inputs": [
        {
          "internalType": "address",
          "name": "operator",
          "type": "address"
        },
        {
          "internalType": "bool",
          "name": "approved",
          "type": "bool"
        }
      ],
      "name": "setApprovalForAll",
      "outputs": [],
      "stateMutability": "nonpayable",
      "type": "function"
    },
    {
      "inputs": [
        {
          "internalType": "address",
          "name": "operator",
          "type": "address"
        },
        {
          "internalType": "bool",
          "name": "approved",
          "type": "bool"
        }
      ],
      "name": "setApprovalForAllForAssets",
      "outputs": [],
      "stateMutability": "nonpayable",
      "type": "function"
    },
    {
      "inputs": [
        {
          "internalType": "uint256",
          "name": "tokenId",
          "type": "uint256"
        },
        {
          "internalType": "uint64[]",
          "name": "priorities",
          "type": "uint64[]"
        }
      ],
      "name": "setPriority",
      "outputs": [],
      "stateMutability": "nonpayable",
      "type": "function"
    },
    {
      "inputs": [
        {
          "internalType": "uint64",
          "name": "equippableGroupId",
          "type": "uint64"
        },
        {
          "internalType": "address",
          "name": "parentAddress",
          "type": "address"
        },
        {
          "internalType": "uint64",
          "name": "partId",
          "type": "uint64"
        }
      ],
      "name": "setValidParentForEquippableGroup",
      "outputs": [],
      "stateMutability": "nonpayable",
      "type": "function"
    },
    {
      "inputs": [
        {
          "internalType": "bytes4",
          "name": "interfaceId",
          "type": "bytes4"
        }
      ],
      "name": "supportsInterface",
      "outputs": [
        {
          "internalType": "bool",
          "name": "",
          "type": "bool"
        }
      ],
      "stateMutability": "view",
      "type": "function"
    },
    {
      "inputs": [],
      "name": "symbol",
      "outputs": [
        {
          "internalType": "string",
          "name": "",
          "type": "string"
        }
      ],
      "stateMutability": "view",
      "type": "function"
    },
    {
      "inputs": [
        {
          "internalType": "uint256",
          "name": "tokenId",
          "type": "uint256"
        }
      ],
      "name": "tokenURI",
      "outputs": [
        {
          "internalType": "string",
          "name": "",
          "type": "string"
        }
      ],
      "stateMutability": "view",
      "type": "function"
    },
    {
      "inputs": [],
      "name": "totalAssets",
      "outputs": [
        {
          "internalType": "uint256",
          "name": "",
          "type": "uint256"
        }
      ],
      "stateMutability": "view",
      "type": "function"
    },
    {
      "inputs": [],
      "name": "totalSupply",
      "outputs": [
        {
          "internalType": "uint256",
          "name": "",
          "type": "uint256"
        }
      ],
      "stateMutability": "view",
      "type": "function"
    },
    {
      "inputs": [
        {
          "internalType": "uint256",
          "name": "tokenId",
          "type": "uint256"
        },
        {
          "internalType": "address",
          "name": "to",
          "type": "address"
        },
        {
          "internalType": "uint256",
          "name": "destinationId",
          "type": "uint256"
        },
        {
          "internalType": "uint256",
          "name": "childIndex",
          "type": "uint256"
        },
        {
          "internalType": "address",
          "name": "childAddress",
          "type": "address"
        },
        {
          "internalType": "uint256",
          "name": "childId",
          "type": "uint256"
        },
        {
          "internalType": "bool",
          "name": "isPending",
          "type": "bool"
        },
        {
          "internalType": "bytes",
          "name": "data",
          "type": "bytes"
        }
      ],
      "name": "transferChild",
      "outputs": [],
      "stateMutability": "nonpayable",
      "type": "function"
    },
    {
      "inputs": [
        {
          "internalType": "address",
          "name": "from",
          "type": "address"
        },
        {
          "internalType": "address",
          "name": "to",
          "type": "address"
        },
        {
          "internalType": "uint256",
          "name": "tokenId",
          "type": "uint256"
        }
      ],
      "name": "transferFrom",
      "outputs": [],
      "stateMutability": "nonpayable",
      "type": "function"
    },
    {
      "inputs": [
        {
          "internalType": "address",
          "name": "newOwner",
          "type": "address"
        }
      ],
      "name": "transferOwnership",
      "outputs": [],
      "stateMutability": "nonpayable",
      "type": "function"
    },
    {
      "inputs": [
        {
          "internalType": "uint256",
          "name": "tokenId",
          "type": "uint256"
        },
        {
          "internalType": "uint64",
          "name": "assetId",
          "type": "uint64"
        },
        {
          "internalType": "uint64",
          "name": "slotPartId",
          "type": "uint64"
        }
      ],
      "name": "unequip",
      "outputs": [],
      "stateMutability": "nonpayable",
      "type": "function"
    },
    {
      "inputs": [
        {
          "internalType": "address",
          "name": "newRoyaltyRecipient",
          "type": "address"
        }
      ],
      "name": "updateRoyaltyRecipient",
      "outputs": [],
      "stateMutability": "nonpayable",
      "type": "function"
    },
    {
      "inputs": [
        {
          "internalType": "address",
          "name": "to",
          "type": "address"
        },
        {
          "internalType": "uint256",
          "name": "amount",
          "type": "uint256"
        }
      ],
      "name": "withdrawRaised",
      "outputs": [],
      "stateMutability": "nonpayable",
      "type": "function"
    }
  ],
  "bytecode": "0x60806040523480156200001157600080fd5b506040516200603c3803806200603c833981016040819052620000349162000256565b6040518060400160405280600d81526020016c426174746c65204c656d6f6e7360981b81525060405180604001604052806002815260200161109360f21b81525081818181620000896200012960201b60201c565b60016000556101f4896200009d336200012d565b620000a8816200017f565b50600480546001600160a01b0319166001600160a01b0384161790556127108110620000e757604051634006185d60e11b815260040160405180910390fd5b600555506006620000f983826200034f565b5060076200010882826200034f565b5050505050505080601d90816200012091906200034f565b5050506200041b565b3390565b600180546001600160a01b038381166001600160a01b0319831681179093556040519116919082907f8be0079c531659141344cd1fd0a4f28419497f9722a3daafe3b4186f6b6457e090600090a35050565b60036200018d82826200034f565b5050565b634e487b7160e01b600052604160045260246000fd5b600082601f830112620001b957600080fd5b81516001600160401b0380821115620001d657620001d662000191565b604051601f8301601f19908116603f0116810190828211818310171562000201576200020162000191565b816040528381526020925086838588010111156200021e57600080fd5b600091505b8382101562000242578582018301518183018401529082019062000223565b600093810190920192909252949350505050565b600080604083850312156200026a57600080fd5b82516001600160401b03808211156200028257600080fd5b6200029086838701620001a7565b93506020850151915080821115620002a757600080fd5b50620002b685828601620001a7565b9150509250929050565b600181811c90821680620002d557607f821691505b602082108103620002f657634e487b7160e01b600052602260045260246000fd5b50919050565b601f8211156200034a57600081815260208120601f850160051c81016020861015620003255750805b601f850160051c820191505b81811015620003465782815560010162000331565b5050505b505050565b81516001600160401b038111156200036b576200036b62000191565b62000383816200037c8454620002c0565b84620002fc565b602080601f831160018114620003bb5760008415620003a25750858301515b600019600386901b1c1916600185901b17855562000346565b600085815260208120601f198616915b82811015620003ec57888601518255948401946001909101908401620003cb565b50858210156200040b5787850151600019600388901b60f8161c191681555b5050505050600190811b01905550565b615c11806200042b6000396000f3fe6080604052600436106103de5760003560e01c8063635490cc1161020d578063b390c0ab11610128578063e467a48f116100bb578063ee1dffcf1161008a578063fb25fb7a1161006f578063fb25fb7a14610dab578063fc3517c814610df2578063ffa1ad7414610e1257600080fd5b8063ee1dffcf14610d3f578063f2fde38b14610d8b57600080fd5b8063e467a48f14610c96578063e7de4de414610cb6578063e97ceaa814610cd6578063e985e9c514610cf657600080fd5b8063d5abeb01116100f7578063d5abeb0114610be5578063de8e602c14610bfa578063defa80c314610c1a578063df6f556b14610c3a57600080fd5b8063b390c0ab14610b65578063b88d4fde14610b85578063c259a98814610ba5578063c87b56dd14610bc557600080fd5b80638507dc28116101a057806395edc18c1161016f57806395edc18c14610ae75780639796133614610b05578063a22cb46514610b25578063a898e36414610b4557600080fd5b80638507dc2814610a7f57806389ed2edf14610a9f5780638da5cb5b14610ab457806395d89b4114610ad257600080fd5b8063715018a6116101dc578063715018a61461092d5780637280281e146109425780637507e2ae1461096257806379e8ca9e14610a5f57600080fd5b8063635490cc146108ad57806365b67eb9146108cd5780636f19951c146108ed57806370a082311461090d57600080fd5b80632f32f937116102fd57806344ec9344116102905780635e2e32921161025f5780635e2e32921461082d5780635e94354a1461084d5780635ea72f361461086d5780636352211e1461088d57600080fd5b806344ec93441461078e5780634e60edba146107bb57806351532e5a146107eb57806359c8b7dd1461081857600080fd5b806340c10f19116102cc57806340c10f19146106f65780634182e4a31461070957806342842e0e1461074e57806342966c681461076e57600080fd5b80632f32f9371461066957806330ffb1d61461069657806333ed2845146106b657806338dcf74c146106d657600080fd5b806318160ddd1161037557806322f6da9c1161034457806322f6da9c146105ca57806323b872dd146105ea5780632452cd911461060a5780632a55205a1461062a57600080fd5b806318160ddd146105135780631c7bb461146105285780631d0d35f51461054857806322e6d1601461058157600080fd5b8063074334fb116103b1578063074334fb1461047b578063081812fc1461049b578063095ea7b3146104d35780630fc499f5146104f357600080fd5b806301e1d114146103e357806301ffc9a714610407578063064c0a3a1461043757806306fdde0314610459575b600080fd5b3480156103ef57600080fd5b50601f545b6040519081526020015b60405180910390f35b34801561041357600080fd5b50610427610422366004614ee0565b610e5b565b60405190151581526020016103fe565b34801561044357600080fd5b50610457610452366004614fbb565b610ed4565b005b34801561046557600080fd5b5061046e610ef3565b6040516103fe9190615080565b34801561048757600080fd5b506104276104963660046150aa565b610f85565b3480156104a757600080fd5b506104bb6104b63660046150f9565b610fff565b6040516001600160a01b0390911681526020016103fe565b3480156104df57600080fd5b506104576104ee366004615112565b611045565b3480156104ff57600080fd5b5061045761050e36600461513e565b611103565b34801561051f57600080fd5b50601e546103f4565b34801561053457600080fd5b5061045761054336600461515b565b61112c565b34801561055457600080fd5b5061042761056336600461513e565b6001600160a01b031660009081526002602052604090205460011490565b34801561058d57600080fd5b5061042761059c366004615197565b6001600160a01b03918216600090815260156020908152604080832093909416825291909152205460ff1690565b3480156105d657600080fd5b506104576105e53660046151d0565b61117e565b3480156105f657600080fd5b506104576106053660046151fc565b611199565b34801561061657600080fd5b506103f4610625366004615281565b6111be565b34801561063657600080fd5b5061064a61064536600461530e565b611220565b604080516001600160a01b0390931683526020830191909152016103fe565b34801561067557600080fd5b5061068961068436600461530e565b611256565b6040516103fe9190615330565b3480156106a257600080fd5b506103f46106b1366004615350565b611308565b3480156106c257600080fd5b506104576106d1366004615112565b611331565b3480156106e257600080fd5b506104576106f1366004615384565b6113fb565b610457610704366004615112565b611420565b34801561071557600080fd5b50610427610724366004615112565b6001600160a01b03919091166000908152600e602090815260408083209383529290522054151590565b34801561075a57600080fd5b506104576107693660046151fc565b61147f565b34801561077a57600080fd5b506104576107893660046150f9565b61149a565b34801561079a57600080fd5b506107ae6107a93660046150f9565b6114a9565b6040516103fe9190615405565b3480156107c757600080fd5b506107db6107d6366004615465565b611528565b6040516103fe94939291906154cc565b3480156107f757600080fd5b5061080b6108063660046150f9565b611605565b6040516103fe919061551a565b34801561082457600080fd5b506005546103f4565b34801561083957600080fd5b5061046e610848366004615465565b611699565b34801561085957600080fd5b5061080b6108683660046150f9565b6116dc565b34801561087957600080fd5b50610457610888366004615112565b611745565b34801561089957600080fd5b506104bb6108a83660046150f9565b611802565b3480156108b957600080fd5b506104576108c836600461552d565b6118ab565b3480156108d957600080fd5b506104576108e836600461557c565b6119d6565b3480156108f957600080fd5b506107ae6109083660046150f9565b6119e9565b34801561091957600080fd5b506103f461092836600461513e565b611a59565b34801561093957600080fd5b50610457611ab7565b34801561094e57600080fd5b5061080b61095d3660046150f9565b611acb565b34801561096e57600080fd5b50610a1161097d3660046155aa565b6040805160808082018352600080835260208084018290528385018290526060938401829052968152601a87528381206001600160a01b03968716825287528381206001600160401b03958616825287528390208351918201845280548086168352680100000000000000009004909416958101959095526001830154918501919091526002909101549091169082015290565b6040516103fe919060006080820190506001600160401b0380845116835280602085015116602084015250604083015160408301526001600160a01b03606084015116606083015292915050565b348015610a6b57600080fd5b50610457610a7a3660046155df565b611b34565b348015610a8b57600080fd5b50610457610a9a3660046155df565b611c0a565b348015610aab57600080fd5b5061046e611ca2565b348015610ac057600080fd5b506001546001600160a01b03166104bb565b348015610ade57600080fd5b5061046e611cb1565b348015610af357600080fd5b506004546001600160a01b03166104bb565b348015610b1157600080fd5b50610457610b2036600461530e565b611cc0565b348015610b3157600080fd5b50610457610b403660046155df565b611cd4565b348015610b5157600080fd5b50610689610b6036600461530e565b611d82565b348015610b7157600080fd5b506103f4610b8036600461530e565b611df8565b348015610b9157600080fd5b50610457610ba036600461560d565b611e0e565b348015610bb157600080fd5b50610457610bc036600461515b565b611e2b565b348015610bd157600080fd5b5061046e610be03660046150f9565b611e40565b348015610bf157600080fd5b506103e86103f4565b348015610c0657600080fd5b50610457610c15366004615678565b611e74565b348015610c2657600080fd5b50610457610c353660046156c3565b611e89565b348015610c4657600080fd5b50610c7e610c55366004615465565b60009182526010602090815260408084206001600160401b039384168552909152909120541690565b6040516001600160401b0390911681526020016103fe565b348015610ca257600080fd5b506104bb610cb13660046150f9565b611eae565b348015610cc257600080fd5b50610457610cd136600461530e565b611ed1565b348015610ce257600080fd5b50610457610cf136600461575e565b611ee5565b348015610d0257600080fd5b50610427610d11366004615197565b6001600160a01b039182166000908152600a6020908152604080832093909416825291909152205460ff1690565b348015610d4b57600080fd5b50610427610d5a36600461579d565b6000928352601b602090815260408085206001600160a01b0394909416855292815282842091845252902054151590565b348015610d9757600080fd5b50610457610da636600461513e565b611efb565b348015610db757600080fd5b50610dcb610dc63660046150f9565b611f4c565b604080516001600160a01b03909416845260208401929092521515908201526060016103fe565b348015610dfe57600080fd5b50610457610e0d3660046151d0565b611fcd565b348015610e1e57600080fd5b5061046e6040518060400160405280600681526020017f302e32382e30000000000000000000000000000000000000000000000000000081525081565b6000610e6682611fe2565b80610e9a57506001600160e01b031982167f06b4329a00000000000000000000000000000000000000000000000000000000145b80610ece57506001600160e01b031982167f28bc9ae400000000000000000000000000000000000000000000000000000000145b92915050565b82610ede81612080565b610eeb86868686866120c0565b505050505050565b606060068054610f02906157c4565b80601f0160208091040260200160405190810160405280929190818152602001828054610f2e906157c4565b8015610f7b5780601f10610f5057610100808354040283529160200191610f7b565b820191906000526020600020905b815481529060010190602001808311610f5e57829003601f168201915b5050505050905090565b6001600160401b038083166000908152601860209081526040808320548416808452601c83528184206001600160a01b038a1685529092528220549192909181169084168103610ff0576000610fe486610fde89611acb565b906122d2565b9450610ff79350505050565b6000925050505b949350505050565b600061100a8261233b565b60008281526009602052604081209061102284611802565b6001600160a01b0390811682526020820192909252604001600020541692915050565b600061105082611802565b9050806001600160a01b0316836001600160a01b03160361109d576040517f0591db6d00000000000000000000000000000000000000000000000000000000815260040160405180910390fd5b336001600160a01b038216148015906110bd57506110bb8133610d11565b155b156110f4576040517f982462b200000000000000000000000000000000000000000000000000000000815260040160405180910390fd5b6110fe8383612373565b505050565b61110b6123ec565b600480546001600160a01b0319166001600160a01b03831617905550565b50565b611134612430565b61113f838383612488565b61114883611802565b6001600160a01b031633036110fe576000838152601260205260409020546110fe90849061117890600190615814565b846126b0565b82611188816128f0565b611193848484612930565b50505050565b806111a381612080565b6111938484846040518060200160405280600081525061299f565b60006111c8612430565b601f805460010190819055604080516020808602828101820190935285825261121393928a928a928a928a918a918291850190849080828437600092019190915250612afe92505050565b50601f5495945050505050565b6004546005546001600160a01b0390911690600090612710906112439085615827565b61124d919061583e565b90509250929050565b604080518082019091526000808252602082015281611274846119e9565b51116112ac576040517fca7cc84a00000000000000000000000000000000000000000000000000000000815260040160405180910390fd5b6000838152600c602052604081208054849081106112cc576112cc615860565b60009182526020918290206040805180820190915260029092020180548252600101546001600160a01b03169181019190915291505092915050565b6000611312612430565b601f8054600101908190556113279083612bbe565b50601f545b919050565b6113396123ec565b6000826001600160a01b03168260405160006040518083038185875af1925050503d8060008114611386576040519150601f19603f3d011682016040523d82523d6000602084013e61138b565b606091505b50509050806110fe576040517f08c379a000000000000000000000000000000000000000000000000000000000815260206004820152601060248201527f5472616e73666572206661696c65642e0000000000000000000000000000000060448201526064015b60405180910390fd5b805161140681612c84565b61140e612cc4565b61141782612d07565b50506001600055565b611429816130fe565b6000611439633b9aca0083615827565b905080341015611475576040517fbb06a4ec00000000000000000000000000000000000000000000000000000000815260040160405180910390fd5b6110fe838361317e565b6110fe83838360405180602001604052806000815250611e0e565b6114a5816000611df8565b5050565b6000818152600d60209081526040808320805482518185028101850190935280835260609493849084015b8282101561151c5760008481526020908190206040805180820190915260028502909101805482526001908101546001600160a01b03168284015290835290920191016114d4565b50929695505050505050565b606060008060606115398686611699565b6001600160401b0380871660009081526018602090815260408083205460178352818420546019845293829020805483518186028101860190945280845291909516946001600160a01b0390941693928391908301828280156115ed57602002820191906000526020600020906000905b82829054906101000a90046001600160401b03166001600160401b0316815260200190600801906020826007010492830192600103820291508084116115aa5790505b50505050509050935093509350935092959194509250565b60008181526012602090815260409182902080548351818402810184019094528084526060939283018282801561168d57602002820191906000526020600020906000905b82829054906101000a90046001600160401b03166001600160401b03168152602001906008019060208260070104928301926001038202915080841161164a5790505b50505050509050919050565b606060006116a78484613235565b9050806116b38561333d565b6040516020016116c4929190615876565b60405160208183030381529060405291505092915050565b60008181526013602090815260409182902080548351818402810184019094528084526060939283018282801561168d57600091825260209182902080546001600160401b0316845290820283019290916008910180841161164a575094979650505050505050565b600061175082611802565b9050806001600160a01b0316836001600160a01b031603611784576040516375f45abd60e01b815260040160405180910390fd5b336001600160a01b038216148015906117c157506001600160a01b038116600090815260156020908152604080832033845290915290205460ff16155b156117f8576040517faf45d29200000000000000000000000000000000000000000000000000000000815260040160405180910390fd5b6110fe83836133dc565b60008060008061181185611f4c565b92509250925080156118a2576040517f6352211e000000000000000000000000000000000000000000000000000000008152600481018390526001600160a01b03841690636352211e90602401602060405180830381865afa15801561187b573d6000803e3d6000fd5b505050506040513d601f19601f8201168201806040525081019061189f91906158a5565b92505b50909392505050565b6118b48361233b565b33803b6118d45760405163b9d3114760e01b815260040160405180910390fd5b604080518082019091528381526001600160a01b038216602082015260006118fb866114a9565b519050608081101561195a576000868152600d60209081526040822080546001808201835591845292829020855160029094020192835590840151910180546001600160a01b0319166001600160a01b0390921691909117905561198c565b6040517fa53c8c0500000000000000000000000000000000000000000000000000000000815260040160405180910390fd5b84836001600160a01b0316877fe65085e689b77b126ba0bac3b079aa8288f19f4d5445af11c76003f8ab3075dd846040516119c991815260200190565b60405180910390a4610eeb565b6119de612430565b6110fe838383613455565b6000818152600c6020908152604080832080548251818502810185019093528083526060949384908401821561151c5760008481526020908190206040805180820190915260028502909101805482526001908101546001600160a01b03168284015290835290920191016114d4565b60006001600160a01b038216611a9b576040517f7772286600000000000000000000000000000000000000000000000000000000815260040160405180910390fd5b506001600160a01b031660009081526008602052604090205490565b611abf6123ec565b611ac96000613501565b565b60008181526011602090815260409182902080548351818402810184019094528084526060939283018282801561168d57600091825260209182902080546001600160401b0316845290820283019290916008910180841161164a575094979650505050505050565b611b3c6123ec565b6001600160a01b038216611b7c576040517fb5c0938000000000000000000000000000000000000000000000000000000000815260040160405180910390fd5b80611ba1576001600160a01b0382166000908152600260205260408120819055611bc0565b6001600160a01b03821660009081526002602052604090206001908190555b50816001600160a01b03167f4b5657e84cf8a17ac5587bbeb3cc2bab9826c4c67b8bad81b4849de49d37aac282604051611bfe911515815260200190565b60405180910390a25050565b336001600160a01b0383168103611c34576040516375f45abd60e01b815260040160405180910390fd5b6001600160a01b03818116600081815260156020908152604080832094881680845294825291829020805460ff191687151590811790915591519182527f0cff4fcf777050010027190b8061fd8bfd1de16d81b1f94e9752df1427a2623591015b60405180910390a3505050565b606060038054610f02906157c4565b606060078054610f02906157c4565b81611cca81612c84565b6110fe8383613553565b6001600160a01b0382163303611d16576040517f2dee66e400000000000000000000000000000000000000000000000000000000815260040160405180910390fd5b336000818152600a602090815260408083206001600160a01b03871680855290835292819020805460ff191686151590811790915590519081529192917f17307eab39ab6107e8899845ad3d59bd9653f200f220920489ca2b5937696c31910160405180910390a35050565b604080518082019091526000808252602082015281611da0846114a9565b5111611dd8576040517fda22687f00000000000000000000000000000000000000000000000000000000815260040160405180910390fd5b6000838152600d602052604081208054849081106112cc576112cc615860565b600082611e0481612080565b610ff784846135e1565b81611e1881612080565b611e248585858561397e565b5050505050565b82611e3581612c84565b6111938484846139b3565b6060601d611e4d8361333d565b604051602001611e5e9291906158c2565b6040516020818303038152906040529050919050565b82611e7e816128f0565b611193848484613b8c565b87611e9381612c84565b611ea38989898989898989613c1f565b505050505050505050565b6000611eb98261233b565b60008281526016602052604081209061102284611802565b81611edb816128f0565b6110fe8383613ca0565b83611eef81612c84565b611e2485858585613db1565b611f036123ec565b6001600160a01b038116611f43576040517f4ece6ecf00000000000000000000000000000000000000000000000000000000815260040160405180910390fd5b61112981613501565b6000818152600b602090815260408083208151606081018352815481526001909101546001600160a01b038116938201849052600160a01b900460ff161515918101919091528291829190611fb45760405163089ba7e160e41b815260040160405180910390fd5b6020810151815160409092015190969195509350915050565b82611fd7816128f0565b6111938484846126b0565b60006001600160e01b031982166301ffc9a760e01b148061202c57506001600160e01b031982167f80ac58cd00000000000000000000000000000000000000000000000000000000145b8061206057506001600160e01b031982167f5b5e139f00000000000000000000000000000000000000000000000000000000145b80610ece57506001600160e01b031982166342b0e56f60e01b1492915050565b61208a3382613ed0565b611129576040517f8be7930600000000000000000000000000000000000000000000000000000000815260040160405180910390fd5b6000806120cc85611f4c565b5091509150866001600160a01b0316826001600160a01b0316146121035760405163e146af6f60e01b815260040160405180910390fd5b6001600160a01b03861661212a576040516338f646ff60e21b815260040160405180910390fd5b6001600160a01b0386163014801561214157508385145b15612178576040517f3d76b10700000000000000000000000000000000000000000000000000000000815260040160405180910390fd5b6001600160a01b0386163b6121a05760405163b9d3114760e01b815260040160405180910390fd5b6040516301ffc9a760e01b81526342b0e56f60e01b60048201526001600160a01b038716906301ffc9a790602401602060405180830381865afa1580156121eb573d6000803e3d6000fd5b505050506040513d601f19601f8201168201806040525081019061220f9190615940565b612245576040517f5e13b1cc00000000000000000000000000000000000000000000000000000000815260040160405180910390fd5b612250858786613f73565b6001600160a01b0387166000908152600860205260408120805460019290612279908490615814565b9091555061228c90508585886001614096565b6001600160a01b03861660009081526008602052604081208054600192906122b590849061595d565b909155506122c9905082878387898861411f565b50505050505050565b81516000908190815b8181101561232a57846001600160401b03168682815181106122ff576122ff615860565b60200260200101516001600160401b031603612322579250600191506123349050565b6001016122db565b5060008092509250505b9250929050565b6000818152600b60205260409020600101546001600160a01b03166111295760405163089ba7e160e41b815260040160405180910390fd5b600061237e82611802565b60008381526009602090815260408083206001600160a01b038581168086529190935281842080546001600160a01b031916938916938417905590519394508593919290917f8c5be1e5ebec7d5bd14f71427d1e84f3dd0314c0f7b2291e5b200ac8c7c3b9259190a4505050565b6001546001600160a01b03163314611ac9576040517f38c5ab1e00000000000000000000000000000000000000000000000000000000815260040160405180910390fd5b6001546001600160a01b03163314801590612451575061244f33610563565b155b15611ac9576040517f1eca167000000000000000000000000000000000000000000000000000000000815260040160405180910390fd5b60008381526014602090815260408083206001600160401b038616845290915290205460ff16156124cc576040516308fe3c3160e41b815260040160405180910390fd5b6001600160401b0382166000908152600f6020526040812080546124ef906157c4565b905003612528576040517f554bdff200000000000000000000000000000000000000000000000000000000815260040160405180910390fd5b600083815260126020526040902054608011612570576040517fbade3a7b00000000000000000000000000000000000000000000000000000000815260040160405180910390fd5b60008381526014602090815260408083206001600160401b038681168086529184528285208054600160ff19909116811790915588865260128552928520805493840181558552929093206004820401805460039092166008026101000a80840219909216919093021790915581161561261e5760008381526010602090815260408083206001600160401b0386811685529252909120805467ffffffffffffffff19169183169190911790555b60408051600180825281830190925260009160208083019080368337019050509050838160008151811061265457612654615860565b602002602001018181525050816001600160401b0316836001600160401b03167f4a85a0221f784dbe75db7c29c422f474c15bde9211a98e50a30018fa8dfa937b836040516126a39190615970565b60405180910390a3611193565b6126bb838383614239565b60008381526010602090815260408083206001600160401b038086168552925282205416908082156127935761278d836011600089815260200190815260200160002080548060200260200160405190810160405280929190818152602001828054801561277a57602002820191906000526020600020906000905b82829054906101000a90046001600160401b03166001600160401b0316815260200190600801906020826007010492830192600103820291508084116127375790505b50505050506122d290919063ffffffff16565b90925090505b80156128145760008681526011602052604090208054859190849081106127bc576127bc615860565b600091825260208083206004830401805460039093166008026101000a6001600160401b038181021990941695841602949094179093558882526014835260408083209187168352925220805460ff1916905561289f565b6000868152601360209081526040808320601183529083208054825460018181018555938652848620600480830490910180546001600160401b0394851660086003958616810261010090810a9283029288021990931691909117909255855496870186559488529587209085040180548b84169590921690950290920a9283029202191617905592505b6128aa868686614313565b826001600160401b0316846001600160401b0316877f3f2709a99f6c06b4e57bbb38eb0134332f96f51a3da314f41a515adbb28b17cc60405160405180910390a4610eeb565b6128fa3382614361565b611129576040517f5d64832900000000000000000000000000000000000000000000000000000000815260040160405180910390fd5b61293b838383614239565b612946838383614313565b60008381526014602090815260408083206001600160401b0385168085529252808320805460ff1916905551909185917f1010837a46db9510cad56c9b63e97183557a136e9d4ddbec309ce52c99afb1249190a3505050565b6000806129ab84611f4c565b5091509150856001600160a01b0316826001600160a01b0316146129e25760405163e146af6f60e01b815260040160405180910390fd5b6001600160a01b038516612a09576040516338f646ff60e21b815260040160405180910390fd5b6001600160a01b0386166000908152600860205260408120805460019290612a32908490615814565b90915550612a4590508460008781614096565b6001600160a01b0385166000908152600860205260408120805460019290612a6e90849061595d565b909155505060405184906001600160a01b0380881691908916907fddf252ad1be2c89b69c2b068fc378daa952ba7f163c4a11628f55a4df523b3ef90600090a483856001600160a01b0316836001600160a01b03167f04444026cefd1b05506559cab59d1b865ae3ba4ed2fe5c894f04e522776c552d8460006040516119c9929190918252602082015260400190565b612b088583612bbe565b6001600160a01b038316158015612b1f5750805115155b15612b56576040517f206b5a0e00000000000000000000000000000000000000000000000000000000815260040160405180910390fd5b6001600160401b03858116600090815260176020908152604080832080546001600160a01b0319166001600160a01b03891617905560188252808320805467ffffffffffffffff191694891694909417909355601981529190208251610eeb92840190614d18565b6001600160401b038216612be5576040516312c33ce360e01b815260040160405180910390fd5b6001600160401b0382166000908152600f602052604081208054612c08906157c4565b90501115612c29576040516308fe3c3160e41b815260040160405180910390fd5b6001600160401b0382166000908152600f60205260409020612c4b82826159fa565b506040516001600160401b038316907f3cd061096eaf881067d936308fbd8b81d060c45ab2ec910c02b953162befc10990600090a25050565b612c8e33826143df565b611129576040517f2728a9d000000000000000000000000000000000000000000000000000000000815260040160405180910390fd5b600260005403612d00576040517fc57fd5d200000000000000000000000000000000000000000000000000000000815260040160405180910390fd5b6002600055565b6040808201516001600160401b0390811660009081526017602090815283822054606086015186518452601a83528584206001600160a01b039283168086529084528685209582168552949092529390912060020154919290911615612d99576040517fbd0650ab00000000000000000000000000000000000000000000000000000000815260040160405180910390fd5b612da783604001518261444b565b6000612dbb84600001518560200151611256565b6020810151815160808701516040517f074334fb00000000000000000000000000000000000000000000000000000000815230600482015260248101929092526001600160401b039081166044830152851660648201529192506001600160a01b03169063074334fb90608401602060405180830381865afa158015612e45573d6000803e3d6000fd5b505050506040513d601f19601f82011682018060405250810190612e699190615940565b612e9f576040517f2c36cd3300000000000000000000000000000000000000000000000000000000815260040160405180910390fd5b60208101516040517fdcb79d560000000000000000000000000000000000000000000000000000000081526001600160401b03841660048201526001600160a01b0391821660248201529084169063dcb79d5690604401602060405180830381865afa158015612f13573d6000803e3d6000fd5b505050506040513d601f19601f82011682018060405250810190612f379190615940565b612f6d576040517fe451dfea00000000000000000000000000000000000000000000000000000000815260040160405180910390fd5b6040805160808082018352868301516001600160401b0390811683529087015181166020808401918252855184860190815286820180516001600160a01b03908116606088019081528c516000908152601a86528981208d8416825286528981208c8916825286528981208951815498518a1668010000000000000000026fffffffffffffffffffffffffffffffff1990991699169890981796909617875592516001808801919091559251600290960180549682166001600160a01b0319909716969096179095558a518452601b83528684209051909416835292815284822086518352905292832080549293919290919061306b90849061595d565b92505081905550826001600160401b031685604001516001600160401b031686600001517f1f5de02b1d9c93ca468f54630e1daf13f6dc458a63f8061ff73e85bf9bc38884856000015186602001518a608001516040516130f1939291909283526001600160a01b039190911660208301526001600160401b0316604082015260600190565b60405180910390a4611e24565b80613135576040517f4406518e00000000000000000000000000000000000000000000000000000000815260040160405180910390fd5b6103e8601e5482613146919061595d565b1115611129576040517f79027f2f00000000000000000000000000000000000000000000000000000000815260040160405180910390fd5b6000601e54600161318f919061595d565b601e805484019055905060006131a5838361595d565b9050815b818110156131ed576131cb858260405180602001604052806000815250614504565b6131d88160016000612488565b6131e581600060016126b0565b6001016131a9565b506131f9600182615814565b60405183906001600160a01b038716907f25b428dfde728ccfaddad7e29e4ac23c24ed7fd1a6e3e3f91894a9a073f5dfff90600090a450505050565b60008281526014602090815260408083206001600160401b038516845290915290205460609060ff16613294576040517fdcc947e800000000000000000000000000000000000000000000000000000000815260040160405180910390fd5b6001600160401b0382166000908152600f6020526040902080546132b7906157c4565b80601f01602080910402602001604051908101604052809291908181526020018280546132e3906157c4565b80156133305780601f1061330557610100808354040283529160200191613330565b820191906000526020600020905b81548152906001019060200180831161331357829003601f168201915b5050505050905092915050565b6060600061334a83614539565b60010190506000816001600160401b0381111561336957613369614f19565b6040519080825280601f01601f191660200182016040528015613393576020820181803683370190505b5090508181016020015b600019017f3031323334353637383961626364656600000000000000000000000000000000600a86061a8153600a850494508461339d57509392505050565b60006133e782611802565b60008381526016602090815260408083206001600160a01b038581168086529190935281842080546001600160a01b031916938916938417905590519394508593919290917fb90cc0d925ac3511ab6af2d7ca73ffcf7ec4bd871fff36b958ecf440079c463e9190a4505050565b6001600160401b038316158061347257506001600160401b038116155b15613490576040516312c33ce360e01b815260040160405180910390fd5b6001600160401b038381166000818152601c602090815260408083206001600160a01b03881680855290835292819020805467ffffffffffffffff19169587169586179055519182527f5b5af0622001a9b735a56357ddc1abd65e6a640126498674daf9d2fb051607259101611c95565b600180546001600160a01b038381166001600160a01b0319831681179093556040519116919082907f8be0079c531659141344cd1fd0a4f28419497f9722a3daafe3b4186f6b6457e090600090a35050565b6000828152600d602052604090205481101561359b576040517f3ce62f1600000000000000000000000000000000000000000000000000000000815260040160405180910390fd5b6000828152600d602052604081206135b291614dd0565b60405182907f8ac4a0d65950c3e40448afb2260e2e0ec36ea15644d9b39e37e85472e5f9445190600090a25050565b60008060006135ef85611f4c565b509150915060006135ff86611802565b6001600160a01b0384166000908152600860205260408120805492935060019290919061362d908490615814565b909155506136389050565b604080516020810190915260009052613652600087612373565b61365b8661461b565b6000613666876119e9565b6000888152600c602052604081209192506136819190614dd0565b6000878152600d6020526040812061369891614dd0565b60008781526009602090815260408083206001600160a01b0386168452909152812080546001600160a01b031916905581518190815b818110156138b25789831061375c578481815181106136ef576136ef615860565b60200260200101516020015185828151811061370d5761370d615860565b6020908102919091010151516040517f6177b2500000000000000000000000000000000000000000000000000000000081526001600160a01b03909216600483015260248201526044016113f2565b600e600086838151811061377257613772615860565b6020026020010151602001516001600160a01b03166001600160a01b0316815260200190815260200160002060008683815181106137b2576137b2615860565b602002602001015160000151815260200190815260200160002060009055828a0393508481815181106137e7576137e7615860565b6020026020010151602001516001600160a01b031663b390c0ab86838151811061381357613813615860565b60200260200101516000015160018761382c9190615814565b6040516001600160e01b031960e085901b168152600481019290925260248201526044016020604051808303816000875af115801561386f573d6000803e3d6000fd5b505050506040513d601f19601f820116820180604052508101906138939190615ab9565b61389e90600161595d565b6138a8908461595d565b92506001016136ce565b5060008a8152600b6020526040808220828155600101805474ffffffffffffffffffffffffffffffffffffffffff19169055518b91906001600160a01b038816907fddf252ad1be2c89b69c2b068fc378daa952ba7f163c4a11628f55a4df523b3ef908390a4604080518781526000602082018190528c9290916001600160a01b038b16917f04444026cefd1b05506559cab59d1b865ae3ba4ed2fe5c894f04e522776c552d910160405180910390a46040805160208101909152600090525098975050505050505050565b61398a8484848461299f565b61399684848484614626565b6111935760405163bcb5663760e01b815260040160405180910390fd5b6001600160401b03808316600090815260176020908152604080832054878452601a83528184206001600160a01b039182168086529084528285208787168652845293829020825160808101845281548088168252680100000000000000009004909616938601939093526001830154918501919091526002909101541660608301819052909190613a71576040517f5f79f75c00000000000000000000000000000000000000000000000000000000815260040160405180910390fd5b6000858152601a602090815260408083206001600160a01b0380871685529083528184206001600160401b0388168552835281842080546fffffffffffffffffffffffffffffffff191681556001808201869055600290910180546001600160a01b0319169055898552601b8452828520606087015190921685529083528184208583015185529092528220805491929091613b0e908490615814565b92505081905550826001600160401b0316846001600160401b0316867f438e039ebbba8f290f3b5d41aaf3295eccc9b5e6b0e1d52ace700772afb7da138460400151856060015186602001516040516130f1939291909283526001600160a01b039190911660208301526001600160401b0316604082015260600190565b60008381526011602052604090205481908114613bd5576040517f6b037c3a00000000000000000000000000000000000000000000000000000000815260040160405180910390fd5b6000848152601360205260409020613bee908484614df1565b5060405184907ff0bfd70b0068f973d58178846ca67112671ec45e060838f7de5662036bcf801790600090a2611193565b81613c86576000888152601b602090815260408083206001600160a01b0388168452825280832086845290915290205415613c86576040517f1867727400000000000000000000000000000000000000000000000000000000815260040160405180910390fd5b613c968888888888888888614722565b5050505050505050565b60008281526012602052604090205481811115613ce9576040517f5134ce8900000000000000000000000000000000000000000000000000000000815260040160405180910390fd5b60005b81811015613d67576000848152601260205260408120805483908110613d1457613d14615860565b6000918252602080832060048304015488845260108252604080852060039094166008026101000a9091046001600160401b031684529190529020805467ffffffffffffffff1916905550600101613cec565b506000838152601260205260408120613d7f91614e6d565b60405160009084907f1010837a46db9510cad56c9b63e97183557a136e9d4ddbec309ce52c99afb124908390a3505050565b6000613dbd8585611d82565b9050613dca818484614935565b6001600160a01b0383166000908152600e6020908152604080832085845290915290205415613e25576040517f188a497300000000000000000000000000000000000000000000000000000000815260040160405180910390fd5b6000858152600d60205260409020613e3d9085614992565b6000858152600c6020908152604080832080546001808201835591855283852086516002909202019081558584015190820180546001600160a01b0319166001600160a01b039283161790558716808552600e8452828520878652845293829020555186815284929188917f29486b9e2ae569b440933a9b1b421467306fa21f3dcad439c262910a634963a991016130f1565b6000806000613ede84611f4c565b509150915080600014613f0157506001600160a01b038481169116149050610ece565b816001600160a01b0316856001600160a01b03161480613f4657506001600160a01b038083166000908152600a602090815260408083209389168352929052205460ff165b80613f6a5750846001600160a01b0316613f5f85610fff565b6001600160a01b0316145b95945050505050565b60005b6064811015614063576000806000856001600160a01b031663fb25fb7a866040518263ffffffff1660e01b8152600401613fb291815260200190565b606060405180830381865afa158015613fcf573d6000803e3d6000fd5b505050506040513d601f19601f82011682018060405250810190613ff39190615ad2565b925092509250806140075750505050505050565b6001600160a01b0383163014801561401e57508682145b15614055576040517f48a87cda00000000000000000000000000000000000000000000000000000000815260040160405180910390fd5b509093509150600101613f76565b506040517f6934d7a000000000000000000000000000000000000000000000000000000000815260040160405180910390fd5b604080516060810182528481526001600160a01b03808516602080840191825285151584860190815260008a8152600b9092529481209351845590516001909301805494511515600160a01b0274ffffffffffffffffffffffffffffffffffffffffff199095169390921692909217929092179091556141169085612373565b6111938461461b565b6040517f635490cc00000000000000000000000000000000000000000000000000000000815285906001600160a01b0382169063635490cc9061416a90879087908790600401615b15565b600060405180830381600087803b15801561418457600080fd5b505af1158015614198573d6000803e3d6000fd5b5050505082866001600160a01b0316886001600160a01b03167fddf252ad1be2c89b69c2b068fc378daa952ba7f163c4a11628f55a4df523b3ef60405160405180910390a482866001600160a01b0316886001600160a01b03167f04444026cefd1b05506559cab59d1b865ae3ba4ed2fe5c894f04e522776c552d888860405161422c929190918252602082015260400190565b60405180910390a46122c9565b6000838152601260205260409020548210614280576040517f0757d52100000000000000000000000000000000000000000000000000000000815260040160405180910390fd5b60008381526012602052604090208054839081106142a0576142a0615860565b90600052602060002090600491828204019190066008029054906101000a90046001600160401b03166001600160401b0316816001600160401b0316146110fe576040517f78eeeecf00000000000000000000000000000000000000000000000000000000815260040160405180910390fd5b600083815260126020526040902061432b9083614a4c565b60009283526010602090815260408085206001600160401b039093168552919052909120805467ffffffffffffffff1916905550565b60008061436d83611802565b9050806001600160a01b0316846001600160a01b031614806143b457506001600160a01b0380821660009081526015602090815260408083209388168352929052205460ff165b80610ff75750836001600160a01b03166143cd84611eae565b6001600160a01b031614949350505050565b6000806143eb83611802565b9050806001600160a01b0316846001600160a01b0316148061443257506001600160a01b038082166000908152600a602090815260408083209388168352929052205460ff165b80610ff75750836001600160a01b03166143cd84610fff565b6001600160401b038216600090815260196020908152604080832080548251818502810185019093528083526144ca93869392919083018282801561277a57600091825260209182902080546001600160401b0316845290820283019290916008910180841161273757905050505050506122d290919063ffffffff16565b915050806110fe576040517f4ef44ed500000000000000000000000000000000000000000000000000000000815260040160405180910390fd5b61450f838383614b32565b61451c6000848484614626565b6110fe5760405163bcb5663760e01b815260040160405180910390fd5b6000807a184f03e93ff9f4daa797ed6e38ed64bf6a1f0100000000000000008310614582577a184f03e93ff9f4daa797ed6e38ed64bf6a1f010000000000000000830492506040015b6d04ee2d6d415b85acef810000000083106145ae576d04ee2d6d415b85acef8100000000830492506020015b662386f26fc1000083106145cc57662386f26fc10000830492506010015b6305f5e10083106145e4576305f5e100830492506008015b61271083106145f857612710830492506004015b6064831061460a576064830492506002015b600a8310610ece5760010192915050565b6111296000826133dc565b60006001600160a01b0384163b1561471a57604051630a85bd0160e11b81526001600160a01b0385169063150b7a029061466a903390899088908890600401615b34565b6020604051808303816000875af19250505080156146a5575060408051601f3d908101601f191682019092526146a291810190615b70565b60015b614700573d8080156146d3576040519150601f19603f3d011682016040523d82523d6000602084013e6146d8565b606091505b5080516146f85760405163bcb5663760e01b815260040160405180910390fd5b805181602001fd5b6001600160e01b031916630a85bd0160e11b149050610ff7565b506001610ff7565b6040805180820190915260008082526020820152821561474d576147468987611d82565b905061475a565b6147578987611256565b90505b614765818686614935565b8215614788576000898152600d602052604090206147839087614992565b6147c2565b6001600160a01b0385166000908152600e6020908152604080832087845282528083208390558b8352600c90915290206147c29087614992565b6001600160a01b038816156148de5786614858576040517fb88d4fde0000000000000000000000000000000000000000000000000000000081526001600160a01b0386169063b88d4fde906148219030908c9089908890600401615b34565b600060405180830381600087803b15801561483b57600080fd5b505af115801561484f573d6000803e3d6000fd5b505050506148de565b602081015181516040517f064c0a3a0000000000000000000000000000000000000000000000000000000081526001600160a01b039092169163064c0a3a916148ab9130918d918d908990600401615b8d565b600060405180830381600087803b1580156148c557600080fd5b505af11580156148d9573d6000803e3d6000fd5b505050505b6040805187815284151560208201526001600160a01b038a81161582840152915186928816918c917f02d6d6dbcb604d5e1e8c7886456e82a9cdce88b0a580071358f206b5a4d58f709181900360600190a4611ea3565b82602001516001600160a01b0316826001600160a01b031614158061495b575082518114155b156110fe576040517fe707e58200000000000000000000000000000000000000000000000000000000815260040160405180910390fd5b815482906149a290600190615814565b815481106149b2576149b2615860565b90600052602060002090600202018282815481106149d2576149d2615860565b600091825260209091208254600290920201908155600191820154910180546001600160a01b0319166001600160a01b039092169190911790558154829080614a1d57614a1d615bc5565b60008281526020812060026000199093019283020190815560010180546001600160a01b031916905590555050565b81548110614a5957600080fd5b81548290614a6990600190615814565b81548110614a7957614a79615860565b90600052602060002090600491828204019190066008029054906101000a90046001600160401b0316828281548110614ab457614ab4615860565b90600052602060002090600491828204019190066008026101000a8154816001600160401b0302191690836001600160401b0316021790555081805480614afd57614afd615bc5565b60008281526020902060046000199092019182040180546001600160401b03600860038516026101000a021916905590555050565b614b3f8383600084614bc4565b60405182906001600160a01b038516906000907fddf252ad1be2c89b69c2b068fc378daa952ba7f163c4a11628f55a4df523b3ef908290a46040805160008082526020820181905284926001600160a01b038716927f04444026cefd1b05506559cab59d1b865ae3ba4ed2fe5c894f04e522776c552d910160405180910390a4505050565b6001600160a01b038416614c04576040517f25bd6bd300000000000000000000000000000000000000000000000000000000815260040160405180910390fd5b6000838152600b60205260409020600101546001600160a01b031615614c56576040517fc5a8d37100000000000000000000000000000000000000000000000000000000815260040160405180910390fd5b82614c74576040516312c33ce360e01b815260040160405180910390fd5b6001600160a01b0384166000908152600860205260408120805460019290614c9d90849061595d565b9091555050604080516060810182528381526001600160a01b0395861660208083019182529415158284019081526000968752600b9095529190942093518455516001909301805492511515600160a01b0274ffffffffffffffffffffffffffffffffffffffffff1990931693909416929092171790915550565b82805482825590600052602060002090600301600490048101928215614dc05791602002820160005b83821115614d8b57835183826101000a8154816001600160401b0302191690836001600160401b031602179055509260200192600801602081600701049283019260010302614d41565b8015614dbe5782816101000a8154906001600160401b030219169055600801602081600701049283019260010302614d8b565b505b50614dcc929150614e8e565b5090565b50805460008255600202906000526020600020908101906111299190614ea3565b82805482825590600052602060002090600301600490048101928215614dc05791602002820160005b83821115614d8b5783356001600160401b031683826101000a8154816001600160401b0302191690836001600160401b031602179055509260200192600801602081600701049283019260010302614e1a565b50805460008255600301600490049060005260206000209081019061112991905b5b80821115614dcc5760008155600101614e8f565b5b80821115614dcc57600081556001810180546001600160a01b0319169055600201614ea4565b6001600160e01b03198116811461112957600080fd5b600060208284031215614ef257600080fd5b8135614efd81614eca565b9392505050565b6001600160a01b038116811461112957600080fd5b634e487b7160e01b600052604160045260246000fd5b600082601f830112614f4057600080fd5b81356001600160401b0380821115614f5a57614f5a614f19565b604051601f8301601f19908116603f01168101908282118183101715614f8257614f82614f19565b81604052838152866020858801011115614f9b57600080fd5b836020870160208301376000602085830101528094505050505092915050565b600080600080600060a08688031215614fd357600080fd5b8535614fde81614f04565b94506020860135614fee81614f04565b9350604086013592506060860135915060808601356001600160401b0381111561501757600080fd5b61502388828901614f2f565b9150509295509295909350565b60005b8381101561504b578181015183820152602001615033565b50506000910152565b6000815180845261506c816020860160208601615030565b601f01601f19169290920160200192915050565b602081526000614efd6020830184615054565b80356001600160401b038116811461132c57600080fd5b600080600080608085870312156150c057600080fd5b84356150cb81614f04565b9350602085013592506150e060408601615093565b91506150ee60608601615093565b905092959194509250565b60006020828403121561510b57600080fd5b5035919050565b6000806040838503121561512557600080fd5b823561513081614f04565b946020939093013593505050565b60006020828403121561515057600080fd5b8135614efd81614f04565b60008060006060848603121561517057600080fd5b8335925061518060208501615093565b915061518e60408501615093565b90509250925092565b600080604083850312156151aa57600080fd5b82356151b581614f04565b915060208301356151c581614f04565b809150509250929050565b6000806000606084860312156151e557600080fd5b833592506020840135915061518e60408501615093565b60008060006060848603121561521157600080fd5b833561521c81614f04565b9250602084013561522c81614f04565b929592945050506040919091013590565b60008083601f84011261524f57600080fd5b5081356001600160401b0381111561526657600080fd5b6020830191508360208260051b850101111561233457600080fd5b60008060008060006080868803121561529957600080fd5b6152a286615093565b945060208601356152b281614f04565b935060408601356001600160401b03808211156152ce57600080fd5b6152da89838a01614f2f565b945060608801359150808211156152f057600080fd5b506152fd8882890161523d565b969995985093965092949392505050565b6000806040838503121561532157600080fd5b50508035926020909101359150565b815181526020808301516001600160a01b03169082015260408101610ece565b60006020828403121561536257600080fd5b81356001600160401b0381111561537857600080fd5b610ff784828501614f2f565b600060a0828403121561539657600080fd5b60405160a081018181106001600160401b03821117156153b8576153b8614f19565b806040525082358152602083013560208201526153d760408401615093565b60408201526153e860608401615093565b60608201526153f960808401615093565b60808201529392505050565b602080825282518282018190526000919060409081850190868401855b8281101561545857615448848351805182526020908101516001600160a01b0316910152565b9284019290850190600101615422565b5091979650505050505050565b6000806040838503121561547857600080fd5b8235915061124d60208401615093565b600081518084526020808501945080840160005b838110156154c15781516001600160401b03168752958201959082019060010161549c565b509495945050505050565b6080815260006154df6080830187615054565b6001600160401b03861660208401526001600160a01b0385166040840152828103606084015261550f8185615488565b979650505050505050565b602081526000614efd6020830184615488565b60008060006060848603121561554257600080fd5b833592506020840135915060408401356001600160401b0381111561556657600080fd5b61557286828701614f2f565b9150509250925092565b60008060006060848603121561559157600080fd5b61559a84615093565b9250602084013561518081614f04565b6000806000606084860312156155bf57600080fd5b83359250602084013561518081614f04565b801515811461112957600080fd5b600080604083850312156155f257600080fd5b82356155fd81614f04565b915060208301356151c5816155d1565b6000806000806080858703121561562357600080fd5b843561562e81614f04565b9350602085013561563e81614f04565b92506040850135915060608501356001600160401b0381111561566057600080fd5b61566c87828801614f2f565b91505092959194509250565b60008060006040848603121561568d57600080fd5b8335925060208401356001600160401b038111156156aa57600080fd5b6156b68682870161523d565b9497909650939450505050565b600080600080600080600080610100898b0312156156e057600080fd5b8835975060208901356156f281614f04565b96506040890135955060608901359450608089013561571081614f04565b935060a0890135925060c0890135615727816155d1565b915060e08901356001600160401b0381111561574257600080fd5b61574e8b828c01614f2f565b9150509295985092959890939650565b6000806000806080858703121561577457600080fd5b8435935060208501359250604085013561578d81614f04565b9396929550929360600135925050565b6000806000606084860312156157b257600080fd5b83359250602084013561522c81614f04565b600181811c908216806157d857607f821691505b6020821081036157f857634e487b7160e01b600052602260045260246000fd5b50919050565b634e487b7160e01b600052601160045260246000fd5b81810381811115610ece57610ece6157fe565b8082028115828204841417610ece57610ece6157fe565b60008261585b57634e487b7160e01b600052601260045260246000fd5b500490565b634e487b7160e01b600052603260045260246000fd5b60008351615888818460208801615030565b83519083019061589c818360208801615030565b01949350505050565b6000602082840312156158b757600080fd5b8151614efd81614f04565b60008084546158d0816157c4565b600182811680156158e857600181146158fd5761592c565b60ff198416875282151583028701945061592c565b8860005260208060002060005b858110156159235781548a82015290840190820161590a565b50505082870194505b50505050835161589c818360208801615030565b60006020828403121561595257600080fd5b8151614efd816155d1565b80820180821115610ece57610ece6157fe565b6020808252825182820181905260009190848201906040850190845b818110156159a85783518352928401929184019160010161598c565b50909695505050505050565b601f8211156110fe57600081815260208120601f850160051c810160208610156159db5750805b601f850160051c820191505b81811015610eeb578281556001016159e7565b81516001600160401b03811115615a1357615a13614f19565b615a2781615a2184546157c4565b846159b4565b602080601f831160018114615a5c5760008415615a445750858301515b600019600386901b1c1916600185901b178555610eeb565b600085815260208120601f198616915b82811015615a8b57888601518255948401946001909101908401615a6c565b5085821015615aa95787850151600019600388901b60f8161c191681555b5050505050600190811b01905550565b600060208284031215615acb57600080fd5b5051919050565b600080600060608486031215615ae757600080fd5b8351615af281614f04565b602085015160408601519194509250615b0a816155d1565b809150509250925092565b838152826020820152606060408201526000613f6a6060830184615054565b60006001600160a01b03808716835280861660208401525083604083015260806060830152615b666080830184615054565b9695505050505050565b600060208284031215615b8257600080fd5b8151614efd81614eca565b60006001600160a01b03808816835280871660208401525084604083015283606083015260a0608083015261550f60a0830184615054565b634e487b7160e01b600052603160045260246000fdfea2646970667358221220274d5af6b7c281b7206111620a09c3bca298da178c93b1a202cf2b6d723e633064736f6c63430008120033",
  "linkReferences": {},
  "deployedLinkReferences": {}
}